{
  "contractName": "Postcard",
  "abi": [
    {
      "inputs": [],
      "stateMutability": "nonpayable",
      "type": "constructor"
    },
    {
      "anonymous": false,
      "inputs": [
        {
          "indexed": true,
          "internalType": "address",
          "name": "owner",
          "type": "address"
        },
        {
          "indexed": true,
          "internalType": "address",
          "name": "approved",
          "type": "address"
        },
        {
          "indexed": true,
          "internalType": "uint256",
          "name": "tokenId",
          "type": "uint256"
        }
      ],
      "name": "Approval",
      "type": "event"
    },
    {
      "anonymous": false,
      "inputs": [
        {
          "indexed": true,
          "internalType": "address",
          "name": "owner",
          "type": "address"
        },
        {
          "indexed": true,
          "internalType": "address",
          "name": "operator",
          "type": "address"
        },
        {
          "indexed": false,
          "internalType": "bool",
          "name": "approved",
          "type": "bool"
        }
      ],
      "name": "ApprovalForAll",
      "type": "event"
    },
    {
      "anonymous": false,
      "inputs": [
        {
          "indexed": true,
          "internalType": "address",
          "name": "previousOwner",
          "type": "address"
        },
        {
          "indexed": true,
          "internalType": "address",
          "name": "newOwner",
          "type": "address"
        }
      ],
      "name": "OwnershipTransferred",
      "type": "event"
    },
    {
      "anonymous": false,
      "inputs": [
        {
          "indexed": true,
          "internalType": "address",
          "name": "from",
          "type": "address"
        },
        {
          "indexed": true,
          "internalType": "address",
          "name": "to",
          "type": "address"
        },
        {
          "indexed": true,
          "internalType": "uint256",
          "name": "tokenId",
          "type": "uint256"
        }
      ],
      "name": "Transfer",
      "type": "event"
    },
    {
      "inputs": [
        {
          "internalType": "address",
          "name": "to",
          "type": "address"
        },
        {
          "internalType": "uint256",
          "name": "tokenId",
          "type": "uint256"
        }
      ],
      "name": "approve",
      "outputs": [],
      "stateMutability": "nonpayable",
      "type": "function"
    },
    {
      "inputs": [
        {
          "internalType": "address",
          "name": "owner",
          "type": "address"
        }
      ],
      "name": "balanceOf",
      "outputs": [
        {
          "internalType": "uint256",
          "name": "",
          "type": "uint256"
        }
      ],
      "stateMutability": "view",
      "type": "function",
      "constant": true
    },
    {
      "inputs": [
        {
          "internalType": "uint256",
          "name": "tokenId",
          "type": "uint256"
        }
      ],
      "name": "getApproved",
      "outputs": [
        {
          "internalType": "address",
          "name": "",
          "type": "address"
        }
      ],
      "stateMutability": "view",
      "type": "function",
      "constant": true
    },
    {
      "inputs": [
        {
          "internalType": "address",
          "name": "owner",
          "type": "address"
        },
        {
          "internalType": "address",
          "name": "operator",
          "type": "address"
        }
      ],
      "name": "isApprovedForAll",
      "outputs": [
        {
          "internalType": "bool",
          "name": "",
          "type": "bool"
        }
      ],
      "stateMutability": "view",
      "type": "function",
      "constant": true
    },
    {
      "inputs": [],
      "name": "name",
      "outputs": [
        {
          "internalType": "string",
          "name": "",
          "type": "string"
        }
      ],
      "stateMutability": "view",
      "type": "function",
      "constant": true
    },
    {
      "inputs": [],
      "name": "owner",
      "outputs": [
        {
          "internalType": "address",
          "name": "",
          "type": "address"
        }
      ],
      "stateMutability": "view",
      "type": "function",
      "constant": true
    },
    {
      "inputs": [
        {
          "internalType": "uint256",
          "name": "tokenId",
          "type": "uint256"
        }
      ],
      "name": "ownerOf",
      "outputs": [
        {
          "internalType": "address",
          "name": "",
          "type": "address"
        }
      ],
      "stateMutability": "view",
      "type": "function",
      "constant": true
    },
    {
      "inputs": [],
      "name": "renounceOwnership",
      "outputs": [],
      "stateMutability": "nonpayable",
      "type": "function"
    },
    {
      "inputs": [
        {
          "internalType": "address",
          "name": "from",
          "type": "address"
        },
        {
          "internalType": "address",
          "name": "to",
          "type": "address"
        },
        {
          "internalType": "uint256",
          "name": "tokenId",
          "type": "uint256"
        }
      ],
      "name": "safeTransferFrom",
      "outputs": [],
      "stateMutability": "nonpayable",
      "type": "function"
    },
    {
      "inputs": [
        {
          "internalType": "address",
          "name": "from",
          "type": "address"
        },
        {
          "internalType": "address",
          "name": "to",
          "type": "address"
        },
        {
          "internalType": "uint256",
          "name": "tokenId",
          "type": "uint256"
        },
        {
          "internalType": "bytes",
          "name": "_data",
          "type": "bytes"
        }
      ],
      "name": "safeTransferFrom",
      "outputs": [],
      "stateMutability": "nonpayable",
      "type": "function"
    },
    {
      "inputs": [
        {
          "internalType": "address",
          "name": "operator",
          "type": "address"
        },
        {
          "internalType": "bool",
          "name": "approved",
          "type": "bool"
        }
      ],
      "name": "setApprovalForAll",
      "outputs": [],
      "stateMutability": "nonpayable",
      "type": "function"
    },
    {
      "inputs": [
        {
          "internalType": "bytes4",
          "name": "interfaceId",
          "type": "bytes4"
        }
      ],
      "name": "supportsInterface",
      "outputs": [
        {
          "internalType": "bool",
          "name": "",
          "type": "bool"
        }
      ],
      "stateMutability": "view",
      "type": "function",
      "constant": true
    },
    {
      "inputs": [],
      "name": "symbol",
      "outputs": [
        {
          "internalType": "string",
          "name": "",
          "type": "string"
        }
      ],
      "stateMutability": "view",
      "type": "function",
      "constant": true
    },
    {
      "inputs": [
        {
          "internalType": "uint256",
          "name": "tokenId",
          "type": "uint256"
        }
      ],
      "name": "tokenURI",
      "outputs": [
        {
          "internalType": "string",
          "name": "",
          "type": "string"
        }
      ],
      "stateMutability": "view",
      "type": "function",
      "constant": true
    },
    {
      "inputs": [
        {
          "internalType": "address",
          "name": "from",
          "type": "address"
        },
        {
          "internalType": "address",
          "name": "to",
          "type": "address"
        },
        {
          "internalType": "uint256",
          "name": "tokenId",
          "type": "uint256"
        }
      ],
      "name": "transferFrom",
      "outputs": [],
      "stateMutability": "nonpayable",
      "type": "function"
    },
    {
      "inputs": [
        {
          "internalType": "address",
          "name": "newOwner",
          "type": "address"
        }
      ],
      "name": "transferOwnership",
      "outputs": [],
      "stateMutability": "nonpayable",
      "type": "function"
    },
    {
      "inputs": [],
      "name": "totalSupply",
      "outputs": [
        {
          "internalType": "uint256",
          "name": "",
          "type": "uint256"
        }
      ],
      "stateMutability": "view",
      "type": "function",
      "constant": true
    },
    {
      "inputs": [],
      "name": "contractURI",
      "outputs": [
        {
          "internalType": "string",
          "name": "",
          "type": "string"
        }
      ],
      "stateMutability": "pure",
      "type": "function",
      "constant": true
    },
    {
      "inputs": [
        {
          "internalType": "string",
          "name": "baseURI_",
          "type": "string"
        }
      ],
      "name": "setBaseURI",
      "outputs": [],
      "stateMutability": "nonpayable",
      "type": "function"
    },
    {
      "inputs": [
        {
          "internalType": "string",
          "name": "tokenHash",
          "type": "string"
        }
      ],
      "name": "mint",
      "outputs": [
        {
          "internalType": "uint256",
          "name": "",
          "type": "uint256"
        }
      ],
      "stateMutability": "nonpayable",
      "type": "function"
    },
    {
      "inputs": [
        {
          "internalType": "string",
          "name": "tokenHash",
          "type": "string"
        },
        {
          "internalType": "uint256",
          "name": "numberOfTokens",
          "type": "uint256"
        }
      ],
      "name": "duplicateMint",
      "outputs": [],
      "stateMutability": "nonpayable",
      "type": "function"
    },
    {
      "inputs": [
        {
          "internalType": "string",
          "name": "tokenHash",
          "type": "string"
        }
      ],
      "name": "oldDuplicateMint",
      "outputs": [
        {
          "internalType": "uint256",
          "name": "",
          "type": "uint256"
        }
      ],
      "stateMutability": "nonpayable",
      "type": "function"
    }
  ],
  "bytecode": "0x60806040526040518060400160405280601581526020017f68747470733a2f2f697066732e696f2f697066732f0000000000000000000000815250600a908051906020019062000051929190620001f4565b503480156200005f57600080fd5b506040518060400160405280600881526020017f506f7374636172640000000000000000000000000000000000000000000000008152506040518060400160405280600381526020017f50534300000000000000000000000000000000000000000000000000000000008152508160009080519060200190620000e4929190620001f4565b508060019080519060200190620000fd929190620001f4565b50505062000120620001146200012660201b60201c565b6200012e60201b60201c565b62000309565b600033905090565b6000600760009054906101000a900473ffffffffffffffffffffffffffffffffffffffff16905081600760006101000a81548173ffffffffffffffffffffffffffffffffffffffff021916908373ffffffffffffffffffffffffffffffffffffffff1602179055508173ffffffffffffffffffffffffffffffffffffffff168173ffffffffffffffffffffffffffffffffffffffff167f8be0079c531659141344cd1fd0a4f28419497f9722a3daafe3b4186f6b6457e060405160405180910390a35050565b8280546200020290620002a4565b90600052602060002090601f01602090048101928262000226576000855562000272565b82601f106200024157805160ff191683800117855562000272565b8280016001018555821562000272579182015b828111156200027157825182559160200191906001019062000254565b5b50905062000281919062000285565b5090565b5b80821115620002a057600081600090555060010162000286565b5090565b60006002820490506001821680620002bd57607f821691505b60208210811415620002d457620002d3620002da565b5b50919050565b7f4e487b7100000000000000000000000000000000000000000000000000000000600052602260045260246000fd5b6135a980620003196000396000f3fe608060405234801561001057600080fd5b50600436106101425760003560e01c806370a08231116100b8578063b88d4fde1161007c578063b88d4fde14610361578063c87b56dd1461037d578063d85d3d27146103ad578063e8a3d485146103dd578063e985e9c5146103fb578063f2fde38b1461042b57610142565b806370a08231146102cf578063715018a6146102ff5780638da5cb5b1461030957806395d89b4114610327578063a22cb4651461034557610142565b806318160ddd1161010a57806318160ddd1461021157806323b872dd1461022f578063343c06961461024b57806342842e0e1461026757806355f804b3146102835780636352211e1461029f57610142565b806301ffc9a71461014757806306fdde0314610177578063081812fc14610195578063095ea7b3146101c557806310eb8e0b146101e1575b600080fd5b610161600480360381019061015c91906124c4565b610447565b60405161016e9190612e1a565b60405180910390f35b61017f610529565b60405161018c9190612e35565b60405180910390f35b6101af60048036038101906101aa91906125ab565b6105bb565b6040516101bc9190612db3565b60405180910390f35b6101df60048036038101906101da9190612488565b610640565b005b6101fb60048036038101906101f69190612516565b610758565b60405161020891906130b7565b60405180910390f35b610219610843565b60405161022691906130b7565b60405180910390f35b61024960048036038101906102449190612382565b610854565b005b61026560048036038101906102609190612557565b6108b4565b005b610281600480360381019061027c9190612382565b610a6e565b005b61029d60048036038101906102989190612516565b610a8e565b005b6102b960048036038101906102b491906125ab565b610b24565b6040516102c69190612db3565b60405180910390f35b6102e960048036038101906102e4919061231d565b610bd6565b6040516102f691906130b7565b60405180910390f35b610307610c8e565b005b610311610d16565b60405161031e9190612db3565b60405180910390f35b61032f610d40565b60405161033c9190612e35565b60405180910390f35b61035f600480360381019061035a919061244c565b610dd2565b005b61037b600480360381019061037691906123d1565b610f53565b005b610397600480360381019061039291906125ab565b610fb5565b6040516103a49190612e35565b60405180910390f35b6103c760048036038101906103c29190612516565b611107565b6040516103d491906130b7565b60405180910390f35b6103e561122e565b6040516103f29190612e35565b60405180910390f35b61041560048036038101906104109190612346565b61124e565b6040516104229190612e1a565b60405180910390f35b6104456004803603810190610440919061231d565b6112e2565b005b60007f80ac58cd000000000000000000000000000000000000000000000000000000007bffffffffffffffffffffffffffffffffffffffffffffffffffffffff1916827bffffffffffffffffffffffffffffffffffffffffffffffffffffffff1916148061051257507f5b5e139f000000000000000000000000000000000000000000000000000000007bffffffffffffffffffffffffffffffffffffffffffffffffffffffff1916827bffffffffffffffffffffffffffffffffffffffffffffffffffffffff1916145b806105225750610521826113da565b5b9050919050565b6060600080546105389061335b565b80601f01602080910402602001604051908101604052809291908181526020018280546105649061335b565b80156105b15780601f10610586576101008083540402835291602001916105b1565b820191906000526020600020905b81548152906001019060200180831161059457829003601f168201915b5050505050905090565b60006105c682611444565b610605576040517f08c379a00000000000000000000000000000000000000000000000000000000081526004016105fc90612ff7565b60405180910390fd5b6004600083815260200190815260200160002060009054906101000a900473ffffffffffffffffffffffffffffffffffffffff169050919050565b600061064b82610b24565b90508073ffffffffffffffffffffffffffffffffffffffff168373ffffffffffffffffffffffffffffffffffffffff1614156106bc576040517f08c379a00000000000000000000000000000000000000000000000000000000081526004016106b390613077565b60405180910390fd5b8073ffffffffffffffffffffffffffffffffffffffff166106db6114b0565b73ffffffffffffffffffffffffffffffffffffffff16148061070a5750610709816107046114b0565b61124e565b5b610749576040517f08c379a000000000000000000000000000000000000000000000000000000000815260040161074090612f37565b60405180910390fd5b61075383836114b8565b505050565b60006107626114b0565b73ffffffffffffffffffffffffffffffffffffffff16610780610d16565b73ffffffffffffffffffffffffffffffffffffffff16146107d6576040517f08c379a00000000000000000000000000000000000000000000000000000000081526004016107cd90613017565b60405180910390fd5b60016009836040516107e89190612d78565b908152602001604051809103902060006101000a81548160ff021916908360ff1602179055506108186008611571565b60006108246008611587565b90506108303382611595565b61083a8184611763565b80915050919050565b600061084f6008611587565b905090565b61086561085f6114b0565b826117d7565b6108a4576040517f08c379a000000000000000000000000000000000000000000000000000000000815260040161089b90613097565b60405180910390fd5b6108af8383836118b5565b505050565b6108bc6114b0565b73ffffffffffffffffffffffffffffffffffffffff166108da610d16565b73ffffffffffffffffffffffffffffffffffffffff1614610930576040517f08c379a000000000000000000000000000000000000000000000000000000000815260040161092790613017565b60405180910390fd5b600a811115610974576040517f08c379a000000000000000000000000000000000000000000000000000000000815260040161096b90612f17565b60405180910390fd5b60646009836040516109869190612d78565b908152602001604051809103902060009054906101000a900460ff1660ff1611156109b057600080fd5b60005b81811015610a695760016009846040516109cd9190612d78565b908152602001604051809103902060009054906101000a900460ff166109f391906131fc565b600984604051610a039190612d78565b908152602001604051809103902060006101000a81548160ff021916908360ff160217905550610a336008611571565b6000610a3f6008611587565b9050610a4b3382611b11565b610a558185611763565b508080610a619061338d565b9150506109b3565b505050565b610a8983838360405180602001604052806000815250610f53565b505050565b610a966114b0565b73ffffffffffffffffffffffffffffffffffffffff16610ab4610d16565b73ffffffffffffffffffffffffffffffffffffffff1614610b0a576040517f08c379a0000000000000000000000000000000000000000000000000000000008152600401610b0190613017565b60405180910390fd5b80600a9080519060200190610b20929190612141565b5050565b6000806002600084815260200190815260200160002060009054906101000a900473ffffffffffffffffffffffffffffffffffffffff169050600073ffffffffffffffffffffffffffffffffffffffff168173ffffffffffffffffffffffffffffffffffffffff161415610bcd576040517f08c379a0000000000000000000000000000000000000000000000000000000008152600401610bc490612f77565b60405180910390fd5b80915050919050565b60008073ffffffffffffffffffffffffffffffffffffffff168273ffffffffffffffffffffffffffffffffffffffff161415610c47576040517f08c379a0000000000000000000000000000000000000000000000000000000008152600401610c3e90612f57565b60405180910390fd5b600360008373ffffffffffffffffffffffffffffffffffffffff1673ffffffffffffffffffffffffffffffffffffffff168152602001908152602001600020549050919050565b610c966114b0565b73ffffffffffffffffffffffffffffffffffffffff16610cb4610d16565b73ffffffffffffffffffffffffffffffffffffffff1614610d0a576040517f08c379a0000000000000000000000000000000000000000000000000000000008152600401610d0190613017565b60405180910390fd5b610d146000611b2f565b565b6000600760009054906101000a900473ffffffffffffffffffffffffffffffffffffffff16905090565b606060018054610d4f9061335b565b80601f0160208091040260200160405190810160405280929190818152602001828054610d7b9061335b565b8015610dc85780601f10610d9d57610100808354040283529160200191610dc8565b820191906000526020600020905b815481529060010190602001808311610dab57829003601f168201915b5050505050905090565b610dda6114b0565b73ffffffffffffffffffffffffffffffffffffffff168273ffffffffffffffffffffffffffffffffffffffff161415610e48576040517f08c379a0000000000000000000000000000000000000000000000000000000008152600401610e3f90612ed7565b60405180910390fd5b8060056000610e556114b0565b73ffffffffffffffffffffffffffffffffffffffff1673ffffffffffffffffffffffffffffffffffffffff16815260200190815260200160002060008473ffffffffffffffffffffffffffffffffffffffff1673ffffffffffffffffffffffffffffffffffffffff16815260200190815260200160002060006101000a81548160ff0219169083151502179055508173ffffffffffffffffffffffffffffffffffffffff16610f026114b0565b73ffffffffffffffffffffffffffffffffffffffff167f17307eab39ab6107e8899845ad3d59bd9653f200f220920489ca2b5937696c3183604051610f479190612e1a565b60405180910390a35050565b610f64610f5e6114b0565b836117d7565b610fa3576040517f08c379a0000000000000000000000000000000000000000000000000000000008152600401610f9a90613097565b60405180910390fd5b610faf84848484611bf5565b50505050565b6060610fc082611444565b610fff576040517f08c379a0000000000000000000000000000000000000000000000000000000008152600401610ff690612fd7565b60405180910390fd5b600060066000848152602001908152602001600020805461101f9061335b565b80601f016020809104026020016040519081016040528092919081815260200182805461104b9061335b565b80156110985780601f1061106d57610100808354040283529160200191611098565b820191906000526020600020905b81548152906001019060200180831161107b57829003601f168201915b5050505050905060006110a9611c51565b90506000815114156110bf578192505050611102565b6000825111156110f45780826040516020016110dc929190612d8f565b60405160208183030381529060405292505050611102565b6110fd84611ce3565b925050505b919050565b60006111116114b0565b73ffffffffffffffffffffffffffffffffffffffff1661112f610d16565b73ffffffffffffffffffffffffffffffffffffffff1614611185576040517f08c379a000000000000000000000000000000000000000000000000000000000815260040161117c90613017565b60405180910390fd5b60016009836040516111979190612d78565b908152602001604051809103902060009054906101000a900460ff1660ff1614156111c157600080fd5b60016009836040516111d39190612d78565b908152602001604051809103902060006101000a81548160ff021916908360ff1602179055506112036008611571565b600061120f6008611587565b905061121b3382611595565b6112258184611763565b80915050919050565b606060405180608001604052806043815260200161353160439139905090565b6000600560008473ffffffffffffffffffffffffffffffffffffffff1673ffffffffffffffffffffffffffffffffffffffff16815260200190815260200160002060008373ffffffffffffffffffffffffffffffffffffffff1673ffffffffffffffffffffffffffffffffffffffff16815260200190815260200160002060009054906101000a900460ff16905092915050565b6112ea6114b0565b73ffffffffffffffffffffffffffffffffffffffff16611308610d16565b73ffffffffffffffffffffffffffffffffffffffff161461135e576040517f08c379a000000000000000000000000000000000000000000000000000000000815260040161135590613017565b60405180910390fd5b600073ffffffffffffffffffffffffffffffffffffffff168173ffffffffffffffffffffffffffffffffffffffff1614156113ce576040517f08c379a00000000000000000000000000000000000000000000000000000000081526004016113c590612e77565b60405180910390fd5b6113d781611b2f565b50565b60007f01ffc9a7000000000000000000000000000000000000000000000000000000007bffffffffffffffffffffffffffffffffffffffffffffffffffffffff1916827bffffffffffffffffffffffffffffffffffffffffffffffffffffffff1916149050919050565b60008073ffffffffffffffffffffffffffffffffffffffff166002600084815260200190815260200160002060009054906101000a900473ffffffffffffffffffffffffffffffffffffffff1673ffffffffffffffffffffffffffffffffffffffff1614159050919050565b600033905090565b816004600083815260200190815260200160002060006101000a81548173ffffffffffffffffffffffffffffffffffffffff021916908373ffffffffffffffffffffffffffffffffffffffff160217905550808273ffffffffffffffffffffffffffffffffffffffff1661152b83610b24565b73ffffffffffffffffffffffffffffffffffffffff167f8c5be1e5ebec7d5bd14f71427d1e84f3dd0314c0f7b2291e5b200ac8c7c3b92560405160405180910390a45050565b6001816000016000828254019250508190555050565b600081600001549050919050565b600073ffffffffffffffffffffffffffffffffffffffff168273ffffffffffffffffffffffffffffffffffffffff161415611605576040517f08c379a00000000000000000000000000000000000000000000000000000000081526004016115fc90612fb7565b60405180910390fd5b61160e81611444565b1561164e576040517f08c379a000000000000000000000000000000000000000000000000000000000815260040161164590612e97565b60405180910390fd5b61165a60008383611d8a565b6001600360008473ffffffffffffffffffffffffffffffffffffffff1673ffffffffffffffffffffffffffffffffffffffff16815260200190815260200160002060008282546116aa91906131a6565b92505081905550816002600083815260200190815260200160002060006101000a81548173ffffffffffffffffffffffffffffffffffffffff021916908373ffffffffffffffffffffffffffffffffffffffff160217905550808273ffffffffffffffffffffffffffffffffffffffff16600073ffffffffffffffffffffffffffffffffffffffff167fddf252ad1be2c89b69c2b068fc378daa952ba7f163c4a11628f55a4df523b3ef60405160405180910390a45050565b61176c82611444565b6117ab576040517f08c379a00000000000000000000000000000000000000000000000000000000081526004016117a290612f97565b60405180910390fd5b806006600084815260200190815260200160002090805190602001906117d2929190612141565b505050565b60006117e282611444565b611821576040517f08c379a000000000000000000000000000000000000000000000000000000000815260040161181890612ef7565b60405180910390fd5b600061182c83610b24565b90508073ffffffffffffffffffffffffffffffffffffffff168473ffffffffffffffffffffffffffffffffffffffff16148061189b57508373ffffffffffffffffffffffffffffffffffffffff16611883846105bb565b73ffffffffffffffffffffffffffffffffffffffff16145b806118ac57506118ab818561124e565b5b91505092915050565b8273ffffffffffffffffffffffffffffffffffffffff166118d582610b24565b73ffffffffffffffffffffffffffffffffffffffff161461192b576040517f08c379a000000000000000000000000000000000000000000000000000000000815260040161192290613037565b60405180910390fd5b600073ffffffffffffffffffffffffffffffffffffffff168273ffffffffffffffffffffffffffffffffffffffff16141561199b576040517f08c379a000000000000000000000000000000000000000000000000000000000815260040161199290612eb7565b60405180910390fd5b6119a6838383611d8a565b6119b16000826114b8565b6001600360008573ffffffffffffffffffffffffffffffffffffffff1673ffffffffffffffffffffffffffffffffffffffff1681526020019081526020016000206000828254611a019190613264565b925050819055506001600360008473ffffffffffffffffffffffffffffffffffffffff1673ffffffffffffffffffffffffffffffffffffffff1681526020019081526020016000206000828254611a5891906131a6565b92505081905550816002600083815260200190815260200160002060006101000a81548173ffffffffffffffffffffffffffffffffffffffff021916908373ffffffffffffffffffffffffffffffffffffffff160217905550808273ffffffffffffffffffffffffffffffffffffffff168473ffffffffffffffffffffffffffffffffffffffff167fddf252ad1be2c89b69c2b068fc378daa952ba7f163c4a11628f55a4df523b3ef60405160405180910390a4505050565b611b2b828260405180602001604052806000815250611d8f565b5050565b6000600760009054906101000a900473ffffffffffffffffffffffffffffffffffffffff16905081600760006101000a81548173ffffffffffffffffffffffffffffffffffffffff021916908373ffffffffffffffffffffffffffffffffffffffff1602179055508173ffffffffffffffffffffffffffffffffffffffff168173ffffffffffffffffffffffffffffffffffffffff167f8be0079c531659141344cd1fd0a4f28419497f9722a3daafe3b4186f6b6457e060405160405180910390a35050565b611c008484846118b5565b611c0c84848484611dea565b611c4b576040517f08c379a0000000000000000000000000000000000000000000000000000000008152600401611c4290612e57565b60405180910390fd5b50505050565b6060600a8054611c609061335b565b80601f0160208091040260200160405190810160405280929190818152602001828054611c8c9061335b565b8015611cd95780601f10611cae57610100808354040283529160200191611cd9565b820191906000526020600020905b815481529060010190602001808311611cbc57829003601f168201915b5050505050905090565b6060611cee82611444565b611d2d576040517f08c379a0000000000000000000000000000000000000000000000000000000008152600401611d2490613057565b60405180910390fd5b6000611d37611c51565b90506000815111611d575760405180602001604052806000815250611d82565b80611d6184611f81565b604051602001611d72929190612d8f565b6040516020818303038152906040525b915050919050565b505050565b611d998383611595565b611da66000848484611dea565b611de5576040517f08c379a0000000000000000000000000000000000000000000000000000000008152600401611ddc90612e57565b60405180910390fd5b505050565b6000611e0b8473ffffffffffffffffffffffffffffffffffffffff1661212e565b15611f74578373ffffffffffffffffffffffffffffffffffffffff1663150b7a02611e346114b0565b8786866040518563ffffffff1660e01b8152600401611e569493929190612dce565b602060405180830381600087803b158015611e7057600080fd5b505af1925050508015611ea157506040513d601f19601f82011682018060405250810190611e9e91906124ed565b60015b611f24573d8060008114611ed1576040519150601f19603f3d011682016040523d82523d6000602084013e611ed6565b606091505b50600081511415611f1c576040517f08c379a0000000000000000000000000000000000000000000000000000000008152600401611f1390612e57565b60405180910390fd5b805181602001fd5b63150b7a0260e01b7bffffffffffffffffffffffffffffffffffffffffffffffffffffffff1916817bffffffffffffffffffffffffffffffffffffffffffffffffffffffff191614915050611f79565b600190505b949350505050565b60606000821415611fc9576040518060400160405280600181526020017f30000000000000000000000000000000000000000000000000000000000000008152509050612129565b600082905060005b60008214611ffb578080611fe49061338d565b915050600a82611ff49190613233565b9150611fd1565b60008167ffffffffffffffff81111561203d577f4e487b7100000000000000000000000000000000000000000000000000000000600052604160045260246000fd5b6040519080825280601f01601f19166020018201604052801561206f5781602001600182028036833780820191505090505b5090505b60008514612122576001826120889190613264565b9150600a8561209791906133d6565b60306120a391906131a6565b60f81b8183815181106120df577f4e487b7100000000000000000000000000000000000000000000000000000000600052603260045260246000fd5b60200101907effffffffffffffffffffffffffffffffffffffffffffffffffffffffffffff1916908160001a905350600a8561211b9190613233565b9450612073565b8093505050505b919050565b600080823b905060008111915050919050565b82805461214d9061335b565b90600052602060002090601f01602090048101928261216f57600085556121b6565b82601f1061218857805160ff19168380011785556121b6565b828001600101855582156121b6579182015b828111156121b557825182559160200191906001019061219a565b5b5090506121c391906121c7565b5090565b5b808211156121e05760008160009055506001016121c8565b5090565b60006121f76121f284613103565b6130d2565b90508281526020810184848401111561220f57600080fd5b61221a848285613319565b509392505050565b600061223561223084613133565b6130d2565b90508281526020810184848401111561224d57600080fd5b612258848285613319565b509392505050565b60008135905061226f816134d4565b92915050565b600081359050612284816134eb565b92915050565b60008135905061229981613502565b92915050565b6000815190506122ae81613502565b92915050565b600082601f8301126122c557600080fd5b81356122d58482602086016121e4565b91505092915050565b600082601f8301126122ef57600080fd5b81356122ff848260208601612222565b91505092915050565b60008135905061231781613519565b92915050565b60006020828403121561232f57600080fd5b600061233d84828501612260565b91505092915050565b6000806040838503121561235957600080fd5b600061236785828601612260565b925050602061237885828601612260565b9150509250929050565b60008060006060848603121561239757600080fd5b60006123a586828701612260565b93505060206123b686828701612260565b92505060406123c786828701612308565b9150509250925092565b600080600080608085870312156123e757600080fd5b60006123f587828801612260565b945050602061240687828801612260565b935050604061241787828801612308565b925050606085013567ffffffffffffffff81111561243457600080fd5b612440878288016122b4565b91505092959194509250565b6000806040838503121561245f57600080fd5b600061246d85828601612260565b925050602061247e85828601612275565b9150509250929050565b6000806040838503121561249b57600080fd5b60006124a985828601612260565b92505060206124ba85828601612308565b9150509250929050565b6000602082840312156124d657600080fd5b60006124e48482850161228a565b91505092915050565b6000602082840312156124ff57600080fd5b600061250d8482850161229f565b91505092915050565b60006020828403121561252857600080fd5b600082013567ffffffffffffffff81111561254257600080fd5b61254e848285016122de565b91505092915050565b6000806040838503121561256a57600080fd5b600083013567ffffffffffffffff81111561258457600080fd5b612590858286016122de565b92505060206125a185828601612308565b9150509250929050565b6000602082840312156125bd57600080fd5b60006125cb84828501612308565b91505092915050565b6125dd81613298565b82525050565b6125ec816132aa565b82525050565b60006125fd82613163565b6126078185613179565b9350612617818560208601613328565b612620816134c3565b840191505092915050565b60006126368261316e565b612640818561318a565b9350612650818560208601613328565b612659816134c3565b840191505092915050565b600061266f8261316e565b612679818561319b565b9350612689818560208601613328565b80840191505092915050565b60006126a260328361318a565b91507f4552433732313a207472616e7366657220746f206e6f6e20455243373231526560008301527f63656976657220696d706c656d656e74657200000000000000000000000000006020830152604082019050919050565b600061270860268361318a565b91507f4f776e61626c653a206e6577206f776e657220697320746865207a65726f206160008301527f64647265737300000000000000000000000000000000000000000000000000006020830152604082019050919050565b600061276e601c8361318a565b91507f4552433732313a20746f6b656e20616c7265616479206d696e746564000000006000830152602082019050919050565b60006127ae60248361318a565b91507f4552433732313a207472616e7366657220746f20746865207a65726f2061646460008301527f72657373000000000000000000000000000000000000000000000000000000006020830152604082019050919050565b600061281460198361318a565b91507f4552433732313a20617070726f766520746f2063616c6c6572000000000000006000830152602082019050919050565b6000612854602c8361318a565b91507f4552433732313a206f70657261746f7220717565727920666f72206e6f6e657860008301527f697374656e7420746f6b656e00000000000000000000000000000000000000006020830152604082019050919050565b60006128ba60188361318a565b91507f6e6f74206d6f7265207468616e203130206174206f6e636500000000000000006000830152602082019050919050565b60006128fa60388361318a565b91507f4552433732313a20617070726f76652063616c6c6572206973206e6f74206f7760008301527f6e6572206e6f7220617070726f76656420666f7220616c6c00000000000000006020830152604082019050919050565b6000612960602a8361318a565b91507f4552433732313a2062616c616e636520717565727920666f7220746865207a6560008301527f726f2061646472657373000000000000000000000000000000000000000000006020830152604082019050919050565b60006129c660298361318a565b91507f4552433732313a206f776e657220717565727920666f72206e6f6e657869737460008301527f656e7420746f6b656e00000000000000000000000000000000000000000000006020830152604082019050919050565b6000612a2c602e8361318a565b91507f45524337323155524953746f726167653a2055524920736574206f66206e6f6e60008301527f6578697374656e7420746f6b656e0000000000000000000000000000000000006020830152604082019050919050565b6000612a9260208361318a565b91507f4552433732313a206d696e7420746f20746865207a65726f20616464726573736000830152602082019050919050565b6000612ad260318361318a565b91507f45524337323155524953746f726167653a2055524920717565727920666f722060008301527f6e6f6e6578697374656e7420746f6b656e0000000000000000000000000000006020830152604082019050919050565b6000612b38602c8361318a565b91507f4552433732313a20617070726f76656420717565727920666f72206e6f6e657860008301527f697374656e7420746f6b656e00000000000000000000000000000000000000006020830152604082019050919050565b6000612b9e60208361318a565b91507f4f776e61626c653a2063616c6c6572206973206e6f7420746865206f776e65726000830152602082019050919050565b6000612bde60298361318a565b91507f4552433732313a207472616e73666572206f6620746f6b656e2074686174206960008301527f73206e6f74206f776e00000000000000000000000000000000000000000000006020830152604082019050919050565b6000612c44602f8361318a565b91507f4552433732314d657461646174613a2055524920717565727920666f72206e6f60008301527f6e6578697374656e7420746f6b656e00000000000000000000000000000000006020830152604082019050919050565b6000612caa60218361318a565b91507f4552433732313a20617070726f76616c20746f2063757272656e74206f776e6560008301527f72000000000000000000000000000000000000000000000000000000000000006020830152604082019050919050565b6000612d1060318361318a565b91507f4552433732313a207472616e736665722063616c6c6572206973206e6f74206f60008301527f776e6572206e6f7220617070726f7665640000000000000000000000000000006020830152604082019050919050565b612d7281613302565b82525050565b6000612d848284612664565b915081905092915050565b6000612d9b8285612664565b9150612da78284612664565b91508190509392505050565b6000602082019050612dc860008301846125d4565b92915050565b6000608082019050612de360008301876125d4565b612df060208301866125d4565b612dfd6040830185612d69565b8181036060830152612e0f81846125f2565b905095945050505050565b6000602082019050612e2f60008301846125e3565b92915050565b60006020820190508181036000830152612e4f818461262b565b905092915050565b60006020820190508181036000830152612e7081612695565b9050919050565b60006020820190508181036000830152612e90816126fb565b9050919050565b60006020820190508181036000830152612eb081612761565b9050919050565b60006020820190508181036000830152612ed0816127a1565b9050919050565b60006020820190508181036000830152612ef081612807565b9050919050565b60006020820190508181036000830152612f1081612847565b9050919050565b60006020820190508181036000830152612f30816128ad565b9050919050565b60006020820190508181036000830152612f50816128ed565b9050919050565b60006020820190508181036000830152612f7081612953565b9050919050565b60006020820190508181036000830152612f90816129b9565b9050919050565b60006020820190508181036000830152612fb081612a1f565b9050919050565b60006020820190508181036000830152612fd081612a85565b9050919050565b60006020820190508181036000830152612ff081612ac5565b9050919050565b6000602082019050818103600083015261301081612b2b565b9050919050565b6000602082019050818103600083015261303081612b91565b9050919050565b6000602082019050818103600083015261305081612bd1565b9050919050565b6000602082019050818103600083015261307081612c37565b9050919050565b6000602082019050818103600083015261309081612c9d565b9050919050565b600060208201905081810360008301526130b081612d03565b9050919050565b60006020820190506130cc6000830184612d69565b92915050565b6000604051905081810181811067ffffffffffffffff821117156130f9576130f8613494565b5b8060405250919050565b600067ffffffffffffffff82111561311e5761311d613494565b5b601f19601f8301169050602081019050919050565b600067ffffffffffffffff82111561314e5761314d613494565b5b601f19601f8301169050602081019050919050565b600081519050919050565b600081519050919050565b600082825260208201905092915050565b600082825260208201905092915050565b600081905092915050565b60006131b182613302565b91506131bc83613302565b9250827fffffffffffffffffffffffffffffffffffffffffffffffffffffffffffffffff038211156131f1576131f0613407565b5b828201905092915050565b60006132078261330c565b91506132128361330c565b92508260ff0382111561322857613227613407565b5b828201905092915050565b600061323e82613302565b915061324983613302565b92508261325957613258613436565b5b828204905092915050565b600061326f82613302565b915061327a83613302565b92508282101561328d5761328c613407565b5b828203905092915050565b60006132a3826132e2565b9050919050565b60008115159050919050565b60007fffffffff0000000000000000000000000000000000000000000000000000000082169050919050565b600073ffffffffffffffffffffffffffffffffffffffff82169050919050565b6000819050919050565b600060ff82169050919050565b82818337600083830152505050565b60005b8381101561334657808201518184015260208101905061332b565b83811115613355576000848401525b50505050565b6000600282049050600182168061337357607f821691505b6020821081141561338757613386613465565b5b50919050565b600061339882613302565b91507fffffffffffffffffffffffffffffffffffffffffffffffffffffffffffffffff8214156133cb576133ca613407565b5b600182019050919050565b60006133e182613302565b91506133ec83613302565b9250826133fc576133fb613436565b5b828206905092915050565b7f4e487b7100000000000000000000000000000000000000000000000000000000600052601160045260246000fd5b7f4e487b7100000000000000000000000000000000000000000000000000000000600052601260045260246000fd5b7f4e487b7100000000000000000000000000000000000000000000000000000000600052602260045260246000fd5b7f4e487b7100000000000000000000000000000000000000000000000000000000600052604160045260246000fd5b6000601f19601f8301169050919050565b6134dd81613298565b81146134e857600080fd5b50565b6134f4816132aa565b81146134ff57600080fd5b50565b61350b816132b6565b811461351657600080fd5b50565b61352281613302565b811461352d57600080fd5b5056fe68747470733a2f2f697066732e696f2f697066732f516d6362716d516e333234385779746f4e504b62617050387259586d72316566566e6238743771456938614c6759a2646970667358221220d5137ecdf7b843a5adf3ead482ff40b724445dc46786a3a77119914c2c9a8a0064736f6c63430008000033",
  "immutableReferences": {},
  "source": "// SPDX-License-Identifier: MIT\r\npragma solidity >=0.4.22 <0.9.0;\r\n\r\nimport \"@openzeppelin/contracts/token/ERC721/extensions/ERC721URIStorage.sol\";\r\nimport \"@openzeppelin/contracts/utils/Counters.sol\";\r\nimport \"@openzeppelin/contracts/access/Ownable.sol\";\r\n//TODO ADD METADATA FREEZING AND SENDTO FUNCTION\r\ncontract Postcard is ERC721URIStorage, Ownable {\r\n//    uint256 public tokenCounter;\r\n    using Counters for Counters.Counter;\r\n\r\n    Counters.Counter private _tokenIds;\r\n\r\n    mapping(string => uint8) private _hashes;\r\n\r\n    // Base URI\r\n    string private _baseURIExtended = \"https://ipfs.io/ipfs/\";\r\n\r\n    // constructor with name and symbol of nft\r\n    constructor() ERC721(\"Postcard\",\"PSC\") {\r\n    }\r\n    function totalSupply() public view returns (uint256) {\r\n        return _tokenIds.current();\r\n    }\r\n    // for opensea collection\r\n    // this is currently being used to determine which metadata(json) it uses for the NFT. token URI doesnt do anything atm\r\n    function contractURI() public pure returns (string memory) {\r\n        return \"https://ipfs.io/ipfs/QmcbqmQn3248WytoNPKbapP8rYXmr1efVnb8t7qEi8aLgY\"; // collection json ipfs\r\n    }\r\n\r\n    function setBaseURI(string memory baseURI_) external onlyOwner() {\r\n        _baseURIExtended = baseURI_;\r\n    }\r\n\r\n    function _baseURI() internal view virtual override returns (string memory) {\r\n        return _baseURIExtended;\r\n    }\r\n\r\n    function mint(string memory tokenHash)\r\n    public\r\n    onlyOwner\r\n    returns (uint256)\r\n    {\r\n        require(_hashes[tokenHash] != 1);\r\n        _hashes[tokenHash] = 1;\r\n        _tokenIds.increment();\r\n        uint256 newItemId = _tokenIds.current();\r\n        _mint(msg.sender, newItemId);\r\n        _setTokenURI(newItemId, tokenHash);\r\n        return newItemId;\r\n    }\r\n\r\n    function duplicateMint(string memory tokenHash, uint256 numberOfTokens)\r\n    public\r\n    onlyOwner\r\n//    returns (uint256)\r\n    {\r\n        require(numberOfTokens<=10, \"not more than 10 at once\");\r\n        require(_hashes[tokenHash]<=100);\r\n\r\n        for(uint256 i=0; i < numberOfTokens; i++){\r\n            _hashes[tokenHash] = _hashes[tokenHash] + 1;\r\n            _tokenIds.increment();\r\n            uint256 newItemId = _tokenIds.current();\r\n            _safeMint(msg.sender, newItemId);\r\n//            _mint(msg.sender, newItemId);\r\n            _setTokenURI(newItemId, tokenHash);\r\n        }\r\n//        return newItemId;\r\n//        return numberOfTokens+\" tokens of \"+tokenHash;\r\n    }\r\n    function oldDuplicateMint(string memory tokenHash)\r\n    public\r\n    onlyOwner\r\n    returns (uint256)\r\n    {\r\n        _hashes[tokenHash] = 1;\r\n        _tokenIds.increment();\r\n        uint256 newItemId = _tokenIds.current();\r\n        _mint(msg.sender, newItemId);\r\n        _setTokenURI(newItemId, tokenHash);\r\n        return newItemId;\r\n    }\r\n\r\n\r\n}",
  "sourcePath": "C:\\Users\\Joey\\Desktop\\BA\\starting-from-new\\src\\contracts\\Postcard.sol",
  "compiler": {
    "name": "solc",
    "version": "0.8.0+commit.c7dfd78e.Emscripten.clang"
  },
  "schemaVersion": "3.4.3",
  "updatedAt": "2021-12-18T12:35:56.576Z",
  "networkType": "ethereum",
  "devdoc": {
    "kind": "dev",
    "methods": {
      "approve(address,uint256)": {
        "details": "See {IERC721-approve}."
      },
      "balanceOf(address)": {
        "details": "See {IERC721-balanceOf}."
      },
      "getApproved(uint256)": {
        "details": "See {IERC721-getApproved}."
      },
      "isApprovedForAll(address,address)": {
        "details": "See {IERC721-isApprovedForAll}."
      },
      "name()": {
        "details": "See {IERC721Metadata-name}."
      },
      "owner()": {
        "details": "Returns the address of the current owner."
      },
      "ownerOf(uint256)": {
        "details": "See {IERC721-ownerOf}."
      },
      "renounceOwnership()": {
        "details": "Leaves the contract without owner. It will not be possible to call `onlyOwner` functions anymore. Can only be called by the current owner. NOTE: Renouncing ownership will leave the contract without an owner, thereby removing any functionality that is only available to the owner."
      },
      "safeTransferFrom(address,address,uint256)": {
        "details": "See {IERC721-safeTransferFrom}."
      },
      "safeTransferFrom(address,address,uint256,bytes)": {
        "details": "See {IERC721-safeTransferFrom}."
      },
      "setApprovalForAll(address,bool)": {
        "details": "See {IERC721-setApprovalForAll}."
      },
      "supportsInterface(bytes4)": {
        "details": "See {IERC165-supportsInterface}."
      },
      "symbol()": {
        "details": "See {IERC721Metadata-symbol}."
      },
      "tokenURI(uint256)": {
        "details": "See {IERC721Metadata-tokenURI}."
      },
      "transferFrom(address,address,uint256)": {
        "details": "See {IERC721-transferFrom}."
      },
      "transferOwnership(address)": {
        "details": "Transfers ownership of the contract to a new account (`newOwner`). Can only be called by the current owner."
      }
    },
    "version": 1
  },
  "userdoc": {
    "kind": "user",
    "methods": {},
    "version": 1
  }
}