{
  "contractName": "Postcard",
  "abi": [
    {
      "inputs": [],
      "stateMutability": "nonpayable",
      "type": "constructor"
    },
    {
      "anonymous": false,
      "inputs": [
        {
          "indexed": true,
          "internalType": "address",
          "name": "owner",
          "type": "address"
        },
        {
          "indexed": true,
          "internalType": "address",
          "name": "approved",
          "type": "address"
        },
        {
          "indexed": true,
          "internalType": "uint256",
          "name": "tokenId",
          "type": "uint256"
        }
      ],
      "name": "Approval",
      "type": "event"
    },
    {
      "anonymous": false,
      "inputs": [
        {
          "indexed": true,
          "internalType": "address",
          "name": "owner",
          "type": "address"
        },
        {
          "indexed": true,
          "internalType": "address",
          "name": "operator",
          "type": "address"
        },
        {
          "indexed": false,
          "internalType": "bool",
          "name": "approved",
          "type": "bool"
        }
      ],
      "name": "ApprovalForAll",
      "type": "event"
    },
    {
      "anonymous": false,
      "inputs": [
        {
          "indexed": true,
          "internalType": "address",
          "name": "previousOwner",
          "type": "address"
        },
        {
          "indexed": true,
          "internalType": "address",
          "name": "newOwner",
          "type": "address"
        }
      ],
      "name": "OwnershipTransferred",
      "type": "event"
    },
    {
      "anonymous": false,
      "inputs": [
        {
          "indexed": true,
          "internalType": "address",
          "name": "from",
          "type": "address"
        },
        {
          "indexed": true,
          "internalType": "address",
          "name": "to",
          "type": "address"
        },
        {
          "indexed": true,
          "internalType": "uint256",
          "name": "tokenId",
          "type": "uint256"
        }
      ],
      "name": "Transfer",
      "type": "event"
    },
    {
      "inputs": [
        {
          "internalType": "address",
          "name": "to",
          "type": "address"
        },
        {
          "internalType": "uint256",
          "name": "tokenId",
          "type": "uint256"
        }
      ],
      "name": "approve",
      "outputs": [],
      "stateMutability": "nonpayable",
      "type": "function"
    },
    {
      "inputs": [
        {
          "internalType": "address",
          "name": "owner",
          "type": "address"
        }
      ],
      "name": "balanceOf",
      "outputs": [
        {
          "internalType": "uint256",
          "name": "",
          "type": "uint256"
        }
      ],
      "stateMutability": "view",
      "type": "function",
      "constant": true
    },
    {
      "inputs": [
        {
          "internalType": "uint256",
          "name": "tokenId",
          "type": "uint256"
        }
      ],
      "name": "getApproved",
      "outputs": [
        {
          "internalType": "address",
          "name": "",
          "type": "address"
        }
      ],
      "stateMutability": "view",
      "type": "function",
      "constant": true
    },
    {
      "inputs": [
        {
          "internalType": "address",
          "name": "owner",
          "type": "address"
        },
        {
          "internalType": "address",
          "name": "operator",
          "type": "address"
        }
      ],
      "name": "isApprovedForAll",
      "outputs": [
        {
          "internalType": "bool",
          "name": "",
          "type": "bool"
        }
      ],
      "stateMutability": "view",
      "type": "function",
      "constant": true
    },
    {
      "inputs": [],
      "name": "name",
      "outputs": [
        {
          "internalType": "string",
          "name": "",
          "type": "string"
        }
      ],
      "stateMutability": "view",
      "type": "function",
      "constant": true
    },
    {
      "inputs": [],
      "name": "owner",
      "outputs": [
        {
          "internalType": "address",
          "name": "",
          "type": "address"
        }
      ],
      "stateMutability": "view",
      "type": "function",
      "constant": true
    },
    {
      "inputs": [
        {
          "internalType": "uint256",
          "name": "tokenId",
          "type": "uint256"
        }
      ],
      "name": "ownerOf",
      "outputs": [
        {
          "internalType": "address",
          "name": "",
          "type": "address"
        }
      ],
      "stateMutability": "view",
      "type": "function",
      "constant": true
    },
    {
      "inputs": [],
      "name": "renounceOwnership",
      "outputs": [],
      "stateMutability": "nonpayable",
      "type": "function"
    },
    {
      "inputs": [
        {
          "internalType": "address",
          "name": "from",
          "type": "address"
        },
        {
          "internalType": "address",
          "name": "to",
          "type": "address"
        },
        {
          "internalType": "uint256",
          "name": "tokenId",
          "type": "uint256"
        }
      ],
      "name": "safeTransferFrom",
      "outputs": [],
      "stateMutability": "nonpayable",
      "type": "function"
    },
    {
      "inputs": [
        {
          "internalType": "address",
          "name": "from",
          "type": "address"
        },
        {
          "internalType": "address",
          "name": "to",
          "type": "address"
        },
        {
          "internalType": "uint256",
          "name": "tokenId",
          "type": "uint256"
        },
        {
          "internalType": "bytes",
          "name": "_data",
          "type": "bytes"
        }
      ],
      "name": "safeTransferFrom",
      "outputs": [],
      "stateMutability": "nonpayable",
      "type": "function"
    },
    {
      "inputs": [
        {
          "internalType": "address",
          "name": "operator",
          "type": "address"
        },
        {
          "internalType": "bool",
          "name": "approved",
          "type": "bool"
        }
      ],
      "name": "setApprovalForAll",
      "outputs": [],
      "stateMutability": "nonpayable",
      "type": "function"
    },
    {
      "inputs": [
        {
          "internalType": "bytes4",
          "name": "interfaceId",
          "type": "bytes4"
        }
      ],
      "name": "supportsInterface",
      "outputs": [
        {
          "internalType": "bool",
          "name": "",
          "type": "bool"
        }
      ],
      "stateMutability": "view",
      "type": "function",
      "constant": true
    },
    {
      "inputs": [],
      "name": "symbol",
      "outputs": [
        {
          "internalType": "string",
          "name": "",
          "type": "string"
        }
      ],
      "stateMutability": "view",
      "type": "function",
      "constant": true
    },
    {
      "inputs": [
        {
          "internalType": "uint256",
          "name": "tokenId",
          "type": "uint256"
        }
      ],
      "name": "tokenURI",
      "outputs": [
        {
          "internalType": "string",
          "name": "",
          "type": "string"
        }
      ],
      "stateMutability": "view",
      "type": "function",
      "constant": true
    },
    {
      "inputs": [
        {
          "internalType": "address",
          "name": "from",
          "type": "address"
        },
        {
          "internalType": "address",
          "name": "to",
          "type": "address"
        },
        {
          "internalType": "uint256",
          "name": "tokenId",
          "type": "uint256"
        }
      ],
      "name": "transferFrom",
      "outputs": [],
      "stateMutability": "nonpayable",
      "type": "function"
    },
    {
      "inputs": [
        {
          "internalType": "address",
          "name": "newOwner",
          "type": "address"
        }
      ],
      "name": "transferOwnership",
      "outputs": [],
      "stateMutability": "nonpayable",
      "type": "function"
    },
    {
      "inputs": [],
      "name": "totalSupply",
      "outputs": [
        {
          "internalType": "uint256",
          "name": "",
          "type": "uint256"
        }
      ],
      "stateMutability": "view",
      "type": "function",
      "constant": true
    },
    {
      "inputs": [],
      "name": "contractURI",
      "outputs": [
        {
          "internalType": "string",
          "name": "",
          "type": "string"
        }
      ],
      "stateMutability": "pure",
      "type": "function",
      "constant": true
    },
    {
      "inputs": [
        {
          "internalType": "string",
          "name": "baseURI_",
          "type": "string"
        }
      ],
      "name": "setBaseURI",
      "outputs": [],
      "stateMutability": "nonpayable",
      "type": "function"
    },
    {
      "inputs": [
        {
          "internalType": "string",
          "name": "tokenHash",
          "type": "string"
        }
      ],
      "name": "mint",
      "outputs": [
        {
          "internalType": "uint256",
          "name": "",
          "type": "uint256"
        }
      ],
      "stateMutability": "nonpayable",
      "type": "function"
    },
    {
      "inputs": [
        {
          "internalType": "address",
          "name": "to",
          "type": "address"
        },
        {
          "internalType": "string",
          "name": "tokenHash",
          "type": "string"
        }
      ],
      "name": "mintToAddress",
      "outputs": [
        {
          "internalType": "uint256",
          "name": "",
          "type": "uint256"
        }
      ],
      "stateMutability": "nonpayable",
      "type": "function"
    },
    {
      "inputs": [
        {
          "internalType": "string",
          "name": "tokenHash",
          "type": "string"
        }
      ],
      "name": "duplicateMint",
      "outputs": [
        {
          "internalType": "uint256",
          "name": "",
          "type": "uint256"
        }
      ],
      "stateMutability": "nonpayable",
      "type": "function"
    },
    {
      "inputs": [
        {
          "internalType": "address",
          "name": "to",
          "type": "address"
        },
        {
          "internalType": "string",
          "name": "tokenHash",
          "type": "string"
        }
      ],
      "name": "duplicateMintToAddress",
      "outputs": [
        {
          "internalType": "uint256",
          "name": "",
          "type": "uint256"
        }
      ],
      "stateMutability": "nonpayable",
      "type": "function"
    }
  ],
  "bytecode": "0x60806040526040518060400160405280601581526020017f68747470733a2f2f697066732e696f2f697066732f0000000000000000000000815250600a908051906020019062000051929190620001f4565b503480156200005f57600080fd5b506040518060400160405280600881526020017f506f7374636172640000000000000000000000000000000000000000000000008152506040518060400160405280600381526020017f50534300000000000000000000000000000000000000000000000000000000008152508160009080519060200190620000e4929190620001f4565b508060019080519060200190620000fd929190620001f4565b50505062000120620001146200012660201b60201c565b6200012e60201b60201c565b62000309565b600033905090565b6000600760009054906101000a900473ffffffffffffffffffffffffffffffffffffffff16905081600760006101000a81548173ffffffffffffffffffffffffffffffffffffffff021916908373ffffffffffffffffffffffffffffffffffffffff1602179055508173ffffffffffffffffffffffffffffffffffffffff168173ffffffffffffffffffffffffffffffffffffffff167f8be0079c531659141344cd1fd0a4f28419497f9722a3daafe3b4186f6b6457e060405160405180910390a35050565b8280546200020290620002a4565b90600052602060002090601f01602090048101928262000226576000855562000272565b82601f106200024157805160ff191683800117855562000272565b8280016001018555821562000272579182015b828111156200027157825182559160200191906001019062000254565b5b50905062000281919062000285565b5090565b5b80821115620002a057600081600090555060010162000286565b5090565b60006002820490506001821680620002bd57607f821691505b60208210811415620002d457620002d3620002da565b5b50919050565b7f4e487b7100000000000000000000000000000000000000000000000000000000600052602260045260246000fd5b61353580620003196000396000f3fe608060405234801561001057600080fd5b506004361061014d5760003560e01c806370a08231116100c3578063b88d4fde1161007c578063b88d4fde146103b0578063c87b56dd146103cc578063d85d3d27146103fc578063e8a3d4851461042c578063e985e9c51461044a578063f2fde38b1461047a5761014d565b806370a08231146102ee578063715018a61461031e5780638da5cb5b1461032857806395d89b411461034657806396f3c7dd14610364578063a22cb465146103945761014d565b806323b872dd1161011557806323b872dd1461020a578063276281e81461022657806329fdd4611461025657806342842e0e1461028657806355f804b3146102a25780636352211e146102be5761014d565b806301ffc9a71461015257806306fdde0314610182578063081812fc146101a0578063095ea7b3146101d057806318160ddd146101ec575b600080fd5b61016c60048036038101906101679190612548565b610496565b6040516101799190612e0a565b60405180910390f35b61018a610578565b6040516101979190612e25565b60405180910390f35b6101ba60048036038101906101b591906125db565b61060a565b6040516101c79190612da3565b60405180910390f35b6101ea60048036038101906101e5919061250c565b61068f565b005b6101f46107a7565b6040516102019190613087565b60405180910390f35b610224600480360381019061021f91906123b2565b6107b8565b005b610240600480360381019061023b919061259a565b610818565b60405161024d9190613087565b60405180910390f35b610270600480360381019061026b91906124b8565b610903565b60405161027d9190613087565b60405180910390f35b6102a0600480360381019061029b91906123b2565b6109ef565b005b6102bc60048036038101906102b7919061259a565b610a0f565b005b6102d860048036038101906102d391906125db565b610aa5565b6040516102e59190612da3565b60405180910390f35b6103086004803603810190610303919061234d565b610b57565b6040516103159190613087565b60405180910390f35b610326610c0f565b005b610330610c97565b60405161033d9190612da3565b60405180910390f35b61034e610cc1565b60405161035b9190612e25565b60405180910390f35b61037e600480360381019061037991906124b8565b610d53565b60405161038b9190613087565b60405180910390f35b6103ae60048036038101906103a9919061247c565b610e7b565b005b6103ca60048036038101906103c59190612401565b610ffc565b005b6103e660048036038101906103e191906125db565b61105e565b6040516103f39190612e25565b60405180910390f35b6104166004803603810190610411919061259a565b6111b0565b6040516104239190613087565b60405180910390f35b6104346112d7565b6040516104419190612e25565b60405180910390f35b610464600480360381019061045f9190612376565b6112f7565b6040516104719190612e0a565b60405180910390f35b610494600480360381019061048f919061234d565b61138b565b005b60007f80ac58cd000000000000000000000000000000000000000000000000000000007bffffffffffffffffffffffffffffffffffffffffffffffffffffffff1916827bffffffffffffffffffffffffffffffffffffffffffffffffffffffff1916148061056157507f5b5e139f000000000000000000000000000000000000000000000000000000007bffffffffffffffffffffffffffffffffffffffffffffffffffffffff1916827bffffffffffffffffffffffffffffffffffffffffffffffffffffffff1916145b80610571575061057082611483565b5b9050919050565b606060008054610587906132e7565b80601f01602080910402602001604051908101604052809291908181526020018280546105b3906132e7565b80156106005780601f106105d557610100808354040283529160200191610600565b820191906000526020600020905b8154815290600101906020018083116105e357829003601f168201915b5050505050905090565b6000610615826114ed565b610654576040517f08c379a000000000000000000000000000000000000000000000000000000000815260040161064b90612fc7565b60405180910390fd5b6004600083815260200190815260200160002060009054906101000a900473ffffffffffffffffffffffffffffffffffffffff169050919050565b600061069a82610aa5565b90508073ffffffffffffffffffffffffffffffffffffffff168373ffffffffffffffffffffffffffffffffffffffff16141561070b576040517f08c379a000000000000000000000000000000000000000000000000000000000815260040161070290613047565b60405180910390fd5b8073ffffffffffffffffffffffffffffffffffffffff1661072a611559565b73ffffffffffffffffffffffffffffffffffffffff161480610759575061075881610753611559565b6112f7565b5b610798576040517f08c379a000000000000000000000000000000000000000000000000000000000815260040161078f90612f07565b60405180910390fd5b6107a28383611561565b505050565b60006107b3600861161a565b905090565b6107c96107c3611559565b82611628565b610808576040517f08c379a00000000000000000000000000000000000000000000000000000000081526004016107ff90613067565b60405180910390fd5b610813838383611706565b505050565b6000610822611559565b73ffffffffffffffffffffffffffffffffffffffff16610840610c97565b73ffffffffffffffffffffffffffffffffffffffff1614610896576040517f08c379a000000000000000000000000000000000000000000000000000000000815260040161088d90612fe7565b60405180910390fd5b60016009836040516108a89190612d68565b908152602001604051809103902060006101000a81548160ff021916908360ff1602179055506108d86008611962565b60006108e4600861161a565b90506108f03382611978565b6108fa8184611b46565b80915050919050565b600061090d611559565b73ffffffffffffffffffffffffffffffffffffffff1661092b610c97565b73ffffffffffffffffffffffffffffffffffffffff1614610981576040517f08c379a000000000000000000000000000000000000000000000000000000000815260040161097890612fe7565b60405180910390fd5b60016009836040516109939190612d68565b908152602001604051809103902060006101000a81548160ff021916908360ff1602179055506109c36008611962565b60006109cf600861161a565b90506109db8482611978565b6109e58184611b46565b8091505092915050565b610a0a83838360405180602001604052806000815250610ffc565b505050565b610a17611559565b73ffffffffffffffffffffffffffffffffffffffff16610a35610c97565b73ffffffffffffffffffffffffffffffffffffffff1614610a8b576040517f08c379a0000000000000000000000000000000000000000000000000000000008152600401610a8290612fe7565b60405180910390fd5b80600a9080519060200190610aa1929190612171565b5050565b6000806002600084815260200190815260200160002060009054906101000a900473ffffffffffffffffffffffffffffffffffffffff169050600073ffffffffffffffffffffffffffffffffffffffff168173ffffffffffffffffffffffffffffffffffffffff161415610b4e576040517f08c379a0000000000000000000000000000000000000000000000000000000008152600401610b4590612f47565b60405180910390fd5b80915050919050565b60008073ffffffffffffffffffffffffffffffffffffffff168273ffffffffffffffffffffffffffffffffffffffff161415610bc8576040517f08c379a0000000000000000000000000000000000000000000000000000000008152600401610bbf90612f27565b60405180910390fd5b600360008373ffffffffffffffffffffffffffffffffffffffff1673ffffffffffffffffffffffffffffffffffffffff168152602001908152602001600020549050919050565b610c17611559565b73ffffffffffffffffffffffffffffffffffffffff16610c35610c97565b73ffffffffffffffffffffffffffffffffffffffff1614610c8b576040517f08c379a0000000000000000000000000000000000000000000000000000000008152600401610c8290612fe7565b60405180910390fd5b610c956000611bba565b565b6000600760009054906101000a900473ffffffffffffffffffffffffffffffffffffffff16905090565b606060018054610cd0906132e7565b80601f0160208091040260200160405190810160405280929190818152602001828054610cfc906132e7565b8015610d495780601f10610d1e57610100808354040283529160200191610d49565b820191906000526020600020905b815481529060010190602001808311610d2c57829003601f168201915b5050505050905090565b6000610d5d611559565b73ffffffffffffffffffffffffffffffffffffffff16610d7b610c97565b73ffffffffffffffffffffffffffffffffffffffff1614610dd1576040517f08c379a0000000000000000000000000000000000000000000000000000000008152600401610dc890612fe7565b60405180910390fd5b6001600983604051610de39190612d68565b908152602001604051809103902060009054906101000a900460ff1660ff161415610e0d57600080fd5b6001600983604051610e1f9190612d68565b908152602001604051809103902060006101000a81548160ff021916908360ff160217905550610e4f6008611962565b6000610e5b600861161a565b9050610e678482611978565b610e718184611b46565b8091505092915050565b610e83611559565b73ffffffffffffffffffffffffffffffffffffffff168273ffffffffffffffffffffffffffffffffffffffff161415610ef1576040517f08c379a0000000000000000000000000000000000000000000000000000000008152600401610ee890612ec7565b60405180910390fd5b8060056000610efe611559565b73ffffffffffffffffffffffffffffffffffffffff1673ffffffffffffffffffffffffffffffffffffffff16815260200190815260200160002060008473ffffffffffffffffffffffffffffffffffffffff1673ffffffffffffffffffffffffffffffffffffffff16815260200190815260200160002060006101000a81548160ff0219169083151502179055508173ffffffffffffffffffffffffffffffffffffffff16610fab611559565b73ffffffffffffffffffffffffffffffffffffffff167f17307eab39ab6107e8899845ad3d59bd9653f200f220920489ca2b5937696c3183604051610ff09190612e0a565b60405180910390a35050565b61100d611007611559565b83611628565b61104c576040517f08c379a000000000000000000000000000000000000000000000000000000000815260040161104390613067565b60405180910390fd5b61105884848484611c80565b50505050565b6060611069826114ed565b6110a8576040517f08c379a000000000000000000000000000000000000000000000000000000000815260040161109f90612fa7565b60405180910390fd5b60006006600084815260200190815260200160002080546110c8906132e7565b80601f01602080910402602001604051908101604052809291908181526020018280546110f4906132e7565b80156111415780601f1061111657610100808354040283529160200191611141565b820191906000526020600020905b81548152906001019060200180831161112457829003601f168201915b505050505090506000611152611cdc565b90506000815114156111685781925050506111ab565b60008251111561119d578082604051602001611185929190612d7f565b604051602081830303815290604052925050506111ab565b6111a684611d6e565b925050505b919050565b60006111ba611559565b73ffffffffffffffffffffffffffffffffffffffff166111d8610c97565b73ffffffffffffffffffffffffffffffffffffffff161461122e576040517f08c379a000000000000000000000000000000000000000000000000000000000815260040161122590612fe7565b60405180910390fd5b60016009836040516112409190612d68565b908152602001604051809103902060009054906101000a900460ff1660ff16141561126a57600080fd5b600160098360405161127c9190612d68565b908152602001604051809103902060006101000a81548160ff021916908360ff1602179055506112ac6008611962565b60006112b8600861161a565b90506112c43382611978565b6112ce8184611b46565b80915050919050565b60606040518060800160405280604381526020016134bd60439139905090565b6000600560008473ffffffffffffffffffffffffffffffffffffffff1673ffffffffffffffffffffffffffffffffffffffff16815260200190815260200160002060008373ffffffffffffffffffffffffffffffffffffffff1673ffffffffffffffffffffffffffffffffffffffff16815260200190815260200160002060009054906101000a900460ff16905092915050565b611393611559565b73ffffffffffffffffffffffffffffffffffffffff166113b1610c97565b73ffffffffffffffffffffffffffffffffffffffff1614611407576040517f08c379a00000000000000000000000000000000000000000000000000000000081526004016113fe90612fe7565b60405180910390fd5b600073ffffffffffffffffffffffffffffffffffffffff168173ffffffffffffffffffffffffffffffffffffffff161415611477576040517f08c379a000000000000000000000000000000000000000000000000000000000815260040161146e90612e67565b60405180910390fd5b61148081611bba565b50565b60007f01ffc9a7000000000000000000000000000000000000000000000000000000007bffffffffffffffffffffffffffffffffffffffffffffffffffffffff1916827bffffffffffffffffffffffffffffffffffffffffffffffffffffffff1916149050919050565b60008073ffffffffffffffffffffffffffffffffffffffff166002600084815260200190815260200160002060009054906101000a900473ffffffffffffffffffffffffffffffffffffffff1673ffffffffffffffffffffffffffffffffffffffff1614159050919050565b600033905090565b816004600083815260200190815260200160002060006101000a81548173ffffffffffffffffffffffffffffffffffffffff021916908373ffffffffffffffffffffffffffffffffffffffff160217905550808273ffffffffffffffffffffffffffffffffffffffff166115d483610aa5565b73ffffffffffffffffffffffffffffffffffffffff167f8c5be1e5ebec7d5bd14f71427d1e84f3dd0314c0f7b2291e5b200ac8c7c3b92560405160405180910390a45050565b600081600001549050919050565b6000611633826114ed565b611672576040517f08c379a000000000000000000000000000000000000000000000000000000000815260040161166990612ee7565b60405180910390fd5b600061167d83610aa5565b90508073ffffffffffffffffffffffffffffffffffffffff168473ffffffffffffffffffffffffffffffffffffffff1614806116ec57508373ffffffffffffffffffffffffffffffffffffffff166116d48461060a565b73ffffffffffffffffffffffffffffffffffffffff16145b806116fd57506116fc81856112f7565b5b91505092915050565b8273ffffffffffffffffffffffffffffffffffffffff1661172682610aa5565b73ffffffffffffffffffffffffffffffffffffffff161461177c576040517f08c379a000000000000000000000000000000000000000000000000000000000815260040161177390613007565b60405180910390fd5b600073ffffffffffffffffffffffffffffffffffffffff168273ffffffffffffffffffffffffffffffffffffffff1614156117ec576040517f08c379a00000000000000000000000000000000000000000000000000000000081526004016117e390612ea7565b60405180910390fd5b6117f7838383611e15565b611802600082611561565b6001600360008573ffffffffffffffffffffffffffffffffffffffff1673ffffffffffffffffffffffffffffffffffffffff168152602001908152602001600020600082825461185291906131fd565b925050819055506001600360008473ffffffffffffffffffffffffffffffffffffffff1673ffffffffffffffffffffffffffffffffffffffff16815260200190815260200160002060008282546118a99190613176565b92505081905550816002600083815260200190815260200160002060006101000a81548173ffffffffffffffffffffffffffffffffffffffff021916908373ffffffffffffffffffffffffffffffffffffffff160217905550808273ffffffffffffffffffffffffffffffffffffffff168473ffffffffffffffffffffffffffffffffffffffff167fddf252ad1be2c89b69c2b068fc378daa952ba7f163c4a11628f55a4df523b3ef60405160405180910390a4505050565b6001816000016000828254019250508190555050565b600073ffffffffffffffffffffffffffffffffffffffff168273ffffffffffffffffffffffffffffffffffffffff1614156119e8576040517f08c379a00000000000000000000000000000000000000000000000000000000081526004016119df90612f87565b60405180910390fd5b6119f1816114ed565b15611a31576040517f08c379a0000000000000000000000000000000000000000000000000000000008152600401611a2890612e87565b60405180910390fd5b611a3d60008383611e15565b6001600360008473ffffffffffffffffffffffffffffffffffffffff1673ffffffffffffffffffffffffffffffffffffffff1681526020019081526020016000206000828254611a8d9190613176565b92505081905550816002600083815260200190815260200160002060006101000a81548173ffffffffffffffffffffffffffffffffffffffff021916908373ffffffffffffffffffffffffffffffffffffffff160217905550808273ffffffffffffffffffffffffffffffffffffffff16600073ffffffffffffffffffffffffffffffffffffffff167fddf252ad1be2c89b69c2b068fc378daa952ba7f163c4a11628f55a4df523b3ef60405160405180910390a45050565b611b4f826114ed565b611b8e576040517f08c379a0000000000000000000000000000000000000000000000000000000008152600401611b8590612f67565b60405180910390fd5b80600660008481526020019081526020016000209080519060200190611bb5929190612171565b505050565b6000600760009054906101000a900473ffffffffffffffffffffffffffffffffffffffff16905081600760006101000a81548173ffffffffffffffffffffffffffffffffffffffff021916908373ffffffffffffffffffffffffffffffffffffffff1602179055508173ffffffffffffffffffffffffffffffffffffffff168173ffffffffffffffffffffffffffffffffffffffff167f8be0079c531659141344cd1fd0a4f28419497f9722a3daafe3b4186f6b6457e060405160405180910390a35050565b611c8b848484611706565b611c9784848484611e1a565b611cd6576040517f08c379a0000000000000000000000000000000000000000000000000000000008152600401611ccd90612e47565b60405180910390fd5b50505050565b6060600a8054611ceb906132e7565b80601f0160208091040260200160405190810160405280929190818152602001828054611d17906132e7565b8015611d645780601f10611d3957610100808354040283529160200191611d64565b820191906000526020600020905b815481529060010190602001808311611d4757829003601f168201915b5050505050905090565b6060611d79826114ed565b611db8576040517f08c379a0000000000000000000000000000000000000000000000000000000008152600401611daf90613027565b60405180910390fd5b6000611dc2611cdc565b90506000815111611de25760405180602001604052806000815250611e0d565b80611dec84611fb1565b604051602001611dfd929190612d7f565b6040516020818303038152906040525b915050919050565b505050565b6000611e3b8473ffffffffffffffffffffffffffffffffffffffff1661215e565b15611fa4578373ffffffffffffffffffffffffffffffffffffffff1663150b7a02611e64611559565b8786866040518563ffffffff1660e01b8152600401611e869493929190612dbe565b602060405180830381600087803b158015611ea057600080fd5b505af1925050508015611ed157506040513d601f19601f82011682018060405250810190611ece9190612571565b60015b611f54573d8060008114611f01576040519150601f19603f3d011682016040523d82523d6000602084013e611f06565b606091505b50600081511415611f4c576040517f08c379a0000000000000000000000000000000000000000000000000000000008152600401611f4390612e47565b60405180910390fd5b805181602001fd5b63150b7a0260e01b7bffffffffffffffffffffffffffffffffffffffffffffffffffffffff1916817bffffffffffffffffffffffffffffffffffffffffffffffffffffffff191614915050611fa9565b600190505b949350505050565b60606000821415611ff9576040518060400160405280600181526020017f30000000000000000000000000000000000000000000000000000000000000008152509050612159565b600082905060005b6000821461202b57808061201490613319565b915050600a8261202491906131cc565b9150612001565b60008167ffffffffffffffff81111561206d577f4e487b7100000000000000000000000000000000000000000000000000000000600052604160045260246000fd5b6040519080825280601f01601f19166020018201604052801561209f5781602001600182028036833780820191505090505b5090505b60008514612152576001826120b891906131fd565b9150600a856120c79190613362565b60306120d39190613176565b60f81b81838151811061210f577f4e487b7100000000000000000000000000000000000000000000000000000000600052603260045260246000fd5b60200101907effffffffffffffffffffffffffffffffffffffffffffffffffffffffffffff1916908160001a905350600a8561214b91906131cc565b94506120a3565b8093505050505b919050565b600080823b905060008111915050919050565b82805461217d906132e7565b90600052602060002090601f01602090048101928261219f57600085556121e6565b82601f106121b857805160ff19168380011785556121e6565b828001600101855582156121e6579182015b828111156121e55782518255916020019190600101906121ca565b5b5090506121f391906121f7565b5090565b5b808211156122105760008160009055506001016121f8565b5090565b6000612227612222846130d3565b6130a2565b90508281526020810184848401111561223f57600080fd5b61224a8482856132a5565b509392505050565b600061226561226084613103565b6130a2565b90508281526020810184848401111561227d57600080fd5b6122888482856132a5565b509392505050565b60008135905061229f81613460565b92915050565b6000813590506122b481613477565b92915050565b6000813590506122c98161348e565b92915050565b6000815190506122de8161348e565b92915050565b600082601f8301126122f557600080fd5b8135612305848260208601612214565b91505092915050565b600082601f83011261231f57600080fd5b813561232f848260208601612252565b91505092915050565b600081359050612347816134a5565b92915050565b60006020828403121561235f57600080fd5b600061236d84828501612290565b91505092915050565b6000806040838503121561238957600080fd5b600061239785828601612290565b92505060206123a885828601612290565b9150509250929050565b6000806000606084860312156123c757600080fd5b60006123d586828701612290565b93505060206123e686828701612290565b92505060406123f786828701612338565b9150509250925092565b6000806000806080858703121561241757600080fd5b600061242587828801612290565b945050602061243687828801612290565b935050604061244787828801612338565b925050606085013567ffffffffffffffff81111561246457600080fd5b612470878288016122e4565b91505092959194509250565b6000806040838503121561248f57600080fd5b600061249d85828601612290565b92505060206124ae858286016122a5565b9150509250929050565b600080604083850312156124cb57600080fd5b60006124d985828601612290565b925050602083013567ffffffffffffffff8111156124f657600080fd5b6125028582860161230e565b9150509250929050565b6000806040838503121561251f57600080fd5b600061252d85828601612290565b925050602061253e85828601612338565b9150509250929050565b60006020828403121561255a57600080fd5b6000612568848285016122ba565b91505092915050565b60006020828403121561258357600080fd5b6000612591848285016122cf565b91505092915050565b6000602082840312156125ac57600080fd5b600082013567ffffffffffffffff8111156125c657600080fd5b6125d28482850161230e565b91505092915050565b6000602082840312156125ed57600080fd5b60006125fb84828501612338565b91505092915050565b61260d81613231565b82525050565b61261c81613243565b82525050565b600061262d82613133565b6126378185613149565b93506126478185602086016132b4565b6126508161344f565b840191505092915050565b60006126668261313e565b612670818561315a565b93506126808185602086016132b4565b6126898161344f565b840191505092915050565b600061269f8261313e565b6126a9818561316b565b93506126b98185602086016132b4565b80840191505092915050565b60006126d260328361315a565b91507f4552433732313a207472616e7366657220746f206e6f6e20455243373231526560008301527f63656976657220696d706c656d656e74657200000000000000000000000000006020830152604082019050919050565b600061273860268361315a565b91507f4f776e61626c653a206e6577206f776e657220697320746865207a65726f206160008301527f64647265737300000000000000000000000000000000000000000000000000006020830152604082019050919050565b600061279e601c8361315a565b91507f4552433732313a20746f6b656e20616c7265616479206d696e746564000000006000830152602082019050919050565b60006127de60248361315a565b91507f4552433732313a207472616e7366657220746f20746865207a65726f2061646460008301527f72657373000000000000000000000000000000000000000000000000000000006020830152604082019050919050565b600061284460198361315a565b91507f4552433732313a20617070726f766520746f2063616c6c6572000000000000006000830152602082019050919050565b6000612884602c8361315a565b91507f4552433732313a206f70657261746f7220717565727920666f72206e6f6e657860008301527f697374656e7420746f6b656e00000000000000000000000000000000000000006020830152604082019050919050565b60006128ea60388361315a565b91507f4552433732313a20617070726f76652063616c6c6572206973206e6f74206f7760008301527f6e6572206e6f7220617070726f76656420666f7220616c6c00000000000000006020830152604082019050919050565b6000612950602a8361315a565b91507f4552433732313a2062616c616e636520717565727920666f7220746865207a6560008301527f726f2061646472657373000000000000000000000000000000000000000000006020830152604082019050919050565b60006129b660298361315a565b91507f4552433732313a206f776e657220717565727920666f72206e6f6e657869737460008301527f656e7420746f6b656e00000000000000000000000000000000000000000000006020830152604082019050919050565b6000612a1c602e8361315a565b91507f45524337323155524953746f726167653a2055524920736574206f66206e6f6e60008301527f6578697374656e7420746f6b656e0000000000000000000000000000000000006020830152604082019050919050565b6000612a8260208361315a565b91507f4552433732313a206d696e7420746f20746865207a65726f20616464726573736000830152602082019050919050565b6000612ac260318361315a565b91507f45524337323155524953746f726167653a2055524920717565727920666f722060008301527f6e6f6e6578697374656e7420746f6b656e0000000000000000000000000000006020830152604082019050919050565b6000612b28602c8361315a565b91507f4552433732313a20617070726f76656420717565727920666f72206e6f6e657860008301527f697374656e7420746f6b656e00000000000000000000000000000000000000006020830152604082019050919050565b6000612b8e60208361315a565b91507f4f776e61626c653a2063616c6c6572206973206e6f7420746865206f776e65726000830152602082019050919050565b6000612bce60298361315a565b91507f4552433732313a207472616e73666572206f6620746f6b656e2074686174206960008301527f73206e6f74206f776e00000000000000000000000000000000000000000000006020830152604082019050919050565b6000612c34602f8361315a565b91507f4552433732314d657461646174613a2055524920717565727920666f72206e6f60008301527f6e6578697374656e7420746f6b656e00000000000000000000000000000000006020830152604082019050919050565b6000612c9a60218361315a565b91507f4552433732313a20617070726f76616c20746f2063757272656e74206f776e6560008301527f72000000000000000000000000000000000000000000000000000000000000006020830152604082019050919050565b6000612d0060318361315a565b91507f4552433732313a207472616e736665722063616c6c6572206973206e6f74206f60008301527f776e6572206e6f7220617070726f7665640000000000000000000000000000006020830152604082019050919050565b612d628161329b565b82525050565b6000612d748284612694565b915081905092915050565b6000612d8b8285612694565b9150612d978284612694565b91508190509392505050565b6000602082019050612db86000830184612604565b92915050565b6000608082019050612dd36000830187612604565b612de06020830186612604565b612ded6040830185612d59565b8181036060830152612dff8184612622565b905095945050505050565b6000602082019050612e1f6000830184612613565b92915050565b60006020820190508181036000830152612e3f818461265b565b905092915050565b60006020820190508181036000830152612e60816126c5565b9050919050565b60006020820190508181036000830152612e808161272b565b9050919050565b60006020820190508181036000830152612ea081612791565b9050919050565b60006020820190508181036000830152612ec0816127d1565b9050919050565b60006020820190508181036000830152612ee081612837565b9050919050565b60006020820190508181036000830152612f0081612877565b9050919050565b60006020820190508181036000830152612f20816128dd565b9050919050565b60006020820190508181036000830152612f4081612943565b9050919050565b60006020820190508181036000830152612f60816129a9565b9050919050565b60006020820190508181036000830152612f8081612a0f565b9050919050565b60006020820190508181036000830152612fa081612a75565b9050919050565b60006020820190508181036000830152612fc081612ab5565b9050919050565b60006020820190508181036000830152612fe081612b1b565b9050919050565b6000602082019050818103600083015261300081612b81565b9050919050565b6000602082019050818103600083015261302081612bc1565b9050919050565b6000602082019050818103600083015261304081612c27565b9050919050565b6000602082019050818103600083015261306081612c8d565b9050919050565b6000602082019050818103600083015261308081612cf3565b9050919050565b600060208201905061309c6000830184612d59565b92915050565b6000604051905081810181811067ffffffffffffffff821117156130c9576130c8613420565b5b8060405250919050565b600067ffffffffffffffff8211156130ee576130ed613420565b5b601f19601f8301169050602081019050919050565b600067ffffffffffffffff82111561311e5761311d613420565b5b601f19601f8301169050602081019050919050565b600081519050919050565b600081519050919050565b600082825260208201905092915050565b600082825260208201905092915050565b600081905092915050565b60006131818261329b565b915061318c8361329b565b9250827fffffffffffffffffffffffffffffffffffffffffffffffffffffffffffffffff038211156131c1576131c0613393565b5b828201905092915050565b60006131d78261329b565b91506131e28361329b565b9250826131f2576131f16133c2565b5b828204905092915050565b60006132088261329b565b91506132138361329b565b92508282101561322657613225613393565b5b828203905092915050565b600061323c8261327b565b9050919050565b60008115159050919050565b60007fffffffff0000000000000000000000000000000000000000000000000000000082169050919050565b600073ffffffffffffffffffffffffffffffffffffffff82169050919050565b6000819050919050565b82818337600083830152505050565b60005b838110156132d25780820151818401526020810190506132b7565b838111156132e1576000848401525b50505050565b600060028204905060018216806132ff57607f821691505b60208210811415613313576133126133f1565b5b50919050565b60006133248261329b565b91507fffffffffffffffffffffffffffffffffffffffffffffffffffffffffffffffff82141561335757613356613393565b5b600182019050919050565b600061336d8261329b565b91506133788361329b565b925082613388576133876133c2565b5b828206905092915050565b7f4e487b7100000000000000000000000000000000000000000000000000000000600052601160045260246000fd5b7f4e487b7100000000000000000000000000000000000000000000000000000000600052601260045260246000fd5b7f4e487b7100000000000000000000000000000000000000000000000000000000600052602260045260246000fd5b7f4e487b7100000000000000000000000000000000000000000000000000000000600052604160045260246000fd5b6000601f19601f8301169050919050565b61346981613231565b811461347457600080fd5b50565b61348081613243565b811461348b57600080fd5b50565b6134978161324f565b81146134a257600080fd5b50565b6134ae8161329b565b81146134b957600080fd5b5056fe68747470733a2f2f697066732e696f2f697066732f516d6362716d516e333234385779746f4e504b62617050387259586d72316566566e6238743771456938614c6759a264697066735822122056e4bf1a87a4853dad835195eec9e95693e4859c09e0fda8aff0c7fc2f02484864736f6c63430008000033",
  "immutableReferences": {},
  "source": "// SPDX-License-Identifier: MIT\r\npragma solidity >=0.4.22 <0.9.0;\r\n\r\nimport \"@openzeppelin/contracts/token/ERC721/extensions/ERC721URIStorage.sol\";\r\n//import \"@openzeppelin/contracts/token/ERC721/ERC721.sol\";\r\nimport \"@openzeppelin/contracts/utils/Counters.sol\";\r\nimport \"@openzeppelin/contracts/access/Ownable.sol\";\r\n//TODO ADD METADATA FREEZING AND SENDTO FUNCTION\r\ncontract Postcard is ERC721URIStorage, Ownable {\r\n//    uint256 public tokenCounter;\r\n    using Counters for Counters.Counter;\r\n\r\n    Counters.Counter private _tokenIds;\r\n\r\n    mapping(string => uint8) private _hashes;\r\n\r\n    // Base URI\r\n    string private _baseURIExtended = \"https://ipfs.io/ipfs/\";\r\n\r\n    // constructor with name and symbol of nft\r\n    constructor() ERC721(\"Postcard\",\"PSC\") {\r\n    }\r\n    function totalSupply() public view returns (uint256) {\r\n        return _tokenIds.current();\r\n    }\r\n    // for opensea collection\r\n    // this is currently being used to determine which metadata(json) it uses for the NFT. token URI doesnt do anything atm\r\n    function contractURI() public pure returns (string memory) {\r\n        return \"https://ipfs.io/ipfs/QmcbqmQn3248WytoNPKbapP8rYXmr1efVnb8t7qEi8aLgY\"; // collection json ipfs\r\n    }\r\n\r\n    function setBaseURI(string memory baseURI_) external onlyOwner() {\r\n        _baseURIExtended = baseURI_;\r\n    }\r\n\r\n    function _baseURI() internal view virtual override returns (string memory) {\r\n        return _baseURIExtended;\r\n    }\r\n\r\n    function mint(string memory tokenHash)\r\n    public\r\n    onlyOwner\r\n    returns (uint256)\r\n    {\r\n        require(_hashes[tokenHash] != 1);\r\n        _hashes[tokenHash] = 1;\r\n        _tokenIds.increment();\r\n        uint256 newItemId = _tokenIds.current();\r\n        _mint(msg.sender, newItemId);\r\n        _setTokenURI(newItemId, tokenHash);\r\n        return newItemId;\r\n    }\r\n\r\n    function mintToAddress(address to, string memory tokenHash)\r\n    public\r\n    onlyOwner\r\n    returns(uint256)\r\n    {\r\n        require(_hashes[tokenHash] != 1);\r\n        _hashes[tokenHash] = 1;\r\n        _tokenIds.increment();\r\n        uint256 newItemId = _tokenIds.current();\r\n        _mint(to, newItemId);\r\n        _setTokenURI(newItemId, tokenHash);\r\n        return newItemId;\r\n    }\r\n\r\n    function duplicateMint(string memory tokenHash)\r\n    public\r\n    onlyOwner\r\n    returns (uint256)\r\n    {\r\n        _hashes[tokenHash] = 1;\r\n        _tokenIds.increment();\r\n        uint256 newItemId = _tokenIds.current();\r\n        _mint(msg.sender, newItemId);\r\n        _setTokenURI(newItemId, tokenHash);\r\n        return newItemId;\r\n    }\r\n\r\n    function duplicateMintToAddress(address to, string memory tokenHash)\r\n    public\r\n    onlyOwner\r\n    returns(uint256)\r\n    {\r\n        _hashes[tokenHash] = 1;\r\n        _tokenIds.increment();\r\n        uint256 newItemId = _tokenIds.current();\r\n        _mint(to, newItemId);\r\n        _setTokenURI(newItemId, tokenHash);\r\n        return newItemId;\r\n    }\r\n\r\n\r\n}",
  "sourcePath": "C:\\Users\\Joey\\Desktop\\BA\\starting-from-new\\src\\contracts\\Postcard.sol",
  "compiler": {
    "name": "solc",
    "version": "0.8.0+commit.c7dfd78e.Emscripten.clang"
  },
  "schemaVersion": "3.4.3",
  "updatedAt": "2021-11-23T15:13:35.658Z",
  "networkType": "ethereum",
  "devdoc": {
    "kind": "dev",
    "methods": {
      "approve(address,uint256)": {
        "details": "See {IERC721-approve}."
      },
      "balanceOf(address)": {
        "details": "See {IERC721-balanceOf}."
      },
      "getApproved(uint256)": {
        "details": "See {IERC721-getApproved}."
      },
      "isApprovedForAll(address,address)": {
        "details": "See {IERC721-isApprovedForAll}."
      },
      "name()": {
        "details": "See {IERC721Metadata-name}."
      },
      "owner()": {
        "details": "Returns the address of the current owner."
      },
      "ownerOf(uint256)": {
        "details": "See {IERC721-ownerOf}."
      },
      "renounceOwnership()": {
        "details": "Leaves the contract without owner. It will not be possible to call `onlyOwner` functions anymore. Can only be called by the current owner. NOTE: Renouncing ownership will leave the contract without an owner, thereby removing any functionality that is only available to the owner."
      },
      "safeTransferFrom(address,address,uint256)": {
        "details": "See {IERC721-safeTransferFrom}."
      },
      "safeTransferFrom(address,address,uint256,bytes)": {
        "details": "See {IERC721-safeTransferFrom}."
      },
      "setApprovalForAll(address,bool)": {
        "details": "See {IERC721-setApprovalForAll}."
      },
      "supportsInterface(bytes4)": {
        "details": "See {IERC165-supportsInterface}."
      },
      "symbol()": {
        "details": "See {IERC721Metadata-symbol}."
      },
      "tokenURI(uint256)": {
        "details": "See {IERC721Metadata-tokenURI}."
      },
      "transferFrom(address,address,uint256)": {
        "details": "See {IERC721-transferFrom}."
      },
      "transferOwnership(address)": {
        "details": "Transfers ownership of the contract to a new account (`newOwner`). Can only be called by the current owner."
      }
    },
    "version": 1
  },
  "userdoc": {
    "kind": "user",
    "methods": {},
    "version": 1
  }
}