{
  "contractName": "Postcard",
  "abi": [
    {
      "inputs": [],
      "stateMutability": "nonpayable",
      "type": "constructor"
    },
    {
      "anonymous": false,
      "inputs": [
        {
          "indexed": true,
          "internalType": "address",
          "name": "owner",
          "type": "address"
        },
        {
          "indexed": true,
          "internalType": "address",
          "name": "approved",
          "type": "address"
        },
        {
          "indexed": true,
          "internalType": "uint256",
          "name": "tokenId",
          "type": "uint256"
        }
      ],
      "name": "Approval",
      "type": "event"
    },
    {
      "anonymous": false,
      "inputs": [
        {
          "indexed": true,
          "internalType": "address",
          "name": "owner",
          "type": "address"
        },
        {
          "indexed": true,
          "internalType": "address",
          "name": "operator",
          "type": "address"
        },
        {
          "indexed": false,
          "internalType": "bool",
          "name": "approved",
          "type": "bool"
        }
      ],
      "name": "ApprovalForAll",
      "type": "event"
    },
    {
      "anonymous": false,
      "inputs": [
        {
          "indexed": true,
          "internalType": "address",
          "name": "previousOwner",
          "type": "address"
        },
        {
          "indexed": true,
          "internalType": "address",
          "name": "newOwner",
          "type": "address"
        }
      ],
      "name": "OwnershipTransferred",
      "type": "event"
    },
    {
      "anonymous": false,
      "inputs": [
        {
          "indexed": true,
          "internalType": "address",
          "name": "from",
          "type": "address"
        },
        {
          "indexed": true,
          "internalType": "address",
          "name": "to",
          "type": "address"
        },
        {
          "indexed": true,
          "internalType": "uint256",
          "name": "tokenId",
          "type": "uint256"
        }
      ],
      "name": "Transfer",
      "type": "event"
    },
    {
      "inputs": [
        {
          "internalType": "address",
          "name": "to",
          "type": "address"
        },
        {
          "internalType": "uint256",
          "name": "tokenId",
          "type": "uint256"
        }
      ],
      "name": "approve",
      "outputs": [],
      "stateMutability": "nonpayable",
      "type": "function"
    },
    {
      "inputs": [
        {
          "internalType": "address",
          "name": "owner",
          "type": "address"
        }
      ],
      "name": "balanceOf",
      "outputs": [
        {
          "internalType": "uint256",
          "name": "",
          "type": "uint256"
        }
      ],
      "stateMutability": "view",
      "type": "function"
    },
    {
      "inputs": [
        {
          "internalType": "uint256",
          "name": "tokenId",
          "type": "uint256"
        }
      ],
      "name": "getApproved",
      "outputs": [
        {
          "internalType": "address",
          "name": "",
          "type": "address"
        }
      ],
      "stateMutability": "view",
      "type": "function"
    },
    {
      "inputs": [
        {
          "internalType": "address",
          "name": "owner",
          "type": "address"
        },
        {
          "internalType": "address",
          "name": "operator",
          "type": "address"
        }
      ],
      "name": "isApprovedForAll",
      "outputs": [
        {
          "internalType": "bool",
          "name": "",
          "type": "bool"
        }
      ],
      "stateMutability": "view",
      "type": "function"
    },
    {
      "inputs": [],
      "name": "name",
      "outputs": [
        {
          "internalType": "string",
          "name": "",
          "type": "string"
        }
      ],
      "stateMutability": "view",
      "type": "function"
    },
    {
      "inputs": [],
      "name": "owner",
      "outputs": [
        {
          "internalType": "address",
          "name": "",
          "type": "address"
        }
      ],
      "stateMutability": "view",
      "type": "function"
    },
    {
      "inputs": [
        {
          "internalType": "uint256",
          "name": "tokenId",
          "type": "uint256"
        }
      ],
      "name": "ownerOf",
      "outputs": [
        {
          "internalType": "address",
          "name": "",
          "type": "address"
        }
      ],
      "stateMutability": "view",
      "type": "function"
    },
    {
      "inputs": [],
      "name": "renounceOwnership",
      "outputs": [],
      "stateMutability": "nonpayable",
      "type": "function"
    },
    {
      "inputs": [
        {
          "internalType": "address",
          "name": "from",
          "type": "address"
        },
        {
          "internalType": "address",
          "name": "to",
          "type": "address"
        },
        {
          "internalType": "uint256",
          "name": "tokenId",
          "type": "uint256"
        }
      ],
      "name": "safeTransferFrom",
      "outputs": [],
      "stateMutability": "nonpayable",
      "type": "function"
    },
    {
      "inputs": [
        {
          "internalType": "address",
          "name": "from",
          "type": "address"
        },
        {
          "internalType": "address",
          "name": "to",
          "type": "address"
        },
        {
          "internalType": "uint256",
          "name": "tokenId",
          "type": "uint256"
        },
        {
          "internalType": "bytes",
          "name": "_data",
          "type": "bytes"
        }
      ],
      "name": "safeTransferFrom",
      "outputs": [],
      "stateMutability": "nonpayable",
      "type": "function"
    },
    {
      "inputs": [
        {
          "internalType": "address",
          "name": "operator",
          "type": "address"
        },
        {
          "internalType": "bool",
          "name": "approved",
          "type": "bool"
        }
      ],
      "name": "setApprovalForAll",
      "outputs": [],
      "stateMutability": "nonpayable",
      "type": "function"
    },
    {
      "inputs": [
        {
          "internalType": "bytes4",
          "name": "interfaceId",
          "type": "bytes4"
        }
      ],
      "name": "supportsInterface",
      "outputs": [
        {
          "internalType": "bool",
          "name": "",
          "type": "bool"
        }
      ],
      "stateMutability": "view",
      "type": "function"
    },
    {
      "inputs": [],
      "name": "symbol",
      "outputs": [
        {
          "internalType": "string",
          "name": "",
          "type": "string"
        }
      ],
      "stateMutability": "view",
      "type": "function"
    },
    {
      "inputs": [
        {
          "internalType": "address",
          "name": "from",
          "type": "address"
        },
        {
          "internalType": "address",
          "name": "to",
          "type": "address"
        },
        {
          "internalType": "uint256",
          "name": "tokenId",
          "type": "uint256"
        }
      ],
      "name": "transferFrom",
      "outputs": [],
      "stateMutability": "nonpayable",
      "type": "function"
    },
    {
      "inputs": [
        {
          "internalType": "address",
          "name": "newOwner",
          "type": "address"
        }
      ],
      "name": "transferOwnership",
      "outputs": [],
      "stateMutability": "nonpayable",
      "type": "function"
    },
    {
      "inputs": [],
      "name": "totalSupply",
      "outputs": [
        {
          "internalType": "uint256",
          "name": "",
          "type": "uint256"
        }
      ],
      "stateMutability": "view",
      "type": "function"
    },
    {
      "inputs": [],
      "name": "contractURI",
      "outputs": [
        {
          "internalType": "string",
          "name": "",
          "type": "string"
        }
      ],
      "stateMutability": "pure",
      "type": "function"
    },
    {
      "inputs": [
        {
          "internalType": "string",
          "name": "baseURI_",
          "type": "string"
        }
      ],
      "name": "setBaseURI",
      "outputs": [],
      "stateMutability": "nonpayable",
      "type": "function"
    },
    {
      "inputs": [
        {
          "internalType": "uint256",
          "name": "tokenId",
          "type": "uint256"
        }
      ],
      "name": "tokenURI",
      "outputs": [
        {
          "internalType": "string",
          "name": "",
          "type": "string"
        }
      ],
      "stateMutability": "view",
      "type": "function"
    },
    {
      "inputs": [
        {
          "internalType": "string",
          "name": "tokenHash",
          "type": "string"
        },
        {
          "internalType": "uint256",
          "name": "numberOfTokens",
          "type": "uint256"
        }
      ],
      "name": "duplicateMint",
      "outputs": [],
      "stateMutability": "nonpayable",
      "type": "function"
    },
    {
      "inputs": [
        {
          "internalType": "string",
          "name": "tokenHash",
          "type": "string"
        }
      ],
      "name": "mint",
      "outputs": [],
      "stateMutability": "nonpayable",
      "type": "function"
    }
  ],
  "bytecode": "0x60806040526040518060400160405280601581526020017f68747470733a2f2f697066732e696f2f697066732f0000000000000000000000815250600a908051906020019062000051929190620001f4565b503480156200005f57600080fd5b506040518060400160405280600881526020017f506f7374636172640000000000000000000000000000000000000000000000008152506040518060400160405280600381526020017f50534300000000000000000000000000000000000000000000000000000000008152508160009080519060200190620000e4929190620001f4565b508060019080519060200190620000fd929190620001f4565b50505062000120620001146200012660201b60201c565b6200012e60201b60201c565b62000309565b600033905090565b6000600660009054906101000a900473ffffffffffffffffffffffffffffffffffffffff16905081600660006101000a81548173ffffffffffffffffffffffffffffffffffffffff021916908373ffffffffffffffffffffffffffffffffffffffff1602179055508173ffffffffffffffffffffffffffffffffffffffff168173ffffffffffffffffffffffffffffffffffffffff167f8be0079c531659141344cd1fd0a4f28419497f9722a3daafe3b4186f6b6457e060405160405180910390a35050565b8280546200020290620002a4565b90600052602060002090601f01602090048101928262000226576000855562000272565b82601f106200024157805160ff191683800117855562000272565b8280016001018555821562000272579182015b828111156200027157825182559160200191906001019062000254565b5b50905062000281919062000285565b5090565b5b80821115620002a057600081600090555060010162000286565b5090565b60006002820490506001821680620002bd57607f821691505b60208210811415620002d457620002d3620002da565b5b50919050565b7f4e487b7100000000000000000000000000000000000000000000000000000000600052602260045260246000fd5b61346480620003196000396000f3fe608060405234801561001057600080fd5b50600436106101375760003560e01c806370a08231116100b8578063b88d4fde1161007c578063b88d4fde14610326578063c87b56dd14610342578063d85d3d2714610372578063e8a3d4851461038e578063e985e9c5146103ac578063f2fde38b146103dc57610137565b806370a0823114610294578063715018a6146102c45780638da5cb5b146102ce57806395d89b41146102ec578063a22cb4651461030a57610137565b806323b872dd116100ff57806323b872dd146101f4578063343c06961461021057806342842e0e1461022c57806355f804b3146102485780636352211e1461026457610137565b806301ffc9a71461013c57806306fdde031461016c578063081812fc1461018a578063095ea7b3146101ba57806318160ddd146101d6575b600080fd5b6101566004803603810190610151919061237f565b6103f8565b6040516101639190612cd5565b60405180910390f35b6101746104da565b6040516101819190612cf0565b60405180910390f35b6101a4600480360381019061019f9190612466565b61056c565b6040516101b19190612c6e565b60405180910390f35b6101d460048036038101906101cf9190612343565b6105f1565b005b6101de610709565b6040516101eb9190612f72565b60405180910390f35b61020e6004803603810190610209919061223d565b61071a565b005b61022a60048036038101906102259190612412565b61077a565b005b6102466004803603810190610241919061223d565b610934565b005b610262600480360381019061025d91906123d1565b610954565b005b61027e60048036038101906102799190612466565b6109ea565b60405161028b9190612c6e565b60405180910390f35b6102ae60048036038101906102a991906121d8565b610a9c565b6040516102bb9190612f72565b60405180910390f35b6102cc610b54565b005b6102d6610bdc565b6040516102e39190612c6e565b60405180910390f35b6102f4610c06565b6040516103019190612cf0565b60405180910390f35b610324600480360381019061031f9190612307565b610c98565b005b610340600480360381019061033b919061228c565b610cae565b005b61035c60048036038101906103579190612466565b610d10565b6040516103699190612cf0565b60405180910390f35b61038c600480360381019061038791906123d1565b610e62565b005b610396610f7c565b6040516103a39190612cf0565b60405180910390f35b6103c660048036038101906103c19190612201565b610f9c565b6040516103d39190612cd5565b60405180910390f35b6103f660048036038101906103f191906121d8565b611030565b005b60007f80ac58cd000000000000000000000000000000000000000000000000000000007bffffffffffffffffffffffffffffffffffffffffffffffffffffffff1916827bffffffffffffffffffffffffffffffffffffffffffffffffffffffff191614806104c357507f5b5e139f000000000000000000000000000000000000000000000000000000007bffffffffffffffffffffffffffffffffffffffffffffffffffffffff1916827bffffffffffffffffffffffffffffffffffffffffffffffffffffffff1916145b806104d357506104d282611128565b5b9050919050565b6060600080546104e990613216565b80601f016020809104026020016040519081016040528092919081815260200182805461051590613216565b80156105625780601f1061053757610100808354040283529160200191610562565b820191906000526020600020905b81548152906001019060200180831161054557829003601f168201915b5050505050905090565b600061057782611192565b6105b6576040517f08c379a00000000000000000000000000000000000000000000000000000000081526004016105ad90612e72565b60405180910390fd5b6004600083815260200190815260200160002060009054906101000a900473ffffffffffffffffffffffffffffffffffffffff169050919050565b60006105fc826109ea565b90508073ffffffffffffffffffffffffffffffffffffffff168373ffffffffffffffffffffffffffffffffffffffff16141561066d576040517f08c379a000000000000000000000000000000000000000000000000000000000815260040161066490612ef2565b60405180910390fd5b8073ffffffffffffffffffffffffffffffffffffffff1661068c6111fe565b73ffffffffffffffffffffffffffffffffffffffff1614806106bb57506106ba816106b56111fe565b610f9c565b5b6106fa576040517f08c379a00000000000000000000000000000000000000000000000000000000081526004016106f190612df2565b60405180910390fd5b6107048383611206565b505050565b600061071560076112bf565b905090565b61072b6107256111fe565b826112cd565b61076a576040517f08c379a000000000000000000000000000000000000000000000000000000000815260040161076190612f12565b60405180910390fd5b6107758383836113ab565b505050565b6107826111fe565b73ffffffffffffffffffffffffffffffffffffffff166107a0610bdc565b73ffffffffffffffffffffffffffffffffffffffff16146107f6576040517f08c379a00000000000000000000000000000000000000000000000000000000081526004016107ed90612e92565b60405180910390fd5b600a81111561083a576040517f08c379a000000000000000000000000000000000000000000000000000000000815260040161083190612dd2565b60405180910390fd5b606460098360405161084c9190612c33565b908152602001604051809103902060009054906101000a900460ff1660ff16111561087657600080fd5b60005b8181101561092f5760016009846040516108939190612c33565b908152602001604051809103902060009054906101000a900460ff166108b991906130b7565b6009846040516108c99190612c33565b908152602001604051809103902060006101000a81548160ff021916908360ff1602179055506108f96007611607565b600061090560076112bf565b9050610911338261161d565b61091b818561163b565b50808061092790613248565b915050610879565b505050565b61094f83838360405180602001604052806000815250610cae565b505050565b61095c6111fe565b73ffffffffffffffffffffffffffffffffffffffff1661097a610bdc565b73ffffffffffffffffffffffffffffffffffffffff16146109d0576040517f08c379a00000000000000000000000000000000000000000000000000000000081526004016109c790612e92565b60405180910390fd5b80600a90805190602001906109e6929190611ffc565b5050565b6000806002600084815260200190815260200160002060009054906101000a900473ffffffffffffffffffffffffffffffffffffffff169050600073ffffffffffffffffffffffffffffffffffffffff168173ffffffffffffffffffffffffffffffffffffffff161415610a93576040517f08c379a0000000000000000000000000000000000000000000000000000000008152600401610a8a90612e32565b60405180910390fd5b80915050919050565b60008073ffffffffffffffffffffffffffffffffffffffff168273ffffffffffffffffffffffffffffffffffffffff161415610b0d576040517f08c379a0000000000000000000000000000000000000000000000000000000008152600401610b0490612e12565b60405180910390fd5b600360008373ffffffffffffffffffffffffffffffffffffffff1673ffffffffffffffffffffffffffffffffffffffff168152602001908152602001600020549050919050565b610b5c6111fe565b73ffffffffffffffffffffffffffffffffffffffff16610b7a610bdc565b73ffffffffffffffffffffffffffffffffffffffff1614610bd0576040517f08c379a0000000000000000000000000000000000000000000000000000000008152600401610bc790612e92565b60405180910390fd5b610bda60006116af565b565b6000600660009054906101000a900473ffffffffffffffffffffffffffffffffffffffff16905090565b606060018054610c1590613216565b80601f0160208091040260200160405190810160405280929190818152602001828054610c4190613216565b8015610c8e5780601f10610c6357610100808354040283529160200191610c8e565b820191906000526020600020905b815481529060010190602001808311610c7157829003601f168201915b5050505050905090565b610caa610ca36111fe565b8383611775565b5050565b610cbf610cb96111fe565b836112cd565b610cfe576040517f08c379a0000000000000000000000000000000000000000000000000000000008152600401610cf590612f12565b60405180910390fd5b610d0a848484846118e2565b50505050565b6060610d1b82611192565b610d5a576040517f08c379a0000000000000000000000000000000000000000000000000000000008152600401610d5190612f52565b60405180910390fd5b6000600860008481526020019081526020016000208054610d7a90613216565b80601f0160208091040260200160405190810160405280929190818152602001828054610da690613216565b8015610df35780601f10610dc857610100808354040283529160200191610df3565b820191906000526020600020905b815481529060010190602001808311610dd657829003601f168201915b505050505090506000610e0461193e565b9050600081511415610e1a578192505050610e5d565b600082511115610e4f578082604051602001610e37929190612c4a565b60405160208183030381529060405292505050610e5d565b610e58846119d0565b925050505b919050565b610e6a6111fe565b73ffffffffffffffffffffffffffffffffffffffff16610e88610bdc565b73ffffffffffffffffffffffffffffffffffffffff1614610ede576040517f08c379a0000000000000000000000000000000000000000000000000000000008152600401610ed590612e92565b60405180910390fd5b6001600982604051610ef09190612c33565b908152602001604051809103902060009054906101000a900460ff16610f1691906130b7565b600982604051610f269190612c33565b908152602001604051809103902060006101000a81548160ff021916908360ff160217905550610f566007611607565b6000610f6260076112bf565b9050610f6e338261161d565b610f78818361163b565b5050565b60606040518060800160405280604381526020016133ec60439139905090565b6000600560008473ffffffffffffffffffffffffffffffffffffffff1673ffffffffffffffffffffffffffffffffffffffff16815260200190815260200160002060008373ffffffffffffffffffffffffffffffffffffffff1673ffffffffffffffffffffffffffffffffffffffff16815260200190815260200160002060009054906101000a900460ff16905092915050565b6110386111fe565b73ffffffffffffffffffffffffffffffffffffffff16611056610bdc565b73ffffffffffffffffffffffffffffffffffffffff16146110ac576040517f08c379a00000000000000000000000000000000000000000000000000000000081526004016110a390612e92565b60405180910390fd5b600073ffffffffffffffffffffffffffffffffffffffff168173ffffffffffffffffffffffffffffffffffffffff16141561111c576040517f08c379a000000000000000000000000000000000000000000000000000000000815260040161111390612d32565b60405180910390fd5b611125816116af565b50565b60007f01ffc9a7000000000000000000000000000000000000000000000000000000007bffffffffffffffffffffffffffffffffffffffffffffffffffffffff1916827bffffffffffffffffffffffffffffffffffffffffffffffffffffffff1916149050919050565b60008073ffffffffffffffffffffffffffffffffffffffff166002600084815260200190815260200160002060009054906101000a900473ffffffffffffffffffffffffffffffffffffffff1673ffffffffffffffffffffffffffffffffffffffff1614159050919050565b600033905090565b816004600083815260200190815260200160002060006101000a81548173ffffffffffffffffffffffffffffffffffffffff021916908373ffffffffffffffffffffffffffffffffffffffff160217905550808273ffffffffffffffffffffffffffffffffffffffff16611279836109ea565b73ffffffffffffffffffffffffffffffffffffffff167f8c5be1e5ebec7d5bd14f71427d1e84f3dd0314c0f7b2291e5b200ac8c7c3b92560405160405180910390a45050565b600081600001549050919050565b60006112d882611192565b611317576040517f08c379a000000000000000000000000000000000000000000000000000000000815260040161130e90612db2565b60405180910390fd5b6000611322836109ea565b90508073ffffffffffffffffffffffffffffffffffffffff168473ffffffffffffffffffffffffffffffffffffffff16148061139157508373ffffffffffffffffffffffffffffffffffffffff166113798461056c565b73ffffffffffffffffffffffffffffffffffffffff16145b806113a257506113a18185610f9c565b5b91505092915050565b8273ffffffffffffffffffffffffffffffffffffffff166113cb826109ea565b73ffffffffffffffffffffffffffffffffffffffff1614611421576040517f08c379a000000000000000000000000000000000000000000000000000000000815260040161141890612eb2565b60405180910390fd5b600073ffffffffffffffffffffffffffffffffffffffff168273ffffffffffffffffffffffffffffffffffffffff161415611491576040517f08c379a000000000000000000000000000000000000000000000000000000000815260040161148890612d72565b60405180910390fd5b61149c838383611a77565b6114a7600082611206565b6001600360008573ffffffffffffffffffffffffffffffffffffffff1673ffffffffffffffffffffffffffffffffffffffff16815260200190815260200160002060008282546114f7919061311f565b925050819055506001600360008473ffffffffffffffffffffffffffffffffffffffff1673ffffffffffffffffffffffffffffffffffffffff168152602001908152602001600020600082825461154e9190613061565b92505081905550816002600083815260200190815260200160002060006101000a81548173ffffffffffffffffffffffffffffffffffffffff021916908373ffffffffffffffffffffffffffffffffffffffff160217905550808273ffffffffffffffffffffffffffffffffffffffff168473ffffffffffffffffffffffffffffffffffffffff167fddf252ad1be2c89b69c2b068fc378daa952ba7f163c4a11628f55a4df523b3ef60405160405180910390a4505050565b6001816000016000828254019250508190555050565b611637828260405180602001604052806000815250611a7c565b5050565b61164482611192565b611683576040517f08c379a000000000000000000000000000000000000000000000000000000000815260040161167a90612f32565b60405180910390fd5b806008600084815260200190815260200160002090805190602001906116aa929190611ffc565b505050565b6000600660009054906101000a900473ffffffffffffffffffffffffffffffffffffffff16905081600660006101000a81548173ffffffffffffffffffffffffffffffffffffffff021916908373ffffffffffffffffffffffffffffffffffffffff1602179055508173ffffffffffffffffffffffffffffffffffffffff168173ffffffffffffffffffffffffffffffffffffffff167f8be0079c531659141344cd1fd0a4f28419497f9722a3daafe3b4186f6b6457e060405160405180910390a35050565b8173ffffffffffffffffffffffffffffffffffffffff168373ffffffffffffffffffffffffffffffffffffffff1614156117e4576040517f08c379a00000000000000000000000000000000000000000000000000000000081526004016117db90612d92565b60405180910390fd5b80600560008573ffffffffffffffffffffffffffffffffffffffff1673ffffffffffffffffffffffffffffffffffffffff16815260200190815260200160002060008473ffffffffffffffffffffffffffffffffffffffff1673ffffffffffffffffffffffffffffffffffffffff16815260200190815260200160002060006101000a81548160ff0219169083151502179055508173ffffffffffffffffffffffffffffffffffffffff168373ffffffffffffffffffffffffffffffffffffffff167f17307eab39ab6107e8899845ad3d59bd9653f200f220920489ca2b5937696c31836040516118d59190612cd5565b60405180910390a3505050565b6118ed8484846113ab565b6118f984848484611ad7565b611938576040517f08c379a000000000000000000000000000000000000000000000000000000000815260040161192f90612d12565b60405180910390fd5b50505050565b6060600a805461194d90613216565b80601f016020809104026020016040519081016040528092919081815260200182805461197990613216565b80156119c65780601f1061199b576101008083540402835291602001916119c6565b820191906000526020600020905b8154815290600101906020018083116119a957829003601f168201915b5050505050905090565b60606119db82611192565b611a1a576040517f08c379a0000000000000000000000000000000000000000000000000000000008152600401611a1190612ed2565b60405180910390fd5b6000611a2461193e565b90506000815111611a445760405180602001604052806000815250611a6f565b80611a4e84611c6e565b604051602001611a5f929190612c4a565b6040516020818303038152906040525b915050919050565b505050565b611a868383611e1b565b611a936000848484611ad7565b611ad2576040517f08c379a0000000000000000000000000000000000000000000000000000000008152600401611ac990612d12565b60405180910390fd5b505050565b6000611af88473ffffffffffffffffffffffffffffffffffffffff16611fe9565b15611c61578373ffffffffffffffffffffffffffffffffffffffff1663150b7a02611b216111fe565b8786866040518563ffffffff1660e01b8152600401611b439493929190612c89565b602060405180830381600087803b158015611b5d57600080fd5b505af1925050508015611b8e57506040513d601f19601f82011682018060405250810190611b8b91906123a8565b60015b611c11573d8060008114611bbe576040519150601f19603f3d011682016040523d82523d6000602084013e611bc3565b606091505b50600081511415611c09576040517f08c379a0000000000000000000000000000000000000000000000000000000008152600401611c0090612d12565b60405180910390fd5b805181602001fd5b63150b7a0260e01b7bffffffffffffffffffffffffffffffffffffffffffffffffffffffff1916817bffffffffffffffffffffffffffffffffffffffffffffffffffffffff191614915050611c66565b600190505b949350505050565b60606000821415611cb6576040518060400160405280600181526020017f30000000000000000000000000000000000000000000000000000000000000008152509050611e16565b600082905060005b60008214611ce8578080611cd190613248565b915050600a82611ce191906130ee565b9150611cbe565b60008167ffffffffffffffff811115611d2a577f4e487b7100000000000000000000000000000000000000000000000000000000600052604160045260246000fd5b6040519080825280601f01601f191660200182016040528015611d5c5781602001600182028036833780820191505090505b5090505b60008514611e0f57600182611d75919061311f565b9150600a85611d849190613291565b6030611d909190613061565b60f81b818381518110611dcc577f4e487b7100000000000000000000000000000000000000000000000000000000600052603260045260246000fd5b60200101907effffffffffffffffffffffffffffffffffffffffffffffffffffffffffffff1916908160001a905350600a85611e0891906130ee565b9450611d60565b8093505050505b919050565b600073ffffffffffffffffffffffffffffffffffffffff168273ffffffffffffffffffffffffffffffffffffffff161415611e8b576040517f08c379a0000000000000000000000000000000000000000000000000000000008152600401611e8290612e52565b60405180910390fd5b611e9481611192565b15611ed4576040517f08c379a0000000000000000000000000000000000000000000000000000000008152600401611ecb90612d52565b60405180910390fd5b611ee060008383611a77565b6001600360008473ffffffffffffffffffffffffffffffffffffffff1673ffffffffffffffffffffffffffffffffffffffff1681526020019081526020016000206000828254611f309190613061565b92505081905550816002600083815260200190815260200160002060006101000a81548173ffffffffffffffffffffffffffffffffffffffff021916908373ffffffffffffffffffffffffffffffffffffffff160217905550808273ffffffffffffffffffffffffffffffffffffffff16600073ffffffffffffffffffffffffffffffffffffffff167fddf252ad1be2c89b69c2b068fc378daa952ba7f163c4a11628f55a4df523b3ef60405160405180910390a45050565b600080823b905060008111915050919050565b82805461200890613216565b90600052602060002090601f01602090048101928261202a5760008555612071565b82601f1061204357805160ff1916838001178555612071565b82800160010185558215612071579182015b82811115612070578251825591602001919060010190612055565b5b50905061207e9190612082565b5090565b5b8082111561209b576000816000905550600101612083565b5090565b60006120b26120ad84612fbe565b612f8d565b9050828152602081018484840111156120ca57600080fd5b6120d58482856131d4565b509392505050565b60006120f06120eb84612fee565b612f8d565b90508281526020810184848401111561210857600080fd5b6121138482856131d4565b509392505050565b60008135905061212a8161338f565b92915050565b60008135905061213f816133a6565b92915050565b600081359050612154816133bd565b92915050565b600081519050612169816133bd565b92915050565b600082601f83011261218057600080fd5b813561219084826020860161209f565b91505092915050565b600082601f8301126121aa57600080fd5b81356121ba8482602086016120dd565b91505092915050565b6000813590506121d2816133d4565b92915050565b6000602082840312156121ea57600080fd5b60006121f88482850161211b565b91505092915050565b6000806040838503121561221457600080fd5b60006122228582860161211b565b92505060206122338582860161211b565b9150509250929050565b60008060006060848603121561225257600080fd5b60006122608682870161211b565b93505060206122718682870161211b565b9250506040612282868287016121c3565b9150509250925092565b600080600080608085870312156122a257600080fd5b60006122b08782880161211b565b94505060206122c18782880161211b565b93505060406122d2878288016121c3565b925050606085013567ffffffffffffffff8111156122ef57600080fd5b6122fb8782880161216f565b91505092959194509250565b6000806040838503121561231a57600080fd5b60006123288582860161211b565b925050602061233985828601612130565b9150509250929050565b6000806040838503121561235657600080fd5b60006123648582860161211b565b9250506020612375858286016121c3565b9150509250929050565b60006020828403121561239157600080fd5b600061239f84828501612145565b91505092915050565b6000602082840312156123ba57600080fd5b60006123c88482850161215a565b91505092915050565b6000602082840312156123e357600080fd5b600082013567ffffffffffffffff8111156123fd57600080fd5b61240984828501612199565b91505092915050565b6000806040838503121561242557600080fd5b600083013567ffffffffffffffff81111561243f57600080fd5b61244b85828601612199565b925050602061245c858286016121c3565b9150509250929050565b60006020828403121561247857600080fd5b6000612486848285016121c3565b91505092915050565b61249881613153565b82525050565b6124a781613165565b82525050565b60006124b88261301e565b6124c28185613034565b93506124d28185602086016131e3565b6124db8161337e565b840191505092915050565b60006124f182613029565b6124fb8185613045565b935061250b8185602086016131e3565b6125148161337e565b840191505092915050565b600061252a82613029565b6125348185613056565b93506125448185602086016131e3565b80840191505092915050565b600061255d603283613045565b91507f4552433732313a207472616e7366657220746f206e6f6e20455243373231526560008301527f63656976657220696d706c656d656e74657200000000000000000000000000006020830152604082019050919050565b60006125c3602683613045565b91507f4f776e61626c653a206e6577206f776e657220697320746865207a65726f206160008301527f64647265737300000000000000000000000000000000000000000000000000006020830152604082019050919050565b6000612629601c83613045565b91507f4552433732313a20746f6b656e20616c7265616479206d696e746564000000006000830152602082019050919050565b6000612669602483613045565b91507f4552433732313a207472616e7366657220746f20746865207a65726f2061646460008301527f72657373000000000000000000000000000000000000000000000000000000006020830152604082019050919050565b60006126cf601983613045565b91507f4552433732313a20617070726f766520746f2063616c6c6572000000000000006000830152602082019050919050565b600061270f602c83613045565b91507f4552433732313a206f70657261746f7220717565727920666f72206e6f6e657860008301527f697374656e7420746f6b656e00000000000000000000000000000000000000006020830152604082019050919050565b6000612775601883613045565b91507f6e6f74206d6f7265207468616e203130206174206f6e636500000000000000006000830152602082019050919050565b60006127b5603883613045565b91507f4552433732313a20617070726f76652063616c6c6572206973206e6f74206f7760008301527f6e6572206e6f7220617070726f76656420666f7220616c6c00000000000000006020830152604082019050919050565b600061281b602a83613045565b91507f4552433732313a2062616c616e636520717565727920666f7220746865207a6560008301527f726f2061646472657373000000000000000000000000000000000000000000006020830152604082019050919050565b6000612881602983613045565b91507f4552433732313a206f776e657220717565727920666f72206e6f6e657869737460008301527f656e7420746f6b656e00000000000000000000000000000000000000000000006020830152604082019050919050565b60006128e7602083613045565b91507f4552433732313a206d696e7420746f20746865207a65726f20616464726573736000830152602082019050919050565b6000612927602c83613045565b91507f4552433732313a20617070726f76656420717565727920666f72206e6f6e657860008301527f697374656e7420746f6b656e00000000000000000000000000000000000000006020830152604082019050919050565b600061298d602083613045565b91507f4f776e61626c653a2063616c6c6572206973206e6f7420746865206f776e65726000830152602082019050919050565b60006129cd602983613045565b91507f4552433732313a207472616e73666572206f6620746f6b656e2074686174206960008301527f73206e6f74206f776e00000000000000000000000000000000000000000000006020830152604082019050919050565b6000612a33602f83613045565b91507f4552433732314d657461646174613a2055524920717565727920666f72206e6f60008301527f6e6578697374656e7420746f6b656e00000000000000000000000000000000006020830152604082019050919050565b6000612a99602183613045565b91507f4552433732313a20617070726f76616c20746f2063757272656e74206f776e6560008301527f72000000000000000000000000000000000000000000000000000000000000006020830152604082019050919050565b6000612aff603183613045565b91507f4552433732313a207472616e736665722063616c6c6572206973206e6f74206f60008301527f776e6572206e6f7220617070726f7665640000000000000000000000000000006020830152604082019050919050565b6000612b65602483613045565b91507f4552433732313a2055524920736574206f66206e6f6e6578697374656e74207460008301527f6f6b656e000000000000000000000000000000000000000000000000000000006020830152604082019050919050565b6000612bcb602783613045565b91507f4552433732313a2055524920717565727920666f72206e6f6e6578697374656e60008301527f7420746f6b656e000000000000000000000000000000000000000000000000006020830152604082019050919050565b612c2d816131bd565b82525050565b6000612c3f828461251f565b915081905092915050565b6000612c56828561251f565b9150612c62828461251f565b91508190509392505050565b6000602082019050612c83600083018461248f565b92915050565b6000608082019050612c9e600083018761248f565b612cab602083018661248f565b612cb86040830185612c24565b8181036060830152612cca81846124ad565b905095945050505050565b6000602082019050612cea600083018461249e565b92915050565b60006020820190508181036000830152612d0a81846124e6565b905092915050565b60006020820190508181036000830152612d2b81612550565b9050919050565b60006020820190508181036000830152612d4b816125b6565b9050919050565b60006020820190508181036000830152612d6b8161261c565b9050919050565b60006020820190508181036000830152612d8b8161265c565b9050919050565b60006020820190508181036000830152612dab816126c2565b9050919050565b60006020820190508181036000830152612dcb81612702565b9050919050565b60006020820190508181036000830152612deb81612768565b9050919050565b60006020820190508181036000830152612e0b816127a8565b9050919050565b60006020820190508181036000830152612e2b8161280e565b9050919050565b60006020820190508181036000830152612e4b81612874565b9050919050565b60006020820190508181036000830152612e6b816128da565b9050919050565b60006020820190508181036000830152612e8b8161291a565b9050919050565b60006020820190508181036000830152612eab81612980565b9050919050565b60006020820190508181036000830152612ecb816129c0565b9050919050565b60006020820190508181036000830152612eeb81612a26565b9050919050565b60006020820190508181036000830152612f0b81612a8c565b9050919050565b60006020820190508181036000830152612f2b81612af2565b9050919050565b60006020820190508181036000830152612f4b81612b58565b9050919050565b60006020820190508181036000830152612f6b81612bbe565b9050919050565b6000602082019050612f876000830184612c24565b92915050565b6000604051905081810181811067ffffffffffffffff82111715612fb457612fb361334f565b5b8060405250919050565b600067ffffffffffffffff821115612fd957612fd861334f565b5b601f19601f8301169050602081019050919050565b600067ffffffffffffffff8211156130095761300861334f565b5b601f19601f8301169050602081019050919050565b600081519050919050565b600081519050919050565b600082825260208201905092915050565b600082825260208201905092915050565b600081905092915050565b600061306c826131bd565b9150613077836131bd565b9250827fffffffffffffffffffffffffffffffffffffffffffffffffffffffffffffffff038211156130ac576130ab6132c2565b5b828201905092915050565b60006130c2826131c7565b91506130cd836131c7565b92508260ff038211156130e3576130e26132c2565b5b828201905092915050565b60006130f9826131bd565b9150613104836131bd565b925082613114576131136132f1565b5b828204905092915050565b600061312a826131bd565b9150613135836131bd565b925082821015613148576131476132c2565b5b828203905092915050565b600061315e8261319d565b9050919050565b60008115159050919050565b60007fffffffff0000000000000000000000000000000000000000000000000000000082169050919050565b600073ffffffffffffffffffffffffffffffffffffffff82169050919050565b6000819050919050565b600060ff82169050919050565b82818337600083830152505050565b60005b838110156132015780820151818401526020810190506131e6565b83811115613210576000848401525b50505050565b6000600282049050600182168061322e57607f821691505b6020821081141561324257613241613320565b5b50919050565b6000613253826131bd565b91507fffffffffffffffffffffffffffffffffffffffffffffffffffffffffffffffff821415613286576132856132c2565b5b600182019050919050565b600061329c826131bd565b91506132a7836131bd565b9250826132b7576132b66132f1565b5b828206905092915050565b7f4e487b7100000000000000000000000000000000000000000000000000000000600052601160045260246000fd5b7f4e487b7100000000000000000000000000000000000000000000000000000000600052601260045260246000fd5b7f4e487b7100000000000000000000000000000000000000000000000000000000600052602260045260246000fd5b7f4e487b7100000000000000000000000000000000000000000000000000000000600052604160045260246000fd5b6000601f19601f8301169050919050565b61339881613153565b81146133a357600080fd5b50565b6133af81613165565b81146133ba57600080fd5b50565b6133c681613171565b81146133d157600080fd5b50565b6133dd816131bd565b81146133e857600080fd5b5056fe68747470733a2f2f697066732e696f2f697066732f516d6362716d516e333234385779746f4e504b62617050387259586d72316566566e6238743771456938614c6759a2646970667358221220e76fe5f384fe069d90a9faff9b2f61bf77a18057459e9c4baa6fa75fca33ffbb64736f6c63430008000033",
  "immutableReferences": {},
  "source": "// SPDX-License-Identifier: MIT\r\n//pragma solidity >=0.4.22 <0.9.0;\r\npragma solidity ^0.8.0;\r\n\r\nimport \"@openzeppelin/contracts/token/ERC721/extensions/ERC721URIStorage.sol\";\r\nimport \"@openzeppelin/contracts/token/ERC721/ERC721.sol\";\r\nimport \"@openzeppelin/contracts/utils/Counters.sol\";\r\nimport \"@openzeppelin/contracts/access/Ownable.sol\";\r\n//TODO ADD METADATA FREEZING\r\n//TODO SOMETHING DOESNT WORK PROPERLY\r\n//TODO ADD PERCENT TO CREATOR OF CONTRACTS\r\n\r\n//https://github.com/neha01/nft-demo/blob/master/contracts/ArtCollectible.sol ref\r\n//https://forum.openzeppelin.com/t/function-settokenuri-in-erc721-is-gone-with-pragma-0-8-0/5978/3 another ref\r\ncontract Postcard is ERC721, Ownable {\r\n    using Strings for uint256;\r\n//    uint256 public tokenCounter;\r\n    using Counters for Counters.Counter;\r\n\r\n    Counters.Counter private _tokenIds;\r\n\r\n    // Optional mapping for token URIs\r\n    // copied from ERC721URIStorage.sol\r\n    mapping(uint256 => string) private _tokenURIs;\r\n\r\n    // mapping\r\n    // not sure if i want it or not\r\n    mapping(string => uint8) private _hashes;\r\n\r\n    // Base URI\r\n    string private _baseURIExtended = \"https://ipfs.io/ipfs/\";\r\n\r\n    // constructor with name and symbol of nft\r\n    constructor() ERC721(\"Postcard\",\"PSC\") {\r\n    }\r\n    function totalSupply() public view returns (uint256) {\r\n        return _tokenIds.current();\r\n    }\r\n\r\n    // for opensea collection\r\n    // this is currently being used to determine which metadata(json) it uses for the NFT. token URI doesnt do anything atm\r\n    function contractURI() public pure returns (string memory) {\r\n        return \"https://ipfs.io/ipfs/QmcbqmQn3248WytoNPKbapP8rYXmr1efVnb8t7qEi8aLgY\"; // collection json ipfs\r\n    }\r\n\r\n    function setBaseURI(string memory baseURI_) external onlyOwner() {\r\n        _baseURIExtended = baseURI_;\r\n    }\r\n\r\n    function _baseURI() internal view virtual override returns (string memory) {\r\n        return _baseURIExtended;\r\n    }\r\n\r\n    // copied from ERC721URIStorage.sol\r\n    function _setTokenURI(uint256 tokenId, string memory _tokenURI) internal virtual {\r\n        require(_exists(tokenId), \"ERC721: URI set of nonexistent token\");\r\n        _tokenURIs[tokenId] = _tokenURI;\r\n    }\r\n\r\n    // copied from ERC721URIStorage.sol\r\n    function _burn(uint256 tokenId) internal virtual override {\r\n        super._burn(tokenId);\r\n        if (bytes(_tokenURIs[tokenId]).length != 0) {\r\n            delete _tokenURIs[tokenId];\r\n        }\r\n    }\r\n\r\n    // copied from ERC721URIStorage.sol\r\n    function tokenURI(uint256 tokenId) public view virtual override returns (string memory) {\r\n        require(_exists(tokenId), \"ERC721: URI query for nonexistent token\");\r\n\r\n        string memory _tokenURI = _tokenURIs[tokenId];\r\n        string memory base = _baseURI();\r\n\r\n        // If there is no base URI, return the token URI.\r\n        if (bytes(base).length == 0) {\r\n            return _tokenURI;\r\n        }\r\n        // If both are set, concatenate the baseURI and tokenURI (via abi.encodePacked).\r\n        if (bytes(_tokenURI).length > 0) {\r\n            return string(abi.encodePacked(base, _tokenURI));\r\n        }\r\n\r\n        return super.tokenURI(tokenId);\r\n    }\r\n\r\n    function duplicateMint(string memory tokenHash, uint256 numberOfTokens)\r\n    public\r\n    onlyOwner\r\n    {\r\n        require(numberOfTokens<=10, \"not more than 10 at once\");\r\n        require(_hashes[tokenHash]<=100);\r\n\r\n        for(uint256 i=0; i < numberOfTokens; i++){\r\n            _hashes[tokenHash] = _hashes[tokenHash] + 1;\r\n            _tokenIds.increment();\r\n            uint256 newItemId = _tokenIds.current();\r\n            _safeMint(msg.sender, newItemId);\r\n            _setTokenURI(newItemId, tokenHash);\r\n        }\r\n    }\r\n    function mint(string memory tokenHash)\r\n    public\r\n    onlyOwner\r\n    {\r\n            _hashes[tokenHash] = _hashes[tokenHash] + 1;\r\n            _tokenIds.increment();\r\n            uint256 newItemId = _tokenIds.current();\r\n            _safeMint(msg.sender, newItemId);\r\n            _setTokenURI(newItemId, tokenHash);\r\n    }\r\n\r\n}",
  "sourcePath": "C:\\Users\\Joey\\Desktop\\BA\\souvenir-minter\\src\\contracts\\Postcard.sol",
  "compiler": {
    "name": "solc",
    "version": "0.8.0+commit.c7dfd78e.Emscripten.clang"
  },
  "schemaVersion": "3.4.3",
  "updatedAt": "2022-01-31T15:22:23.886Z",
  "devdoc": {
    "kind": "dev",
    "methods": {
      "approve(address,uint256)": {
        "details": "See {IERC721-approve}."
      },
      "balanceOf(address)": {
        "details": "See {IERC721-balanceOf}."
      },
      "getApproved(uint256)": {
        "details": "See {IERC721-getApproved}."
      },
      "isApprovedForAll(address,address)": {
        "details": "See {IERC721-isApprovedForAll}."
      },
      "name()": {
        "details": "See {IERC721Metadata-name}."
      },
      "owner()": {
        "details": "Returns the address of the current owner."
      },
      "ownerOf(uint256)": {
        "details": "See {IERC721-ownerOf}."
      },
      "renounceOwnership()": {
        "details": "Leaves the contract without owner. It will not be possible to call `onlyOwner` functions anymore. Can only be called by the current owner. NOTE: Renouncing ownership will leave the contract without an owner, thereby removing any functionality that is only available to the owner."
      },
      "safeTransferFrom(address,address,uint256)": {
        "details": "See {IERC721-safeTransferFrom}."
      },
      "safeTransferFrom(address,address,uint256,bytes)": {
        "details": "See {IERC721-safeTransferFrom}."
      },
      "setApprovalForAll(address,bool)": {
        "details": "See {IERC721-setApprovalForAll}."
      },
      "supportsInterface(bytes4)": {
        "details": "See {IERC165-supportsInterface}."
      },
      "symbol()": {
        "details": "See {IERC721Metadata-symbol}."
      },
      "tokenURI(uint256)": {
        "details": "See {IERC721Metadata-tokenURI}."
      },
      "transferFrom(address,address,uint256)": {
        "details": "See {IERC721-transferFrom}."
      },
      "transferOwnership(address)": {
        "details": "Transfers ownership of the contract to a new account (`newOwner`). Can only be called by the current owner."
      }
    },
    "version": 1
  },
  "userdoc": {
    "kind": "user",
    "methods": {},
    "version": 1
  }
}