{
  "contractName": "Postcard",
  "abi": [
    {
      "inputs": [],
      "stateMutability": "nonpayable",
      "type": "constructor"
    },
    {
      "anonymous": false,
      "inputs": [
        {
          "indexed": true,
          "internalType": "address",
          "name": "owner",
          "type": "address"
        },
        {
          "indexed": true,
          "internalType": "address",
          "name": "approved",
          "type": "address"
        },
        {
          "indexed": true,
          "internalType": "uint256",
          "name": "tokenId",
          "type": "uint256"
        }
      ],
      "name": "Approval",
      "type": "event"
    },
    {
      "anonymous": false,
      "inputs": [
        {
          "indexed": true,
          "internalType": "address",
          "name": "owner",
          "type": "address"
        },
        {
          "indexed": true,
          "internalType": "address",
          "name": "operator",
          "type": "address"
        },
        {
          "indexed": false,
          "internalType": "bool",
          "name": "approved",
          "type": "bool"
        }
      ],
      "name": "ApprovalForAll",
      "type": "event"
    },
    {
      "anonymous": false,
      "inputs": [
        {
          "indexed": true,
          "internalType": "address",
          "name": "previousOwner",
          "type": "address"
        },
        {
          "indexed": true,
          "internalType": "address",
          "name": "newOwner",
          "type": "address"
        }
      ],
      "name": "OwnershipTransferred",
      "type": "event"
    },
    {
      "anonymous": false,
      "inputs": [
        {
          "indexed": true,
          "internalType": "address",
          "name": "from",
          "type": "address"
        },
        {
          "indexed": true,
          "internalType": "address",
          "name": "to",
          "type": "address"
        },
        {
          "indexed": true,
          "internalType": "uint256",
          "name": "tokenId",
          "type": "uint256"
        }
      ],
      "name": "Transfer",
      "type": "event"
    },
    {
      "inputs": [
        {
          "internalType": "address",
          "name": "to",
          "type": "address"
        },
        {
          "internalType": "uint256",
          "name": "tokenId",
          "type": "uint256"
        }
      ],
      "name": "approve",
      "outputs": [],
      "stateMutability": "nonpayable",
      "type": "function"
    },
    {
      "inputs": [
        {
          "internalType": "address",
          "name": "owner",
          "type": "address"
        }
      ],
      "name": "balanceOf",
      "outputs": [
        {
          "internalType": "uint256",
          "name": "",
          "type": "uint256"
        }
      ],
      "stateMutability": "view",
      "type": "function",
      "constant": true
    },
    {
      "inputs": [
        {
          "internalType": "uint256",
          "name": "tokenId",
          "type": "uint256"
        }
      ],
      "name": "getApproved",
      "outputs": [
        {
          "internalType": "address",
          "name": "",
          "type": "address"
        }
      ],
      "stateMutability": "view",
      "type": "function",
      "constant": true
    },
    {
      "inputs": [
        {
          "internalType": "address",
          "name": "owner",
          "type": "address"
        },
        {
          "internalType": "address",
          "name": "operator",
          "type": "address"
        }
      ],
      "name": "isApprovedForAll",
      "outputs": [
        {
          "internalType": "bool",
          "name": "",
          "type": "bool"
        }
      ],
      "stateMutability": "view",
      "type": "function",
      "constant": true
    },
    {
      "inputs": [],
      "name": "name",
      "outputs": [
        {
          "internalType": "string",
          "name": "",
          "type": "string"
        }
      ],
      "stateMutability": "view",
      "type": "function",
      "constant": true
    },
    {
      "inputs": [],
      "name": "owner",
      "outputs": [
        {
          "internalType": "address",
          "name": "",
          "type": "address"
        }
      ],
      "stateMutability": "view",
      "type": "function",
      "constant": true
    },
    {
      "inputs": [
        {
          "internalType": "uint256",
          "name": "tokenId",
          "type": "uint256"
        }
      ],
      "name": "ownerOf",
      "outputs": [
        {
          "internalType": "address",
          "name": "",
          "type": "address"
        }
      ],
      "stateMutability": "view",
      "type": "function",
      "constant": true
    },
    {
      "inputs": [],
      "name": "renounceOwnership",
      "outputs": [],
      "stateMutability": "nonpayable",
      "type": "function"
    },
    {
      "inputs": [
        {
          "internalType": "address",
          "name": "from",
          "type": "address"
        },
        {
          "internalType": "address",
          "name": "to",
          "type": "address"
        },
        {
          "internalType": "uint256",
          "name": "tokenId",
          "type": "uint256"
        }
      ],
      "name": "safeTransferFrom",
      "outputs": [],
      "stateMutability": "nonpayable",
      "type": "function"
    },
    {
      "inputs": [
        {
          "internalType": "address",
          "name": "from",
          "type": "address"
        },
        {
          "internalType": "address",
          "name": "to",
          "type": "address"
        },
        {
          "internalType": "uint256",
          "name": "tokenId",
          "type": "uint256"
        },
        {
          "internalType": "bytes",
          "name": "_data",
          "type": "bytes"
        }
      ],
      "name": "safeTransferFrom",
      "outputs": [],
      "stateMutability": "nonpayable",
      "type": "function"
    },
    {
      "inputs": [
        {
          "internalType": "address",
          "name": "operator",
          "type": "address"
        },
        {
          "internalType": "bool",
          "name": "approved",
          "type": "bool"
        }
      ],
      "name": "setApprovalForAll",
      "outputs": [],
      "stateMutability": "nonpayable",
      "type": "function"
    },
    {
      "inputs": [
        {
          "internalType": "bytes4",
          "name": "interfaceId",
          "type": "bytes4"
        }
      ],
      "name": "supportsInterface",
      "outputs": [
        {
          "internalType": "bool",
          "name": "",
          "type": "bool"
        }
      ],
      "stateMutability": "view",
      "type": "function",
      "constant": true
    },
    {
      "inputs": [],
      "name": "symbol",
      "outputs": [
        {
          "internalType": "string",
          "name": "",
          "type": "string"
        }
      ],
      "stateMutability": "view",
      "type": "function",
      "constant": true
    },
    {
      "inputs": [
        {
          "internalType": "address",
          "name": "from",
          "type": "address"
        },
        {
          "internalType": "address",
          "name": "to",
          "type": "address"
        },
        {
          "internalType": "uint256",
          "name": "tokenId",
          "type": "uint256"
        }
      ],
      "name": "transferFrom",
      "outputs": [],
      "stateMutability": "nonpayable",
      "type": "function"
    },
    {
      "inputs": [
        {
          "internalType": "address",
          "name": "newOwner",
          "type": "address"
        }
      ],
      "name": "transferOwnership",
      "outputs": [],
      "stateMutability": "nonpayable",
      "type": "function"
    },
    {
      "inputs": [],
      "name": "totalSupply",
      "outputs": [
        {
          "internalType": "uint256",
          "name": "",
          "type": "uint256"
        }
      ],
      "stateMutability": "view",
      "type": "function",
      "constant": true
    },
    {
      "inputs": [],
      "name": "contractURI",
      "outputs": [
        {
          "internalType": "string",
          "name": "",
          "type": "string"
        }
      ],
      "stateMutability": "pure",
      "type": "function",
      "constant": true
    },
    {
      "inputs": [
        {
          "internalType": "string",
          "name": "baseURI_",
          "type": "string"
        }
      ],
      "name": "setBaseURI",
      "outputs": [],
      "stateMutability": "nonpayable",
      "type": "function"
    },
    {
      "inputs": [
        {
          "internalType": "uint256",
          "name": "tokenId",
          "type": "uint256"
        }
      ],
      "name": "tokenURI",
      "outputs": [
        {
          "internalType": "string",
          "name": "",
          "type": "string"
        }
      ],
      "stateMutability": "view",
      "type": "function",
      "constant": true
    },
    {
      "inputs": [
        {
          "internalType": "string",
          "name": "tokenHash",
          "type": "string"
        }
      ],
      "name": "mintOld",
      "outputs": [
        {
          "internalType": "uint256",
          "name": "",
          "type": "uint256"
        }
      ],
      "stateMutability": "nonpayable",
      "type": "function"
    },
    {
      "inputs": [
        {
          "internalType": "string",
          "name": "tokenHash",
          "type": "string"
        },
        {
          "internalType": "uint256",
          "name": "numberOfTokens",
          "type": "uint256"
        }
      ],
      "name": "duplicateMint",
      "outputs": [],
      "stateMutability": "nonpayable",
      "type": "function"
    },
    {
      "inputs": [
        {
          "internalType": "string",
          "name": "tokenHash",
          "type": "string"
        }
      ],
      "name": "mint",
      "outputs": [],
      "stateMutability": "nonpayable",
      "type": "function"
    }
  ],
  "bytecode": "0x60806040526040518060400160405280601581526020017f68747470733a2f2f697066732e696f2f697066732f0000000000000000000000815250600a908051906020019062000051929190620001f4565b503480156200005f57600080fd5b506040518060400160405280600881526020017f506f7374636172640000000000000000000000000000000000000000000000008152506040518060400160405280600381526020017f50534300000000000000000000000000000000000000000000000000000000008152508160009080519060200190620000e4929190620001f4565b508060019080519060200190620000fd929190620001f4565b50505062000120620001146200012660201b60201c565b6200012e60201b60201c565b62000309565b600033905090565b6000600660009054906101000a900473ffffffffffffffffffffffffffffffffffffffff16905081600660006101000a81548173ffffffffffffffffffffffffffffffffffffffff021916908373ffffffffffffffffffffffffffffffffffffffff1602179055508173ffffffffffffffffffffffffffffffffffffffff168173ffffffffffffffffffffffffffffffffffffffff167f8be0079c531659141344cd1fd0a4f28419497f9722a3daafe3b4186f6b6457e060405160405180910390a35050565b8280546200020290620002a4565b90600052602060002090601f01602090048101928262000226576000855562000272565b82601f106200024157805160ff191683800117855562000272565b8280016001018555821562000272579182015b828111156200027157825182559160200191906001019062000254565b5b50905062000281919062000285565b5090565b5b80821115620002a057600081600090555060010162000286565b5090565b60006002820490506001821680620002bd57607f821691505b60208210811415620002d457620002d3620002da565b5b50919050565b7f4e487b7100000000000000000000000000000000000000000000000000000000600052602260045260246000fd5b61355680620003196000396000f3fe608060405234801561001057600080fd5b50600436106101425760003560e01c806370a08231116100b8578063b88d4fde1161007c578063b88d4fde14610361578063c87b56dd1461037d578063d85d3d27146103ad578063e8a3d485146103c9578063e985e9c5146103e7578063f2fde38b1461041757610142565b806370a08231146102cf578063715018a6146102ff5780638da5cb5b1461030957806395d89b4114610327578063a22cb4651461034557610142565b806323b872dd1161010a57806323b872dd146101ff57806326aef7641461021b578063343c06961461024b57806342842e0e1461026757806355f804b3146102835780636352211e1461029f57610142565b806301ffc9a71461014757806306fdde0314610177578063081812fc14610195578063095ea7b3146101c557806318160ddd146101e1575b600080fd5b610161600480360381019061015c9190612471565b610433565b60405161016e9190612dc7565b60405180910390f35b61017f610515565b60405161018c9190612de2565b60405180910390f35b6101af60048036038101906101aa9190612558565b6105a7565b6040516101bc9190612d60565b60405180910390f35b6101df60048036038101906101da9190612435565b61062c565b005b6101e9610744565b6040516101f69190613064565b60405180910390f35b6102196004803603810190610214919061232f565b610755565b005b610235600480360381019061023091906124c3565b6107b5565b6040516102429190613064565b60405180910390f35b61026560048036038101906102609190612504565b6108dc565b005b610281600480360381019061027c919061232f565b610a96565b005b61029d600480360381019061029891906124c3565b610ab6565b005b6102b960048036038101906102b49190612558565b610b4c565b6040516102c69190612d60565b60405180910390f35b6102e960048036038101906102e491906122ca565b610bfe565b6040516102f69190613064565b60405180910390f35b610307610cb6565b005b610311610d3e565b60405161031e9190612d60565b60405180910390f35b61032f610d68565b60405161033c9190612de2565b60405180910390f35b61035f600480360381019061035a91906123f9565b610dfa565b005b61037b6004803603810190610376919061237e565b610f7b565b005b61039760048036038101906103929190612558565b610fdd565b6040516103a49190612de2565b60405180910390f35b6103c760048036038101906103c291906124c3565b61112f565b005b6103d16111db565b6040516103de9190612de2565b60405180910390f35b61040160048036038101906103fc91906122f3565b6111fb565b60405161040e9190612dc7565b60405180910390f35b610431600480360381019061042c91906122ca565b61128f565b005b60007f80ac58cd000000000000000000000000000000000000000000000000000000007bffffffffffffffffffffffffffffffffffffffffffffffffffffffff1916827bffffffffffffffffffffffffffffffffffffffffffffffffffffffff191614806104fe57507f5b5e139f000000000000000000000000000000000000000000000000000000007bffffffffffffffffffffffffffffffffffffffffffffffffffffffff1916827bffffffffffffffffffffffffffffffffffffffffffffffffffffffff1916145b8061050e575061050d82611387565b5b9050919050565b60606000805461052490613308565b80601f016020809104026020016040519081016040528092919081815260200182805461055090613308565b801561059d5780601f106105725761010080835404028352916020019161059d565b820191906000526020600020905b81548152906001019060200180831161058057829003601f168201915b5050505050905090565b60006105b2826113f1565b6105f1576040517f08c379a00000000000000000000000000000000000000000000000000000000081526004016105e890612f64565b60405180910390fd5b6004600083815260200190815260200160002060009054906101000a900473ffffffffffffffffffffffffffffffffffffffff169050919050565b600061063782610b4c565b90508073ffffffffffffffffffffffffffffffffffffffff168373ffffffffffffffffffffffffffffffffffffffff1614156106a8576040517f08c379a000000000000000000000000000000000000000000000000000000000815260040161069f90612fe4565b60405180910390fd5b8073ffffffffffffffffffffffffffffffffffffffff166106c761145d565b73ffffffffffffffffffffffffffffffffffffffff1614806106f657506106f5816106f061145d565b6111fb565b5b610735576040517f08c379a000000000000000000000000000000000000000000000000000000000815260040161072c90612ee4565b60405180910390fd5b61073f8383611465565b505050565b6000610750600761151e565b905090565b61076661076061145d565b8261152c565b6107a5576040517f08c379a000000000000000000000000000000000000000000000000000000000815260040161079c90613004565b60405180910390fd5b6107b083838361160a565b505050565b60006107bf61145d565b73ffffffffffffffffffffffffffffffffffffffff166107dd610d3e565b73ffffffffffffffffffffffffffffffffffffffff1614610833576040517f08c379a000000000000000000000000000000000000000000000000000000000815260040161082a90612f84565b60405180910390fd5b60016009836040516108459190612d25565b908152602001604051809103902060009054906101000a900460ff1660ff16141561086f57600080fd5b60016009836040516108819190612d25565b908152602001604051809103902060006101000a81548160ff021916908360ff1602179055506108b16007611866565b60006108bd600761151e565b90506108c9338261187c565b6108d3818461189a565b80915050919050565b6108e461145d565b73ffffffffffffffffffffffffffffffffffffffff16610902610d3e565b73ffffffffffffffffffffffffffffffffffffffff1614610958576040517f08c379a000000000000000000000000000000000000000000000000000000000815260040161094f90612f84565b60405180910390fd5b600a81111561099c576040517f08c379a000000000000000000000000000000000000000000000000000000000815260040161099390612ec4565b60405180910390fd5b60646009836040516109ae9190612d25565b908152602001604051809103902060009054906101000a900460ff1660ff1611156109d857600080fd5b60005b81811015610a915760016009846040516109f59190612d25565b908152602001604051809103902060009054906101000a900460ff16610a1b91906131a9565b600984604051610a2b9190612d25565b908152602001604051809103902060006101000a81548160ff021916908360ff160217905550610a5b6007611866565b6000610a67600761151e565b9050610a73338261187c565b610a7d818561189a565b508080610a899061333a565b9150506109db565b505050565b610ab183838360405180602001604052806000815250610f7b565b505050565b610abe61145d565b73ffffffffffffffffffffffffffffffffffffffff16610adc610d3e565b73ffffffffffffffffffffffffffffffffffffffff1614610b32576040517f08c379a0000000000000000000000000000000000000000000000000000000008152600401610b2990612f84565b60405180910390fd5b80600a9080519060200190610b489291906120ee565b5050565b6000806002600084815260200190815260200160002060009054906101000a900473ffffffffffffffffffffffffffffffffffffffff169050600073ffffffffffffffffffffffffffffffffffffffff168173ffffffffffffffffffffffffffffffffffffffff161415610bf5576040517f08c379a0000000000000000000000000000000000000000000000000000000008152600401610bec90612f24565b60405180910390fd5b80915050919050565b60008073ffffffffffffffffffffffffffffffffffffffff168273ffffffffffffffffffffffffffffffffffffffff161415610c6f576040517f08c379a0000000000000000000000000000000000000000000000000000000008152600401610c6690612f04565b60405180910390fd5b600360008373ffffffffffffffffffffffffffffffffffffffff1673ffffffffffffffffffffffffffffffffffffffff168152602001908152602001600020549050919050565b610cbe61145d565b73ffffffffffffffffffffffffffffffffffffffff16610cdc610d3e565b73ffffffffffffffffffffffffffffffffffffffff1614610d32576040517f08c379a0000000000000000000000000000000000000000000000000000000008152600401610d2990612f84565b60405180910390fd5b610d3c600061190e565b565b6000600660009054906101000a900473ffffffffffffffffffffffffffffffffffffffff16905090565b606060018054610d7790613308565b80601f0160208091040260200160405190810160405280929190818152602001828054610da390613308565b8015610df05780601f10610dc557610100808354040283529160200191610df0565b820191906000526020600020905b815481529060010190602001808311610dd357829003601f168201915b5050505050905090565b610e0261145d565b73ffffffffffffffffffffffffffffffffffffffff168273ffffffffffffffffffffffffffffffffffffffff161415610e70576040517f08c379a0000000000000000000000000000000000000000000000000000000008152600401610e6790612e84565b60405180910390fd5b8060056000610e7d61145d565b73ffffffffffffffffffffffffffffffffffffffff1673ffffffffffffffffffffffffffffffffffffffff16815260200190815260200160002060008473ffffffffffffffffffffffffffffffffffffffff1673ffffffffffffffffffffffffffffffffffffffff16815260200190815260200160002060006101000a81548160ff0219169083151502179055508173ffffffffffffffffffffffffffffffffffffffff16610f2a61145d565b73ffffffffffffffffffffffffffffffffffffffff167f17307eab39ab6107e8899845ad3d59bd9653f200f220920489ca2b5937696c3183604051610f6f9190612dc7565b60405180910390a35050565b610f8c610f8661145d565b8361152c565b610fcb576040517f08c379a0000000000000000000000000000000000000000000000000000000008152600401610fc290613004565b60405180910390fd5b610fd7848484846119d4565b50505050565b6060610fe8826113f1565b611027576040517f08c379a000000000000000000000000000000000000000000000000000000000815260040161101e90613044565b60405180910390fd5b600060086000848152602001908152602001600020805461104790613308565b80601f016020809104026020016040519081016040528092919081815260200182805461107390613308565b80156110c05780601f10611095576101008083540402835291602001916110c0565b820191906000526020600020905b8154815290600101906020018083116110a357829003601f168201915b5050505050905060006110d1611a30565b90506000815114156110e757819250505061112a565b60008251111561111c578082604051602001611104929190612d3c565b6040516020818303038152906040529250505061112a565b61112584611ac2565b925050505b919050565b61113761145d565b73ffffffffffffffffffffffffffffffffffffffff16611155610d3e565b73ffffffffffffffffffffffffffffffffffffffff16146111ab576040517f08c379a00000000000000000000000000000000000000000000000000000000081526004016111a290612f84565b60405180910390fd5b6111b56007611866565b60006111c1600761151e565b90506111cd338261187c565b6111d7818361189a565b5050565b60606040518060800160405280604381526020016134de60439139905090565b6000600560008473ffffffffffffffffffffffffffffffffffffffff1673ffffffffffffffffffffffffffffffffffffffff16815260200190815260200160002060008373ffffffffffffffffffffffffffffffffffffffff1673ffffffffffffffffffffffffffffffffffffffff16815260200190815260200160002060009054906101000a900460ff16905092915050565b61129761145d565b73ffffffffffffffffffffffffffffffffffffffff166112b5610d3e565b73ffffffffffffffffffffffffffffffffffffffff161461130b576040517f08c379a000000000000000000000000000000000000000000000000000000000815260040161130290612f84565b60405180910390fd5b600073ffffffffffffffffffffffffffffffffffffffff168173ffffffffffffffffffffffffffffffffffffffff16141561137b576040517f08c379a000000000000000000000000000000000000000000000000000000000815260040161137290612e24565b60405180910390fd5b6113848161190e565b50565b60007f01ffc9a7000000000000000000000000000000000000000000000000000000007bffffffffffffffffffffffffffffffffffffffffffffffffffffffff1916827bffffffffffffffffffffffffffffffffffffffffffffffffffffffff1916149050919050565b60008073ffffffffffffffffffffffffffffffffffffffff166002600084815260200190815260200160002060009054906101000a900473ffffffffffffffffffffffffffffffffffffffff1673ffffffffffffffffffffffffffffffffffffffff1614159050919050565b600033905090565b816004600083815260200190815260200160002060006101000a81548173ffffffffffffffffffffffffffffffffffffffff021916908373ffffffffffffffffffffffffffffffffffffffff160217905550808273ffffffffffffffffffffffffffffffffffffffff166114d883610b4c565b73ffffffffffffffffffffffffffffffffffffffff167f8c5be1e5ebec7d5bd14f71427d1e84f3dd0314c0f7b2291e5b200ac8c7c3b92560405160405180910390a45050565b600081600001549050919050565b6000611537826113f1565b611576576040517f08c379a000000000000000000000000000000000000000000000000000000000815260040161156d90612ea4565b60405180910390fd5b600061158183610b4c565b90508073ffffffffffffffffffffffffffffffffffffffff168473ffffffffffffffffffffffffffffffffffffffff1614806115f057508373ffffffffffffffffffffffffffffffffffffffff166115d8846105a7565b73ffffffffffffffffffffffffffffffffffffffff16145b80611601575061160081856111fb565b5b91505092915050565b8273ffffffffffffffffffffffffffffffffffffffff1661162a82610b4c565b73ffffffffffffffffffffffffffffffffffffffff1614611680576040517f08c379a000000000000000000000000000000000000000000000000000000000815260040161167790612fa4565b60405180910390fd5b600073ffffffffffffffffffffffffffffffffffffffff168273ffffffffffffffffffffffffffffffffffffffff1614156116f0576040517f08c379a00000000000000000000000000000000000000000000000000000000081526004016116e790612e64565b60405180910390fd5b6116fb838383611b69565b611706600082611465565b6001600360008573ffffffffffffffffffffffffffffffffffffffff1673ffffffffffffffffffffffffffffffffffffffff16815260200190815260200160002060008282546117569190613211565b925050819055506001600360008473ffffffffffffffffffffffffffffffffffffffff1673ffffffffffffffffffffffffffffffffffffffff16815260200190815260200160002060008282546117ad9190613153565b92505081905550816002600083815260200190815260200160002060006101000a81548173ffffffffffffffffffffffffffffffffffffffff021916908373ffffffffffffffffffffffffffffffffffffffff160217905550808273ffffffffffffffffffffffffffffffffffffffff168473ffffffffffffffffffffffffffffffffffffffff167fddf252ad1be2c89b69c2b068fc378daa952ba7f163c4a11628f55a4df523b3ef60405160405180910390a4505050565b6001816000016000828254019250508190555050565b611896828260405180602001604052806000815250611b6e565b5050565b6118a3826113f1565b6118e2576040517f08c379a00000000000000000000000000000000000000000000000000000000081526004016118d990613024565b60405180910390fd5b806008600084815260200190815260200160002090805190602001906119099291906120ee565b505050565b6000600660009054906101000a900473ffffffffffffffffffffffffffffffffffffffff16905081600660006101000a81548173ffffffffffffffffffffffffffffffffffffffff021916908373ffffffffffffffffffffffffffffffffffffffff1602179055508173ffffffffffffffffffffffffffffffffffffffff168173ffffffffffffffffffffffffffffffffffffffff167f8be0079c531659141344cd1fd0a4f28419497f9722a3daafe3b4186f6b6457e060405160405180910390a35050565b6119df84848461160a565b6119eb84848484611bc9565b611a2a576040517f08c379a0000000000000000000000000000000000000000000000000000000008152600401611a2190612e04565b60405180910390fd5b50505050565b6060600a8054611a3f90613308565b80601f0160208091040260200160405190810160405280929190818152602001828054611a6b90613308565b8015611ab85780601f10611a8d57610100808354040283529160200191611ab8565b820191906000526020600020905b815481529060010190602001808311611a9b57829003601f168201915b5050505050905090565b6060611acd826113f1565b611b0c576040517f08c379a0000000000000000000000000000000000000000000000000000000008152600401611b0390612fc4565b60405180910390fd5b6000611b16611a30565b90506000815111611b365760405180602001604052806000815250611b61565b80611b4084611d60565b604051602001611b51929190612d3c565b6040516020818303038152906040525b915050919050565b505050565b611b788383611f0d565b611b856000848484611bc9565b611bc4576040517f08c379a0000000000000000000000000000000000000000000000000000000008152600401611bbb90612e04565b60405180910390fd5b505050565b6000611bea8473ffffffffffffffffffffffffffffffffffffffff166120db565b15611d53578373ffffffffffffffffffffffffffffffffffffffff1663150b7a02611c1361145d565b8786866040518563ffffffff1660e01b8152600401611c359493929190612d7b565b602060405180830381600087803b158015611c4f57600080fd5b505af1925050508015611c8057506040513d601f19601f82011682018060405250810190611c7d919061249a565b60015b611d03573d8060008114611cb0576040519150601f19603f3d011682016040523d82523d6000602084013e611cb5565b606091505b50600081511415611cfb576040517f08c379a0000000000000000000000000000000000000000000000000000000008152600401611cf290612e04565b60405180910390fd5b805181602001fd5b63150b7a0260e01b7bffffffffffffffffffffffffffffffffffffffffffffffffffffffff1916817bffffffffffffffffffffffffffffffffffffffffffffffffffffffff191614915050611d58565b600190505b949350505050565b60606000821415611da8576040518060400160405280600181526020017f30000000000000000000000000000000000000000000000000000000000000008152509050611f08565b600082905060005b60008214611dda578080611dc39061333a565b915050600a82611dd391906131e0565b9150611db0565b60008167ffffffffffffffff811115611e1c577f4e487b7100000000000000000000000000000000000000000000000000000000600052604160045260246000fd5b6040519080825280601f01601f191660200182016040528015611e4e5781602001600182028036833780820191505090505b5090505b60008514611f0157600182611e679190613211565b9150600a85611e769190613383565b6030611e829190613153565b60f81b818381518110611ebe577f4e487b7100000000000000000000000000000000000000000000000000000000600052603260045260246000fd5b60200101907effffffffffffffffffffffffffffffffffffffffffffffffffffffffffffff1916908160001a905350600a85611efa91906131e0565b9450611e52565b8093505050505b919050565b600073ffffffffffffffffffffffffffffffffffffffff168273ffffffffffffffffffffffffffffffffffffffff161415611f7d576040517f08c379a0000000000000000000000000000000000000000000000000000000008152600401611f7490612f44565b60405180910390fd5b611f86816113f1565b15611fc6576040517f08c379a0000000000000000000000000000000000000000000000000000000008152600401611fbd90612e44565b60405180910390fd5b611fd260008383611b69565b6001600360008473ffffffffffffffffffffffffffffffffffffffff1673ffffffffffffffffffffffffffffffffffffffff16815260200190815260200160002060008282546120229190613153565b92505081905550816002600083815260200190815260200160002060006101000a81548173ffffffffffffffffffffffffffffffffffffffff021916908373ffffffffffffffffffffffffffffffffffffffff160217905550808273ffffffffffffffffffffffffffffffffffffffff16600073ffffffffffffffffffffffffffffffffffffffff167fddf252ad1be2c89b69c2b068fc378daa952ba7f163c4a11628f55a4df523b3ef60405160405180910390a45050565b600080823b905060008111915050919050565b8280546120fa90613308565b90600052602060002090601f01602090048101928261211c5760008555612163565b82601f1061213557805160ff1916838001178555612163565b82800160010185558215612163579182015b82811115612162578251825591602001919060010190612147565b5b5090506121709190612174565b5090565b5b8082111561218d576000816000905550600101612175565b5090565b60006121a461219f846130b0565b61307f565b9050828152602081018484840111156121bc57600080fd5b6121c78482856132c6565b509392505050565b60006121e26121dd846130e0565b61307f565b9050828152602081018484840111156121fa57600080fd5b6122058482856132c6565b509392505050565b60008135905061221c81613481565b92915050565b60008135905061223181613498565b92915050565b600081359050612246816134af565b92915050565b60008151905061225b816134af565b92915050565b600082601f83011261227257600080fd5b8135612282848260208601612191565b91505092915050565b600082601f83011261229c57600080fd5b81356122ac8482602086016121cf565b91505092915050565b6000813590506122c4816134c6565b92915050565b6000602082840312156122dc57600080fd5b60006122ea8482850161220d565b91505092915050565b6000806040838503121561230657600080fd5b60006123148582860161220d565b92505060206123258582860161220d565b9150509250929050565b60008060006060848603121561234457600080fd5b60006123528682870161220d565b93505060206123638682870161220d565b9250506040612374868287016122b5565b9150509250925092565b6000806000806080858703121561239457600080fd5b60006123a28782880161220d565b94505060206123b38782880161220d565b93505060406123c4878288016122b5565b925050606085013567ffffffffffffffff8111156123e157600080fd5b6123ed87828801612261565b91505092959194509250565b6000806040838503121561240c57600080fd5b600061241a8582860161220d565b925050602061242b85828601612222565b9150509250929050565b6000806040838503121561244857600080fd5b60006124568582860161220d565b9250506020612467858286016122b5565b9150509250929050565b60006020828403121561248357600080fd5b600061249184828501612237565b91505092915050565b6000602082840312156124ac57600080fd5b60006124ba8482850161224c565b91505092915050565b6000602082840312156124d557600080fd5b600082013567ffffffffffffffff8111156124ef57600080fd5b6124fb8482850161228b565b91505092915050565b6000806040838503121561251757600080fd5b600083013567ffffffffffffffff81111561253157600080fd5b61253d8582860161228b565b925050602061254e858286016122b5565b9150509250929050565b60006020828403121561256a57600080fd5b6000612578848285016122b5565b91505092915050565b61258a81613245565b82525050565b61259981613257565b82525050565b60006125aa82613110565b6125b48185613126565b93506125c48185602086016132d5565b6125cd81613470565b840191505092915050565b60006125e38261311b565b6125ed8185613137565b93506125fd8185602086016132d5565b61260681613470565b840191505092915050565b600061261c8261311b565b6126268185613148565b93506126368185602086016132d5565b80840191505092915050565b600061264f603283613137565b91507f4552433732313a207472616e7366657220746f206e6f6e20455243373231526560008301527f63656976657220696d706c656d656e74657200000000000000000000000000006020830152604082019050919050565b60006126b5602683613137565b91507f4f776e61626c653a206e6577206f776e657220697320746865207a65726f206160008301527f64647265737300000000000000000000000000000000000000000000000000006020830152604082019050919050565b600061271b601c83613137565b91507f4552433732313a20746f6b656e20616c7265616479206d696e746564000000006000830152602082019050919050565b600061275b602483613137565b91507f4552433732313a207472616e7366657220746f20746865207a65726f2061646460008301527f72657373000000000000000000000000000000000000000000000000000000006020830152604082019050919050565b60006127c1601983613137565b91507f4552433732313a20617070726f766520746f2063616c6c6572000000000000006000830152602082019050919050565b6000612801602c83613137565b91507f4552433732313a206f70657261746f7220717565727920666f72206e6f6e657860008301527f697374656e7420746f6b656e00000000000000000000000000000000000000006020830152604082019050919050565b6000612867601883613137565b91507f6e6f74206d6f7265207468616e203130206174206f6e636500000000000000006000830152602082019050919050565b60006128a7603883613137565b91507f4552433732313a20617070726f76652063616c6c6572206973206e6f74206f7760008301527f6e6572206e6f7220617070726f76656420666f7220616c6c00000000000000006020830152604082019050919050565b600061290d602a83613137565b91507f4552433732313a2062616c616e636520717565727920666f7220746865207a6560008301527f726f2061646472657373000000000000000000000000000000000000000000006020830152604082019050919050565b6000612973602983613137565b91507f4552433732313a206f776e657220717565727920666f72206e6f6e657869737460008301527f656e7420746f6b656e00000000000000000000000000000000000000000000006020830152604082019050919050565b60006129d9602083613137565b91507f4552433732313a206d696e7420746f20746865207a65726f20616464726573736000830152602082019050919050565b6000612a19602c83613137565b91507f4552433732313a20617070726f76656420717565727920666f72206e6f6e657860008301527f697374656e7420746f6b656e00000000000000000000000000000000000000006020830152604082019050919050565b6000612a7f602083613137565b91507f4f776e61626c653a2063616c6c6572206973206e6f7420746865206f776e65726000830152602082019050919050565b6000612abf602983613137565b91507f4552433732313a207472616e73666572206f6620746f6b656e2074686174206960008301527f73206e6f74206f776e00000000000000000000000000000000000000000000006020830152604082019050919050565b6000612b25602f83613137565b91507f4552433732314d657461646174613a2055524920717565727920666f72206e6f60008301527f6e6578697374656e7420746f6b656e00000000000000000000000000000000006020830152604082019050919050565b6000612b8b602183613137565b91507f4552433732313a20617070726f76616c20746f2063757272656e74206f776e6560008301527f72000000000000000000000000000000000000000000000000000000000000006020830152604082019050919050565b6000612bf1603183613137565b91507f4552433732313a207472616e736665722063616c6c6572206973206e6f74206f60008301527f776e6572206e6f7220617070726f7665640000000000000000000000000000006020830152604082019050919050565b6000612c57602483613137565b91507f4552433732313a2055524920736574206f66206e6f6e6578697374656e74207460008301527f6f6b656e000000000000000000000000000000000000000000000000000000006020830152604082019050919050565b6000612cbd602783613137565b91507f4552433732313a2055524920717565727920666f72206e6f6e6578697374656e60008301527f7420746f6b656e000000000000000000000000000000000000000000000000006020830152604082019050919050565b612d1f816132af565b82525050565b6000612d318284612611565b915081905092915050565b6000612d488285612611565b9150612d548284612611565b91508190509392505050565b6000602082019050612d756000830184612581565b92915050565b6000608082019050612d906000830187612581565b612d9d6020830186612581565b612daa6040830185612d16565b8181036060830152612dbc818461259f565b905095945050505050565b6000602082019050612ddc6000830184612590565b92915050565b60006020820190508181036000830152612dfc81846125d8565b905092915050565b60006020820190508181036000830152612e1d81612642565b9050919050565b60006020820190508181036000830152612e3d816126a8565b9050919050565b60006020820190508181036000830152612e5d8161270e565b9050919050565b60006020820190508181036000830152612e7d8161274e565b9050919050565b60006020820190508181036000830152612e9d816127b4565b9050919050565b60006020820190508181036000830152612ebd816127f4565b9050919050565b60006020820190508181036000830152612edd8161285a565b9050919050565b60006020820190508181036000830152612efd8161289a565b9050919050565b60006020820190508181036000830152612f1d81612900565b9050919050565b60006020820190508181036000830152612f3d81612966565b9050919050565b60006020820190508181036000830152612f5d816129cc565b9050919050565b60006020820190508181036000830152612f7d81612a0c565b9050919050565b60006020820190508181036000830152612f9d81612a72565b9050919050565b60006020820190508181036000830152612fbd81612ab2565b9050919050565b60006020820190508181036000830152612fdd81612b18565b9050919050565b60006020820190508181036000830152612ffd81612b7e565b9050919050565b6000602082019050818103600083015261301d81612be4565b9050919050565b6000602082019050818103600083015261303d81612c4a565b9050919050565b6000602082019050818103600083015261305d81612cb0565b9050919050565b60006020820190506130796000830184612d16565b92915050565b6000604051905081810181811067ffffffffffffffff821117156130a6576130a5613441565b5b8060405250919050565b600067ffffffffffffffff8211156130cb576130ca613441565b5b601f19601f8301169050602081019050919050565b600067ffffffffffffffff8211156130fb576130fa613441565b5b601f19601f8301169050602081019050919050565b600081519050919050565b600081519050919050565b600082825260208201905092915050565b600082825260208201905092915050565b600081905092915050565b600061315e826132af565b9150613169836132af565b9250827fffffffffffffffffffffffffffffffffffffffffffffffffffffffffffffffff0382111561319e5761319d6133b4565b5b828201905092915050565b60006131b4826132b9565b91506131bf836132b9565b92508260ff038211156131d5576131d46133b4565b5b828201905092915050565b60006131eb826132af565b91506131f6836132af565b925082613206576132056133e3565b5b828204905092915050565b600061321c826132af565b9150613227836132af565b92508282101561323a576132396133b4565b5b828203905092915050565b60006132508261328f565b9050919050565b60008115159050919050565b60007fffffffff0000000000000000000000000000000000000000000000000000000082169050919050565b600073ffffffffffffffffffffffffffffffffffffffff82169050919050565b6000819050919050565b600060ff82169050919050565b82818337600083830152505050565b60005b838110156132f35780820151818401526020810190506132d8565b83811115613302576000848401525b50505050565b6000600282049050600182168061332057607f821691505b6020821081141561333457613333613412565b5b50919050565b6000613345826132af565b91507fffffffffffffffffffffffffffffffffffffffffffffffffffffffffffffffff821415613378576133776133b4565b5b600182019050919050565b600061338e826132af565b9150613399836132af565b9250826133a9576133a86133e3565b5b828206905092915050565b7f4e487b7100000000000000000000000000000000000000000000000000000000600052601160045260246000fd5b7f4e487b7100000000000000000000000000000000000000000000000000000000600052601260045260246000fd5b7f4e487b7100000000000000000000000000000000000000000000000000000000600052602260045260246000fd5b7f4e487b7100000000000000000000000000000000000000000000000000000000600052604160045260246000fd5b6000601f19601f8301169050919050565b61348a81613245565b811461349557600080fd5b50565b6134a181613257565b81146134ac57600080fd5b50565b6134b881613263565b81146134c357600080fd5b50565b6134cf816132af565b81146134da57600080fd5b5056fe68747470733a2f2f697066732e696f2f697066732f516d6362716d516e333234385779746f4e504b62617050387259586d72316566566e6238743771456938614c6759a2646970667358221220ffb4f6ac7866533628d0b72c73afa1383fd073f9729d7179a9b624c88b4b227e64736f6c63430008000033",
  "immutableReferences": {},
  "source": "// SPDX-License-Identifier: MIT\r\npragma solidity >=0.4.22 <0.9.0;\r\n\r\nimport \"@openzeppelin/contracts/token/ERC721/extensions/ERC721URIStorage.sol\";\r\nimport \"@openzeppelin/contracts/token/ERC721/ERC721.sol\";\r\nimport \"@openzeppelin/contracts/utils/Counters.sol\";\r\nimport \"@openzeppelin/contracts/access/Ownable.sol\";\r\n//TODO ADD METADATA FREEZING\r\n//TODO SOMETHING DOESNT WORK PROPERLY\r\n//TODO ADD PERCENT TO CREATOR OF CONTRACTS\r\n\r\n//https://github.com/neha01/nft-demo/blob/master/contracts/ArtCollectible.sol ref\r\n//https://forum.openzeppelin.com/t/function-settokenuri-in-erc721-is-gone-with-pragma-0-8-0/5978/3 another ref\r\ncontract Postcard is ERC721, Ownable {\r\n    using Strings for uint256;\r\n//    uint256 public tokenCounter;\r\n    using Counters for Counters.Counter;\r\n\r\n    Counters.Counter private _tokenIds;\r\n\r\n    // Optional mapping for token URIs\r\n    // copied from ERC721URIStorage.sol\r\n    mapping(uint256 => string) private _tokenURIs;\r\n\r\n    // mapping\r\n    // not sure if i want it or not\r\n    mapping(string => uint8) private _hashes;\r\n\r\n    // Base URI\r\n    string private _baseURIExtended = \"https://ipfs.io/ipfs/\";\r\n\r\n    // constructor with name and symbol of nft\r\n    constructor() ERC721(\"Postcard\",\"PSC\") {\r\n    }\r\n    function totalSupply() public view returns (uint256) {\r\n        return _tokenIds.current();\r\n    }\r\n\r\n    // for opensea collection\r\n    // this is currently being used to determine which metadata(json) it uses for the NFT. token URI doesnt do anything atm\r\n    function contractURI() public pure returns (string memory) {\r\n        return \"https://ipfs.io/ipfs/QmcbqmQn3248WytoNPKbapP8rYXmr1efVnb8t7qEi8aLgY\"; // collection json ipfs\r\n    }\r\n\r\n    function setBaseURI(string memory baseURI_) external onlyOwner() {\r\n        _baseURIExtended = baseURI_;\r\n    }\r\n\r\n    function _baseURI() internal view virtual override returns (string memory) {\r\n        return _baseURIExtended;\r\n    }\r\n\r\n    // copied from ERC721URIStorage.sol\r\n    function _setTokenURI(uint256 tokenId, string memory _tokenURI) internal virtual {\r\n        require(_exists(tokenId), \"ERC721: URI set of nonexistent token\");\r\n        _tokenURIs[tokenId] = _tokenURI;\r\n        //_hashes[_tokenURI] = 1;\r\n    }\r\n\r\n    // copied from ERC721URIStorage.sol\r\n    function _burn(uint256 tokenId) internal virtual override {\r\n        super._burn(tokenId);\r\n\r\n        if (bytes(_tokenURIs[tokenId]).length != 0) {\r\n            delete _tokenURIs[tokenId];\r\n        }\r\n    }\r\n\r\n    // copied from ERC721URIStorage.sol\r\n    function tokenURI(uint256 tokenId) public view virtual override returns (string memory) {\r\n        require(_exists(tokenId), \"ERC721: URI query for nonexistent token\");\r\n\r\n        string memory _tokenURI = _tokenURIs[tokenId];\r\n        string memory base = _baseURI();\r\n\r\n        // If there is no base URI, return the token URI.\r\n        if (bytes(base).length == 0) {\r\n            return _tokenURI;\r\n        }\r\n        // If both are set, concatenate the baseURI and tokenURI (via abi.encodePacked).\r\n        if (bytes(_tokenURI).length > 0) {\r\n            return string(abi.encodePacked(base, _tokenURI));\r\n        }\r\n\r\n        return super.tokenURI(tokenId);\r\n    }\r\n\r\n    function mintOld(string memory tokenHash)\r\n    public\r\n    onlyOwner\r\n    returns (uint256)\r\n    {\r\n        require(_hashes[tokenHash] != 1);\r\n        _hashes[tokenHash] = 1;\r\n        _tokenIds.increment();\r\n        uint256 newItemId = _tokenIds.current();\r\n        _safeMint(msg.sender, newItemId);\r\n        _setTokenURI(newItemId, tokenHash);\r\n        return newItemId;\r\n    }\r\n\r\n    function duplicateMint(string memory tokenHash, uint256 numberOfTokens)\r\n    public\r\n    onlyOwner\r\n//    returns (uint256)\r\n    {\r\n        require(numberOfTokens<=10, \"not more than 10 at once\");\r\n        require(_hashes[tokenHash]<=100);\r\n\r\n        for(uint256 i=0; i < numberOfTokens; i++){\r\n            _hashes[tokenHash] = _hashes[tokenHash] + 1;\r\n            _tokenIds.increment();\r\n            uint256 newItemId = _tokenIds.current();\r\n            _safeMint(msg.sender, newItemId);\r\n//            _mint(msg.sender, newItemId);\r\n            _setTokenURI(newItemId, tokenHash);\r\n        }\r\n//        return newItemId;\r\n//        return numberOfTokens+\" tokens of \"+tokenHash;\r\n    }\r\n\r\n    function mint(string memory tokenHash)\r\n    public\r\n    onlyOwner\r\n    {\r\n            //_hashes[tokenHash] = _hashes[tokenHash] + 1;\r\n            _tokenIds.increment();\r\n            uint256 newItemId = _tokenIds.current();\r\n            _safeMint(msg.sender, newItemId);\r\n            _setTokenURI(newItemId, tokenHash);\r\n    }\r\n\r\n\r\n}",
  "sourcePath": "C:\\Users\\Joey\\Desktop\\BA\\starting-from-new\\src\\contracts\\Postcard.sol",
  "compiler": {
    "name": "solc",
    "version": "0.8.0+commit.c7dfd78e.Emscripten.clang"
  },
  "schemaVersion": "3.4.3",
  "updatedAt": "2022-01-14T11:57:18.004Z",
  "networkType": "ethereum",
  "devdoc": {
    "kind": "dev",
    "methods": {
      "approve(address,uint256)": {
        "details": "See {IERC721-approve}."
      },
      "balanceOf(address)": {
        "details": "See {IERC721-balanceOf}."
      },
      "getApproved(uint256)": {
        "details": "See {IERC721-getApproved}."
      },
      "isApprovedForAll(address,address)": {
        "details": "See {IERC721-isApprovedForAll}."
      },
      "name()": {
        "details": "See {IERC721Metadata-name}."
      },
      "owner()": {
        "details": "Returns the address of the current owner."
      },
      "ownerOf(uint256)": {
        "details": "See {IERC721-ownerOf}."
      },
      "renounceOwnership()": {
        "details": "Leaves the contract without owner. It will not be possible to call `onlyOwner` functions anymore. Can only be called by the current owner. NOTE: Renouncing ownership will leave the contract without an owner, thereby removing any functionality that is only available to the owner."
      },
      "safeTransferFrom(address,address,uint256)": {
        "details": "See {IERC721-safeTransferFrom}."
      },
      "safeTransferFrom(address,address,uint256,bytes)": {
        "details": "See {IERC721-safeTransferFrom}."
      },
      "setApprovalForAll(address,bool)": {
        "details": "See {IERC721-setApprovalForAll}."
      },
      "supportsInterface(bytes4)": {
        "details": "See {IERC165-supportsInterface}."
      },
      "symbol()": {
        "details": "See {IERC721Metadata-symbol}."
      },
      "tokenURI(uint256)": {
        "details": "See {IERC721Metadata-tokenURI}."
      },
      "transferFrom(address,address,uint256)": {
        "details": "See {IERC721-transferFrom}."
      },
      "transferOwnership(address)": {
        "details": "Transfers ownership of the contract to a new account (`newOwner`). Can only be called by the current owner."
      }
    },
    "version": 1
  },
  "userdoc": {
    "kind": "user",
    "methods": {},
    "version": 1
  }
}