{
  "contractName": "Souvenir",
  "abi": [
    {
      "inputs": [],
      "stateMutability": "nonpayable",
      "type": "constructor"
    },
    {
      "anonymous": false,
      "inputs": [
        {
          "indexed": true,
          "internalType": "address",
          "name": "owner",
          "type": "address"
        },
        {
          "indexed": true,
          "internalType": "address",
          "name": "approved",
          "type": "address"
        },
        {
          "indexed": true,
          "internalType": "uint256",
          "name": "tokenId",
          "type": "uint256"
        }
      ],
      "name": "Approval",
      "type": "event"
    },
    {
      "anonymous": false,
      "inputs": [
        {
          "indexed": true,
          "internalType": "address",
          "name": "owner",
          "type": "address"
        },
        {
          "indexed": true,
          "internalType": "address",
          "name": "operator",
          "type": "address"
        },
        {
          "indexed": false,
          "internalType": "bool",
          "name": "approved",
          "type": "bool"
        }
      ],
      "name": "ApprovalForAll",
      "type": "event"
    },
    {
      "anonymous": false,
      "inputs": [
        {
          "indexed": true,
          "internalType": "address",
          "name": "previousOwner",
          "type": "address"
        },
        {
          "indexed": true,
          "internalType": "address",
          "name": "newOwner",
          "type": "address"
        }
      ],
      "name": "OwnershipTransferred",
      "type": "event"
    },
    {
      "anonymous": false,
      "inputs": [
        {
          "indexed": true,
          "internalType": "address",
          "name": "from",
          "type": "address"
        },
        {
          "indexed": true,
          "internalType": "address",
          "name": "to",
          "type": "address"
        },
        {
          "indexed": true,
          "internalType": "uint256",
          "name": "tokenId",
          "type": "uint256"
        }
      ],
      "name": "Transfer",
      "type": "event"
    },
    {
      "inputs": [
        {
          "internalType": "address",
          "name": "to",
          "type": "address"
        },
        {
          "internalType": "uint256",
          "name": "tokenId",
          "type": "uint256"
        }
      ],
      "name": "approve",
      "outputs": [],
      "stateMutability": "nonpayable",
      "type": "function"
    },
    {
      "inputs": [
        {
          "internalType": "address",
          "name": "owner",
          "type": "address"
        }
      ],
      "name": "balanceOf",
      "outputs": [
        {
          "internalType": "uint256",
          "name": "",
          "type": "uint256"
        }
      ],
      "stateMutability": "view",
      "type": "function",
      "constant": true
    },
    {
      "inputs": [
        {
          "internalType": "uint256",
          "name": "tokenId",
          "type": "uint256"
        }
      ],
      "name": "getApproved",
      "outputs": [
        {
          "internalType": "address",
          "name": "",
          "type": "address"
        }
      ],
      "stateMutability": "view",
      "type": "function",
      "constant": true
    },
    {
      "inputs": [
        {
          "internalType": "address",
          "name": "owner",
          "type": "address"
        },
        {
          "internalType": "address",
          "name": "operator",
          "type": "address"
        }
      ],
      "name": "isApprovedForAll",
      "outputs": [
        {
          "internalType": "bool",
          "name": "",
          "type": "bool"
        }
      ],
      "stateMutability": "view",
      "type": "function",
      "constant": true
    },
    {
      "inputs": [],
      "name": "name",
      "outputs": [
        {
          "internalType": "string",
          "name": "",
          "type": "string"
        }
      ],
      "stateMutability": "view",
      "type": "function",
      "constant": true
    },
    {
      "inputs": [],
      "name": "owner",
      "outputs": [
        {
          "internalType": "address",
          "name": "",
          "type": "address"
        }
      ],
      "stateMutability": "view",
      "type": "function",
      "constant": true
    },
    {
      "inputs": [
        {
          "internalType": "uint256",
          "name": "tokenId",
          "type": "uint256"
        }
      ],
      "name": "ownerOf",
      "outputs": [
        {
          "internalType": "address",
          "name": "",
          "type": "address"
        }
      ],
      "stateMutability": "view",
      "type": "function",
      "constant": true
    },
    {
      "inputs": [],
      "name": "renounceOwnership",
      "outputs": [],
      "stateMutability": "nonpayable",
      "type": "function"
    },
    {
      "inputs": [
        {
          "internalType": "uint256",
          "name": "tokenId",
          "type": "uint256"
        },
        {
          "internalType": "uint256",
          "name": "value",
          "type": "uint256"
        }
      ],
      "name": "royaltyInfo",
      "outputs": [
        {
          "internalType": "address",
          "name": "receiver",
          "type": "address"
        },
        {
          "internalType": "uint256",
          "name": "royaltyAmount",
          "type": "uint256"
        }
      ],
      "stateMutability": "view",
      "type": "function",
      "constant": true
    },
    {
      "inputs": [
        {
          "internalType": "address",
          "name": "from",
          "type": "address"
        },
        {
          "internalType": "address",
          "name": "to",
          "type": "address"
        },
        {
          "internalType": "uint256",
          "name": "tokenId",
          "type": "uint256"
        }
      ],
      "name": "safeTransferFrom",
      "outputs": [],
      "stateMutability": "nonpayable",
      "type": "function"
    },
    {
      "inputs": [
        {
          "internalType": "address",
          "name": "from",
          "type": "address"
        },
        {
          "internalType": "address",
          "name": "to",
          "type": "address"
        },
        {
          "internalType": "uint256",
          "name": "tokenId",
          "type": "uint256"
        },
        {
          "internalType": "bytes",
          "name": "_data",
          "type": "bytes"
        }
      ],
      "name": "safeTransferFrom",
      "outputs": [],
      "stateMutability": "nonpayable",
      "type": "function"
    },
    {
      "inputs": [
        {
          "internalType": "address",
          "name": "operator",
          "type": "address"
        },
        {
          "internalType": "bool",
          "name": "approved",
          "type": "bool"
        }
      ],
      "name": "setApprovalForAll",
      "outputs": [],
      "stateMutability": "nonpayable",
      "type": "function"
    },
    {
      "inputs": [],
      "name": "symbol",
      "outputs": [
        {
          "internalType": "string",
          "name": "",
          "type": "string"
        }
      ],
      "stateMutability": "view",
      "type": "function",
      "constant": true
    },
    {
      "inputs": [
        {
          "internalType": "address",
          "name": "from",
          "type": "address"
        },
        {
          "internalType": "address",
          "name": "to",
          "type": "address"
        },
        {
          "internalType": "uint256",
          "name": "tokenId",
          "type": "uint256"
        }
      ],
      "name": "transferFrom",
      "outputs": [],
      "stateMutability": "nonpayable",
      "type": "function"
    },
    {
      "inputs": [
        {
          "internalType": "address",
          "name": "newOwner",
          "type": "address"
        }
      ],
      "name": "transferOwnership",
      "outputs": [],
      "stateMutability": "nonpayable",
      "type": "function"
    },
    {
      "inputs": [
        {
          "internalType": "bytes4",
          "name": "interfaceId",
          "type": "bytes4"
        }
      ],
      "name": "supportsInterface",
      "outputs": [
        {
          "internalType": "bool",
          "name": "",
          "type": "bool"
        }
      ],
      "stateMutability": "view",
      "type": "function",
      "constant": true
    },
    {
      "inputs": [],
      "name": "totalSupply",
      "outputs": [
        {
          "internalType": "uint256",
          "name": "",
          "type": "uint256"
        }
      ],
      "stateMutability": "view",
      "type": "function",
      "constant": true
    },
    {
      "inputs": [],
      "name": "contractURI",
      "outputs": [
        {
          "internalType": "string",
          "name": "",
          "type": "string"
        }
      ],
      "stateMutability": "pure",
      "type": "function",
      "constant": true
    },
    {
      "inputs": [
        {
          "internalType": "string",
          "name": "baseURI_",
          "type": "string"
        }
      ],
      "name": "setBaseURI",
      "outputs": [],
      "stateMutability": "nonpayable",
      "type": "function"
    },
    {
      "inputs": [
        {
          "internalType": "address",
          "name": "royaltyRecipient_",
          "type": "address"
        }
      ],
      "name": "setRoyaltyRecipient",
      "outputs": [],
      "stateMutability": "nonpayable",
      "type": "function"
    },
    {
      "inputs": [
        {
          "internalType": "uint256",
          "name": "tokenId",
          "type": "uint256"
        }
      ],
      "name": "burn",
      "outputs": [],
      "stateMutability": "nonpayable",
      "type": "function"
    },
    {
      "inputs": [],
      "name": "royaltyRecipient",
      "outputs": [
        {
          "internalType": "address",
          "name": "",
          "type": "address"
        }
      ],
      "stateMutability": "view",
      "type": "function",
      "constant": true
    },
    {
      "inputs": [
        {
          "internalType": "uint256",
          "name": "tokenId",
          "type": "uint256"
        }
      ],
      "name": "tokenURI",
      "outputs": [
        {
          "internalType": "string",
          "name": "",
          "type": "string"
        }
      ],
      "stateMutability": "view",
      "type": "function",
      "constant": true
    },
    {
      "inputs": [
        {
          "internalType": "string",
          "name": "tokenHash",
          "type": "string"
        },
        {
          "internalType": "uint256",
          "name": "numberOfTokens",
          "type": "uint256"
        },
        {
          "internalType": "uint256",
          "name": "royaltyAmount",
          "type": "uint256"
        }
      ],
      "name": "mint",
      "outputs": [],
      "stateMutability": "nonpayable",
      "type": "function"
    },
    {
      "inputs": [
        {
          "internalType": "string",
          "name": "tokenHash",
          "type": "string"
        },
        {
          "internalType": "uint256",
          "name": "numberOfTokens",
          "type": "uint256"
        },
        {
          "internalType": "uint256",
          "name": "royaltyAmount",
          "type": "uint256"
        },
        {
          "internalType": "address",
          "name": "receiver",
          "type": "address"
        }
      ],
      "name": "mint",
      "outputs": [],
      "stateMutability": "nonpayable",
      "type": "function"
    }
  ],
  "bytecode": "0x60806040526040518060400160405280600781526020017f697066733a2f2f00000000000000000000000000000000000000000000000000815250600c9080519060200190620000519291906200026e565b503480156200005f57600080fd5b506040518060400160405280600881526020017f536f7576656e69720000000000000000000000000000000000000000000000008152506040518060400160405280600381526020017f53564e00000000000000000000000000000000000000000000000000000000008152508160009080519060200190620000e49291906200026e565b508060019080519060200190620000fd9291906200026e565b50505062000120620001146200017660201b60201c565b6200017e60201b60201c565b620001306200024460201b60201c565b600d60006101000a81548173ffffffffffffffffffffffffffffffffffffffff021916908373ffffffffffffffffffffffffffffffffffffffff16021790555062000383565b600033905090565b6000600660009054906101000a900473ffffffffffffffffffffffffffffffffffffffff16905081600660006101000a81548173ffffffffffffffffffffffffffffffffffffffff021916908373ffffffffffffffffffffffffffffffffffffffff1602179055508173ffffffffffffffffffffffffffffffffffffffff168173ffffffffffffffffffffffffffffffffffffffff167f8be0079c531659141344cd1fd0a4f28419497f9722a3daafe3b4186f6b6457e060405160405180910390a35050565b6000600660009054906101000a900473ffffffffffffffffffffffffffffffffffffffff16905090565b8280546200027c906200031e565b90600052602060002090601f016020900481019282620002a05760008555620002ec565b82601f10620002bb57805160ff1916838001178555620002ec565b82800160010185558215620002ec579182015b82811115620002eb578251825591602001919060010190620002ce565b5b509050620002fb9190620002ff565b5090565b5b808211156200031a57600081600090555060010162000300565b5090565b600060028204905060018216806200033757607f821691505b602082108114156200034e576200034d62000354565b5b50919050565b7f4e487b7100000000000000000000000000000000000000000000000000000000600052602260045260246000fd5b613d2e80620003936000396000f3fe608060405234801561001057600080fd5b50600436106101735760003560e01c806355f804b3116100de578063a22cb46511610097578063c87b56dd11610071578063c87b56dd14610421578063e8a3d48514610451578063e985e9c51461046f578063f2fde38b1461049f57610173565b8063a22cb465146103cd578063b88d4fde146103e9578063bcb65f521461040557610173565b806355f804b31461030b5780636352211e1461032757806370a0823114610357578063715018a6146103875780638da5cb5b1461039157806395d89b41146103af57610173565b806323b872dd1161013057806323b872dd1461024c5780632a55205a1461026857806341e42f301461029957806342842e0e146102b557806342966c68146102d15780634c00de82146102ed57610173565b806301ffc9a71461017857806306fdde03146101a8578063081812fc146101c6578063095ea7b3146101f657806318160ddd146102125780631c635ded14610230575b600080fd5b610192600480360381019061018d9190612a4a565b6104bb565b60405161019f9190613513565b60405180910390f35b6101b06104cd565b6040516101bd919061352e565b60405180910390f35b6101e060048036038101906101db9190612bbf565b61055f565b6040516101ed9190613483565b60405180910390f35b610210600480360381019061020b9190612a0e565b6105e4565b005b61021a6106fc565b60405161022791906137f0565b60405180910390f35b61024a60048036038101906102459190612add565b61070d565b005b61026660048036038101906102619190612908565b610890565b005b610282600480360381019061027d9190612be8565b6108f0565b6040516102909291906134ea565b60405180910390f35b6102b360048036038101906102ae91906128a3565b6109c1565b005b6102cf60048036038101906102ca9190612908565b610a81565b005b6102eb60048036038101906102e69190612bbf565b610aa1565b005b6102f5610b29565b6040516103029190613483565b60405180910390f35b61032560048036038101906103209190612a9c565b610b53565b005b610341600480360381019061033c9190612bbf565b610be9565b60405161034e9190613483565b60405180910390f35b610371600480360381019061036c91906128a3565b610c9b565b60405161037e91906137f0565b60405180910390f35b61038f610d53565b005b610399610ddb565b6040516103a69190613483565b60405180910390f35b6103b7610e05565b6040516103c4919061352e565b60405180910390f35b6103e760048036038101906103e291906129d2565b610e97565b005b61040360048036038101906103fe9190612957565b610ead565b005b61041f600480360381019061041a9190612b44565b610f0f565b005b61043b60048036038101906104369190612bbf565b611093565b604051610448919061352e565b60405180910390f35b6104596111e5565b604051610466919061352e565b60405180910390f35b610489600480360381019061048491906128cc565b611205565b6040516104969190613513565b60405180910390f35b6104b960048036038101906104b491906128a3565b611299565b005b60006104c682611391565b9050919050565b6060600080546104dc90613aee565b80601f016020809104026020016040519081016040528092919081815260200182805461050890613aee565b80156105555780601f1061052a57610100808354040283529160200191610555565b820191906000526020600020905b81548152906001019060200180831161053857829003601f168201915b5050505050905090565b600061056a8261140b565b6105a9576040517f08c379a00000000000000000000000000000000000000000000000000000000081526004016105a0906136d0565b60405180910390fd5b6004600083815260200190815260200160002060009054906101000a900473ffffffffffffffffffffffffffffffffffffffff169050919050565b60006105ef82610be9565b90508073ffffffffffffffffffffffffffffffffffffffff168373ffffffffffffffffffffffffffffffffffffffff161415610660576040517f08c379a000000000000000000000000000000000000000000000000000000000815260040161065790613750565b60405180910390fd5b8073ffffffffffffffffffffffffffffffffffffffff1661067f611477565b73ffffffffffffffffffffffffffffffffffffffff1614806106ae57506106ad816106a8611477565b611205565b5b6106ed576040517f08c379a00000000000000000000000000000000000000000000000000000000081526004016106e490613650565b60405180910390fd5b6106f7838361147f565b505050565b60006107086009611538565b905090565b6014821115610751576040517f08c379a000000000000000000000000000000000000000000000000000000000815260040161074890613770565b60405180910390fd5b606460ff16600b846040516107669190613448565b908152602001604051809103902060009054906101000a900460ff1660ff16111561079057600080fd5b60005b8281101561088a576001600b856040516107ad9190613448565b908152602001604051809103902060009054906101000a900460ff166107d39190613935565b600b856040516107e39190613448565b908152602001604051809103902060006101000a81548160ff021916908360ff1602179055506108136008611546565b61081d6009611546565b60006108296008611538565b9050610835338261155c565b61083f818661157a565b60008311156108765761087581600d60009054906101000a900473ffffffffffffffffffffffffffffffffffffffff16856115ee565b5b50808061088290613b20565b915050610793565b50505050565b6108a161089b611477565b826116ea565b6108e0576040517f08c379a00000000000000000000000000000000000000000000000000000000081526004016108d790613790565b60405180910390fd5b6108eb8383836117c8565b505050565b6000806000600760008681526020019081526020016000206040518060400160405290816000820160009054906101000a900473ffffffffffffffffffffffffffffffffffffffff1673ffffffffffffffffffffffffffffffffffffffff1673ffffffffffffffffffffffffffffffffffffffff1681526020016000820160149054906101000a900462ffffff1662ffffff1662ffffff1681525050905080600001519250612710816020015162ffffff16856109ad919061399d565b6109b7919061396c565b9150509250929050565b6109c9611477565b73ffffffffffffffffffffffffffffffffffffffff166109e7610ddb565b73ffffffffffffffffffffffffffffffffffffffff1614610a3d576040517f08c379a0000000000000000000000000000000000000000000000000000000008152600401610a34906136f0565b60405180910390fd5b80600d60006101000a81548173ffffffffffffffffffffffffffffffffffffffff021916908373ffffffffffffffffffffffffffffffffffffffff16021790555050565b610a9c83838360405180602001604052806000815250610ead565b505050565b610aa9611477565b73ffffffffffffffffffffffffffffffffffffffff16610ac7610ddb565b73ffffffffffffffffffffffffffffffffffffffff1614610b1d576040517f08c379a0000000000000000000000000000000000000000000000000000000008152600401610b14906136f0565b60405180910390fd5b610b2681611a24565b50565b6000600d60009054906101000a900473ffffffffffffffffffffffffffffffffffffffff16905090565b610b5b611477565b73ffffffffffffffffffffffffffffffffffffffff16610b79610ddb565b73ffffffffffffffffffffffffffffffffffffffff1614610bcf576040517f08c379a0000000000000000000000000000000000000000000000000000000008152600401610bc6906136f0565b60405180910390fd5b80600c9080519060200190610be5929190612687565b5050565b6000806002600084815260200190815260200160002060009054906101000a900473ffffffffffffffffffffffffffffffffffffffff169050600073ffffffffffffffffffffffffffffffffffffffff168173ffffffffffffffffffffffffffffffffffffffff161415610c92576040517f08c379a0000000000000000000000000000000000000000000000000000000008152600401610c8990613690565b60405180910390fd5b80915050919050565b60008073ffffffffffffffffffffffffffffffffffffffff168273ffffffffffffffffffffffffffffffffffffffff161415610d0c576040517f08c379a0000000000000000000000000000000000000000000000000000000008152600401610d0390613670565b60405180910390fd5b600360008373ffffffffffffffffffffffffffffffffffffffff1673ffffffffffffffffffffffffffffffffffffffff168152602001908152602001600020549050919050565b610d5b611477565b73ffffffffffffffffffffffffffffffffffffffff16610d79610ddb565b73ffffffffffffffffffffffffffffffffffffffff1614610dcf576040517f08c379a0000000000000000000000000000000000000000000000000000000008152600401610dc6906136f0565b60405180910390fd5b610dd96000611a81565b565b6000600660009054906101000a900473ffffffffffffffffffffffffffffffffffffffff16905090565b606060018054610e1490613aee565b80601f0160208091040260200160405190810160405280929190818152602001828054610e4090613aee565b8015610e8d5780601f10610e6257610100808354040283529160200191610e8d565b820191906000526020600020905b815481529060010190602001808311610e7057829003601f168201915b5050505050905090565b610ea9610ea2611477565b8383611b47565b5050565b610ebe610eb8611477565b836116ea565b610efd576040517f08c379a0000000000000000000000000000000000000000000000000000000008152600401610ef490613790565b60405180910390fd5b610f0984848484611cb4565b50505050565b6014831115610f53576040517f08c379a0000000000000000000000000000000000000000000000000000000008152600401610f4a90613770565b60405180910390fd5b606460ff16600b85604051610f689190613448565b908152602001604051809103902060009054906101000a900460ff1660ff161115610f9257600080fd5b60005b8381101561108c576001600b86604051610faf9190613448565b908152602001604051809103902060009054906101000a900460ff16610fd59190613935565b600b86604051610fe59190613448565b908152602001604051809103902060006101000a81548160ff021916908360ff1602179055506110156008611546565b61101f6009611546565b600061102b6008611538565b9050611037838261155c565b611041818761157a565b60008411156110785761107781600d60009054906101000a900473ffffffffffffffffffffffffffffffffffffffff16866115ee565b5b50808061108490613b20565b915050610f95565b5050505050565b606061109e8261140b565b6110dd576040517f08c379a00000000000000000000000000000000000000000000000000000000081526004016110d4906137d0565b60405180910390fd5b6000600a600084815260200190815260200160002080546110fd90613aee565b80601f016020809104026020016040519081016040528092919081815260200182805461112990613aee565b80156111765780601f1061114b57610100808354040283529160200191611176565b820191906000526020600020905b81548152906001019060200180831161115957829003601f168201915b505050505090506000611187611d10565b905060008151141561119d5781925050506111e0565b6000825111156111d25780826040516020016111ba92919061345f565b604051602081830303815290604052925050506111e0565b6111db84611da2565b925050505b919050565b6060604051806060016040528060358152602001613cc460359139905090565b6000600560008473ffffffffffffffffffffffffffffffffffffffff1673ffffffffffffffffffffffffffffffffffffffff16815260200190815260200160002060008373ffffffffffffffffffffffffffffffffffffffff1673ffffffffffffffffffffffffffffffffffffffff16815260200190815260200160002060009054906101000a900460ff16905092915050565b6112a1611477565b73ffffffffffffffffffffffffffffffffffffffff166112bf610ddb565b73ffffffffffffffffffffffffffffffffffffffff1614611315576040517f08c379a000000000000000000000000000000000000000000000000000000000815260040161130c906136f0565b60405180910390fd5b600073ffffffffffffffffffffffffffffffffffffffff168173ffffffffffffffffffffffffffffffffffffffff161415611385576040517f08c379a000000000000000000000000000000000000000000000000000000000815260040161137c906135b0565b60405180910390fd5b61138e81611a81565b50565b60007f2a55205a000000000000000000000000000000000000000000000000000000007bffffffffffffffffffffffffffffffffffffffffffffffffffffffff1916827bffffffffffffffffffffffffffffffffffffffffffffffffffffffff19161480611404575061140382611e49565b5b9050919050565b60008073ffffffffffffffffffffffffffffffffffffffff166002600084815260200190815260200160002060009054906101000a900473ffffffffffffffffffffffffffffffffffffffff1673ffffffffffffffffffffffffffffffffffffffff1614159050919050565b600033905090565b816004600083815260200190815260200160002060006101000a81548173ffffffffffffffffffffffffffffffffffffffff021916908373ffffffffffffffffffffffffffffffffffffffff160217905550808273ffffffffffffffffffffffffffffffffffffffff166114f283610be9565b73ffffffffffffffffffffffffffffffffffffffff167f8c5be1e5ebec7d5bd14f71427d1e84f3dd0314c0f7b2291e5b200ac8c7c3b92560405160405180910390a45050565b600081600001549050919050565b6001816000016000828254019250508190555050565b611576828260405180602001604052806000815250611f2b565b5050565b6115838261140b565b6115c2576040517f08c379a00000000000000000000000000000000000000000000000000000000081526004016115b9906137b0565b60405180910390fd5b80600a600084815260200190815260200160002090805190602001906115e9929190612687565b505050565b612710811115611633576040517f08c379a000000000000000000000000000000000000000000000000000000000815260040161162a90613550565b60405180910390fd5b60405180604001604052808373ffffffffffffffffffffffffffffffffffffffff1681526020018262ffffff168152506007600085815260200190815260200160002060008201518160000160006101000a81548173ffffffffffffffffffffffffffffffffffffffff021916908373ffffffffffffffffffffffffffffffffffffffff16021790555060208201518160000160146101000a81548162ffffff021916908362ffffff160217905550905050505050565b60006116f58261140b565b611734576040517f08c379a000000000000000000000000000000000000000000000000000000000815260040161172b90613630565b60405180910390fd5b600061173f83610be9565b90508073ffffffffffffffffffffffffffffffffffffffff168473ffffffffffffffffffffffffffffffffffffffff1614806117ae57508373ffffffffffffffffffffffffffffffffffffffff166117968461055f565b73ffffffffffffffffffffffffffffffffffffffff16145b806117bf57506117be8185611205565b5b91505092915050565b8273ffffffffffffffffffffffffffffffffffffffff166117e882610be9565b73ffffffffffffffffffffffffffffffffffffffff161461183e576040517f08c379a000000000000000000000000000000000000000000000000000000000815260040161183590613710565b60405180910390fd5b600073ffffffffffffffffffffffffffffffffffffffff168273ffffffffffffffffffffffffffffffffffffffff1614156118ae576040517f08c379a00000000000000000000000000000000000000000000000000000000081526004016118a5906135f0565b60405180910390fd5b6118b9838383611f86565b6118c460008261147f565b6001600360008573ffffffffffffffffffffffffffffffffffffffff1673ffffffffffffffffffffffffffffffffffffffff168152602001908152602001600020600082825461191491906139f7565b925050819055506001600360008473ffffffffffffffffffffffffffffffffffffffff1673ffffffffffffffffffffffffffffffffffffffff168152602001908152602001600020600082825461196b91906138df565b92505081905550816002600083815260200190815260200160002060006101000a81548173ffffffffffffffffffffffffffffffffffffffff021916908373ffffffffffffffffffffffffffffffffffffffff160217905550808273ffffffffffffffffffffffffffffffffffffffff168473ffffffffffffffffffffffffffffffffffffffff167fddf252ad1be2c89b69c2b068fc378daa952ba7f163c4a11628f55a4df523b3ef60405160405180910390a4505050565b611a2d81611f8b565b611a37600961209c565b6000600a60008381526020019081526020016000208054611a5790613aee565b905014611a7e57600a60008281526020019081526020016000206000611a7d919061270d565b5b50565b6000600660009054906101000a900473ffffffffffffffffffffffffffffffffffffffff16905081600660006101000a81548173ffffffffffffffffffffffffffffffffffffffff021916908373ffffffffffffffffffffffffffffffffffffffff1602179055508173ffffffffffffffffffffffffffffffffffffffff168173ffffffffffffffffffffffffffffffffffffffff167f8be0079c531659141344cd1fd0a4f28419497f9722a3daafe3b4186f6b6457e060405160405180910390a35050565b8173ffffffffffffffffffffffffffffffffffffffff168373ffffffffffffffffffffffffffffffffffffffff161415611bb6576040517f08c379a0000000000000000000000000000000000000000000000000000000008152600401611bad90613610565b60405180910390fd5b80600560008573ffffffffffffffffffffffffffffffffffffffff1673ffffffffffffffffffffffffffffffffffffffff16815260200190815260200160002060008473ffffffffffffffffffffffffffffffffffffffff1673ffffffffffffffffffffffffffffffffffffffff16815260200190815260200160002060006101000a81548160ff0219169083151502179055508173ffffffffffffffffffffffffffffffffffffffff168373ffffffffffffffffffffffffffffffffffffffff167f17307eab39ab6107e8899845ad3d59bd9653f200f220920489ca2b5937696c3183604051611ca79190613513565b60405180910390a3505050565b611cbf8484846117c8565b611ccb848484846120f8565b611d0a576040517f08c379a0000000000000000000000000000000000000000000000000000000008152600401611d0190613590565b60405180910390fd5b50505050565b6060600c8054611d1f90613aee565b80601f0160208091040260200160405190810160405280929190818152602001828054611d4b90613aee565b8015611d985780601f10611d6d57610100808354040283529160200191611d98565b820191906000526020600020905b815481529060010190602001808311611d7b57829003601f168201915b5050505050905090565b6060611dad8261140b565b611dec576040517f08c379a0000000000000000000000000000000000000000000000000000000008152600401611de390613730565b60405180910390fd5b6000611df6611d10565b90506000815111611e165760405180602001604052806000815250611e41565b80611e208461228f565b604051602001611e3192919061345f565b6040516020818303038152906040525b915050919050565b60007f80ac58cd000000000000000000000000000000000000000000000000000000007bffffffffffffffffffffffffffffffffffffffffffffffffffffffff1916827bffffffffffffffffffffffffffffffffffffffffffffffffffffffff19161480611f1457507f5b5e139f000000000000000000000000000000000000000000000000000000007bffffffffffffffffffffffffffffffffffffffffffffffffffffffff1916827bffffffffffffffffffffffffffffffffffffffffffffffffffffffff1916145b80611f245750611f238261243c565b5b9050919050565b611f3583836124a6565b611f4260008484846120f8565b611f81576040517f08c379a0000000000000000000000000000000000000000000000000000000008152600401611f7890613590565b60405180910390fd5b505050565b505050565b6000611f9682610be9565b9050611fa481600084611f86565b611faf60008361147f565b6001600360008373ffffffffffffffffffffffffffffffffffffffff1673ffffffffffffffffffffffffffffffffffffffff1681526020019081526020016000206000828254611fff91906139f7565b925050819055506002600083815260200190815260200160002060006101000a81549073ffffffffffffffffffffffffffffffffffffffff021916905581600073ffffffffffffffffffffffffffffffffffffffff168273ffffffffffffffffffffffffffffffffffffffff167fddf252ad1be2c89b69c2b068fc378daa952ba7f163c4a11628f55a4df523b3ef60405160405180910390a45050565b600081600001549050600081116120e8576040517f08c379a00000000000000000000000000000000000000000000000000000000081526004016120df90613570565b60405180910390fd5b6001810382600001819055505050565b60006121198473ffffffffffffffffffffffffffffffffffffffff16612674565b15612282578373ffffffffffffffffffffffffffffffffffffffff1663150b7a02612142611477565b8786866040518563ffffffff1660e01b8152600401612164949392919061349e565b602060405180830381600087803b15801561217e57600080fd5b505af19250505080156121af57506040513d601f19601f820116820180604052508101906121ac9190612a73565b60015b612232573d80600081146121df576040519150601f19603f3d011682016040523d82523d6000602084013e6121e4565b606091505b5060008151141561222a576040517f08c379a000000000000000000000000000000000000000000000000000000000815260040161222190613590565b60405180910390fd5b805181602001fd5b63150b7a0260e01b7bffffffffffffffffffffffffffffffffffffffffffffffffffffffff1916817bffffffffffffffffffffffffffffffffffffffffffffffffffffffff191614915050612287565b600190505b949350505050565b606060008214156122d7576040518060400160405280600181526020017f30000000000000000000000000000000000000000000000000000000000000008152509050612437565b600082905060005b600082146123095780806122f290613b20565b915050600a82612302919061396c565b91506122df565b60008167ffffffffffffffff81111561234b577f4e487b7100000000000000000000000000000000000000000000000000000000600052604160045260246000fd5b6040519080825280601f01601f19166020018201604052801561237d5781602001600182028036833780820191505090505b5090505b600085146124305760018261239691906139f7565b9150600a856123a59190613b69565b60306123b191906138df565b60f81b8183815181106123ed577f4e487b7100000000000000000000000000000000000000000000000000000000600052603260045260246000fd5b60200101907effffffffffffffffffffffffffffffffffffffffffffffffffffffffffffff1916908160001a905350600a85612429919061396c565b9450612381565b8093505050505b919050565b60007f01ffc9a7000000000000000000000000000000000000000000000000000000007bffffffffffffffffffffffffffffffffffffffffffffffffffffffff1916827bffffffffffffffffffffffffffffffffffffffffffffffffffffffff1916149050919050565b600073ffffffffffffffffffffffffffffffffffffffff168273ffffffffffffffffffffffffffffffffffffffff161415612516576040517f08c379a000000000000000000000000000000000000000000000000000000000815260040161250d906136b0565b60405180910390fd5b61251f8161140b565b1561255f576040517f08c379a0000000000000000000000000000000000000000000000000000000008152600401612556906135d0565b60405180910390fd5b61256b60008383611f86565b6001600360008473ffffffffffffffffffffffffffffffffffffffff1673ffffffffffffffffffffffffffffffffffffffff16815260200190815260200160002060008282546125bb91906138df565b92505081905550816002600083815260200190815260200160002060006101000a81548173ffffffffffffffffffffffffffffffffffffffff021916908373ffffffffffffffffffffffffffffffffffffffff160217905550808273ffffffffffffffffffffffffffffffffffffffff16600073ffffffffffffffffffffffffffffffffffffffff167fddf252ad1be2c89b69c2b068fc378daa952ba7f163c4a11628f55a4df523b3ef60405160405180910390a45050565b600080823b905060008111915050919050565b82805461269390613aee565b90600052602060002090601f0160209004810192826126b557600085556126fc565b82601f106126ce57805160ff19168380011785556126fc565b828001600101855582156126fc579182015b828111156126fb5782518255916020019190600101906126e0565b5b509050612709919061274d565b5090565b50805461271990613aee565b6000825580601f1061272b575061274a565b601f016020900490600052602060002090810190612749919061274d565b5b50565b5b8082111561276657600081600090555060010161274e565b5090565b600061277d6127788461383c565b61380b565b90508281526020810184848401111561279557600080fd5b6127a0848285613aac565b509392505050565b60006127bb6127b68461386c565b61380b565b9050828152602081018484840111156127d357600080fd5b6127de848285613aac565b509392505050565b6000813590506127f581613c67565b92915050565b60008135905061280a81613c7e565b92915050565b60008135905061281f81613c95565b92915050565b60008151905061283481613c95565b92915050565b600082601f83011261284b57600080fd5b813561285b84826020860161276a565b91505092915050565b600082601f83011261287557600080fd5b81356128858482602086016127a8565b91505092915050565b60008135905061289d81613cac565b92915050565b6000602082840312156128b557600080fd5b60006128c3848285016127e6565b91505092915050565b600080604083850312156128df57600080fd5b60006128ed858286016127e6565b92505060206128fe858286016127e6565b9150509250929050565b60008060006060848603121561291d57600080fd5b600061292b868287016127e6565b935050602061293c868287016127e6565b925050604061294d8682870161288e565b9150509250925092565b6000806000806080858703121561296d57600080fd5b600061297b878288016127e6565b945050602061298c878288016127e6565b935050604061299d8782880161288e565b925050606085013567ffffffffffffffff8111156129ba57600080fd5b6129c68782880161283a565b91505092959194509250565b600080604083850312156129e557600080fd5b60006129f3858286016127e6565b9250506020612a04858286016127fb565b9150509250929050565b60008060408385031215612a2157600080fd5b6000612a2f858286016127e6565b9250506020612a408582860161288e565b9150509250929050565b600060208284031215612a5c57600080fd5b6000612a6a84828501612810565b91505092915050565b600060208284031215612a8557600080fd5b6000612a9384828501612825565b91505092915050565b600060208284031215612aae57600080fd5b600082013567ffffffffffffffff811115612ac857600080fd5b612ad484828501612864565b91505092915050565b600080600060608486031215612af257600080fd5b600084013567ffffffffffffffff811115612b0c57600080fd5b612b1886828701612864565b9350506020612b298682870161288e565b9250506040612b3a8682870161288e565b9150509250925092565b60008060008060808587031215612b5a57600080fd5b600085013567ffffffffffffffff811115612b7457600080fd5b612b8087828801612864565b9450506020612b918782880161288e565b9350506040612ba28782880161288e565b9250506060612bb3878288016127e6565b91505092959194509250565b600060208284031215612bd157600080fd5b6000612bdf8482850161288e565b91505092915050565b60008060408385031215612bfb57600080fd5b6000612c098582860161288e565b9250506020612c1a8582860161288e565b9150509250929050565b612c2d81613a2b565b82525050565b612c3c81613a3d565b82525050565b6000612c4d8261389c565b612c5781856138b2565b9350612c67818560208601613abb565b612c7081613c56565b840191505092915050565b6000612c86826138a7565b612c9081856138c3565b9350612ca0818560208601613abb565b612ca981613c56565b840191505092915050565b6000612cbf826138a7565b612cc981856138d4565b9350612cd9818560208601613abb565b80840191505092915050565b6000612cf2601a836138c3565b91507f45524332393831526f79616c746965733a20546f6f20686967680000000000006000830152602082019050919050565b6000612d32601b836138c3565b91507f436f756e7465723a2064656372656d656e74206f766572666c6f7700000000006000830152602082019050919050565b6000612d726032836138c3565b91507f4552433732313a207472616e7366657220746f206e6f6e20455243373231526560008301527f63656976657220696d706c656d656e74657200000000000000000000000000006020830152604082019050919050565b6000612dd86026836138c3565b91507f4f776e61626c653a206e6577206f776e657220697320746865207a65726f206160008301527f64647265737300000000000000000000000000000000000000000000000000006020830152604082019050919050565b6000612e3e601c836138c3565b91507f4552433732313a20746f6b656e20616c7265616479206d696e746564000000006000830152602082019050919050565b6000612e7e6024836138c3565b91507f4552433732313a207472616e7366657220746f20746865207a65726f2061646460008301527f72657373000000000000000000000000000000000000000000000000000000006020830152604082019050919050565b6000612ee46019836138c3565b91507f4552433732313a20617070726f766520746f2063616c6c6572000000000000006000830152602082019050919050565b6000612f24602c836138c3565b91507f4552433732313a206f70657261746f7220717565727920666f72206e6f6e657860008301527f697374656e7420746f6b656e00000000000000000000000000000000000000006020830152604082019050919050565b6000612f8a6038836138c3565b91507f4552433732313a20617070726f76652063616c6c6572206973206e6f74206f7760008301527f6e6572206e6f7220617070726f76656420666f7220616c6c00000000000000006020830152604082019050919050565b6000612ff0602a836138c3565b91507f4552433732313a2062616c616e636520717565727920666f7220746865207a6560008301527f726f2061646472657373000000000000000000000000000000000000000000006020830152604082019050919050565b60006130566029836138c3565b91507f4552433732313a206f776e657220717565727920666f72206e6f6e657869737460008301527f656e7420746f6b656e00000000000000000000000000000000000000000000006020830152604082019050919050565b60006130bc6020836138c3565b91507f4552433732313a206d696e7420746f20746865207a65726f20616464726573736000830152602082019050919050565b60006130fc602c836138c3565b91507f4552433732313a20617070726f76656420717565727920666f72206e6f6e657860008301527f697374656e7420746f6b656e00000000000000000000000000000000000000006020830152604082019050919050565b60006131626020836138c3565b91507f4f776e61626c653a2063616c6c6572206973206e6f7420746865206f776e65726000830152602082019050919050565b60006131a26029836138c3565b91507f4552433732313a207472616e73666572206f6620746f6b656e2074686174206960008301527f73206e6f74206f776e00000000000000000000000000000000000000000000006020830152604082019050919050565b6000613208602f836138c3565b91507f4552433732314d657461646174613a2055524920717565727920666f72206e6f60008301527f6e6578697374656e7420746f6b656e00000000000000000000000000000000006020830152604082019050919050565b600061326e6021836138c3565b91507f4552433732313a20617070726f76616c20746f2063757272656e74206f776e6560008301527f72000000000000000000000000000000000000000000000000000000000000006020830152604082019050919050565b60006132d46018836138c3565b91507f6e6f74206d6f7265207468616e203230206174206f6e636500000000000000006000830152602082019050919050565b60006133146031836138c3565b91507f4552433732313a207472616e736665722063616c6c6572206973206e6f74206f60008301527f776e6572206e6f7220617070726f7665640000000000000000000000000000006020830152604082019050919050565b600061337a6024836138c3565b91507f4552433732313a2055524920736574206f66206e6f6e6578697374656e74207460008301527f6f6b656e000000000000000000000000000000000000000000000000000000006020830152604082019050919050565b60006133e06027836138c3565b91507f4552433732313a2055524920717565727920666f72206e6f6e6578697374656e60008301527f7420746f6b656e000000000000000000000000000000000000000000000000006020830152604082019050919050565b61344281613a95565b82525050565b60006134548284612cb4565b915081905092915050565b600061346b8285612cb4565b91506134778284612cb4565b91508190509392505050565b60006020820190506134986000830184612c24565b92915050565b60006080820190506134b36000830187612c24565b6134c06020830186612c24565b6134cd6040830185613439565b81810360608301526134df8184612c42565b905095945050505050565b60006040820190506134ff6000830185612c24565b61350c6020830184613439565b9392505050565b60006020820190506135286000830184612c33565b92915050565b600060208201905081810360008301526135488184612c7b565b905092915050565b6000602082019050818103600083015261356981612ce5565b9050919050565b6000602082019050818103600083015261358981612d25565b9050919050565b600060208201905081810360008301526135a981612d65565b9050919050565b600060208201905081810360008301526135c981612dcb565b9050919050565b600060208201905081810360008301526135e981612e31565b9050919050565b6000602082019050818103600083015261360981612e71565b9050919050565b6000602082019050818103600083015261362981612ed7565b9050919050565b6000602082019050818103600083015261364981612f17565b9050919050565b6000602082019050818103600083015261366981612f7d565b9050919050565b6000602082019050818103600083015261368981612fe3565b9050919050565b600060208201905081810360008301526136a981613049565b9050919050565b600060208201905081810360008301526136c9816130af565b9050919050565b600060208201905081810360008301526136e9816130ef565b9050919050565b6000602082019050818103600083015261370981613155565b9050919050565b6000602082019050818103600083015261372981613195565b9050919050565b60006020820190508181036000830152613749816131fb565b9050919050565b6000602082019050818103600083015261376981613261565b9050919050565b60006020820190508181036000830152613789816132c7565b9050919050565b600060208201905081810360008301526137a981613307565b9050919050565b600060208201905081810360008301526137c98161336d565b9050919050565b600060208201905081810360008301526137e9816133d3565b9050919050565b60006020820190506138056000830184613439565b92915050565b6000604051905081810181811067ffffffffffffffff8211171561383257613831613c27565b5b8060405250919050565b600067ffffffffffffffff82111561385757613856613c27565b5b601f19601f8301169050602081019050919050565b600067ffffffffffffffff82111561388757613886613c27565b5b601f19601f8301169050602081019050919050565b600081519050919050565b600081519050919050565b600082825260208201905092915050565b600082825260208201905092915050565b600081905092915050565b60006138ea82613a95565b91506138f583613a95565b9250827fffffffffffffffffffffffffffffffffffffffffffffffffffffffffffffffff0382111561392a57613929613b9a565b5b828201905092915050565b600061394082613a9f565b915061394b83613a9f565b92508260ff0382111561396157613960613b9a565b5b828201905092915050565b600061397782613a95565b915061398283613a95565b92508261399257613991613bc9565b5b828204905092915050565b60006139a882613a95565b91506139b383613a95565b9250817fffffffffffffffffffffffffffffffffffffffffffffffffffffffffffffffff04831182151516156139ec576139eb613b9a565b5b828202905092915050565b6000613a0282613a95565b9150613a0d83613a95565b925082821015613a2057613a1f613b9a565b5b828203905092915050565b6000613a3682613a75565b9050919050565b60008115159050919050565b60007fffffffff0000000000000000000000000000000000000000000000000000000082169050919050565b600073ffffffffffffffffffffffffffffffffffffffff82169050919050565b6000819050919050565b600060ff82169050919050565b82818337600083830152505050565b60005b83811015613ad9578082015181840152602081019050613abe565b83811115613ae8576000848401525b50505050565b60006002820490506001821680613b0657607f821691505b60208210811415613b1a57613b19613bf8565b5b50919050565b6000613b2b82613a95565b91507fffffffffffffffffffffffffffffffffffffffffffffffffffffffffffffffff821415613b5e57613b5d613b9a565b5b600182019050919050565b6000613b7482613a95565b9150613b7f83613a95565b925082613b8f57613b8e613bc9565b5b828206905092915050565b7f4e487b7100000000000000000000000000000000000000000000000000000000600052601160045260246000fd5b7f4e487b7100000000000000000000000000000000000000000000000000000000600052601260045260246000fd5b7f4e487b7100000000000000000000000000000000000000000000000000000000600052602260045260246000fd5b7f4e487b7100000000000000000000000000000000000000000000000000000000600052604160045260246000fd5b6000601f19601f8301169050919050565b613c7081613a2b565b8114613c7b57600080fd5b50565b613c8781613a3d565b8114613c9257600080fd5b50565b613c9e81613a49565b8114613ca957600080fd5b50565b613cb581613a95565b8114613cc057600080fd5b5056fe697066733a2f2f516d506573436431634a786e6241696b6a616f4c79345548694c5a7166776273436156567a62536d335a5679414aa2646970667358221220bc786f555fdccdfcd2769364a26c9344da6ae4de56f6008a19d6b4103aa9ff5964736f6c63430008000033",
  "immutableReferences": {},
  "source": "// SPDX-License-Identifier: MIT\r\npragma solidity ^0.8.0;\r\n\r\nimport \"@openzeppelin/contracts/token/ERC721/ERC721.sol\";\r\nimport \"@openzeppelin/contracts/utils/Counters.sol\";\r\nimport \"@openzeppelin/contracts/access/Ownable.sol\";\r\nimport \"./ERC2981Royalty.sol\";\r\n\r\n\r\ncontract Souvenir is ERC721, Ownable, ERC2981Royalty{\r\n    using Strings for uint256;\r\n    using Counters for Counters.Counter;\r\n\r\n    Counters.Counter private _tokenIds;\r\n    Counters.Counter private _tokenSupply;\r\n\r\n    // copied from ERC721URIStorage.sol (OpenZeppelin)\r\n    // mapping between tokenURIs and tokenIDs\r\n    mapping(uint256 => string) private _tokenURIs;\r\n\r\n    // used to regulate how many copies of one NFT should exist\r\n    mapping(string => uint8) private _hashes;\r\n\r\n    // amount of possible copies of one NFT\r\n    uint8 private constant MAX_AMOUNT_OF_COPIES = 100;\r\n\r\n    // Base URI\r\n    string private _baseURIExtended = \"ipfs://\";\r\n\r\n    // address that receives royalty fees\r\n    address private _royaltyRecipient;\r\n\r\n    // constructor with name and symbol of nft\r\n    // setting the owner to receive royalties\r\n    constructor() ERC721(\"Souvenir\",\"SVN\"){\r\n        _royaltyRecipient = owner();\r\n    }\r\n\r\n\r\n\r\n    // function to validate interfaces\r\n    // used by marketplaces and other smart contracts in order to figure out if the contract followed the standards\r\n    function supportsInterface(bytes4 interfaceId)\r\n    public\r\n    view\r\n    virtual\r\n    override(ERC721, ERC2981Base)\r\n    returns (bool)\r\n    {\r\n        return super.supportsInterface(interfaceId);\r\n    }\r\n\r\n    // returns the amount of total NFTs minted (created)\r\n    function totalSupply() public view returns (uint256) {\r\n        return _tokenSupply.current();\r\n    }\r\n\r\n    // collection representation\r\n    // marketplaces use this function in order to assign the NFT-tokens to this collection\r\n    // pure is a keyword, which ensures that the function doesnt view nor modify the state\r\n    function contractURI() public pure returns (string memory) {\r\n        return \"ipfs://QmPesCd1cJxnbAikjaoLy4UHiLZqfwbsCaVVzbSm3ZVyAJ\"; // collection json ipfs\r\n    }\r\n\r\n    // setter for baseURI\r\n    // default is \"ipfs://\"\r\n    function setBaseURI(string memory baseURI_)\r\n    external\r\n    onlyOwner\r\n    {\r\n        _baseURIExtended = baseURI_;\r\n    }\r\n\r\n\r\n    // view is a keyword, which ensures that the function can view but not modify the state\r\n    function _baseURI()\r\n    internal\r\n    view\r\n    virtual\r\n    override\r\n    returns (string memory)\r\n    {\r\n        return _baseURIExtended;\r\n    }\r\n\r\n    // setter for royalty recipient\r\n    function setRoyaltyRecipient(address royaltyRecipient_)\r\n    external\r\n    onlyOwner\r\n    {\r\n        _royaltyRecipient = royaltyRecipient_;\r\n    }\r\n\r\n    // copied from ERC721URIStorage.sol (OpenZeppelin)\r\n    // internal setter for TokenURI\r\n    function _setTokenURI(uint256 tokenId, string memory _tokenURI) internal virtual {\r\n        require(_exists(tokenId), \"ERC721: URI set of nonexistent token\");\r\n        _tokenURIs[tokenId] = _tokenURI;\r\n    }\r\n\r\n    // copied from ERC721URIStorage.sol (OpenZeppelin)\r\n    // internal burn _function\r\n    function _burn(uint256 tokenId) internal virtual override {\r\n        super._burn(tokenId);\r\n        _tokenSupply.decrement();\r\n        if (bytes(_tokenURIs[tokenId]).length != 0) {\r\n            delete _tokenURIs[tokenId];\r\n        }\r\n    }\r\n\r\n    // burns (destroys) a token.\r\n    function burn(uint256 tokenId) external onlyOwner{\r\n        _burn(tokenId);\r\n    }\r\n    //royalty recipient getter\r\n    function royaltyRecipient() public view virtual returns (address) {\r\n        return _royaltyRecipient;\r\n    }\r\n\r\n    // copied from ERC721URIStorage.sol (OpenZeppelin)\r\n    // tokenURI getter\r\n    function tokenURI(uint256 tokenId) public view virtual override returns (string memory) {\r\n        require(_exists(tokenId), \"ERC721: URI query for nonexistent token\");\r\n\r\n        string memory _tokenURI = _tokenURIs[tokenId];\r\n        string memory base = _baseURI();\r\n\r\n        // If there is no base URI, return the token URI.\r\n        if (bytes(base).length == 0) {\r\n            return _tokenURI;\r\n        }\r\n        // If both are set, concatenate the baseURI and tokenURI (via abi.encodePacked).\r\n        if (bytes(_tokenURI).length > 0) {\r\n            return string(abi.encodePacked(base, _tokenURI));\r\n        }\r\n\r\n        return super.tokenURI(tokenId);\r\n    }\r\n\r\n\r\n    // mints \"numberOfTokens\" to account who called this function.\r\n    // value percentage (using 2 decimals - 10000 = 100, 0 = 0)\r\n    // numberOfTokens limited to 20 at once\r\n    // max copies of one nft is 100\r\n    function mint(string memory tokenHash, uint256 numberOfTokens, uint256 royaltyAmount)\r\n    external\r\n//    onlyOwner\r\n    {\r\n        require(numberOfTokens<=20, \"not more than 20 at once\");\r\n        require(_hashes[tokenHash]<= MAX_AMOUNT_OF_COPIES);\r\n\r\n        for(uint256 i=0; i < numberOfTokens; i++){\r\n            _hashes[tokenHash] = _hashes[tokenHash] + 1;\r\n            _tokenIds.increment();\r\n            _tokenSupply.increment();\r\n            uint256 newTokenId = _tokenIds.current();\r\n            _safeMint(msg.sender, newTokenId);\r\n            _setTokenURI(newTokenId, tokenHash);\r\n            if (royaltyAmount > 0) {\r\n                _setTokenRoyalty(newTokenId, _royaltyRecipient, royaltyAmount);\r\n            }\r\n        }\r\n\r\n    }\r\n\r\n    // mints nft to 'receiver'\r\n    function mint(string memory tokenHash, uint256 numberOfTokens, uint256 royaltyAmount, address receiver)\r\n    external\r\n//    onlyOwner\r\n    {\r\n        require(numberOfTokens<=20, \"not more than 20 at once\");\r\n        require(_hashes[tokenHash]<= MAX_AMOUNT_OF_COPIES);\r\n\r\n        for(uint256 i=0; i < numberOfTokens; i++){\r\n            _hashes[tokenHash] = _hashes[tokenHash] + 1;\r\n            _tokenIds.increment();\r\n            _tokenSupply.increment();\r\n            uint256 newTokenId = _tokenIds.current();\r\n            _safeMint(receiver, newTokenId);\r\n            _setTokenURI(newTokenId, tokenHash);\r\n            if (royaltyAmount > 0) {\r\n                _setTokenRoyalty(newTokenId, _royaltyRecipient, royaltyAmount);\r\n            }\r\n        }\r\n\r\n    }\r\n\r\n\r\n}",
  "sourcePath": "C:\\Users\\Joey\\Desktop\\BA\\nft-react-postcard-minter\\src\\contracts\\Souvenir.sol",
  "compiler": {
    "name": "solc",
    "version": "0.8.0+commit.c7dfd78e.Emscripten.clang"
  },
  "schemaVersion": "3.4.3",
  "updatedAt": "2022-02-24T14:38:28.646Z",
  "networkType": "ethereum",
  "devdoc": {
    "kind": "dev",
    "methods": {
      "approve(address,uint256)": {
        "details": "See {IERC721-approve}."
      },
      "balanceOf(address)": {
        "details": "See {IERC721-balanceOf}."
      },
      "getApproved(uint256)": {
        "details": "See {IERC721-getApproved}."
      },
      "isApprovedForAll(address,address)": {
        "details": "See {IERC721-isApprovedForAll}."
      },
      "name()": {
        "details": "See {IERC721Metadata-name}."
      },
      "owner()": {
        "details": "Returns the address of the current owner."
      },
      "ownerOf(uint256)": {
        "details": "See {IERC721-ownerOf}."
      },
      "renounceOwnership()": {
        "details": "Leaves the contract without owner. It will not be possible to call `onlyOwner` functions anymore. Can only be called by the current owner. NOTE: Renouncing ownership will leave the contract without an owner, thereby removing any functionality that is only available to the owner."
      },
      "royaltyInfo(uint256,uint256)": {
        "params": {
          "_tokenId": "- the NFT asset queried for royalty information",
          "_value": "- the sale price of the NFT asset specified by _tokenId"
        },
        "returns": {
          "receiver": "- address of who should be sent the royalty payment",
          "royaltyAmount": "- the royalty payment amount for value sale price"
        }
      },
      "safeTransferFrom(address,address,uint256)": {
        "details": "See {IERC721-safeTransferFrom}."
      },
      "safeTransferFrom(address,address,uint256,bytes)": {
        "details": "See {IERC721-safeTransferFrom}."
      },
      "setApprovalForAll(address,bool)": {
        "details": "See {IERC721-setApprovalForAll}."
      },
      "symbol()": {
        "details": "See {IERC721Metadata-symbol}."
      },
      "tokenURI(uint256)": {
        "details": "See {IERC721Metadata-tokenURI}."
      },
      "transferFrom(address,address,uint256)": {
        "details": "See {IERC721-transferFrom}."
      },
      "transferOwnership(address)": {
        "details": "Transfers ownership of the contract to a new account (`newOwner`). Can only be called by the current owner."
      }
    },
    "version": 1
  },
  "userdoc": {
    "kind": "user",
    "methods": {},
    "version": 1
  }
}