{
  "contractName": "Souvenir",
  "abi": [
    {
      "inputs": [],
      "stateMutability": "nonpayable",
      "type": "constructor"
    },
    {
      "anonymous": false,
      "inputs": [
        {
          "indexed": true,
          "internalType": "address",
          "name": "owner",
          "type": "address"
        },
        {
          "indexed": true,
          "internalType": "address",
          "name": "approved",
          "type": "address"
        },
        {
          "indexed": true,
          "internalType": "uint256",
          "name": "tokenId",
          "type": "uint256"
        }
      ],
      "name": "Approval",
      "type": "event"
    },
    {
      "anonymous": false,
      "inputs": [
        {
          "indexed": true,
          "internalType": "address",
          "name": "owner",
          "type": "address"
        },
        {
          "indexed": true,
          "internalType": "address",
          "name": "operator",
          "type": "address"
        },
        {
          "indexed": false,
          "internalType": "bool",
          "name": "approved",
          "type": "bool"
        }
      ],
      "name": "ApprovalForAll",
      "type": "event"
    },
    {
      "anonymous": false,
      "inputs": [
        {
          "indexed": true,
          "internalType": "address",
          "name": "previousOwner",
          "type": "address"
        },
        {
          "indexed": true,
          "internalType": "address",
          "name": "newOwner",
          "type": "address"
        }
      ],
      "name": "OwnershipTransferred",
      "type": "event"
    },
    {
      "anonymous": false,
      "inputs": [
        {
          "indexed": true,
          "internalType": "address",
          "name": "from",
          "type": "address"
        },
        {
          "indexed": true,
          "internalType": "address",
          "name": "to",
          "type": "address"
        },
        {
          "indexed": true,
          "internalType": "uint256",
          "name": "tokenId",
          "type": "uint256"
        }
      ],
      "name": "Transfer",
      "type": "event"
    },
    {
      "inputs": [
        {
          "internalType": "address",
          "name": "to",
          "type": "address"
        },
        {
          "internalType": "uint256",
          "name": "tokenId",
          "type": "uint256"
        }
      ],
      "name": "approve",
      "outputs": [],
      "stateMutability": "nonpayable",
      "type": "function"
    },
    {
      "inputs": [
        {
          "internalType": "address",
          "name": "owner",
          "type": "address"
        }
      ],
      "name": "balanceOf",
      "outputs": [
        {
          "internalType": "uint256",
          "name": "",
          "type": "uint256"
        }
      ],
      "stateMutability": "view",
      "type": "function",
      "constant": true
    },
    {
      "inputs": [
        {
          "internalType": "uint256",
          "name": "tokenId",
          "type": "uint256"
        }
      ],
      "name": "getApproved",
      "outputs": [
        {
          "internalType": "address",
          "name": "",
          "type": "address"
        }
      ],
      "stateMutability": "view",
      "type": "function",
      "constant": true
    },
    {
      "inputs": [
        {
          "internalType": "address",
          "name": "owner",
          "type": "address"
        },
        {
          "internalType": "address",
          "name": "operator",
          "type": "address"
        }
      ],
      "name": "isApprovedForAll",
      "outputs": [
        {
          "internalType": "bool",
          "name": "",
          "type": "bool"
        }
      ],
      "stateMutability": "view",
      "type": "function",
      "constant": true
    },
    {
      "inputs": [],
      "name": "name",
      "outputs": [
        {
          "internalType": "string",
          "name": "",
          "type": "string"
        }
      ],
      "stateMutability": "view",
      "type": "function",
      "constant": true
    },
    {
      "inputs": [],
      "name": "owner",
      "outputs": [
        {
          "internalType": "address",
          "name": "",
          "type": "address"
        }
      ],
      "stateMutability": "view",
      "type": "function",
      "constant": true
    },
    {
      "inputs": [
        {
          "internalType": "uint256",
          "name": "tokenId",
          "type": "uint256"
        }
      ],
      "name": "ownerOf",
      "outputs": [
        {
          "internalType": "address",
          "name": "",
          "type": "address"
        }
      ],
      "stateMutability": "view",
      "type": "function",
      "constant": true
    },
    {
      "inputs": [],
      "name": "renounceOwnership",
      "outputs": [],
      "stateMutability": "nonpayable",
      "type": "function"
    },
    {
      "inputs": [
        {
          "internalType": "uint256",
          "name": "tokenId",
          "type": "uint256"
        },
        {
          "internalType": "uint256",
          "name": "value",
          "type": "uint256"
        }
      ],
      "name": "royaltyInfo",
      "outputs": [
        {
          "internalType": "address",
          "name": "receiver",
          "type": "address"
        },
        {
          "internalType": "uint256",
          "name": "royaltyAmount",
          "type": "uint256"
        }
      ],
      "stateMutability": "view",
      "type": "function",
      "constant": true
    },
    {
      "inputs": [
        {
          "internalType": "address",
          "name": "from",
          "type": "address"
        },
        {
          "internalType": "address",
          "name": "to",
          "type": "address"
        },
        {
          "internalType": "uint256",
          "name": "tokenId",
          "type": "uint256"
        }
      ],
      "name": "safeTransferFrom",
      "outputs": [],
      "stateMutability": "nonpayable",
      "type": "function"
    },
    {
      "inputs": [
        {
          "internalType": "address",
          "name": "from",
          "type": "address"
        },
        {
          "internalType": "address",
          "name": "to",
          "type": "address"
        },
        {
          "internalType": "uint256",
          "name": "tokenId",
          "type": "uint256"
        },
        {
          "internalType": "bytes",
          "name": "_data",
          "type": "bytes"
        }
      ],
      "name": "safeTransferFrom",
      "outputs": [],
      "stateMutability": "nonpayable",
      "type": "function"
    },
    {
      "inputs": [
        {
          "internalType": "address",
          "name": "operator",
          "type": "address"
        },
        {
          "internalType": "bool",
          "name": "approved",
          "type": "bool"
        }
      ],
      "name": "setApprovalForAll",
      "outputs": [],
      "stateMutability": "nonpayable",
      "type": "function"
    },
    {
      "inputs": [],
      "name": "symbol",
      "outputs": [
        {
          "internalType": "string",
          "name": "",
          "type": "string"
        }
      ],
      "stateMutability": "view",
      "type": "function",
      "constant": true
    },
    {
      "inputs": [
        {
          "internalType": "address",
          "name": "from",
          "type": "address"
        },
        {
          "internalType": "address",
          "name": "to",
          "type": "address"
        },
        {
          "internalType": "uint256",
          "name": "tokenId",
          "type": "uint256"
        }
      ],
      "name": "transferFrom",
      "outputs": [],
      "stateMutability": "nonpayable",
      "type": "function"
    },
    {
      "inputs": [
        {
          "internalType": "address",
          "name": "newOwner",
          "type": "address"
        }
      ],
      "name": "transferOwnership",
      "outputs": [],
      "stateMutability": "nonpayable",
      "type": "function"
    },
    {
      "inputs": [
        {
          "internalType": "bytes4",
          "name": "interfaceId",
          "type": "bytes4"
        }
      ],
      "name": "supportsInterface",
      "outputs": [
        {
          "internalType": "bool",
          "name": "",
          "type": "bool"
        }
      ],
      "stateMutability": "view",
      "type": "function",
      "constant": true
    },
    {
      "inputs": [],
      "name": "totalSupply",
      "outputs": [
        {
          "internalType": "uint256",
          "name": "",
          "type": "uint256"
        }
      ],
      "stateMutability": "view",
      "type": "function",
      "constant": true
    },
    {
      "inputs": [],
      "name": "contractURI",
      "outputs": [
        {
          "internalType": "string",
          "name": "",
          "type": "string"
        }
      ],
      "stateMutability": "pure",
      "type": "function",
      "constant": true
    },
    {
      "inputs": [
        {
          "internalType": "string",
          "name": "baseURI_",
          "type": "string"
        }
      ],
      "name": "setBaseURI",
      "outputs": [],
      "stateMutability": "nonpayable",
      "type": "function"
    },
    {
      "inputs": [
        {
          "internalType": "address",
          "name": "royaltyRecipient_",
          "type": "address"
        }
      ],
      "name": "setRoyaltyRecipient",
      "outputs": [],
      "stateMutability": "nonpayable",
      "type": "function"
    },
    {
      "inputs": [
        {
          "internalType": "uint256",
          "name": "tokenId",
          "type": "uint256"
        }
      ],
      "name": "burn",
      "outputs": [],
      "stateMutability": "nonpayable",
      "type": "function"
    },
    {
      "inputs": [],
      "name": "royaltyRecipient",
      "outputs": [
        {
          "internalType": "address",
          "name": "",
          "type": "address"
        }
      ],
      "stateMutability": "view",
      "type": "function",
      "constant": true
    },
    {
      "inputs": [
        {
          "internalType": "uint256",
          "name": "tokenId",
          "type": "uint256"
        }
      ],
      "name": "tokenURI",
      "outputs": [
        {
          "internalType": "string",
          "name": "",
          "type": "string"
        }
      ],
      "stateMutability": "view",
      "type": "function",
      "constant": true
    },
    {
      "inputs": [
        {
          "internalType": "string",
          "name": "tokenHash",
          "type": "string"
        },
        {
          "internalType": "uint256",
          "name": "royaltyAmount",
          "type": "uint256"
        }
      ],
      "name": "mint",
      "outputs": [],
      "stateMutability": "nonpayable",
      "type": "function"
    },
    {
      "inputs": [
        {
          "internalType": "string",
          "name": "tokenHash",
          "type": "string"
        },
        {
          "internalType": "address",
          "name": "receiver",
          "type": "address"
        },
        {
          "internalType": "uint256",
          "name": "royaltyAmount",
          "type": "uint256"
        }
      ],
      "name": "mintTo",
      "outputs": [],
      "stateMutability": "nonpayable",
      "type": "function"
    },
    {
      "inputs": [
        {
          "internalType": "string",
          "name": "tokenHash",
          "type": "string"
        },
        {
          "internalType": "uint256",
          "name": "numberOfTokens",
          "type": "uint256"
        },
        {
          "internalType": "uint256",
          "name": "royaltyAmount",
          "type": "uint256"
        }
      ],
      "name": "mintBatch",
      "outputs": [],
      "stateMutability": "nonpayable",
      "type": "function"
    }
  ],
  "bytecode": "0x60806040526040518060400160405280601581526020017f68747470733a2f2f697066732e696f2f697066732f0000000000000000000000815250600b9080519060200190620000519291906200026e565b503480156200005f57600080fd5b506040518060400160405280600881526020017f536f7576656e69720000000000000000000000000000000000000000000000008152506040518060400160405280600381526020017f53564e00000000000000000000000000000000000000000000000000000000008152508160009080519060200190620000e49291906200026e565b508060019080519060200190620000fd9291906200026e565b50505062000120620001146200017660201b60201c565b6200017e60201b60201c565b620001306200024460201b60201c565b600c60006101000a81548173ffffffffffffffffffffffffffffffffffffffff021916908373ffffffffffffffffffffffffffffffffffffffff16021790555062000383565b600033905090565b6000600660009054906101000a900473ffffffffffffffffffffffffffffffffffffffff16905081600660006101000a81548173ffffffffffffffffffffffffffffffffffffffff021916908373ffffffffffffffffffffffffffffffffffffffff1602179055508173ffffffffffffffffffffffffffffffffffffffff168173ffffffffffffffffffffffffffffffffffffffff167f8be0079c531659141344cd1fd0a4f28419497f9722a3daafe3b4186f6b6457e060405160405180910390a35050565b6000600660009054906101000a900473ffffffffffffffffffffffffffffffffffffffff16905090565b8280546200027c906200031e565b90600052602060002090601f016020900481019282620002a05760008555620002ec565b82601f10620002bb57805160ff1916838001178555620002ec565b82800160010185558215620002ec579182015b82811115620002eb578251825591602001919060010190620002ce565b5b509050620002fb9190620002ff565b5090565b5b808211156200031a57600081600090555060010162000300565b5090565b600060028204905060018216806200033757607f821691505b602082108114156200034e576200034d62000354565b5b50919050565b7f4e487b7100000000000000000000000000000000000000000000000000000000600052602260045260246000fd5b613e0280620003936000396000f3fe608060405234801561001057600080fd5b506004361061018e5760003560e01c806355f804b3116100de5780639895e6f711610097578063c87b56dd11610071578063c87b56dd14610458578063e8a3d48514610488578063e985e9c5146104a6578063f2fde38b146104d65761018e565b80639895e6f714610404578063a22cb46514610420578063b88d4fde1461043c5761018e565b806355f804b3146103425780636352211e1461035e57806370a082311461038e578063715018a6146103be5780638da5cb5b146103c857806395d89b41146103e65761018e565b80631f5a8c2e1161014b57806341e42f301161012557806341e42f30146102d057806342842e0e146102ec57806342966c68146103085780634c00de82146103245761018e565b80631f5a8c2e1461026757806323b872dd146102835780632a55205a1461029f5761018e565b806301ffc9a714610193578063056b01ce146101c357806306fdde03146101df578063081812fc146101fd578063095ea7b31461022d57806318160ddd14610249575b600080fd5b6101ad60048036038101906101a89190612b30565b6104f2565b6040516101ba91906135f9565b60405180910390f35b6101dd60048036038101906101d89190612c2a565b610504565b005b6101e7610656565b6040516101f49190613614565b60405180910390f35b61021760048036038101906102129190612ce5565b6106e8565b6040516102249190613569565b60405180910390f35b61024760048036038101906102429190612af4565b61076d565b005b610251610885565b60405161025e91906138b6565b60405180910390f35b610281600480360381019061027c9190612c7e565b610896565b005b61029d600480360381019061029891906129ee565b610a89565b005b6102b960048036038101906102b49190612d0e565b610ae9565b6040516102c79291906135d0565b60405180910390f35b6102ea60048036038101906102e59190612989565b610bba565b005b610306600480360381019061030191906129ee565b610c7a565b005b610322600480360381019061031d9190612ce5565b610c9a565b005b61032c610ca6565b6040516103399190613569565b60405180910390f35b61035c60048036038101906103579190612b82565b610cd0565b005b61037860048036038101906103739190612ce5565b610d66565b6040516103859190613569565b60405180910390f35b6103a860048036038101906103a39190612989565b610e18565b6040516103b591906138b6565b60405180910390f35b6103c6610ed0565b005b6103d0610f58565b6040516103dd9190613569565b60405180910390f35b6103ee610f82565b6040516103fb9190613614565b60405180910390f35b61041e60048036038101906104199190612bc3565b611014565b005b61043a60048036038101906104359190612ab8565b611167565b005b61045660048036038101906104519190612a3d565b61117d565b005b610472600480360381019061046d9190612ce5565b6111df565b60405161047f9190613614565b60405180910390f35b610490611331565b60405161049d9190613614565b60405180910390f35b6104c060048036038101906104bb91906129b2565b611351565b6040516104cd91906135f9565b60405180910390f35b6104f060048036038101906104eb9190612989565b6113e5565b005b60006104fd826114dd565b9050919050565b61050c611557565b73ffffffffffffffffffffffffffffffffffffffff1661052a610f58565b73ffffffffffffffffffffffffffffffffffffffff1614610580576040517f08c379a0000000000000000000000000000000000000000000000000000000008152600401610577906137d6565b60405180910390fd5b6001600a83604051610592919061352e565b908152602001604051809103902060009054906101000a900460ff166105b891906139fb565b600a836040516105c8919061352e565b908152602001604051809103902060006101000a81548160ff021916908360ff1602179055506105f8600861155f565b60006106046008611575565b90506106103382611583565b61061a81846115a1565b60008211156106515761065081600c60009054906101000a900473ffffffffffffffffffffffffffffffffffffffff1684611615565b5b505050565b60606000805461066590613bb4565b80601f016020809104026020016040519081016040528092919081815260200182805461069190613bb4565b80156106de5780601f106106b3576101008083540402835291602001916106de565b820191906000526020600020905b8154815290600101906020018083116106c157829003601f168201915b5050505050905090565b60006106f382611711565b610732576040517f08c379a0000000000000000000000000000000000000000000000000000000008152600401610729906137b6565b60405180910390fd5b6004600083815260200190815260200160002060009054906101000a900473ffffffffffffffffffffffffffffffffffffffff169050919050565b600061077882610d66565b90508073ffffffffffffffffffffffffffffffffffffffff168373ffffffffffffffffffffffffffffffffffffffff1614156107e9576040517f08c379a00000000000000000000000000000000000000000000000000000000081526004016107e090613836565b60405180910390fd5b8073ffffffffffffffffffffffffffffffffffffffff16610808611557565b73ffffffffffffffffffffffffffffffffffffffff161480610837575061083681610831611557565b611351565b5b610876576040517f08c379a000000000000000000000000000000000000000000000000000000000815260040161086d90613736565b60405180910390fd5b610880838361177d565b505050565b60006108916008611575565b905090565b61089e611557565b73ffffffffffffffffffffffffffffffffffffffff166108bc610f58565b73ffffffffffffffffffffffffffffffffffffffff1614610912576040517f08c379a0000000000000000000000000000000000000000000000000000000008152600401610909906137d6565b60405180910390fd5b6064821115610956576040517f08c379a000000000000000000000000000000000000000000000000000000000815260040161094d90613636565b60405180910390fd5b6101f4600a84604051610969919061352e565b908152602001604051809103902060009054906101000a900460ff1660ff16111561099357600080fd5b60005b82811015610a83576001600a856040516109b0919061352e565b908152602001604051809103902060009054906101000a900460ff166109d691906139fb565b600a856040516109e6919061352e565b908152602001604051809103902060006101000a81548160ff021916908360ff160217905550610a16600861155f565b6000610a226008611575565b9050610a2e3382611583565b610a3881866115a1565b6000831115610a6f57610a6e81600c60009054906101000a900473ffffffffffffffffffffffffffffffffffffffff1685611615565b5b508080610a7b90613be6565b915050610996565b50505050565b610a9a610a94611557565b82611836565b610ad9576040517f08c379a0000000000000000000000000000000000000000000000000000000008152600401610ad090613856565b60405180910390fd5b610ae4838383611914565b505050565b6000806000600760008681526020019081526020016000206040518060400160405290816000820160009054906101000a900473ffffffffffffffffffffffffffffffffffffffff1673ffffffffffffffffffffffffffffffffffffffff1673ffffffffffffffffffffffffffffffffffffffff1681526020016000820160149054906101000a900462ffffff1662ffffff1662ffffff1681525050905080600001519250612710816020015162ffffff1685610ba69190613a63565b610bb09190613a32565b9150509250929050565b610bc2611557565b73ffffffffffffffffffffffffffffffffffffffff16610be0610f58565b73ffffffffffffffffffffffffffffffffffffffff1614610c36576040517f08c379a0000000000000000000000000000000000000000000000000000000008152600401610c2d906137d6565b60405180910390fd5b80600c60006101000a81548173ffffffffffffffffffffffffffffffffffffffff021916908373ffffffffffffffffffffffffffffffffffffffff16021790555050565b610c958383836040518060200160405280600081525061117d565b505050565b610ca381611b70565b50565b6000600c60009054906101000a900473ffffffffffffffffffffffffffffffffffffffff16905090565b610cd8611557565b73ffffffffffffffffffffffffffffffffffffffff16610cf6610f58565b73ffffffffffffffffffffffffffffffffffffffff1614610d4c576040517f08c379a0000000000000000000000000000000000000000000000000000000008152600401610d43906137d6565b60405180910390fd5b80600b9080519060200190610d6292919061276d565b5050565b6000806002600084815260200190815260200160002060009054906101000a900473ffffffffffffffffffffffffffffffffffffffff169050600073ffffffffffffffffffffffffffffffffffffffff168173ffffffffffffffffffffffffffffffffffffffff161415610e0f576040517f08c379a0000000000000000000000000000000000000000000000000000000008152600401610e0690613776565b60405180910390fd5b80915050919050565b60008073ffffffffffffffffffffffffffffffffffffffff168273ffffffffffffffffffffffffffffffffffffffff161415610e89576040517f08c379a0000000000000000000000000000000000000000000000000000000008152600401610e8090613756565b60405180910390fd5b600360008373ffffffffffffffffffffffffffffffffffffffff1673ffffffffffffffffffffffffffffffffffffffff168152602001908152602001600020549050919050565b610ed8611557565b73ffffffffffffffffffffffffffffffffffffffff16610ef6610f58565b73ffffffffffffffffffffffffffffffffffffffff1614610f4c576040517f08c379a0000000000000000000000000000000000000000000000000000000008152600401610f43906137d6565b60405180910390fd5b610f566000611bc3565b565b6000600660009054906101000a900473ffffffffffffffffffffffffffffffffffffffff16905090565b606060018054610f9190613bb4565b80601f0160208091040260200160405190810160405280929190818152602001828054610fbd90613bb4565b801561100a5780601f10610fdf5761010080835404028352916020019161100a565b820191906000526020600020905b815481529060010190602001808311610fed57829003601f168201915b5050505050905090565b61101c611557565b73ffffffffffffffffffffffffffffffffffffffff1661103a610f58565b73ffffffffffffffffffffffffffffffffffffffff1614611090576040517f08c379a0000000000000000000000000000000000000000000000000000000008152600401611087906137d6565b60405180910390fd5b6001600a846040516110a2919061352e565b908152602001604051809103902060009054906101000a900460ff166110c891906139fb565b600a846040516110d8919061352e565b908152602001604051809103902060006101000a81548160ff021916908360ff160217905550611108600861155f565b60006111146008611575565b90506111208382611583565b61112a81856115a1565b60008211156111615761116081600c60009054906101000a900473ffffffffffffffffffffffffffffffffffffffff1684611615565b5b50505050565b611179611172611557565b8383611c89565b5050565b61118e611188611557565b83611836565b6111cd576040517f08c379a00000000000000000000000000000000000000000000000000000000081526004016111c490613856565b60405180910390fd5b6111d984848484611df6565b50505050565b60606111ea82611711565b611229576040517f08c379a000000000000000000000000000000000000000000000000000000000815260040161122090613896565b60405180910390fd5b600060096000848152602001908152602001600020805461124990613bb4565b80601f016020809104026020016040519081016040528092919081815260200182805461127590613bb4565b80156112c25780601f10611297576101008083540402835291602001916112c2565b820191906000526020600020905b8154815290600101906020018083116112a557829003601f168201915b5050505050905060006112d3611e52565b90506000815114156112e957819250505061132c565b60008251111561131e578082604051602001611306929190613545565b6040516020818303038152906040529250505061132c565b61132784611ee4565b925050505b919050565b6060604051806080016040528060438152602001613d8a60439139905090565b6000600560008473ffffffffffffffffffffffffffffffffffffffff1673ffffffffffffffffffffffffffffffffffffffff16815260200190815260200160002060008373ffffffffffffffffffffffffffffffffffffffff1673ffffffffffffffffffffffffffffffffffffffff16815260200190815260200160002060009054906101000a900460ff16905092915050565b6113ed611557565b73ffffffffffffffffffffffffffffffffffffffff1661140b610f58565b73ffffffffffffffffffffffffffffffffffffffff1614611461576040517f08c379a0000000000000000000000000000000000000000000000000000000008152600401611458906137d6565b60405180910390fd5b600073ffffffffffffffffffffffffffffffffffffffff168173ffffffffffffffffffffffffffffffffffffffff1614156114d1576040517f08c379a00000000000000000000000000000000000000000000000000000000081526004016114c890613696565b60405180910390fd5b6114da81611bc3565b50565b60007f2a55205a000000000000000000000000000000000000000000000000000000007bffffffffffffffffffffffffffffffffffffffffffffffffffffffff1916827bffffffffffffffffffffffffffffffffffffffffffffffffffffffff19161480611550575061154f82611f8b565b5b9050919050565b600033905090565b6001816000016000828254019250508190555050565b600081600001549050919050565b61159d82826040518060200160405280600081525061206d565b5050565b6115aa82611711565b6115e9576040517f08c379a00000000000000000000000000000000000000000000000000000000081526004016115e090613876565b60405180910390fd5b8060096000848152602001908152602001600020908051906020019061161092919061276d565b505050565b61271081111561165a576040517f08c379a000000000000000000000000000000000000000000000000000000000815260040161165190613656565b60405180910390fd5b60405180604001604052808373ffffffffffffffffffffffffffffffffffffffff1681526020018262ffffff168152506007600085815260200190815260200160002060008201518160000160006101000a81548173ffffffffffffffffffffffffffffffffffffffff021916908373ffffffffffffffffffffffffffffffffffffffff16021790555060208201518160000160146101000a81548162ffffff021916908362ffffff160217905550905050505050565b60008073ffffffffffffffffffffffffffffffffffffffff166002600084815260200190815260200160002060009054906101000a900473ffffffffffffffffffffffffffffffffffffffff1673ffffffffffffffffffffffffffffffffffffffff1614159050919050565b816004600083815260200190815260200160002060006101000a81548173ffffffffffffffffffffffffffffffffffffffff021916908373ffffffffffffffffffffffffffffffffffffffff160217905550808273ffffffffffffffffffffffffffffffffffffffff166117f083610d66565b73ffffffffffffffffffffffffffffffffffffffff167f8c5be1e5ebec7d5bd14f71427d1e84f3dd0314c0f7b2291e5b200ac8c7c3b92560405160405180910390a45050565b600061184182611711565b611880576040517f08c379a000000000000000000000000000000000000000000000000000000000815260040161187790613716565b60405180910390fd5b600061188b83610d66565b90508073ffffffffffffffffffffffffffffffffffffffff168473ffffffffffffffffffffffffffffffffffffffff1614806118fa57508373ffffffffffffffffffffffffffffffffffffffff166118e2846106e8565b73ffffffffffffffffffffffffffffffffffffffff16145b8061190b575061190a8185611351565b5b91505092915050565b8273ffffffffffffffffffffffffffffffffffffffff1661193482610d66565b73ffffffffffffffffffffffffffffffffffffffff161461198a576040517f08c379a0000000000000000000000000000000000000000000000000000000008152600401611981906137f6565b60405180910390fd5b600073ffffffffffffffffffffffffffffffffffffffff168273ffffffffffffffffffffffffffffffffffffffff1614156119fa576040517f08c379a00000000000000000000000000000000000000000000000000000000081526004016119f1906136d6565b60405180910390fd5b611a058383836120c8565b611a1060008261177d565b6001600360008573ffffffffffffffffffffffffffffffffffffffff1673ffffffffffffffffffffffffffffffffffffffff1681526020019081526020016000206000828254611a609190613abd565b925050819055506001600360008473ffffffffffffffffffffffffffffffffffffffff1673ffffffffffffffffffffffffffffffffffffffff1681526020019081526020016000206000828254611ab791906139a5565b92505081905550816002600083815260200190815260200160002060006101000a81548173ffffffffffffffffffffffffffffffffffffffff021916908373ffffffffffffffffffffffffffffffffffffffff160217905550808273ffffffffffffffffffffffffffffffffffffffff168473ffffffffffffffffffffffffffffffffffffffff167fddf252ad1be2c89b69c2b068fc378daa952ba7f163c4a11628f55a4df523b3ef60405160405180910390a4505050565b611b79816120cd565b6000600960008381526020019081526020016000208054611b9990613bb4565b905014611bc057600960008281526020019081526020016000206000611bbf91906127f3565b5b50565b6000600660009054906101000a900473ffffffffffffffffffffffffffffffffffffffff16905081600660006101000a81548173ffffffffffffffffffffffffffffffffffffffff021916908373ffffffffffffffffffffffffffffffffffffffff1602179055508173ffffffffffffffffffffffffffffffffffffffff168173ffffffffffffffffffffffffffffffffffffffff167f8be0079c531659141344cd1fd0a4f28419497f9722a3daafe3b4186f6b6457e060405160405180910390a35050565b8173ffffffffffffffffffffffffffffffffffffffff168373ffffffffffffffffffffffffffffffffffffffff161415611cf8576040517f08c379a0000000000000000000000000000000000000000000000000000000008152600401611cef906136f6565b60405180910390fd5b80600560008573ffffffffffffffffffffffffffffffffffffffff1673ffffffffffffffffffffffffffffffffffffffff16815260200190815260200160002060008473ffffffffffffffffffffffffffffffffffffffff1673ffffffffffffffffffffffffffffffffffffffff16815260200190815260200160002060006101000a81548160ff0219169083151502179055508173ffffffffffffffffffffffffffffffffffffffff168373ffffffffffffffffffffffffffffffffffffffff167f17307eab39ab6107e8899845ad3d59bd9653f200f220920489ca2b5937696c3183604051611de991906135f9565b60405180910390a3505050565b611e01848484611914565b611e0d848484846121de565b611e4c576040517f08c379a0000000000000000000000000000000000000000000000000000000008152600401611e4390613676565b60405180910390fd5b50505050565b6060600b8054611e6190613bb4565b80601f0160208091040260200160405190810160405280929190818152602001828054611e8d90613bb4565b8015611eda5780601f10611eaf57610100808354040283529160200191611eda565b820191906000526020600020905b815481529060010190602001808311611ebd57829003601f168201915b5050505050905090565b6060611eef82611711565b611f2e576040517f08c379a0000000000000000000000000000000000000000000000000000000008152600401611f2590613816565b60405180910390fd5b6000611f38611e52565b90506000815111611f585760405180602001604052806000815250611f83565b80611f6284612375565b604051602001611f73929190613545565b6040516020818303038152906040525b915050919050565b60007f80ac58cd000000000000000000000000000000000000000000000000000000007bffffffffffffffffffffffffffffffffffffffffffffffffffffffff1916827bffffffffffffffffffffffffffffffffffffffffffffffffffffffff1916148061205657507f5b5e139f000000000000000000000000000000000000000000000000000000007bffffffffffffffffffffffffffffffffffffffffffffffffffffffff1916827bffffffffffffffffffffffffffffffffffffffffffffffffffffffff1916145b80612066575061206582612522565b5b9050919050565b612077838361258c565b61208460008484846121de565b6120c3576040517f08c379a00000000000000000000000000000000000000000000000000000000081526004016120ba90613676565b60405180910390fd5b505050565b505050565b60006120d882610d66565b90506120e6816000846120c8565b6120f160008361177d565b6001600360008373ffffffffffffffffffffffffffffffffffffffff1673ffffffffffffffffffffffffffffffffffffffff16815260200190815260200160002060008282546121419190613abd565b925050819055506002600083815260200190815260200160002060006101000a81549073ffffffffffffffffffffffffffffffffffffffff021916905581600073ffffffffffffffffffffffffffffffffffffffff168273ffffffffffffffffffffffffffffffffffffffff167fddf252ad1be2c89b69c2b068fc378daa952ba7f163c4a11628f55a4df523b3ef60405160405180910390a45050565b60006121ff8473ffffffffffffffffffffffffffffffffffffffff1661275a565b15612368578373ffffffffffffffffffffffffffffffffffffffff1663150b7a02612228611557565b8786866040518563ffffffff1660e01b815260040161224a9493929190613584565b602060405180830381600087803b15801561226457600080fd5b505af192505050801561229557506040513d601f19601f820116820180604052508101906122929190612b59565b60015b612318573d80600081146122c5576040519150601f19603f3d011682016040523d82523d6000602084013e6122ca565b606091505b50600081511415612310576040517f08c379a000000000000000000000000000000000000000000000000000000000815260040161230790613676565b60405180910390fd5b805181602001fd5b63150b7a0260e01b7bffffffffffffffffffffffffffffffffffffffffffffffffffffffff1916817bffffffffffffffffffffffffffffffffffffffffffffffffffffffff19161491505061236d565b600190505b949350505050565b606060008214156123bd576040518060400160405280600181526020017f3000000000000000000000000000000000000000000000000000000000000000815250905061251d565b600082905060005b600082146123ef5780806123d890613be6565b915050600a826123e89190613a32565b91506123c5565b60008167ffffffffffffffff811115612431577f4e487b7100000000000000000000000000000000000000000000000000000000600052604160045260246000fd5b6040519080825280601f01601f1916602001820160405280156124635781602001600182028036833780820191505090505b5090505b600085146125165760018261247c9190613abd565b9150600a8561248b9190613c2f565b603061249791906139a5565b60f81b8183815181106124d3577f4e487b7100000000000000000000000000000000000000000000000000000000600052603260045260246000fd5b60200101907effffffffffffffffffffffffffffffffffffffffffffffffffffffffffffff1916908160001a905350600a8561250f9190613a32565b9450612467565b8093505050505b919050565b60007f01ffc9a7000000000000000000000000000000000000000000000000000000007bffffffffffffffffffffffffffffffffffffffffffffffffffffffff1916827bffffffffffffffffffffffffffffffffffffffffffffffffffffffff1916149050919050565b600073ffffffffffffffffffffffffffffffffffffffff168273ffffffffffffffffffffffffffffffffffffffff1614156125fc576040517f08c379a00000000000000000000000000000000000000000000000000000000081526004016125f390613796565b60405180910390fd5b61260581611711565b15612645576040517f08c379a000000000000000000000000000000000000000000000000000000000815260040161263c906136b6565b60405180910390fd5b612651600083836120c8565b6001600360008473ffffffffffffffffffffffffffffffffffffffff1673ffffffffffffffffffffffffffffffffffffffff16815260200190815260200160002060008282546126a191906139a5565b92505081905550816002600083815260200190815260200160002060006101000a81548173ffffffffffffffffffffffffffffffffffffffff021916908373ffffffffffffffffffffffffffffffffffffffff160217905550808273ffffffffffffffffffffffffffffffffffffffff16600073ffffffffffffffffffffffffffffffffffffffff167fddf252ad1be2c89b69c2b068fc378daa952ba7f163c4a11628f55a4df523b3ef60405160405180910390a45050565b600080823b905060008111915050919050565b82805461277990613bb4565b90600052602060002090601f01602090048101928261279b57600085556127e2565b82601f106127b457805160ff19168380011785556127e2565b828001600101855582156127e2579182015b828111156127e15782518255916020019190600101906127c6565b5b5090506127ef9190612833565b5090565b5080546127ff90613bb4565b6000825580601f106128115750612830565b601f01602090049060005260206000209081019061282f9190612833565b5b50565b5b8082111561284c576000816000905550600101612834565b5090565b600061286361285e84613902565b6138d1565b90508281526020810184848401111561287b57600080fd5b612886848285613b72565b509392505050565b60006128a161289c84613932565b6138d1565b9050828152602081018484840111156128b957600080fd5b6128c4848285613b72565b509392505050565b6000813590506128db81613d2d565b92915050565b6000813590506128f081613d44565b92915050565b60008135905061290581613d5b565b92915050565b60008151905061291a81613d5b565b92915050565b600082601f83011261293157600080fd5b8135612941848260208601612850565b91505092915050565b600082601f83011261295b57600080fd5b813561296b84826020860161288e565b91505092915050565b60008135905061298381613d72565b92915050565b60006020828403121561299b57600080fd5b60006129a9848285016128cc565b91505092915050565b600080604083850312156129c557600080fd5b60006129d3858286016128cc565b92505060206129e4858286016128cc565b9150509250929050565b600080600060608486031215612a0357600080fd5b6000612a11868287016128cc565b9350506020612a22868287016128cc565b9250506040612a3386828701612974565b9150509250925092565b60008060008060808587031215612a5357600080fd5b6000612a61878288016128cc565b9450506020612a72878288016128cc565b9350506040612a8387828801612974565b925050606085013567ffffffffffffffff811115612aa057600080fd5b612aac87828801612920565b91505092959194509250565b60008060408385031215612acb57600080fd5b6000612ad9858286016128cc565b9250506020612aea858286016128e1565b9150509250929050565b60008060408385031215612b0757600080fd5b6000612b15858286016128cc565b9250506020612b2685828601612974565b9150509250929050565b600060208284031215612b4257600080fd5b6000612b50848285016128f6565b91505092915050565b600060208284031215612b6b57600080fd5b6000612b798482850161290b565b91505092915050565b600060208284031215612b9457600080fd5b600082013567ffffffffffffffff811115612bae57600080fd5b612bba8482850161294a565b91505092915050565b600080600060608486031215612bd857600080fd5b600084013567ffffffffffffffff811115612bf257600080fd5b612bfe8682870161294a565b9350506020612c0f868287016128cc565b9250506040612c2086828701612974565b9150509250925092565b60008060408385031215612c3d57600080fd5b600083013567ffffffffffffffff811115612c5757600080fd5b612c638582860161294a565b9250506020612c7485828601612974565b9150509250929050565b600080600060608486031215612c9357600080fd5b600084013567ffffffffffffffff811115612cad57600080fd5b612cb98682870161294a565b9350506020612cca86828701612974565b9250506040612cdb86828701612974565b9150509250925092565b600060208284031215612cf757600080fd5b6000612d0584828501612974565b91505092915050565b60008060408385031215612d2157600080fd5b6000612d2f85828601612974565b9250506020612d4085828601612974565b9150509250929050565b612d5381613af1565b82525050565b612d6281613b03565b82525050565b6000612d7382613962565b612d7d8185613978565b9350612d8d818560208601613b81565b612d9681613d1c565b840191505092915050565b6000612dac8261396d565b612db68185613989565b9350612dc6818560208601613b81565b612dcf81613d1c565b840191505092915050565b6000612de58261396d565b612def818561399a565b9350612dff818560208601613b81565b80840191505092915050565b6000612e18601983613989565b91507f6e6f74206d6f7265207468616e20313030206174206f6e6365000000000000006000830152602082019050919050565b6000612e58601a83613989565b91507f45524332393831526f79616c746965733a20546f6f20686967680000000000006000830152602082019050919050565b6000612e98603283613989565b91507f4552433732313a207472616e7366657220746f206e6f6e20455243373231526560008301527f63656976657220696d706c656d656e74657200000000000000000000000000006020830152604082019050919050565b6000612efe602683613989565b91507f4f776e61626c653a206e6577206f776e657220697320746865207a65726f206160008301527f64647265737300000000000000000000000000000000000000000000000000006020830152604082019050919050565b6000612f64601c83613989565b91507f4552433732313a20746f6b656e20616c7265616479206d696e746564000000006000830152602082019050919050565b6000612fa4602483613989565b91507f4552433732313a207472616e7366657220746f20746865207a65726f2061646460008301527f72657373000000000000000000000000000000000000000000000000000000006020830152604082019050919050565b600061300a601983613989565b91507f4552433732313a20617070726f766520746f2063616c6c6572000000000000006000830152602082019050919050565b600061304a602c83613989565b91507f4552433732313a206f70657261746f7220717565727920666f72206e6f6e657860008301527f697374656e7420746f6b656e00000000000000000000000000000000000000006020830152604082019050919050565b60006130b0603883613989565b91507f4552433732313a20617070726f76652063616c6c6572206973206e6f74206f7760008301527f6e6572206e6f7220617070726f76656420666f7220616c6c00000000000000006020830152604082019050919050565b6000613116602a83613989565b91507f4552433732313a2062616c616e636520717565727920666f7220746865207a6560008301527f726f2061646472657373000000000000000000000000000000000000000000006020830152604082019050919050565b600061317c602983613989565b91507f4552433732313a206f776e657220717565727920666f72206e6f6e657869737460008301527f656e7420746f6b656e00000000000000000000000000000000000000000000006020830152604082019050919050565b60006131e2602083613989565b91507f4552433732313a206d696e7420746f20746865207a65726f20616464726573736000830152602082019050919050565b6000613222602c83613989565b91507f4552433732313a20617070726f76656420717565727920666f72206e6f6e657860008301527f697374656e7420746f6b656e00000000000000000000000000000000000000006020830152604082019050919050565b6000613288602083613989565b91507f4f776e61626c653a2063616c6c6572206973206e6f7420746865206f776e65726000830152602082019050919050565b60006132c8602983613989565b91507f4552433732313a207472616e73666572206f6620746f6b656e2074686174206960008301527f73206e6f74206f776e00000000000000000000000000000000000000000000006020830152604082019050919050565b600061332e602f83613989565b91507f4552433732314d657461646174613a2055524920717565727920666f72206e6f60008301527f6e6578697374656e7420746f6b656e00000000000000000000000000000000006020830152604082019050919050565b6000613394602183613989565b91507f4552433732313a20617070726f76616c20746f2063757272656e74206f776e6560008301527f72000000000000000000000000000000000000000000000000000000000000006020830152604082019050919050565b60006133fa603183613989565b91507f4552433732313a207472616e736665722063616c6c6572206973206e6f74206f60008301527f776e6572206e6f7220617070726f7665640000000000000000000000000000006020830152604082019050919050565b6000613460602483613989565b91507f4552433732313a2055524920736574206f66206e6f6e6578697374656e74207460008301527f6f6b656e000000000000000000000000000000000000000000000000000000006020830152604082019050919050565b60006134c6602783613989565b91507f4552433732313a2055524920717565727920666f72206e6f6e6578697374656e60008301527f7420746f6b656e000000000000000000000000000000000000000000000000006020830152604082019050919050565b61352881613b5b565b82525050565b600061353a8284612dda565b915081905092915050565b60006135518285612dda565b915061355d8284612dda565b91508190509392505050565b600060208201905061357e6000830184612d4a565b92915050565b60006080820190506135996000830187612d4a565b6135a66020830186612d4a565b6135b3604083018561351f565b81810360608301526135c58184612d68565b905095945050505050565b60006040820190506135e56000830185612d4a565b6135f2602083018461351f565b9392505050565b600060208201905061360e6000830184612d59565b92915050565b6000602082019050818103600083015261362e8184612da1565b905092915050565b6000602082019050818103600083015261364f81612e0b565b9050919050565b6000602082019050818103600083015261366f81612e4b565b9050919050565b6000602082019050818103600083015261368f81612e8b565b9050919050565b600060208201905081810360008301526136af81612ef1565b9050919050565b600060208201905081810360008301526136cf81612f57565b9050919050565b600060208201905081810360008301526136ef81612f97565b9050919050565b6000602082019050818103600083015261370f81612ffd565b9050919050565b6000602082019050818103600083015261372f8161303d565b9050919050565b6000602082019050818103600083015261374f816130a3565b9050919050565b6000602082019050818103600083015261376f81613109565b9050919050565b6000602082019050818103600083015261378f8161316f565b9050919050565b600060208201905081810360008301526137af816131d5565b9050919050565b600060208201905081810360008301526137cf81613215565b9050919050565b600060208201905081810360008301526137ef8161327b565b9050919050565b6000602082019050818103600083015261380f816132bb565b9050919050565b6000602082019050818103600083015261382f81613321565b9050919050565b6000602082019050818103600083015261384f81613387565b9050919050565b6000602082019050818103600083015261386f816133ed565b9050919050565b6000602082019050818103600083015261388f81613453565b9050919050565b600060208201905081810360008301526138af816134b9565b9050919050565b60006020820190506138cb600083018461351f565b92915050565b6000604051905081810181811067ffffffffffffffff821117156138f8576138f7613ced565b5b8060405250919050565b600067ffffffffffffffff82111561391d5761391c613ced565b5b601f19601f8301169050602081019050919050565b600067ffffffffffffffff82111561394d5761394c613ced565b5b601f19601f8301169050602081019050919050565b600081519050919050565b600081519050919050565b600082825260208201905092915050565b600082825260208201905092915050565b600081905092915050565b60006139b082613b5b565b91506139bb83613b5b565b9250827fffffffffffffffffffffffffffffffffffffffffffffffffffffffffffffffff038211156139f0576139ef613c60565b5b828201905092915050565b6000613a0682613b65565b9150613a1183613b65565b92508260ff03821115613a2757613a26613c60565b5b828201905092915050565b6000613a3d82613b5b565b9150613a4883613b5b565b925082613a5857613a57613c8f565b5b828204905092915050565b6000613a6e82613b5b565b9150613a7983613b5b565b9250817fffffffffffffffffffffffffffffffffffffffffffffffffffffffffffffffff0483118215151615613ab257613ab1613c60565b5b828202905092915050565b6000613ac882613b5b565b9150613ad383613b5b565b925082821015613ae657613ae5613c60565b5b828203905092915050565b6000613afc82613b3b565b9050919050565b60008115159050919050565b60007fffffffff0000000000000000000000000000000000000000000000000000000082169050919050565b600073ffffffffffffffffffffffffffffffffffffffff82169050919050565b6000819050919050565b600060ff82169050919050565b82818337600083830152505050565b60005b83811015613b9f578082015181840152602081019050613b84565b83811115613bae576000848401525b50505050565b60006002820490506001821680613bcc57607f821691505b60208210811415613be057613bdf613cbe565b5b50919050565b6000613bf182613b5b565b91507fffffffffffffffffffffffffffffffffffffffffffffffffffffffffffffffff821415613c2457613c23613c60565b5b600182019050919050565b6000613c3a82613b5b565b9150613c4583613b5b565b925082613c5557613c54613c8f565b5b828206905092915050565b7f4e487b7100000000000000000000000000000000000000000000000000000000600052601160045260246000fd5b7f4e487b7100000000000000000000000000000000000000000000000000000000600052601260045260246000fd5b7f4e487b7100000000000000000000000000000000000000000000000000000000600052602260045260246000fd5b7f4e487b7100000000000000000000000000000000000000000000000000000000600052604160045260246000fd5b6000601f19601f8301169050919050565b613d3681613af1565b8114613d4157600080fd5b50565b613d4d81613b03565b8114613d5857600080fd5b50565b613d6481613b0f565b8114613d6f57600080fd5b50565b613d7b81613b5b565b8114613d8657600080fd5b5056fe68747470733a2f2f697066732e696f2f697066732f516d6362716d516e333234385779746f4e504b62617050387259586d72316566566e6238743771456938614c6759a26469706673582212201f26442a738239066e335e47b6506e1edc552452fba537230b6199917e78c8e664736f6c63430008000033",
  "immutableReferences": {},
  "source": "// SPDX-License-Identifier: MIT\r\n//pragma solidity >=0.4.22 <0.9.0;\r\npragma solidity ^0.8.0;\r\n\r\nimport \"@openzeppelin/contracts/token/ERC721/ERC721.sol\";\r\nimport \"@openzeppelin/contracts/utils/Counters.sol\";\r\nimport \"@openzeppelin/contracts/access/Ownable.sol\";\r\nimport \"./ERC2981Royalty.sol\";\r\n//TODO ADD METADATA FREEZING\r\n//TODO SOMETHING DOESNT WORK PROPERLY\r\n//TODO ADD PERCENT TO CREATOR OF CONTRACTS\r\n\r\n//https://github.com/neha01/nft-demo/blob/master/contracts/ArtCollectible.sol ref\r\n//https://forum.openzeppelin.com/t/function-settokenuri-in-erc721-is-gone-with-pragma-0-8-0/5978/3 another ref\r\ncontract Souvenir is ERC721, Ownable, ERC2981Royalty{\r\n    using Strings for uint256;\r\n    using Counters for Counters.Counter;\r\n\r\n    Counters.Counter private _tokenIds;\r\n\r\n    // Optional mapping for token URIs\r\n    // copied from ERC721URIStorage.sol\r\n    mapping(uint256 => string) private _tokenURIs;\r\n\r\n\r\n    // mapping\r\n    // not sure if i want it or not\r\n    mapping(string => uint8) private _hashes;\r\n\r\n    // Base URI\r\n    string private _baseURIExtended = \"https://ipfs.io/ipfs/\";\r\n\r\n//    address private _royaltyRecipient = owner();\r\n    address private _royaltyRecipient;\r\n\r\n    // constructor with name and symbol of nft\r\n    constructor() ERC721(\"Souvenir\",\"SVN\"){\r\n        _royaltyRecipient = owner();\r\n    }\r\n\r\n\r\n\r\n    // write tests for this method\r\n    //what does this even do\r\n    /// @inheritdoc\tERC165\r\n    function supportsInterface(bytes4 interfaceId)\r\n    public\r\n    view\r\n    virtual\r\n    override(ERC721, ERC2981Base)\r\n    returns (bool)\r\n    {\r\n        return super.supportsInterface(interfaceId);\r\n    }\r\n\r\n\r\n    // FIX\r\n    // BROKEN CUZ OF BURN\r\n    function totalSupply() public view returns (uint256) {\r\n        return _tokenIds.current();\r\n    }\r\n\r\n    // for opensea collection\r\n    // this is currently being used to determine which metadata(json) it uses for the NFT\r\n    function contractURI() public pure returns (string memory) {\r\n        return \"https://ipfs.io/ipfs/QmcbqmQn3248WytoNPKbapP8rYXmr1efVnb8t7qEi8aLgY\"; // collection json ipfs\r\n    }\r\n\r\n    function setBaseURI(string memory baseURI_)\r\n    external\r\n    onlyOwner\r\n    {\r\n        _baseURIExtended = baseURI_;\r\n    }\r\n\r\n    function _baseURI()\r\n    internal\r\n    view\r\n    virtual\r\n    override\r\n    returns (string memory)\r\n    {\r\n        return _baseURIExtended;\r\n    }\r\n\r\n    // memory didnt work\r\n    function setRoyaltyRecipient(address royaltyRecipient_)\r\n    external\r\n    onlyOwner\r\n    {\r\n        _royaltyRecipient = royaltyRecipient_;\r\n    }\r\n\r\n    // copied from ERC721URIStorage.sol\r\n    function _setTokenURI(uint256 tokenId, string memory _tokenURI) internal virtual {\r\n        require(_exists(tokenId), \"ERC721: URI set of nonexistent token\");\r\n        _tokenURIs[tokenId] = _tokenURI;\r\n    }\r\n\r\n    // copied from ERC721URIStorage.sol\r\n    function _burn(uint256 tokenId) internal virtual override {\r\n        super._burn(tokenId);\r\n        if (bytes(_tokenURIs[tokenId]).length != 0) {\r\n            delete _tokenURIs[tokenId];\r\n        }\r\n    }\r\n\r\n    function burn(uint256 tokenId) public {\r\n        _burn(tokenId);\r\n    }\r\n    function royaltyRecipient() public view virtual returns (address) {\r\n        return _royaltyRecipient;\r\n    }\r\n    // copied from ERC721URIStorage.sol\r\n    function tokenURI(uint256 tokenId) public view virtual override returns (string memory) {\r\n        require(_exists(tokenId), \"ERC721: URI query for nonexistent token\");\r\n\r\n        string memory _tokenURI = _tokenURIs[tokenId];\r\n        string memory base = _baseURI();\r\n\r\n        // If there is no base URI, return the token URI.\r\n        if (bytes(base).length == 0) {\r\n            return _tokenURI;\r\n        }\r\n        // If both are set, concatenate the baseURI and tokenURI (via abi.encodePacked).\r\n        if (bytes(_tokenURI).length > 0) {\r\n            return string(abi.encodePacked(base, _tokenURI));\r\n        }\r\n\r\n        return super.tokenURI(tokenId);\r\n    }\r\n    // public or external?\r\n    /// value percentage (using 2 decimals - 10000 = 100, 0 = 0)\r\n    function mint(string memory tokenHash, uint256 royaltyAmount)\r\n    public\r\n    onlyOwner\r\n    {\r\n        _hashes[tokenHash] = _hashes[tokenHash] + 1;\r\n        _tokenIds.increment();\r\n        uint256 newTokenId = _tokenIds.current();\r\n        _safeMint(msg.sender, newTokenId);\r\n        _setTokenURI(newTokenId, tokenHash);\r\n        if (royaltyAmount > 0) {\r\n            _setTokenRoyalty(newTokenId, _royaltyRecipient, royaltyAmount);\r\n        }\r\n    }\r\n\r\n    function mintTo(string memory tokenHash, address receiver, uint256 royaltyAmount)\r\n    public\r\n    onlyOwner\r\n    {\r\n        _hashes[tokenHash] = _hashes[tokenHash] + 1;\r\n        _tokenIds.increment();\r\n        uint256 newTokenId = _tokenIds.current();\r\n        _safeMint(receiver, newTokenId);\r\n        _setTokenURI(newTokenId, tokenHash);\r\n        if (royaltyAmount > 0) {\r\n            _setTokenRoyalty(newTokenId, _royaltyRecipient, royaltyAmount);\r\n        }\r\n    }\r\n\r\n    // questionable\r\n    // mint multiple tokens\r\n    function mintBatch(string memory tokenHash, uint256 numberOfTokens, uint256 royaltyAmount)\r\n    public\r\n    onlyOwner\r\n    {\r\n        require(numberOfTokens<=100, \"not more than 100 at once\");\r\n        require(_hashes[tokenHash]<=500);\r\n\r\n        for(uint256 i=0; i < numberOfTokens; i++){\r\n            _hashes[tokenHash] = _hashes[tokenHash] + 1;\r\n            _tokenIds.increment();\r\n            uint256 newTokenId = _tokenIds.current();\r\n            _safeMint(msg.sender, newTokenId);\r\n            _setTokenURI(newTokenId, tokenHash);\r\n            if (royaltyAmount > 0) {\r\n                _setTokenRoyalty(newTokenId, _royaltyRecipient, royaltyAmount);\r\n            }\r\n        }\r\n\r\n    }\r\n\r\n}",
  "sourcePath": "C:\\Users\\Joey\\Desktop\\BA\\starting-from-new\\src\\contracts\\Souvenir.sol",
  "compiler": {
    "name": "solc",
    "version": "0.8.0+commit.c7dfd78e.Emscripten.clang"
  },
  "schemaVersion": "3.4.3",
  "updatedAt": "2022-01-20T11:09:52.792Z",
  "networkType": "ethereum",
  "devdoc": {
    "kind": "dev",
    "methods": {
      "approve(address,uint256)": {
        "details": "See {IERC721-approve}."
      },
      "balanceOf(address)": {
        "details": "See {IERC721-balanceOf}."
      },
      "getApproved(uint256)": {
        "details": "See {IERC721-getApproved}."
      },
      "isApprovedForAll(address,address)": {
        "details": "See {IERC721-isApprovedForAll}."
      },
      "name()": {
        "details": "See {IERC721Metadata-name}."
      },
      "owner()": {
        "details": "Returns the address of the current owner."
      },
      "ownerOf(uint256)": {
        "details": "See {IERC721-ownerOf}."
      },
      "renounceOwnership()": {
        "details": "Leaves the contract without owner. It will not be possible to call `onlyOwner` functions anymore. Can only be called by the current owner. NOTE: Renouncing ownership will leave the contract without an owner, thereby removing any functionality that is only available to the owner."
      },
      "royaltyInfo(uint256,uint256)": {
        "params": {
          "_tokenId": "- the NFT asset queried for royalty information",
          "_value": "- the sale price of the NFT asset specified by _tokenId"
        },
        "returns": {
          "receiver": "- address of who should be sent the royalty payment",
          "royaltyAmount": "- the royalty payment amount for value sale price"
        }
      },
      "safeTransferFrom(address,address,uint256)": {
        "details": "See {IERC721-safeTransferFrom}."
      },
      "safeTransferFrom(address,address,uint256,bytes)": {
        "details": "See {IERC721-safeTransferFrom}."
      },
      "setApprovalForAll(address,bool)": {
        "details": "See {IERC721-setApprovalForAll}."
      },
      "supportsInterface(bytes4)": {
        "details": "See {IERC165-supportsInterface}."
      },
      "symbol()": {
        "details": "See {IERC721Metadata-symbol}."
      },
      "tokenURI(uint256)": {
        "details": "See {IERC721Metadata-tokenURI}."
      },
      "transferFrom(address,address,uint256)": {
        "details": "See {IERC721-transferFrom}."
      },
      "transferOwnership(address)": {
        "details": "Transfers ownership of the contract to a new account (`newOwner`). Can only be called by the current owner."
      }
    },
    "version": 1
  },
  "userdoc": {
    "kind": "user",
    "methods": {
      "mint(string,uint256)": {
        "notice": "value percentage (using 2 decimals - 10000 = 100, 0 = 0)"
      }
    },
    "version": 1
  }
}