{
  "contractName": "Souvenir",
  "abi": [
    {
      "inputs": [],
      "stateMutability": "nonpayable",
      "type": "constructor"
    },
    {
      "anonymous": false,
      "inputs": [
        {
          "indexed": true,
          "internalType": "address",
          "name": "owner",
          "type": "address"
        },
        {
          "indexed": true,
          "internalType": "address",
          "name": "approved",
          "type": "address"
        },
        {
          "indexed": true,
          "internalType": "uint256",
          "name": "tokenId",
          "type": "uint256"
        }
      ],
      "name": "Approval",
      "type": "event"
    },
    {
      "anonymous": false,
      "inputs": [
        {
          "indexed": true,
          "internalType": "address",
          "name": "owner",
          "type": "address"
        },
        {
          "indexed": true,
          "internalType": "address",
          "name": "operator",
          "type": "address"
        },
        {
          "indexed": false,
          "internalType": "bool",
          "name": "approved",
          "type": "bool"
        }
      ],
      "name": "ApprovalForAll",
      "type": "event"
    },
    {
      "anonymous": false,
      "inputs": [
        {
          "indexed": true,
          "internalType": "address",
          "name": "previousOwner",
          "type": "address"
        },
        {
          "indexed": true,
          "internalType": "address",
          "name": "newOwner",
          "type": "address"
        }
      ],
      "name": "OwnershipTransferred",
      "type": "event"
    },
    {
      "anonymous": false,
      "inputs": [
        {
          "indexed": true,
          "internalType": "address",
          "name": "from",
          "type": "address"
        },
        {
          "indexed": true,
          "internalType": "address",
          "name": "to",
          "type": "address"
        },
        {
          "indexed": true,
          "internalType": "uint256",
          "name": "tokenId",
          "type": "uint256"
        }
      ],
      "name": "Transfer",
      "type": "event"
    },
    {
      "inputs": [
        {
          "internalType": "address",
          "name": "to",
          "type": "address"
        },
        {
          "internalType": "uint256",
          "name": "tokenId",
          "type": "uint256"
        }
      ],
      "name": "approve",
      "outputs": [],
      "stateMutability": "nonpayable",
      "type": "function"
    },
    {
      "inputs": [
        {
          "internalType": "address",
          "name": "owner",
          "type": "address"
        }
      ],
      "name": "balanceOf",
      "outputs": [
        {
          "internalType": "uint256",
          "name": "",
          "type": "uint256"
        }
      ],
      "stateMutability": "view",
      "type": "function",
      "constant": true
    },
    {
      "inputs": [
        {
          "internalType": "uint256",
          "name": "tokenId",
          "type": "uint256"
        }
      ],
      "name": "getApproved",
      "outputs": [
        {
          "internalType": "address",
          "name": "",
          "type": "address"
        }
      ],
      "stateMutability": "view",
      "type": "function",
      "constant": true
    },
    {
      "inputs": [
        {
          "internalType": "address",
          "name": "owner",
          "type": "address"
        },
        {
          "internalType": "address",
          "name": "operator",
          "type": "address"
        }
      ],
      "name": "isApprovedForAll",
      "outputs": [
        {
          "internalType": "bool",
          "name": "",
          "type": "bool"
        }
      ],
      "stateMutability": "view",
      "type": "function",
      "constant": true
    },
    {
      "inputs": [],
      "name": "name",
      "outputs": [
        {
          "internalType": "string",
          "name": "",
          "type": "string"
        }
      ],
      "stateMutability": "view",
      "type": "function",
      "constant": true
    },
    {
      "inputs": [],
      "name": "owner",
      "outputs": [
        {
          "internalType": "address",
          "name": "",
          "type": "address"
        }
      ],
      "stateMutability": "view",
      "type": "function",
      "constant": true
    },
    {
      "inputs": [
        {
          "internalType": "uint256",
          "name": "tokenId",
          "type": "uint256"
        }
      ],
      "name": "ownerOf",
      "outputs": [
        {
          "internalType": "address",
          "name": "",
          "type": "address"
        }
      ],
      "stateMutability": "view",
      "type": "function",
      "constant": true
    },
    {
      "inputs": [],
      "name": "renounceOwnership",
      "outputs": [],
      "stateMutability": "nonpayable",
      "type": "function"
    },
    {
      "inputs": [
        {
          "internalType": "uint256",
          "name": "tokenId",
          "type": "uint256"
        },
        {
          "internalType": "uint256",
          "name": "value",
          "type": "uint256"
        }
      ],
      "name": "royaltyInfo",
      "outputs": [
        {
          "internalType": "address",
          "name": "receiver",
          "type": "address"
        },
        {
          "internalType": "uint256",
          "name": "royaltyAmount",
          "type": "uint256"
        }
      ],
      "stateMutability": "view",
      "type": "function",
      "constant": true
    },
    {
      "inputs": [
        {
          "internalType": "address",
          "name": "from",
          "type": "address"
        },
        {
          "internalType": "address",
          "name": "to",
          "type": "address"
        },
        {
          "internalType": "uint256",
          "name": "tokenId",
          "type": "uint256"
        }
      ],
      "name": "safeTransferFrom",
      "outputs": [],
      "stateMutability": "nonpayable",
      "type": "function"
    },
    {
      "inputs": [
        {
          "internalType": "address",
          "name": "from",
          "type": "address"
        },
        {
          "internalType": "address",
          "name": "to",
          "type": "address"
        },
        {
          "internalType": "uint256",
          "name": "tokenId",
          "type": "uint256"
        },
        {
          "internalType": "bytes",
          "name": "_data",
          "type": "bytes"
        }
      ],
      "name": "safeTransferFrom",
      "outputs": [],
      "stateMutability": "nonpayable",
      "type": "function"
    },
    {
      "inputs": [
        {
          "internalType": "address",
          "name": "operator",
          "type": "address"
        },
        {
          "internalType": "bool",
          "name": "approved",
          "type": "bool"
        }
      ],
      "name": "setApprovalForAll",
      "outputs": [],
      "stateMutability": "nonpayable",
      "type": "function"
    },
    {
      "inputs": [],
      "name": "symbol",
      "outputs": [
        {
          "internalType": "string",
          "name": "",
          "type": "string"
        }
      ],
      "stateMutability": "view",
      "type": "function",
      "constant": true
    },
    {
      "inputs": [
        {
          "internalType": "address",
          "name": "from",
          "type": "address"
        },
        {
          "internalType": "address",
          "name": "to",
          "type": "address"
        },
        {
          "internalType": "uint256",
          "name": "tokenId",
          "type": "uint256"
        }
      ],
      "name": "transferFrom",
      "outputs": [],
      "stateMutability": "nonpayable",
      "type": "function"
    },
    {
      "inputs": [
        {
          "internalType": "address",
          "name": "newOwner",
          "type": "address"
        }
      ],
      "name": "transferOwnership",
      "outputs": [],
      "stateMutability": "nonpayable",
      "type": "function"
    },
    {
      "inputs": [
        {
          "internalType": "bytes4",
          "name": "interfaceId",
          "type": "bytes4"
        }
      ],
      "name": "supportsInterface",
      "outputs": [
        {
          "internalType": "bool",
          "name": "",
          "type": "bool"
        }
      ],
      "stateMutability": "view",
      "type": "function",
      "constant": true
    },
    {
      "inputs": [],
      "name": "totalSupply",
      "outputs": [
        {
          "internalType": "uint256",
          "name": "",
          "type": "uint256"
        }
      ],
      "stateMutability": "view",
      "type": "function",
      "constant": true
    },
    {
      "inputs": [],
      "name": "contractURI",
      "outputs": [
        {
          "internalType": "string",
          "name": "",
          "type": "string"
        }
      ],
      "stateMutability": "pure",
      "type": "function",
      "constant": true
    },
    {
      "inputs": [
        {
          "internalType": "string",
          "name": "baseURI_",
          "type": "string"
        }
      ],
      "name": "setBaseURI",
      "outputs": [],
      "stateMutability": "nonpayable",
      "type": "function"
    },
    {
      "inputs": [
        {
          "internalType": "address",
          "name": "royaltyRecipient_",
          "type": "address"
        }
      ],
      "name": "setRoyaltyRecipient",
      "outputs": [],
      "stateMutability": "nonpayable",
      "type": "function"
    },
    {
      "inputs": [
        {
          "internalType": "uint256",
          "name": "tokenId",
          "type": "uint256"
        }
      ],
      "name": "burn",
      "outputs": [],
      "stateMutability": "nonpayable",
      "type": "function"
    },
    {
      "inputs": [],
      "name": "royaltyRecipient",
      "outputs": [
        {
          "internalType": "address",
          "name": "",
          "type": "address"
        }
      ],
      "stateMutability": "view",
      "type": "function",
      "constant": true
    },
    {
      "inputs": [
        {
          "internalType": "uint256",
          "name": "tokenId",
          "type": "uint256"
        }
      ],
      "name": "tokenURI",
      "outputs": [
        {
          "internalType": "string",
          "name": "",
          "type": "string"
        }
      ],
      "stateMutability": "view",
      "type": "function",
      "constant": true
    },
    {
      "inputs": [
        {
          "internalType": "string",
          "name": "tokenHash",
          "type": "string"
        },
        {
          "internalType": "uint256",
          "name": "numberOfTokens",
          "type": "uint256"
        },
        {
          "internalType": "uint256",
          "name": "royaltyAmount",
          "type": "uint256"
        }
      ],
      "name": "mint",
      "outputs": [],
      "stateMutability": "nonpayable",
      "type": "function"
    },
    {
      "inputs": [
        {
          "internalType": "string",
          "name": "tokenHash",
          "type": "string"
        },
        {
          "internalType": "address",
          "name": "receiver",
          "type": "address"
        },
        {
          "internalType": "uint256",
          "name": "royaltyAmount",
          "type": "uint256"
        }
      ],
      "name": "mintTo",
      "outputs": [],
      "stateMutability": "nonpayable",
      "type": "function"
    }
  ],
  "bytecode": "0x60806040526040518060400160405280600781526020017f697066733a2f2f00000000000000000000000000000000000000000000000000815250600c9080519060200190620000519291906200026e565b503480156200005f57600080fd5b506040518060400160405280600881526020017f536f7576656e69720000000000000000000000000000000000000000000000008152506040518060400160405280600381526020017f53564e00000000000000000000000000000000000000000000000000000000008152508160009080519060200190620000e49291906200026e565b508060019080519060200190620000fd9291906200026e565b50505062000120620001146200017660201b60201c565b6200017e60201b60201c565b620001306200024460201b60201c565b600d60006101000a81548173ffffffffffffffffffffffffffffffffffffffff021916908373ffffffffffffffffffffffffffffffffffffffff16021790555062000383565b600033905090565b6000600660009054906101000a900473ffffffffffffffffffffffffffffffffffffffff16905081600660006101000a81548173ffffffffffffffffffffffffffffffffffffffff021916908373ffffffffffffffffffffffffffffffffffffffff1602179055508173ffffffffffffffffffffffffffffffffffffffff168173ffffffffffffffffffffffffffffffffffffffff167f8be0079c531659141344cd1fd0a4f28419497f9722a3daafe3b4186f6b6457e060405160405180910390a35050565b6000600660009054906101000a900473ffffffffffffffffffffffffffffffffffffffff16905090565b8280546200027c906200031e565b90600052602060002090601f016020900481019282620002a05760008555620002ec565b82601f10620002bb57805160ff1916838001178555620002ec565b82800160010185558215620002ec579182015b82811115620002eb578251825591602001919060010190620002ce565b5b509050620002fb9190620002ff565b5090565b5b808211156200031a57600081600090555060010162000300565b5090565b600060028204905060018216806200033757607f821691505b602082108114156200034e576200034d62000354565b5b50919050565b7f4e487b7100000000000000000000000000000000000000000000000000000000600052602260045260246000fd5b613d6d80620003936000396000f3fe608060405234801561001057600080fd5b50600436106101735760003560e01c806355f804b3116100de5780639895e6f711610097578063c87b56dd11610071578063c87b56dd14610421578063e8a3d48514610451578063e985e9c51461046f578063f2fde38b1461049f57610173565b80639895e6f7146103cd578063a22cb465146103e9578063b88d4fde1461040557610173565b806355f804b31461030b5780636352211e1461032757806370a0823114610357578063715018a6146103875780638da5cb5b1461039157806395d89b41146103af57610173565b806323b872dd1161013057806323b872dd1461024c5780632a55205a1461026857806341e42f301461029957806342842e0e146102b557806342966c68146102d15780634c00de82146102ed57610173565b806301ffc9a71461017857806306fdde03146101a8578063081812fc146101c6578063095ea7b3146101f657806318160ddd146102125780631c635ded14610230575b600080fd5b610192600480360381019061018d9190612a9d565b6104bb565b60405161019f9190613552565b60405180910390f35b6101b06104cd565b6040516101bd919061356d565b60405180910390f35b6101e060048036038101906101db9190612bfe565b61055f565b6040516101ed91906134c2565b60405180910390f35b610210600480360381019061020b9190612a61565b6105e4565b005b61021a6106fc565b604051610227919061382f565b60405180910390f35b61024a60048036038101906102459190612b97565b61070d565b005b6102666004803603810190610261919061295b565b61090a565b005b610282600480360381019061027d9190612c27565b61096a565b604051610290929190613529565b60405180910390f35b6102b360048036038101906102ae91906128f6565b610a3b565b005b6102cf60048036038101906102ca919061295b565b610afb565b005b6102eb60048036038101906102e69190612bfe565b610b1b565b005b6102f5610ba3565b60405161030291906134c2565b60405180910390f35b61032560048036038101906103209190612aef565b610bcd565b005b610341600480360381019061033c9190612bfe565b610c63565b60405161034e91906134c2565b60405180910390f35b610371600480360381019061036c91906128f6565b610d15565b60405161037e919061382f565b60405180910390f35b61038f610dcd565b005b610399610e55565b6040516103a691906134c2565b60405180910390f35b6103b7610e7f565b6040516103c4919061356d565b60405180910390f35b6103e760048036038101906103e29190612b30565b610f11565b005b61040360048036038101906103fe9190612a25565b61106e565b005b61041f600480360381019061041a91906129aa565b611084565b005b61043b60048036038101906104369190612bfe565b6110e6565b604051610448919061356d565b60405180910390f35b610459611238565b604051610466919061356d565b60405180910390f35b6104896004803603810190610484919061291f565b611258565b6040516104969190613552565b60405180910390f35b6104b960048036038101906104b491906128f6565b6112ec565b005b60006104c6826113e4565b9050919050565b6060600080546104dc90613b2d565b80601f016020809104026020016040519081016040528092919081815260200182805461050890613b2d565b80156105555780601f1061052a57610100808354040283529160200191610555565b820191906000526020600020905b81548152906001019060200180831161053857829003601f168201915b5050505050905090565b600061056a8261145e565b6105a9576040517f08c379a00000000000000000000000000000000000000000000000000000000081526004016105a09061372f565b60405180910390fd5b6004600083815260200190815260200160002060009054906101000a900473ffffffffffffffffffffffffffffffffffffffff169050919050565b60006105ef82610c63565b90508073ffffffffffffffffffffffffffffffffffffffff168373ffffffffffffffffffffffffffffffffffffffff161415610660576040517f08c379a0000000000000000000000000000000000000000000000000000000008152600401610657906137af565b60405180910390fd5b8073ffffffffffffffffffffffffffffffffffffffff1661067f6114ca565b73ffffffffffffffffffffffffffffffffffffffff1614806106ae57506106ad816106a86114ca565b611258565b5b6106ed576040517f08c379a00000000000000000000000000000000000000000000000000000000081526004016106e4906136af565b60405180910390fd5b6106f783836114d2565b505050565b6000610708600961158b565b905090565b6107156114ca565b73ffffffffffffffffffffffffffffffffffffffff16610733610e55565b73ffffffffffffffffffffffffffffffffffffffff1614610789576040517f08c379a00000000000000000000000000000000000000000000000000000000081526004016107809061374f565b60405180910390fd5b60648211156107cd576040517f08c379a00000000000000000000000000000000000000000000000000000000081526004016107c49061358f565b60405180910390fd5b6101f4600b846040516107e09190613487565b908152602001604051809103902060009054906101000a900460ff1660ff16111561080a57600080fd5b60005b82811015610904576001600b856040516108279190613487565b908152602001604051809103902060009054906101000a900460ff1661084d9190613974565b600b8560405161085d9190613487565b908152602001604051809103902060006101000a81548160ff021916908360ff16021790555061088d6008611599565b6108976009611599565b60006108a3600861158b565b90506108af33826115af565b6108b981866115cd565b60008311156108f0576108ef81600d60009054906101000a900473ffffffffffffffffffffffffffffffffffffffff1685611641565b5b5080806108fc90613b5f565b91505061080d565b50505050565b61091b6109156114ca565b8261173d565b61095a576040517f08c379a0000000000000000000000000000000000000000000000000000000008152600401610951906137cf565b60405180910390fd5b61096583838361181b565b505050565b6000806000600760008681526020019081526020016000206040518060400160405290816000820160009054906101000a900473ffffffffffffffffffffffffffffffffffffffff1673ffffffffffffffffffffffffffffffffffffffff1673ffffffffffffffffffffffffffffffffffffffff1681526020016000820160149054906101000a900462ffffff1662ffffff1662ffffff1681525050905080600001519250612710816020015162ffffff1685610a2791906139dc565b610a3191906139ab565b9150509250929050565b610a436114ca565b73ffffffffffffffffffffffffffffffffffffffff16610a61610e55565b73ffffffffffffffffffffffffffffffffffffffff1614610ab7576040517f08c379a0000000000000000000000000000000000000000000000000000000008152600401610aae9061374f565b60405180910390fd5b80600d60006101000a81548173ffffffffffffffffffffffffffffffffffffffff021916908373ffffffffffffffffffffffffffffffffffffffff16021790555050565b610b1683838360405180602001604052806000815250611084565b505050565b610b236114ca565b73ffffffffffffffffffffffffffffffffffffffff16610b41610e55565b73ffffffffffffffffffffffffffffffffffffffff1614610b97576040517f08c379a0000000000000000000000000000000000000000000000000000000008152600401610b8e9061374f565b60405180910390fd5b610ba081611a77565b50565b6000600d60009054906101000a900473ffffffffffffffffffffffffffffffffffffffff16905090565b610bd56114ca565b73ffffffffffffffffffffffffffffffffffffffff16610bf3610e55565b73ffffffffffffffffffffffffffffffffffffffff1614610c49576040517f08c379a0000000000000000000000000000000000000000000000000000000008152600401610c409061374f565b60405180910390fd5b80600c9080519060200190610c5f9291906126da565b5050565b6000806002600084815260200190815260200160002060009054906101000a900473ffffffffffffffffffffffffffffffffffffffff169050600073ffffffffffffffffffffffffffffffffffffffff168173ffffffffffffffffffffffffffffffffffffffff161415610d0c576040517f08c379a0000000000000000000000000000000000000000000000000000000008152600401610d03906136ef565b60405180910390fd5b80915050919050565b60008073ffffffffffffffffffffffffffffffffffffffff168273ffffffffffffffffffffffffffffffffffffffff161415610d86576040517f08c379a0000000000000000000000000000000000000000000000000000000008152600401610d7d906136cf565b60405180910390fd5b600360008373ffffffffffffffffffffffffffffffffffffffff1673ffffffffffffffffffffffffffffffffffffffff168152602001908152602001600020549050919050565b610dd56114ca565b73ffffffffffffffffffffffffffffffffffffffff16610df3610e55565b73ffffffffffffffffffffffffffffffffffffffff1614610e49576040517f08c379a0000000000000000000000000000000000000000000000000000000008152600401610e409061374f565b60405180910390fd5b610e536000611ad4565b565b6000600660009054906101000a900473ffffffffffffffffffffffffffffffffffffffff16905090565b606060018054610e8e90613b2d565b80601f0160208091040260200160405190810160405280929190818152602001828054610eba90613b2d565b8015610f075780601f10610edc57610100808354040283529160200191610f07565b820191906000526020600020905b815481529060010190602001808311610eea57829003601f168201915b5050505050905090565b610f196114ca565b73ffffffffffffffffffffffffffffffffffffffff16610f37610e55565b73ffffffffffffffffffffffffffffffffffffffff1614610f8d576040517f08c379a0000000000000000000000000000000000000000000000000000000008152600401610f849061374f565b60405180910390fd5b6001600b84604051610f9f9190613487565b908152602001604051809103902060009054906101000a900460ff16610fc59190613974565b600b84604051610fd59190613487565b908152602001604051809103902060006101000a81548160ff021916908360ff1602179055506110056008611599565b61100f6009611599565b600061101b600861158b565b905061102783826115af565b61103181856115cd565b60008211156110685761106781600d60009054906101000a900473ffffffffffffffffffffffffffffffffffffffff1684611641565b5b50505050565b6110806110796114ca565b8383611b9a565b5050565b61109561108f6114ca565b8361173d565b6110d4576040517f08c379a00000000000000000000000000000000000000000000000000000000081526004016110cb906137cf565b60405180910390fd5b6110e084848484611d07565b50505050565b60606110f18261145e565b611130576040517f08c379a00000000000000000000000000000000000000000000000000000000081526004016111279061380f565b60405180910390fd5b6000600a6000848152602001908152602001600020805461115090613b2d565b80601f016020809104026020016040519081016040528092919081815260200182805461117c90613b2d565b80156111c95780601f1061119e576101008083540402835291602001916111c9565b820191906000526020600020905b8154815290600101906020018083116111ac57829003601f168201915b5050505050905060006111da611d63565b90506000815114156111f0578192505050611233565b60008251111561122557808260405160200161120d92919061349e565b60405160208183030381529060405292505050611233565b61122e84611df5565b925050505b919050565b6060604051806060016040528060358152602001613d0360359139905090565b6000600560008473ffffffffffffffffffffffffffffffffffffffff1673ffffffffffffffffffffffffffffffffffffffff16815260200190815260200160002060008373ffffffffffffffffffffffffffffffffffffffff1673ffffffffffffffffffffffffffffffffffffffff16815260200190815260200160002060009054906101000a900460ff16905092915050565b6112f46114ca565b73ffffffffffffffffffffffffffffffffffffffff16611312610e55565b73ffffffffffffffffffffffffffffffffffffffff1614611368576040517f08c379a000000000000000000000000000000000000000000000000000000000815260040161135f9061374f565b60405180910390fd5b600073ffffffffffffffffffffffffffffffffffffffff168173ffffffffffffffffffffffffffffffffffffffff1614156113d8576040517f08c379a00000000000000000000000000000000000000000000000000000000081526004016113cf9061360f565b60405180910390fd5b6113e181611ad4565b50565b60007f2a55205a000000000000000000000000000000000000000000000000000000007bffffffffffffffffffffffffffffffffffffffffffffffffffffffff1916827bffffffffffffffffffffffffffffffffffffffffffffffffffffffff19161480611457575061145682611e9c565b5b9050919050565b60008073ffffffffffffffffffffffffffffffffffffffff166002600084815260200190815260200160002060009054906101000a900473ffffffffffffffffffffffffffffffffffffffff1673ffffffffffffffffffffffffffffffffffffffff1614159050919050565b600033905090565b816004600083815260200190815260200160002060006101000a81548173ffffffffffffffffffffffffffffffffffffffff021916908373ffffffffffffffffffffffffffffffffffffffff160217905550808273ffffffffffffffffffffffffffffffffffffffff1661154583610c63565b73ffffffffffffffffffffffffffffffffffffffff167f8c5be1e5ebec7d5bd14f71427d1e84f3dd0314c0f7b2291e5b200ac8c7c3b92560405160405180910390a45050565b600081600001549050919050565b6001816000016000828254019250508190555050565b6115c9828260405180602001604052806000815250611f7e565b5050565b6115d68261145e565b611615576040517f08c379a000000000000000000000000000000000000000000000000000000000815260040161160c906137ef565b60405180910390fd5b80600a6000848152602001908152602001600020908051906020019061163c9291906126da565b505050565b612710811115611686576040517f08c379a000000000000000000000000000000000000000000000000000000000815260040161167d906135af565b60405180910390fd5b60405180604001604052808373ffffffffffffffffffffffffffffffffffffffff1681526020018262ffffff168152506007600085815260200190815260200160002060008201518160000160006101000a81548173ffffffffffffffffffffffffffffffffffffffff021916908373ffffffffffffffffffffffffffffffffffffffff16021790555060208201518160000160146101000a81548162ffffff021916908362ffffff160217905550905050505050565b60006117488261145e565b611787576040517f08c379a000000000000000000000000000000000000000000000000000000000815260040161177e9061368f565b60405180910390fd5b600061179283610c63565b90508073ffffffffffffffffffffffffffffffffffffffff168473ffffffffffffffffffffffffffffffffffffffff16148061180157508373ffffffffffffffffffffffffffffffffffffffff166117e98461055f565b73ffffffffffffffffffffffffffffffffffffffff16145b8061181257506118118185611258565b5b91505092915050565b8273ffffffffffffffffffffffffffffffffffffffff1661183b82610c63565b73ffffffffffffffffffffffffffffffffffffffff1614611891576040517f08c379a00000000000000000000000000000000000000000000000000000000081526004016118889061376f565b60405180910390fd5b600073ffffffffffffffffffffffffffffffffffffffff168273ffffffffffffffffffffffffffffffffffffffff161415611901576040517f08c379a00000000000000000000000000000000000000000000000000000000081526004016118f89061364f565b60405180910390fd5b61190c838383611fd9565b6119176000826114d2565b6001600360008573ffffffffffffffffffffffffffffffffffffffff1673ffffffffffffffffffffffffffffffffffffffff16815260200190815260200160002060008282546119679190613a36565b925050819055506001600360008473ffffffffffffffffffffffffffffffffffffffff1673ffffffffffffffffffffffffffffffffffffffff16815260200190815260200160002060008282546119be919061391e565b92505081905550816002600083815260200190815260200160002060006101000a81548173ffffffffffffffffffffffffffffffffffffffff021916908373ffffffffffffffffffffffffffffffffffffffff160217905550808273ffffffffffffffffffffffffffffffffffffffff168473ffffffffffffffffffffffffffffffffffffffff167fddf252ad1be2c89b69c2b068fc378daa952ba7f163c4a11628f55a4df523b3ef60405160405180910390a4505050565b611a8081611fde565b611a8a60096120ef565b6000600a60008381526020019081526020016000208054611aaa90613b2d565b905014611ad157600a60008281526020019081526020016000206000611ad09190612760565b5b50565b6000600660009054906101000a900473ffffffffffffffffffffffffffffffffffffffff16905081600660006101000a81548173ffffffffffffffffffffffffffffffffffffffff021916908373ffffffffffffffffffffffffffffffffffffffff1602179055508173ffffffffffffffffffffffffffffffffffffffff168173ffffffffffffffffffffffffffffffffffffffff167f8be0079c531659141344cd1fd0a4f28419497f9722a3daafe3b4186f6b6457e060405160405180910390a35050565b8173ffffffffffffffffffffffffffffffffffffffff168373ffffffffffffffffffffffffffffffffffffffff161415611c09576040517f08c379a0000000000000000000000000000000000000000000000000000000008152600401611c009061366f565b60405180910390fd5b80600560008573ffffffffffffffffffffffffffffffffffffffff1673ffffffffffffffffffffffffffffffffffffffff16815260200190815260200160002060008473ffffffffffffffffffffffffffffffffffffffff1673ffffffffffffffffffffffffffffffffffffffff16815260200190815260200160002060006101000a81548160ff0219169083151502179055508173ffffffffffffffffffffffffffffffffffffffff168373ffffffffffffffffffffffffffffffffffffffff167f17307eab39ab6107e8899845ad3d59bd9653f200f220920489ca2b5937696c3183604051611cfa9190613552565b60405180910390a3505050565b611d1284848461181b565b611d1e8484848461214b565b611d5d576040517f08c379a0000000000000000000000000000000000000000000000000000000008152600401611d54906135ef565b60405180910390fd5b50505050565b6060600c8054611d7290613b2d565b80601f0160208091040260200160405190810160405280929190818152602001828054611d9e90613b2d565b8015611deb5780601f10611dc057610100808354040283529160200191611deb565b820191906000526020600020905b815481529060010190602001808311611dce57829003601f168201915b5050505050905090565b6060611e008261145e565b611e3f576040517f08c379a0000000000000000000000000000000000000000000000000000000008152600401611e369061378f565b60405180910390fd5b6000611e49611d63565b90506000815111611e695760405180602001604052806000815250611e94565b80611e73846122e2565b604051602001611e8492919061349e565b6040516020818303038152906040525b915050919050565b60007f80ac58cd000000000000000000000000000000000000000000000000000000007bffffffffffffffffffffffffffffffffffffffffffffffffffffffff1916827bffffffffffffffffffffffffffffffffffffffffffffffffffffffff19161480611f6757507f5b5e139f000000000000000000000000000000000000000000000000000000007bffffffffffffffffffffffffffffffffffffffffffffffffffffffff1916827bffffffffffffffffffffffffffffffffffffffffffffffffffffffff1916145b80611f775750611f768261248f565b5b9050919050565b611f8883836124f9565b611f95600084848461214b565b611fd4576040517f08c379a0000000000000000000000000000000000000000000000000000000008152600401611fcb906135ef565b60405180910390fd5b505050565b505050565b6000611fe982610c63565b9050611ff781600084611fd9565b6120026000836114d2565b6001600360008373ffffffffffffffffffffffffffffffffffffffff1673ffffffffffffffffffffffffffffffffffffffff16815260200190815260200160002060008282546120529190613a36565b925050819055506002600083815260200190815260200160002060006101000a81549073ffffffffffffffffffffffffffffffffffffffff021916905581600073ffffffffffffffffffffffffffffffffffffffff168273ffffffffffffffffffffffffffffffffffffffff167fddf252ad1be2c89b69c2b068fc378daa952ba7f163c4a11628f55a4df523b3ef60405160405180910390a45050565b6000816000015490506000811161213b576040517f08c379a0000000000000000000000000000000000000000000000000000000008152600401612132906135cf565b60405180910390fd5b6001810382600001819055505050565b600061216c8473ffffffffffffffffffffffffffffffffffffffff166126c7565b156122d5578373ffffffffffffffffffffffffffffffffffffffff1663150b7a026121956114ca565b8786866040518563ffffffff1660e01b81526004016121b794939291906134dd565b602060405180830381600087803b1580156121d157600080fd5b505af192505050801561220257506040513d601f19601f820116820180604052508101906121ff9190612ac6565b60015b612285573d8060008114612232576040519150601f19603f3d011682016040523d82523d6000602084013e612237565b606091505b5060008151141561227d576040517f08c379a0000000000000000000000000000000000000000000000000000000008152600401612274906135ef565b60405180910390fd5b805181602001fd5b63150b7a0260e01b7bffffffffffffffffffffffffffffffffffffffffffffffffffffffff1916817bffffffffffffffffffffffffffffffffffffffffffffffffffffffff1916149150506122da565b600190505b949350505050565b6060600082141561232a576040518060400160405280600181526020017f3000000000000000000000000000000000000000000000000000000000000000815250905061248a565b600082905060005b6000821461235c57808061234590613b5f565b915050600a8261235591906139ab565b9150612332565b60008167ffffffffffffffff81111561239e577f4e487b7100000000000000000000000000000000000000000000000000000000600052604160045260246000fd5b6040519080825280601f01601f1916602001820160405280156123d05781602001600182028036833780820191505090505b5090505b60008514612483576001826123e99190613a36565b9150600a856123f89190613ba8565b6030612404919061391e565b60f81b818381518110612440577f4e487b7100000000000000000000000000000000000000000000000000000000600052603260045260246000fd5b60200101907effffffffffffffffffffffffffffffffffffffffffffffffffffffffffffff1916908160001a905350600a8561247c91906139ab565b94506123d4565b8093505050505b919050565b60007f01ffc9a7000000000000000000000000000000000000000000000000000000007bffffffffffffffffffffffffffffffffffffffffffffffffffffffff1916827bffffffffffffffffffffffffffffffffffffffffffffffffffffffff1916149050919050565b600073ffffffffffffffffffffffffffffffffffffffff168273ffffffffffffffffffffffffffffffffffffffff161415612569576040517f08c379a00000000000000000000000000000000000000000000000000000000081526004016125609061370f565b60405180910390fd5b6125728161145e565b156125b2576040517f08c379a00000000000000000000000000000000000000000000000000000000081526004016125a99061362f565b60405180910390fd5b6125be60008383611fd9565b6001600360008473ffffffffffffffffffffffffffffffffffffffff1673ffffffffffffffffffffffffffffffffffffffff168152602001908152602001600020600082825461260e919061391e565b92505081905550816002600083815260200190815260200160002060006101000a81548173ffffffffffffffffffffffffffffffffffffffff021916908373ffffffffffffffffffffffffffffffffffffffff160217905550808273ffffffffffffffffffffffffffffffffffffffff16600073ffffffffffffffffffffffffffffffffffffffff167fddf252ad1be2c89b69c2b068fc378daa952ba7f163c4a11628f55a4df523b3ef60405160405180910390a45050565b600080823b905060008111915050919050565b8280546126e690613b2d565b90600052602060002090601f016020900481019282612708576000855561274f565b82601f1061272157805160ff191683800117855561274f565b8280016001018555821561274f579182015b8281111561274e578251825591602001919060010190612733565b5b50905061275c91906127a0565b5090565b50805461276c90613b2d565b6000825580601f1061277e575061279d565b601f01602090049060005260206000209081019061279c91906127a0565b5b50565b5b808211156127b95760008160009055506001016127a1565b5090565b60006127d06127cb8461387b565b61384a565b9050828152602081018484840111156127e857600080fd5b6127f3848285613aeb565b509392505050565b600061280e612809846138ab565b61384a565b90508281526020810184848401111561282657600080fd5b612831848285613aeb565b509392505050565b60008135905061284881613ca6565b92915050565b60008135905061285d81613cbd565b92915050565b60008135905061287281613cd4565b92915050565b60008151905061288781613cd4565b92915050565b600082601f83011261289e57600080fd5b81356128ae8482602086016127bd565b91505092915050565b600082601f8301126128c857600080fd5b81356128d88482602086016127fb565b91505092915050565b6000813590506128f081613ceb565b92915050565b60006020828403121561290857600080fd5b600061291684828501612839565b91505092915050565b6000806040838503121561293257600080fd5b600061294085828601612839565b925050602061295185828601612839565b9150509250929050565b60008060006060848603121561297057600080fd5b600061297e86828701612839565b935050602061298f86828701612839565b92505060406129a0868287016128e1565b9150509250925092565b600080600080608085870312156129c057600080fd5b60006129ce87828801612839565b94505060206129df87828801612839565b93505060406129f0878288016128e1565b925050606085013567ffffffffffffffff811115612a0d57600080fd5b612a198782880161288d565b91505092959194509250565b60008060408385031215612a3857600080fd5b6000612a4685828601612839565b9250506020612a578582860161284e565b9150509250929050565b60008060408385031215612a7457600080fd5b6000612a8285828601612839565b9250506020612a93858286016128e1565b9150509250929050565b600060208284031215612aaf57600080fd5b6000612abd84828501612863565b91505092915050565b600060208284031215612ad857600080fd5b6000612ae684828501612878565b91505092915050565b600060208284031215612b0157600080fd5b600082013567ffffffffffffffff811115612b1b57600080fd5b612b27848285016128b7565b91505092915050565b600080600060608486031215612b4557600080fd5b600084013567ffffffffffffffff811115612b5f57600080fd5b612b6b868287016128b7565b9350506020612b7c86828701612839565b9250506040612b8d868287016128e1565b9150509250925092565b600080600060608486031215612bac57600080fd5b600084013567ffffffffffffffff811115612bc657600080fd5b612bd2868287016128b7565b9350506020612be3868287016128e1565b9250506040612bf4868287016128e1565b9150509250925092565b600060208284031215612c1057600080fd5b6000612c1e848285016128e1565b91505092915050565b60008060408385031215612c3a57600080fd5b6000612c48858286016128e1565b9250506020612c59858286016128e1565b9150509250929050565b612c6c81613a6a565b82525050565b612c7b81613a7c565b82525050565b6000612c8c826138db565b612c9681856138f1565b9350612ca6818560208601613afa565b612caf81613c95565b840191505092915050565b6000612cc5826138e6565b612ccf8185613902565b9350612cdf818560208601613afa565b612ce881613c95565b840191505092915050565b6000612cfe826138e6565b612d088185613913565b9350612d18818560208601613afa565b80840191505092915050565b6000612d31601983613902565b91507f6e6f74206d6f7265207468616e20313030206174206f6e6365000000000000006000830152602082019050919050565b6000612d71601a83613902565b91507f45524332393831526f79616c746965733a20546f6f20686967680000000000006000830152602082019050919050565b6000612db1601b83613902565b91507f436f756e7465723a2064656372656d656e74206f766572666c6f7700000000006000830152602082019050919050565b6000612df1603283613902565b91507f4552433732313a207472616e7366657220746f206e6f6e20455243373231526560008301527f63656976657220696d706c656d656e74657200000000000000000000000000006020830152604082019050919050565b6000612e57602683613902565b91507f4f776e61626c653a206e6577206f776e657220697320746865207a65726f206160008301527f64647265737300000000000000000000000000000000000000000000000000006020830152604082019050919050565b6000612ebd601c83613902565b91507f4552433732313a20746f6b656e20616c7265616479206d696e746564000000006000830152602082019050919050565b6000612efd602483613902565b91507f4552433732313a207472616e7366657220746f20746865207a65726f2061646460008301527f72657373000000000000000000000000000000000000000000000000000000006020830152604082019050919050565b6000612f63601983613902565b91507f4552433732313a20617070726f766520746f2063616c6c6572000000000000006000830152602082019050919050565b6000612fa3602c83613902565b91507f4552433732313a206f70657261746f7220717565727920666f72206e6f6e657860008301527f697374656e7420746f6b656e00000000000000000000000000000000000000006020830152604082019050919050565b6000613009603883613902565b91507f4552433732313a20617070726f76652063616c6c6572206973206e6f74206f7760008301527f6e6572206e6f7220617070726f76656420666f7220616c6c00000000000000006020830152604082019050919050565b600061306f602a83613902565b91507f4552433732313a2062616c616e636520717565727920666f7220746865207a6560008301527f726f2061646472657373000000000000000000000000000000000000000000006020830152604082019050919050565b60006130d5602983613902565b91507f4552433732313a206f776e657220717565727920666f72206e6f6e657869737460008301527f656e7420746f6b656e00000000000000000000000000000000000000000000006020830152604082019050919050565b600061313b602083613902565b91507f4552433732313a206d696e7420746f20746865207a65726f20616464726573736000830152602082019050919050565b600061317b602c83613902565b91507f4552433732313a20617070726f76656420717565727920666f72206e6f6e657860008301527f697374656e7420746f6b656e00000000000000000000000000000000000000006020830152604082019050919050565b60006131e1602083613902565b91507f4f776e61626c653a2063616c6c6572206973206e6f7420746865206f776e65726000830152602082019050919050565b6000613221602983613902565b91507f4552433732313a207472616e73666572206f6620746f6b656e2074686174206960008301527f73206e6f74206f776e00000000000000000000000000000000000000000000006020830152604082019050919050565b6000613287602f83613902565b91507f4552433732314d657461646174613a2055524920717565727920666f72206e6f60008301527f6e6578697374656e7420746f6b656e00000000000000000000000000000000006020830152604082019050919050565b60006132ed602183613902565b91507f4552433732313a20617070726f76616c20746f2063757272656e74206f776e6560008301527f72000000000000000000000000000000000000000000000000000000000000006020830152604082019050919050565b6000613353603183613902565b91507f4552433732313a207472616e736665722063616c6c6572206973206e6f74206f60008301527f776e6572206e6f7220617070726f7665640000000000000000000000000000006020830152604082019050919050565b60006133b9602483613902565b91507f4552433732313a2055524920736574206f66206e6f6e6578697374656e74207460008301527f6f6b656e000000000000000000000000000000000000000000000000000000006020830152604082019050919050565b600061341f602783613902565b91507f4552433732313a2055524920717565727920666f72206e6f6e6578697374656e60008301527f7420746f6b656e000000000000000000000000000000000000000000000000006020830152604082019050919050565b61348181613ad4565b82525050565b60006134938284612cf3565b915081905092915050565b60006134aa8285612cf3565b91506134b68284612cf3565b91508190509392505050565b60006020820190506134d76000830184612c63565b92915050565b60006080820190506134f26000830187612c63565b6134ff6020830186612c63565b61350c6040830185613478565b818103606083015261351e8184612c81565b905095945050505050565b600060408201905061353e6000830185612c63565b61354b6020830184613478565b9392505050565b60006020820190506135676000830184612c72565b92915050565b600060208201905081810360008301526135878184612cba565b905092915050565b600060208201905081810360008301526135a881612d24565b9050919050565b600060208201905081810360008301526135c881612d64565b9050919050565b600060208201905081810360008301526135e881612da4565b9050919050565b6000602082019050818103600083015261360881612de4565b9050919050565b6000602082019050818103600083015261362881612e4a565b9050919050565b6000602082019050818103600083015261364881612eb0565b9050919050565b6000602082019050818103600083015261366881612ef0565b9050919050565b6000602082019050818103600083015261368881612f56565b9050919050565b600060208201905081810360008301526136a881612f96565b9050919050565b600060208201905081810360008301526136c881612ffc565b9050919050565b600060208201905081810360008301526136e881613062565b9050919050565b60006020820190508181036000830152613708816130c8565b9050919050565b600060208201905081810360008301526137288161312e565b9050919050565b600060208201905081810360008301526137488161316e565b9050919050565b60006020820190508181036000830152613768816131d4565b9050919050565b6000602082019050818103600083015261378881613214565b9050919050565b600060208201905081810360008301526137a88161327a565b9050919050565b600060208201905081810360008301526137c8816132e0565b9050919050565b600060208201905081810360008301526137e881613346565b9050919050565b60006020820190508181036000830152613808816133ac565b9050919050565b6000602082019050818103600083015261382881613412565b9050919050565b60006020820190506138446000830184613478565b92915050565b6000604051905081810181811067ffffffffffffffff8211171561387157613870613c66565b5b8060405250919050565b600067ffffffffffffffff82111561389657613895613c66565b5b601f19601f8301169050602081019050919050565b600067ffffffffffffffff8211156138c6576138c5613c66565b5b601f19601f8301169050602081019050919050565b600081519050919050565b600081519050919050565b600082825260208201905092915050565b600082825260208201905092915050565b600081905092915050565b600061392982613ad4565b915061393483613ad4565b9250827fffffffffffffffffffffffffffffffffffffffffffffffffffffffffffffffff0382111561396957613968613bd9565b5b828201905092915050565b600061397f82613ade565b915061398a83613ade565b92508260ff038211156139a05761399f613bd9565b5b828201905092915050565b60006139b682613ad4565b91506139c183613ad4565b9250826139d1576139d0613c08565b5b828204905092915050565b60006139e782613ad4565b91506139f283613ad4565b9250817fffffffffffffffffffffffffffffffffffffffffffffffffffffffffffffffff0483118215151615613a2b57613a2a613bd9565b5b828202905092915050565b6000613a4182613ad4565b9150613a4c83613ad4565b925082821015613a5f57613a5e613bd9565b5b828203905092915050565b6000613a7582613ab4565b9050919050565b60008115159050919050565b60007fffffffff0000000000000000000000000000000000000000000000000000000082169050919050565b600073ffffffffffffffffffffffffffffffffffffffff82169050919050565b6000819050919050565b600060ff82169050919050565b82818337600083830152505050565b60005b83811015613b18578082015181840152602081019050613afd565b83811115613b27576000848401525b50505050565b60006002820490506001821680613b4557607f821691505b60208210811415613b5957613b58613c37565b5b50919050565b6000613b6a82613ad4565b91507fffffffffffffffffffffffffffffffffffffffffffffffffffffffffffffffff821415613b9d57613b9c613bd9565b5b600182019050919050565b6000613bb382613ad4565b9150613bbe83613ad4565b925082613bce57613bcd613c08565b5b828206905092915050565b7f4e487b7100000000000000000000000000000000000000000000000000000000600052601160045260246000fd5b7f4e487b7100000000000000000000000000000000000000000000000000000000600052601260045260246000fd5b7f4e487b7100000000000000000000000000000000000000000000000000000000600052602260045260246000fd5b7f4e487b7100000000000000000000000000000000000000000000000000000000600052604160045260246000fd5b6000601f19601f8301169050919050565b613caf81613a6a565b8114613cba57600080fd5b50565b613cc681613a7c565b8114613cd157600080fd5b50565b613cdd81613a88565b8114613ce857600080fd5b50565b613cf481613ad4565b8114613cff57600080fd5b5056fe697066733a2f2f516d506573436431634a786e6241696b6a616f4c79345548694c5a7166776273436156567a62536d335a5679414aa26469706673582212200f68d06485b1970b67ef84ae0a337b994d32f4db86384c2fab26df58cee61ef764736f6c63430008000033",
  "immutableReferences": {},
  "source": "// SPDX-License-Identifier: MIT\r\n//pragma solidity >=0.4.22 <0.9.0;\r\npragma solidity ^0.8.0;\r\n\r\nimport \"@openzeppelin/contracts/token/ERC721/ERC721.sol\";\r\nimport \"@openzeppelin/contracts/utils/Counters.sol\";\r\nimport \"@openzeppelin/contracts/access/Ownable.sol\";\r\nimport \"./ERC2981Royalty.sol\";\r\n\r\n//TODO ADD METADATA FREEZING\r\n//TODO ADD PERCENT TO CREATOR OF CONTRACTS\r\n\r\n//https://github.com/neha01/nft-demo/blob/master/contracts/ArtCollectible.sol ref\r\n//https://forum.openzeppelin.com/t/function-settokenuri-in-erc721-is-gone-with-pragma-0-8-0/5978/3 another ref\r\ncontract Souvenir is ERC721, Ownable, ERC2981Royalty{\r\n    using Strings for uint256;\r\n    using Counters for Counters.Counter;\r\n\r\n    Counters.Counter private _tokenIds;\r\n    Counters.Counter private _numOfTokens;\r\n\r\n    // Optional mapping for token URIs\r\n    // copied from ERC721URIStorage.sol\r\n    mapping(uint256 => string) private _tokenURIs;\r\n\r\n    // mapping\r\n    // not sure if i want it or not\r\n    mapping(string => uint8) private _hashes;\r\n\r\n    // Base URI\r\n    // string private _baseURIExtended = \"https://ipfs.io/ipfs/\";\r\n    string private _baseURIExtended = \"ipfs://\";\r\n\r\n    // address private _royaltyRecipient = owner();\r\n    address private _royaltyRecipient;\r\n\r\n    // constructor with name and symbol of nft\r\n    constructor() ERC721(\"Souvenir\",\"SVN\"){\r\n        _royaltyRecipient = owner();\r\n    }\r\n\r\n\r\n\r\n    // function to validate interfaces\r\n    function supportsInterface(bytes4 interfaceId)\r\n    public\r\n    view\r\n    virtual\r\n    override(ERC721, ERC2981Base)\r\n    returns (bool)\r\n    {\r\n        return super.supportsInterface(interfaceId);\r\n    }\r\n\r\n\r\n    function totalSupply() public view returns (uint256) {\r\n        return _numOfTokens.current();\r\n    }\r\n\r\n    // collection representation\r\n    // marketplaces use this function in order to assign tokens to this collection\r\n    // pure is a keyword, which ensures that the function doesnt view nor modify the state\r\n    function contractURI() public pure returns (string memory) {\r\n//        return \"https://ipfs.io/ipfs/QmcbqmQn3248WytoNPKbapP8rYXmr1efVnb8t7qEi8aLgY\"; // collection json ipfs\r\n        return \"ipfs://QmPesCd1cJxnbAikjaoLy4UHiLZqfwbsCaVVzbSm3ZVyAJ\"; // collection json ipfs\r\n    }\r\n\r\n    function setBaseURI(string memory baseURI_)\r\n    external\r\n    onlyOwner\r\n    {\r\n        _baseURIExtended = baseURI_;\r\n    }\r\n\r\n    // view is a keyword, which ensures that the function can view but not modify the state\r\n    function _baseURI()\r\n    internal\r\n    view\r\n    virtual\r\n    override\r\n    returns (string memory)\r\n    {\r\n        return _baseURIExtended;\r\n    }\r\n\r\n    // memory didnt work\r\n    function setRoyaltyRecipient(address royaltyRecipient_)\r\n    external\r\n    onlyOwner\r\n    {\r\n        _royaltyRecipient = royaltyRecipient_;\r\n    }\r\n\r\n    // copied from ERC721URIStorage.sol\r\n    function _setTokenURI(uint256 tokenId, string memory _tokenURI) internal virtual {\r\n        require(_exists(tokenId), \"ERC721: URI set of nonexistent token\");\r\n        _tokenURIs[tokenId] = _tokenURI;\r\n    }\r\n\r\n    // copied from ERC721URIStorage.sol\r\n    function _burn(uint256 tokenId) internal virtual override {\r\n        super._burn(tokenId);\r\n        _numOfTokens.decrement();\r\n        if (bytes(_tokenURIs[tokenId]).length != 0) {\r\n            delete _tokenURIs[tokenId];\r\n        }\r\n    }\r\n\r\n    // burns (destroys) a token.\r\n    function burn(uint256 tokenId) public onlyOwner{\r\n        _burn(tokenId);\r\n    }\r\n\r\n    function royaltyRecipient() public view virtual returns (address) {\r\n        return _royaltyRecipient;\r\n    }\r\n\r\n    // copied from ERC721URIStorage.sol\r\n    function tokenURI(uint256 tokenId) public view virtual override returns (string memory) {\r\n        require(_exists(tokenId), \"ERC721: URI query for nonexistent token\");\r\n\r\n        string memory _tokenURI = _tokenURIs[tokenId];\r\n        string memory base = _baseURI();\r\n\r\n        // If there is no base URI, return the token URI.\r\n        if (bytes(base).length == 0) {\r\n            return _tokenURI;\r\n        }\r\n        // If both are set, concatenate the baseURI and tokenURI (via abi.encodePacked).\r\n        if (bytes(_tokenURI).length > 0) {\r\n            return string(abi.encodePacked(base, _tokenURI));\r\n        }\r\n\r\n        return super.tokenURI(tokenId);\r\n    }\r\n\r\n\r\n    // mint multiple tokens\r\n    // value percentage (using 2 decimals - 10000 = 100, 0 = 0)\r\n    // @param numberOfTokens amount of tokens to be minted. not more that 100\r\n    // max copies of one nft is 500\r\n    function mint(string memory tokenHash, uint256 numberOfTokens, uint256 royaltyAmount)\r\n    external\r\n    onlyOwner\r\n    {\r\n        require(numberOfTokens<=100, \"not more than 100 at once\");\r\n        require(_hashes[tokenHash]<=500);\r\n\r\n        for(uint256 i=0; i < numberOfTokens; i++){\r\n            _hashes[tokenHash] = _hashes[tokenHash] + 1;\r\n            _tokenIds.increment();\r\n            _numOfTokens.increment();\r\n            uint256 newTokenId = _tokenIds.current();\r\n            _safeMint(msg.sender, newTokenId);\r\n            _setTokenURI(newTokenId, tokenHash);\r\n            if (royaltyAmount > 0) {\r\n                _setTokenRoyalty(newTokenId, _royaltyRecipient, royaltyAmount);\r\n            }\r\n        }\r\n\r\n    }\r\n\r\n    // mints nft to 'receiver'\r\n    function mintTo(string memory tokenHash, address receiver, uint256 royaltyAmount)\r\n    external\r\n    onlyOwner\r\n    {\r\n        _hashes[tokenHash] = _hashes[tokenHash] + 1;\r\n        _tokenIds.increment();\r\n        _numOfTokens.increment();\r\n        uint256 newTokenId = _tokenIds.current();\r\n        _safeMint(receiver, newTokenId);\r\n        _setTokenURI(newTokenId, tokenHash);\r\n        if (royaltyAmount > 0) {\r\n            _setTokenRoyalty(newTokenId, _royaltyRecipient, royaltyAmount);\r\n        }\r\n    }\r\n\r\n\r\n}",
  "sourcePath": "C:\\Users\\Joey\\Desktop\\BA\\starting-from-new\\src\\contracts\\Souvenir.sol",
  "compiler": {
    "name": "solc",
    "version": "0.8.0+commit.c7dfd78e.Emscripten.clang"
  },
  "schemaVersion": "3.4.3",
  "updatedAt": "2022-01-26T12:28:39.798Z",
  "networkType": "ethereum",
  "devdoc": {
    "kind": "dev",
    "methods": {
      "approve(address,uint256)": {
        "details": "See {IERC721-approve}."
      },
      "balanceOf(address)": {
        "details": "See {IERC721-balanceOf}."
      },
      "getApproved(uint256)": {
        "details": "See {IERC721-getApproved}."
      },
      "isApprovedForAll(address,address)": {
        "details": "See {IERC721-isApprovedForAll}."
      },
      "name()": {
        "details": "See {IERC721Metadata-name}."
      },
      "owner()": {
        "details": "Returns the address of the current owner."
      },
      "ownerOf(uint256)": {
        "details": "See {IERC721-ownerOf}."
      },
      "renounceOwnership()": {
        "details": "Leaves the contract without owner. It will not be possible to call `onlyOwner` functions anymore. Can only be called by the current owner. NOTE: Renouncing ownership will leave the contract without an owner, thereby removing any functionality that is only available to the owner."
      },
      "royaltyInfo(uint256,uint256)": {
        "params": {
          "_tokenId": "- the NFT asset queried for royalty information",
          "_value": "- the sale price of the NFT asset specified by _tokenId"
        },
        "returns": {
          "receiver": "- address of who should be sent the royalty payment",
          "royaltyAmount": "- the royalty payment amount for value sale price"
        }
      },
      "safeTransferFrom(address,address,uint256)": {
        "details": "See {IERC721-safeTransferFrom}."
      },
      "safeTransferFrom(address,address,uint256,bytes)": {
        "details": "See {IERC721-safeTransferFrom}."
      },
      "setApprovalForAll(address,bool)": {
        "details": "See {IERC721-setApprovalForAll}."
      },
      "symbol()": {
        "details": "See {IERC721Metadata-symbol}."
      },
      "tokenURI(uint256)": {
        "details": "See {IERC721Metadata-tokenURI}."
      },
      "transferFrom(address,address,uint256)": {
        "details": "See {IERC721-transferFrom}."
      },
      "transferOwnership(address)": {
        "details": "Transfers ownership of the contract to a new account (`newOwner`). Can only be called by the current owner."
      }
    },
    "version": 1
  },
  "userdoc": {
    "kind": "user",
    "methods": {},
    "version": 1
  }
}