{
  "contractName": "Souvenir",
  "abi": [
    {
      "inputs": [],
      "stateMutability": "nonpayable",
      "type": "constructor"
    },
    {
      "anonymous": false,
      "inputs": [
        {
          "indexed": true,
          "internalType": "address",
          "name": "owner",
          "type": "address"
        },
        {
          "indexed": true,
          "internalType": "address",
          "name": "approved",
          "type": "address"
        },
        {
          "indexed": true,
          "internalType": "uint256",
          "name": "tokenId",
          "type": "uint256"
        }
      ],
      "name": "Approval",
      "type": "event"
    },
    {
      "anonymous": false,
      "inputs": [
        {
          "indexed": true,
          "internalType": "address",
          "name": "owner",
          "type": "address"
        },
        {
          "indexed": true,
          "internalType": "address",
          "name": "operator",
          "type": "address"
        },
        {
          "indexed": false,
          "internalType": "bool",
          "name": "approved",
          "type": "bool"
        }
      ],
      "name": "ApprovalForAll",
      "type": "event"
    },
    {
      "anonymous": false,
      "inputs": [
        {
          "indexed": true,
          "internalType": "address",
          "name": "previousOwner",
          "type": "address"
        },
        {
          "indexed": true,
          "internalType": "address",
          "name": "newOwner",
          "type": "address"
        }
      ],
      "name": "OwnershipTransferred",
      "type": "event"
    },
    {
      "anonymous": false,
      "inputs": [
        {
          "indexed": true,
          "internalType": "address",
          "name": "from",
          "type": "address"
        },
        {
          "indexed": true,
          "internalType": "address",
          "name": "to",
          "type": "address"
        },
        {
          "indexed": true,
          "internalType": "uint256",
          "name": "tokenId",
          "type": "uint256"
        }
      ],
      "name": "Transfer",
      "type": "event"
    },
    {
      "inputs": [
        {
          "internalType": "address",
          "name": "to",
          "type": "address"
        },
        {
          "internalType": "uint256",
          "name": "tokenId",
          "type": "uint256"
        }
      ],
      "name": "approve",
      "outputs": [],
      "stateMutability": "nonpayable",
      "type": "function"
    },
    {
      "inputs": [
        {
          "internalType": "address",
          "name": "owner",
          "type": "address"
        }
      ],
      "name": "balanceOf",
      "outputs": [
        {
          "internalType": "uint256",
          "name": "",
          "type": "uint256"
        }
      ],
      "stateMutability": "view",
      "type": "function",
      "constant": true
    },
    {
      "inputs": [
        {
          "internalType": "uint256",
          "name": "tokenId",
          "type": "uint256"
        }
      ],
      "name": "getApproved",
      "outputs": [
        {
          "internalType": "address",
          "name": "",
          "type": "address"
        }
      ],
      "stateMutability": "view",
      "type": "function",
      "constant": true
    },
    {
      "inputs": [
        {
          "internalType": "address",
          "name": "owner",
          "type": "address"
        },
        {
          "internalType": "address",
          "name": "operator",
          "type": "address"
        }
      ],
      "name": "isApprovedForAll",
      "outputs": [
        {
          "internalType": "bool",
          "name": "",
          "type": "bool"
        }
      ],
      "stateMutability": "view",
      "type": "function",
      "constant": true
    },
    {
      "inputs": [],
      "name": "name",
      "outputs": [
        {
          "internalType": "string",
          "name": "",
          "type": "string"
        }
      ],
      "stateMutability": "view",
      "type": "function",
      "constant": true
    },
    {
      "inputs": [],
      "name": "owner",
      "outputs": [
        {
          "internalType": "address",
          "name": "",
          "type": "address"
        }
      ],
      "stateMutability": "view",
      "type": "function",
      "constant": true
    },
    {
      "inputs": [
        {
          "internalType": "uint256",
          "name": "tokenId",
          "type": "uint256"
        }
      ],
      "name": "ownerOf",
      "outputs": [
        {
          "internalType": "address",
          "name": "",
          "type": "address"
        }
      ],
      "stateMutability": "view",
      "type": "function",
      "constant": true
    },
    {
      "inputs": [],
      "name": "renounceOwnership",
      "outputs": [],
      "stateMutability": "nonpayable",
      "type": "function"
    },
    {
      "inputs": [
        {
          "internalType": "uint256",
          "name": "tokenId",
          "type": "uint256"
        },
        {
          "internalType": "uint256",
          "name": "value",
          "type": "uint256"
        }
      ],
      "name": "royaltyInfo",
      "outputs": [
        {
          "internalType": "address",
          "name": "receiver",
          "type": "address"
        },
        {
          "internalType": "uint256",
          "name": "royaltyAmount",
          "type": "uint256"
        }
      ],
      "stateMutability": "view",
      "type": "function",
      "constant": true
    },
    {
      "inputs": [
        {
          "internalType": "address",
          "name": "from",
          "type": "address"
        },
        {
          "internalType": "address",
          "name": "to",
          "type": "address"
        },
        {
          "internalType": "uint256",
          "name": "tokenId",
          "type": "uint256"
        }
      ],
      "name": "safeTransferFrom",
      "outputs": [],
      "stateMutability": "nonpayable",
      "type": "function"
    },
    {
      "inputs": [
        {
          "internalType": "address",
          "name": "from",
          "type": "address"
        },
        {
          "internalType": "address",
          "name": "to",
          "type": "address"
        },
        {
          "internalType": "uint256",
          "name": "tokenId",
          "type": "uint256"
        },
        {
          "internalType": "bytes",
          "name": "_data",
          "type": "bytes"
        }
      ],
      "name": "safeTransferFrom",
      "outputs": [],
      "stateMutability": "nonpayable",
      "type": "function"
    },
    {
      "inputs": [
        {
          "internalType": "address",
          "name": "operator",
          "type": "address"
        },
        {
          "internalType": "bool",
          "name": "approved",
          "type": "bool"
        }
      ],
      "name": "setApprovalForAll",
      "outputs": [],
      "stateMutability": "nonpayable",
      "type": "function"
    },
    {
      "inputs": [],
      "name": "symbol",
      "outputs": [
        {
          "internalType": "string",
          "name": "",
          "type": "string"
        }
      ],
      "stateMutability": "view",
      "type": "function",
      "constant": true
    },
    {
      "inputs": [
        {
          "internalType": "address",
          "name": "from",
          "type": "address"
        },
        {
          "internalType": "address",
          "name": "to",
          "type": "address"
        },
        {
          "internalType": "uint256",
          "name": "tokenId",
          "type": "uint256"
        }
      ],
      "name": "transferFrom",
      "outputs": [],
      "stateMutability": "nonpayable",
      "type": "function"
    },
    {
      "inputs": [
        {
          "internalType": "address",
          "name": "newOwner",
          "type": "address"
        }
      ],
      "name": "transferOwnership",
      "outputs": [],
      "stateMutability": "nonpayable",
      "type": "function"
    },
    {
      "inputs": [
        {
          "internalType": "bytes4",
          "name": "interfaceId",
          "type": "bytes4"
        }
      ],
      "name": "supportsInterface",
      "outputs": [
        {
          "internalType": "bool",
          "name": "",
          "type": "bool"
        }
      ],
      "stateMutability": "view",
      "type": "function",
      "constant": true
    },
    {
      "inputs": [],
      "name": "totalSupply",
      "outputs": [
        {
          "internalType": "uint256",
          "name": "",
          "type": "uint256"
        }
      ],
      "stateMutability": "view",
      "type": "function",
      "constant": true
    },
    {
      "inputs": [],
      "name": "contractURI",
      "outputs": [
        {
          "internalType": "string",
          "name": "",
          "type": "string"
        }
      ],
      "stateMutability": "pure",
      "type": "function",
      "constant": true
    },
    {
      "inputs": [
        {
          "internalType": "string",
          "name": "baseURI_",
          "type": "string"
        }
      ],
      "name": "setBaseURI",
      "outputs": [],
      "stateMutability": "nonpayable",
      "type": "function"
    },
    {
      "inputs": [
        {
          "internalType": "address",
          "name": "royaltyRecipient_",
          "type": "address"
        }
      ],
      "name": "setRoyaltyRecipient",
      "outputs": [],
      "stateMutability": "nonpayable",
      "type": "function"
    },
    {
      "inputs": [
        {
          "internalType": "uint256",
          "name": "tokenId",
          "type": "uint256"
        }
      ],
      "name": "burn",
      "outputs": [],
      "stateMutability": "nonpayable",
      "type": "function"
    },
    {
      "inputs": [],
      "name": "royaltyRecipient",
      "outputs": [
        {
          "internalType": "address",
          "name": "",
          "type": "address"
        }
      ],
      "stateMutability": "view",
      "type": "function",
      "constant": true
    },
    {
      "inputs": [
        {
          "internalType": "uint256",
          "name": "tokenId",
          "type": "uint256"
        }
      ],
      "name": "tokenURI",
      "outputs": [
        {
          "internalType": "string",
          "name": "",
          "type": "string"
        }
      ],
      "stateMutability": "view",
      "type": "function",
      "constant": true
    },
    {
      "inputs": [
        {
          "internalType": "string",
          "name": "tokenHash",
          "type": "string"
        },
        {
          "internalType": "uint256",
          "name": "royaltyAmount",
          "type": "uint256"
        }
      ],
      "name": "mint",
      "outputs": [],
      "stateMutability": "nonpayable",
      "type": "function"
    },
    {
      "inputs": [
        {
          "internalType": "string",
          "name": "tokenHash",
          "type": "string"
        },
        {
          "internalType": "address",
          "name": "receiver",
          "type": "address"
        },
        {
          "internalType": "uint256",
          "name": "royaltyAmount",
          "type": "uint256"
        }
      ],
      "name": "mintTo",
      "outputs": [],
      "stateMutability": "nonpayable",
      "type": "function"
    },
    {
      "inputs": [
        {
          "internalType": "string",
          "name": "tokenHash",
          "type": "string"
        },
        {
          "internalType": "uint256",
          "name": "numberOfTokens",
          "type": "uint256"
        },
        {
          "internalType": "uint256",
          "name": "royaltyAmount",
          "type": "uint256"
        }
      ],
      "name": "mintBatch",
      "outputs": [],
      "stateMutability": "nonpayable",
      "type": "function"
    }
  ],
  "bytecode": "0x60806040526040518060400160405280601581526020017f68747470733a2f2f697066732e696f2f697066732f0000000000000000000000815250600c9080519060200190620000519291906200026e565b503480156200005f57600080fd5b506040518060400160405280600881526020017f536f7576656e69720000000000000000000000000000000000000000000000008152506040518060400160405280600381526020017f53564e00000000000000000000000000000000000000000000000000000000008152508160009080519060200190620000e49291906200026e565b508060019080519060200190620000fd9291906200026e565b50505062000120620001146200017660201b60201c565b6200017e60201b60201c565b620001306200024460201b60201c565b600d60006101000a81548173ffffffffffffffffffffffffffffffffffffffff021916908373ffffffffffffffffffffffffffffffffffffffff16021790555062000383565b600033905090565b6000600660009054906101000a900473ffffffffffffffffffffffffffffffffffffffff16905081600660006101000a81548173ffffffffffffffffffffffffffffffffffffffff021916908373ffffffffffffffffffffffffffffffffffffffff1602179055508173ffffffffffffffffffffffffffffffffffffffff168173ffffffffffffffffffffffffffffffffffffffff167f8be0079c531659141344cd1fd0a4f28419497f9722a3daafe3b4186f6b6457e060405160405180910390a35050565b6000600660009054906101000a900473ffffffffffffffffffffffffffffffffffffffff16905090565b8280546200027c906200031e565b90600052602060002090601f016020900481019282620002a05760008555620002ec565b82601f10620002bb57805160ff1916838001178555620002ec565b82800160010185558215620002ec579182015b82811115620002eb578251825591602001919060010190620002ce565b5b509050620002fb9190620002ff565b5090565b5b808211156200031a57600081600090555060010162000300565b5090565b600060028204905060018216806200033757607f821691505b602082108114156200034e576200034d62000354565b5b50919050565b7f4e487b7100000000000000000000000000000000000000000000000000000000600052602260045260246000fd5b613ee680620003936000396000f3fe608060405234801561001057600080fd5b506004361061018e5760003560e01c806355f804b3116100de5780639895e6f711610097578063c87b56dd11610071578063c87b56dd14610458578063e8a3d48514610488578063e985e9c5146104a6578063f2fde38b146104d65761018e565b80639895e6f714610404578063a22cb46514610420578063b88d4fde1461043c5761018e565b806355f804b3146103425780636352211e1461035e57806370a082311461038e578063715018a6146103be5780638da5cb5b146103c857806395d89b41146103e65761018e565b80631f5a8c2e1161014b57806341e42f301161012557806341e42f30146102d057806342842e0e146102ec57806342966c68146103085780634c00de82146103245761018e565b80631f5a8c2e1461026757806323b872dd146102835780632a55205a1461029f5761018e565b806301ffc9a714610193578063056b01ce146101c357806306fdde03146101df578063081812fc146101fd578063095ea7b31461022d57806318160ddd14610249575b600080fd5b6101ad60048036038101906101a89190612bb4565b6104f2565b6040516101ba91906136bd565b60405180910390f35b6101dd60048036038101906101d89190612cae565b610504565b005b6101e7610660565b6040516101f491906136d8565b60405180910390f35b61021760048036038101906102129190612d69565b6106f2565b604051610224919061362d565b60405180910390f35b61024760048036038101906102429190612b78565b610777565b005b61025161088f565b60405161025e919061399a565b60405180910390f35b610281600480360381019061027c9190612d02565b6108a0565b005b61029d60048036038101906102989190612a72565b610a9d565b005b6102b960048036038101906102b49190612d92565b610afd565b6040516102c7929190613694565b60405180910390f35b6102ea60048036038101906102e59190612a0d565b610bce565b005b61030660048036038101906103019190612a72565b610c8e565b005b610322600480360381019061031d9190612d69565b610cae565b005b61032c610cba565b604051610339919061362d565b60405180910390f35b61035c60048036038101906103579190612c06565b610ce4565b005b61037860048036038101906103739190612d69565b610d7a565b604051610385919061362d565b60405180910390f35b6103a860048036038101906103a39190612a0d565b610e2c565b6040516103b5919061399a565b60405180910390f35b6103c6610ee4565b005b6103d0610f6c565b6040516103dd919061362d565b60405180910390f35b6103ee610f96565b6040516103fb91906136d8565b60405180910390f35b61041e60048036038101906104199190612c47565b611028565b005b61043a60048036038101906104359190612b3c565b611185565b005b61045660048036038101906104519190612ac1565b61119b565b005b610472600480360381019061046d9190612d69565b6111fd565b60405161047f91906136d8565b60405180910390f35b61049061134f565b60405161049d91906136d8565b60405180910390f35b6104c060048036038101906104bb9190612a36565b61136f565b6040516104cd91906136bd565b60405180910390f35b6104f060048036038101906104eb9190612a0d565b611403565b005b60006104fd826114fb565b9050919050565b61050c611575565b73ffffffffffffffffffffffffffffffffffffffff1661052a610f6c565b73ffffffffffffffffffffffffffffffffffffffff1614610580576040517f08c379a0000000000000000000000000000000000000000000000000000000008152600401610577906138ba565b60405180910390fd5b6001600b8360405161059291906135f2565b908152602001604051809103902060009054906101000a900460ff166105b89190613adf565b600b836040516105c891906135f2565b908152602001604051809103902060006101000a81548160ff021916908360ff1602179055506105f8600861157d565b610602600961157d565b600061060e6008611593565b905061061a33826115a1565b61062481846115bf565b600082111561065b5761065a81600d60009054906101000a900473ffffffffffffffffffffffffffffffffffffffff1684611633565b5b505050565b60606000805461066f90613c98565b80601f016020809104026020016040519081016040528092919081815260200182805461069b90613c98565b80156106e85780601f106106bd576101008083540402835291602001916106e8565b820191906000526020600020905b8154815290600101906020018083116106cb57829003601f168201915b5050505050905090565b60006106fd8261172f565b61073c576040517f08c379a00000000000000000000000000000000000000000000000000000000081526004016107339061389a565b60405180910390fd5b6004600083815260200190815260200160002060009054906101000a900473ffffffffffffffffffffffffffffffffffffffff169050919050565b600061078282610d7a565b90508073ffffffffffffffffffffffffffffffffffffffff168373ffffffffffffffffffffffffffffffffffffffff1614156107f3576040517f08c379a00000000000000000000000000000000000000000000000000000000081526004016107ea9061391a565b60405180910390fd5b8073ffffffffffffffffffffffffffffffffffffffff16610812611575565b73ffffffffffffffffffffffffffffffffffffffff16148061084157506108408161083b611575565b61136f565b5b610880576040517f08c379a00000000000000000000000000000000000000000000000000000000081526004016108779061381a565b60405180910390fd5b61088a838361179b565b505050565b600061089b6009611593565b905090565b6108a8611575565b73ffffffffffffffffffffffffffffffffffffffff166108c6610f6c565b73ffffffffffffffffffffffffffffffffffffffff161461091c576040517f08c379a0000000000000000000000000000000000000000000000000000000008152600401610913906138ba565b60405180910390fd5b6064821115610960576040517f08c379a0000000000000000000000000000000000000000000000000000000008152600401610957906136fa565b60405180910390fd5b6101f4600b8460405161097391906135f2565b908152602001604051809103902060009054906101000a900460ff1660ff16111561099d57600080fd5b60005b82811015610a97576001600b856040516109ba91906135f2565b908152602001604051809103902060009054906101000a900460ff166109e09190613adf565b600b856040516109f091906135f2565b908152602001604051809103902060006101000a81548160ff021916908360ff160217905550610a20600861157d565b610a2a600961157d565b6000610a366008611593565b9050610a4233826115a1565b610a4c81866115bf565b6000831115610a8357610a8281600d60009054906101000a900473ffffffffffffffffffffffffffffffffffffffff1685611633565b5b508080610a8f90613cca565b9150506109a0565b50505050565b610aae610aa8611575565b82611854565b610aed576040517f08c379a0000000000000000000000000000000000000000000000000000000008152600401610ae49061393a565b60405180910390fd5b610af8838383611932565b505050565b6000806000600760008681526020019081526020016000206040518060400160405290816000820160009054906101000a900473ffffffffffffffffffffffffffffffffffffffff1673ffffffffffffffffffffffffffffffffffffffff1673ffffffffffffffffffffffffffffffffffffffff1681526020016000820160149054906101000a900462ffffff1662ffffff1662ffffff1681525050905080600001519250612710816020015162ffffff1685610bba9190613b47565b610bc49190613b16565b9150509250929050565b610bd6611575565b73ffffffffffffffffffffffffffffffffffffffff16610bf4610f6c565b73ffffffffffffffffffffffffffffffffffffffff1614610c4a576040517f08c379a0000000000000000000000000000000000000000000000000000000008152600401610c41906138ba565b60405180910390fd5b80600d60006101000a81548173ffffffffffffffffffffffffffffffffffffffff021916908373ffffffffffffffffffffffffffffffffffffffff16021790555050565b610ca98383836040518060200160405280600081525061119b565b505050565b610cb781611b8e565b50565b6000600d60009054906101000a900473ffffffffffffffffffffffffffffffffffffffff16905090565b610cec611575565b73ffffffffffffffffffffffffffffffffffffffff16610d0a610f6c565b73ffffffffffffffffffffffffffffffffffffffff1614610d60576040517f08c379a0000000000000000000000000000000000000000000000000000000008152600401610d57906138ba565b60405180910390fd5b80600c9080519060200190610d769291906127f1565b5050565b6000806002600084815260200190815260200160002060009054906101000a900473ffffffffffffffffffffffffffffffffffffffff169050600073ffffffffffffffffffffffffffffffffffffffff168173ffffffffffffffffffffffffffffffffffffffff161415610e23576040517f08c379a0000000000000000000000000000000000000000000000000000000008152600401610e1a9061385a565b60405180910390fd5b80915050919050565b60008073ffffffffffffffffffffffffffffffffffffffff168273ffffffffffffffffffffffffffffffffffffffff161415610e9d576040517f08c379a0000000000000000000000000000000000000000000000000000000008152600401610e949061383a565b60405180910390fd5b600360008373ffffffffffffffffffffffffffffffffffffffff1673ffffffffffffffffffffffffffffffffffffffff168152602001908152602001600020549050919050565b610eec611575565b73ffffffffffffffffffffffffffffffffffffffff16610f0a610f6c565b73ffffffffffffffffffffffffffffffffffffffff1614610f60576040517f08c379a0000000000000000000000000000000000000000000000000000000008152600401610f57906138ba565b60405180910390fd5b610f6a6000611beb565b565b6000600660009054906101000a900473ffffffffffffffffffffffffffffffffffffffff16905090565b606060018054610fa590613c98565b80601f0160208091040260200160405190810160405280929190818152602001828054610fd190613c98565b801561101e5780601f10610ff35761010080835404028352916020019161101e565b820191906000526020600020905b81548152906001019060200180831161100157829003601f168201915b5050505050905090565b611030611575565b73ffffffffffffffffffffffffffffffffffffffff1661104e610f6c565b73ffffffffffffffffffffffffffffffffffffffff16146110a4576040517f08c379a000000000000000000000000000000000000000000000000000000000815260040161109b906138ba565b60405180910390fd5b6001600b846040516110b691906135f2565b908152602001604051809103902060009054906101000a900460ff166110dc9190613adf565b600b846040516110ec91906135f2565b908152602001604051809103902060006101000a81548160ff021916908360ff16021790555061111c600861157d565b611126600961157d565b60006111326008611593565b905061113e83826115a1565b61114881856115bf565b600082111561117f5761117e81600d60009054906101000a900473ffffffffffffffffffffffffffffffffffffffff1684611633565b5b50505050565b611197611190611575565b8383611cb1565b5050565b6111ac6111a6611575565b83611854565b6111eb576040517f08c379a00000000000000000000000000000000000000000000000000000000081526004016111e29061393a565b60405180910390fd5b6111f784848484611e1e565b50505050565b60606112088261172f565b611247576040517f08c379a000000000000000000000000000000000000000000000000000000000815260040161123e9061397a565b60405180910390fd5b6000600a6000848152602001908152602001600020805461126790613c98565b80601f016020809104026020016040519081016040528092919081815260200182805461129390613c98565b80156112e05780601f106112b5576101008083540402835291602001916112e0565b820191906000526020600020905b8154815290600101906020018083116112c357829003601f168201915b5050505050905060006112f1611e7a565b905060008151141561130757819250505061134a565b60008251111561133c578082604051602001611324929190613609565b6040516020818303038152906040529250505061134a565b61134584611f0c565b925050505b919050565b6060604051806080016040528060438152602001613e6e60439139905090565b6000600560008473ffffffffffffffffffffffffffffffffffffffff1673ffffffffffffffffffffffffffffffffffffffff16815260200190815260200160002060008373ffffffffffffffffffffffffffffffffffffffff1673ffffffffffffffffffffffffffffffffffffffff16815260200190815260200160002060009054906101000a900460ff16905092915050565b61140b611575565b73ffffffffffffffffffffffffffffffffffffffff16611429610f6c565b73ffffffffffffffffffffffffffffffffffffffff161461147f576040517f08c379a0000000000000000000000000000000000000000000000000000000008152600401611476906138ba565b60405180910390fd5b600073ffffffffffffffffffffffffffffffffffffffff168173ffffffffffffffffffffffffffffffffffffffff1614156114ef576040517f08c379a00000000000000000000000000000000000000000000000000000000081526004016114e69061377a565b60405180910390fd5b6114f881611beb565b50565b60007f2a55205a000000000000000000000000000000000000000000000000000000007bffffffffffffffffffffffffffffffffffffffffffffffffffffffff1916827bffffffffffffffffffffffffffffffffffffffffffffffffffffffff1916148061156e575061156d82611fb3565b5b9050919050565b600033905090565b6001816000016000828254019250508190555050565b600081600001549050919050565b6115bb828260405180602001604052806000815250612095565b5050565b6115c88261172f565b611607576040517f08c379a00000000000000000000000000000000000000000000000000000000081526004016115fe9061395a565b60405180910390fd5b80600a6000848152602001908152602001600020908051906020019061162e9291906127f1565b505050565b612710811115611678576040517f08c379a000000000000000000000000000000000000000000000000000000000815260040161166f9061371a565b60405180910390fd5b60405180604001604052808373ffffffffffffffffffffffffffffffffffffffff1681526020018262ffffff168152506007600085815260200190815260200160002060008201518160000160006101000a81548173ffffffffffffffffffffffffffffffffffffffff021916908373ffffffffffffffffffffffffffffffffffffffff16021790555060208201518160000160146101000a81548162ffffff021916908362ffffff160217905550905050505050565b60008073ffffffffffffffffffffffffffffffffffffffff166002600084815260200190815260200160002060009054906101000a900473ffffffffffffffffffffffffffffffffffffffff1673ffffffffffffffffffffffffffffffffffffffff1614159050919050565b816004600083815260200190815260200160002060006101000a81548173ffffffffffffffffffffffffffffffffffffffff021916908373ffffffffffffffffffffffffffffffffffffffff160217905550808273ffffffffffffffffffffffffffffffffffffffff1661180e83610d7a565b73ffffffffffffffffffffffffffffffffffffffff167f8c5be1e5ebec7d5bd14f71427d1e84f3dd0314c0f7b2291e5b200ac8c7c3b92560405160405180910390a45050565b600061185f8261172f565b61189e576040517f08c379a0000000000000000000000000000000000000000000000000000000008152600401611895906137fa565b60405180910390fd5b60006118a983610d7a565b90508073ffffffffffffffffffffffffffffffffffffffff168473ffffffffffffffffffffffffffffffffffffffff16148061191857508373ffffffffffffffffffffffffffffffffffffffff16611900846106f2565b73ffffffffffffffffffffffffffffffffffffffff16145b806119295750611928818561136f565b5b91505092915050565b8273ffffffffffffffffffffffffffffffffffffffff1661195282610d7a565b73ffffffffffffffffffffffffffffffffffffffff16146119a8576040517f08c379a000000000000000000000000000000000000000000000000000000000815260040161199f906138da565b60405180910390fd5b600073ffffffffffffffffffffffffffffffffffffffff168273ffffffffffffffffffffffffffffffffffffffff161415611a18576040517f08c379a0000000000000000000000000000000000000000000000000000000008152600401611a0f906137ba565b60405180910390fd5b611a238383836120f0565b611a2e60008261179b565b6001600360008573ffffffffffffffffffffffffffffffffffffffff1673ffffffffffffffffffffffffffffffffffffffff1681526020019081526020016000206000828254611a7e9190613ba1565b925050819055506001600360008473ffffffffffffffffffffffffffffffffffffffff1673ffffffffffffffffffffffffffffffffffffffff1681526020019081526020016000206000828254611ad59190613a89565b92505081905550816002600083815260200190815260200160002060006101000a81548173ffffffffffffffffffffffffffffffffffffffff021916908373ffffffffffffffffffffffffffffffffffffffff160217905550808273ffffffffffffffffffffffffffffffffffffffff168473ffffffffffffffffffffffffffffffffffffffff167fddf252ad1be2c89b69c2b068fc378daa952ba7f163c4a11628f55a4df523b3ef60405160405180910390a4505050565b611b97816120f5565b611ba16009612206565b6000600a60008381526020019081526020016000208054611bc190613c98565b905014611be857600a60008281526020019081526020016000206000611be79190612877565b5b50565b6000600660009054906101000a900473ffffffffffffffffffffffffffffffffffffffff16905081600660006101000a81548173ffffffffffffffffffffffffffffffffffffffff021916908373ffffffffffffffffffffffffffffffffffffffff1602179055508173ffffffffffffffffffffffffffffffffffffffff168173ffffffffffffffffffffffffffffffffffffffff167f8be0079c531659141344cd1fd0a4f28419497f9722a3daafe3b4186f6b6457e060405160405180910390a35050565b8173ffffffffffffffffffffffffffffffffffffffff168373ffffffffffffffffffffffffffffffffffffffff161415611d20576040517f08c379a0000000000000000000000000000000000000000000000000000000008152600401611d17906137da565b60405180910390fd5b80600560008573ffffffffffffffffffffffffffffffffffffffff1673ffffffffffffffffffffffffffffffffffffffff16815260200190815260200160002060008473ffffffffffffffffffffffffffffffffffffffff1673ffffffffffffffffffffffffffffffffffffffff16815260200190815260200160002060006101000a81548160ff0219169083151502179055508173ffffffffffffffffffffffffffffffffffffffff168373ffffffffffffffffffffffffffffffffffffffff167f17307eab39ab6107e8899845ad3d59bd9653f200f220920489ca2b5937696c3183604051611e1191906136bd565b60405180910390a3505050565b611e29848484611932565b611e3584848484612262565b611e74576040517f08c379a0000000000000000000000000000000000000000000000000000000008152600401611e6b9061375a565b60405180910390fd5b50505050565b6060600c8054611e8990613c98565b80601f0160208091040260200160405190810160405280929190818152602001828054611eb590613c98565b8015611f025780601f10611ed757610100808354040283529160200191611f02565b820191906000526020600020905b815481529060010190602001808311611ee557829003601f168201915b5050505050905090565b6060611f178261172f565b611f56576040517f08c379a0000000000000000000000000000000000000000000000000000000008152600401611f4d906138fa565b60405180910390fd5b6000611f60611e7a565b90506000815111611f805760405180602001604052806000815250611fab565b80611f8a846123f9565b604051602001611f9b929190613609565b6040516020818303038152906040525b915050919050565b60007f80ac58cd000000000000000000000000000000000000000000000000000000007bffffffffffffffffffffffffffffffffffffffffffffffffffffffff1916827bffffffffffffffffffffffffffffffffffffffffffffffffffffffff1916148061207e57507f5b5e139f000000000000000000000000000000000000000000000000000000007bffffffffffffffffffffffffffffffffffffffffffffffffffffffff1916827bffffffffffffffffffffffffffffffffffffffffffffffffffffffff1916145b8061208e575061208d826125a6565b5b9050919050565b61209f8383612610565b6120ac6000848484612262565b6120eb576040517f08c379a00000000000000000000000000000000000000000000000000000000081526004016120e29061375a565b60405180910390fd5b505050565b505050565b600061210082610d7a565b905061210e816000846120f0565b61211960008361179b565b6001600360008373ffffffffffffffffffffffffffffffffffffffff1673ffffffffffffffffffffffffffffffffffffffff16815260200190815260200160002060008282546121699190613ba1565b925050819055506002600083815260200190815260200160002060006101000a81549073ffffffffffffffffffffffffffffffffffffffff021916905581600073ffffffffffffffffffffffffffffffffffffffff168273ffffffffffffffffffffffffffffffffffffffff167fddf252ad1be2c89b69c2b068fc378daa952ba7f163c4a11628f55a4df523b3ef60405160405180910390a45050565b60008160000154905060008111612252576040517f08c379a00000000000000000000000000000000000000000000000000000000081526004016122499061373a565b60405180910390fd5b6001810382600001819055505050565b60006122838473ffffffffffffffffffffffffffffffffffffffff166127de565b156123ec578373ffffffffffffffffffffffffffffffffffffffff1663150b7a026122ac611575565b8786866040518563ffffffff1660e01b81526004016122ce9493929190613648565b602060405180830381600087803b1580156122e857600080fd5b505af192505050801561231957506040513d601f19601f820116820180604052508101906123169190612bdd565b60015b61239c573d8060008114612349576040519150601f19603f3d011682016040523d82523d6000602084013e61234e565b606091505b50600081511415612394576040517f08c379a000000000000000000000000000000000000000000000000000000000815260040161238b9061375a565b60405180910390fd5b805181602001fd5b63150b7a0260e01b7bffffffffffffffffffffffffffffffffffffffffffffffffffffffff1916817bffffffffffffffffffffffffffffffffffffffffffffffffffffffff1916149150506123f1565b600190505b949350505050565b60606000821415612441576040518060400160405280600181526020017f300000000000000000000000000000000000000000000000000000000000000081525090506125a1565b600082905060005b6000821461247357808061245c90613cca565b915050600a8261246c9190613b16565b9150612449565b60008167ffffffffffffffff8111156124b5577f4e487b7100000000000000000000000000000000000000000000000000000000600052604160045260246000fd5b6040519080825280601f01601f1916602001820160405280156124e75781602001600182028036833780820191505090505b5090505b6000851461259a576001826125009190613ba1565b9150600a8561250f9190613d13565b603061251b9190613a89565b60f81b818381518110612557577f4e487b7100000000000000000000000000000000000000000000000000000000600052603260045260246000fd5b60200101907effffffffffffffffffffffffffffffffffffffffffffffffffffffffffffff1916908160001a905350600a856125939190613b16565b94506124eb565b8093505050505b919050565b60007f01ffc9a7000000000000000000000000000000000000000000000000000000007bffffffffffffffffffffffffffffffffffffffffffffffffffffffff1916827bffffffffffffffffffffffffffffffffffffffffffffffffffffffff1916149050919050565b600073ffffffffffffffffffffffffffffffffffffffff168273ffffffffffffffffffffffffffffffffffffffff161415612680576040517f08c379a00000000000000000000000000000000000000000000000000000000081526004016126779061387a565b60405180910390fd5b6126898161172f565b156126c9576040517f08c379a00000000000000000000000000000000000000000000000000000000081526004016126c09061379a565b60405180910390fd5b6126d5600083836120f0565b6001600360008473ffffffffffffffffffffffffffffffffffffffff1673ffffffffffffffffffffffffffffffffffffffff16815260200190815260200160002060008282546127259190613a89565b92505081905550816002600083815260200190815260200160002060006101000a81548173ffffffffffffffffffffffffffffffffffffffff021916908373ffffffffffffffffffffffffffffffffffffffff160217905550808273ffffffffffffffffffffffffffffffffffffffff16600073ffffffffffffffffffffffffffffffffffffffff167fddf252ad1be2c89b69c2b068fc378daa952ba7f163c4a11628f55a4df523b3ef60405160405180910390a45050565b600080823b905060008111915050919050565b8280546127fd90613c98565b90600052602060002090601f01602090048101928261281f5760008555612866565b82601f1061283857805160ff1916838001178555612866565b82800160010185558215612866579182015b8281111561286557825182559160200191906001019061284a565b5b50905061287391906128b7565b5090565b50805461288390613c98565b6000825580601f1061289557506128b4565b601f0160209004906000526020600020908101906128b391906128b7565b5b50565b5b808211156128d05760008160009055506001016128b8565b5090565b60006128e76128e2846139e6565b6139b5565b9050828152602081018484840111156128ff57600080fd5b61290a848285613c56565b509392505050565b600061292561292084613a16565b6139b5565b90508281526020810184848401111561293d57600080fd5b612948848285613c56565b509392505050565b60008135905061295f81613e11565b92915050565b60008135905061297481613e28565b92915050565b60008135905061298981613e3f565b92915050565b60008151905061299e81613e3f565b92915050565b600082601f8301126129b557600080fd5b81356129c58482602086016128d4565b91505092915050565b600082601f8301126129df57600080fd5b81356129ef848260208601612912565b91505092915050565b600081359050612a0781613e56565b92915050565b600060208284031215612a1f57600080fd5b6000612a2d84828501612950565b91505092915050565b60008060408385031215612a4957600080fd5b6000612a5785828601612950565b9250506020612a6885828601612950565b9150509250929050565b600080600060608486031215612a8757600080fd5b6000612a9586828701612950565b9350506020612aa686828701612950565b9250506040612ab7868287016129f8565b9150509250925092565b60008060008060808587031215612ad757600080fd5b6000612ae587828801612950565b9450506020612af687828801612950565b9350506040612b07878288016129f8565b925050606085013567ffffffffffffffff811115612b2457600080fd5b612b30878288016129a4565b91505092959194509250565b60008060408385031215612b4f57600080fd5b6000612b5d85828601612950565b9250506020612b6e85828601612965565b9150509250929050565b60008060408385031215612b8b57600080fd5b6000612b9985828601612950565b9250506020612baa858286016129f8565b9150509250929050565b600060208284031215612bc657600080fd5b6000612bd48482850161297a565b91505092915050565b600060208284031215612bef57600080fd5b6000612bfd8482850161298f565b91505092915050565b600060208284031215612c1857600080fd5b600082013567ffffffffffffffff811115612c3257600080fd5b612c3e848285016129ce565b91505092915050565b600080600060608486031215612c5c57600080fd5b600084013567ffffffffffffffff811115612c7657600080fd5b612c82868287016129ce565b9350506020612c9386828701612950565b9250506040612ca4868287016129f8565b9150509250925092565b60008060408385031215612cc157600080fd5b600083013567ffffffffffffffff811115612cdb57600080fd5b612ce7858286016129ce565b9250506020612cf8858286016129f8565b9150509250929050565b600080600060608486031215612d1757600080fd5b600084013567ffffffffffffffff811115612d3157600080fd5b612d3d868287016129ce565b9350506020612d4e868287016129f8565b9250506040612d5f868287016129f8565b9150509250925092565b600060208284031215612d7b57600080fd5b6000612d89848285016129f8565b91505092915050565b60008060408385031215612da557600080fd5b6000612db3858286016129f8565b9250506020612dc4858286016129f8565b9150509250929050565b612dd781613bd5565b82525050565b612de681613be7565b82525050565b6000612df782613a46565b612e018185613a5c565b9350612e11818560208601613c65565b612e1a81613e00565b840191505092915050565b6000612e3082613a51565b612e3a8185613a6d565b9350612e4a818560208601613c65565b612e5381613e00565b840191505092915050565b6000612e6982613a51565b612e738185613a7e565b9350612e83818560208601613c65565b80840191505092915050565b6000612e9c601983613a6d565b91507f6e6f74206d6f7265207468616e20313030206174206f6e6365000000000000006000830152602082019050919050565b6000612edc601a83613a6d565b91507f45524332393831526f79616c746965733a20546f6f20686967680000000000006000830152602082019050919050565b6000612f1c601b83613a6d565b91507f436f756e7465723a2064656372656d656e74206f766572666c6f7700000000006000830152602082019050919050565b6000612f5c603283613a6d565b91507f4552433732313a207472616e7366657220746f206e6f6e20455243373231526560008301527f63656976657220696d706c656d656e74657200000000000000000000000000006020830152604082019050919050565b6000612fc2602683613a6d565b91507f4f776e61626c653a206e6577206f776e657220697320746865207a65726f206160008301527f64647265737300000000000000000000000000000000000000000000000000006020830152604082019050919050565b6000613028601c83613a6d565b91507f4552433732313a20746f6b656e20616c7265616479206d696e746564000000006000830152602082019050919050565b6000613068602483613a6d565b91507f4552433732313a207472616e7366657220746f20746865207a65726f2061646460008301527f72657373000000000000000000000000000000000000000000000000000000006020830152604082019050919050565b60006130ce601983613a6d565b91507f4552433732313a20617070726f766520746f2063616c6c6572000000000000006000830152602082019050919050565b600061310e602c83613a6d565b91507f4552433732313a206f70657261746f7220717565727920666f72206e6f6e657860008301527f697374656e7420746f6b656e00000000000000000000000000000000000000006020830152604082019050919050565b6000613174603883613a6d565b91507f4552433732313a20617070726f76652063616c6c6572206973206e6f74206f7760008301527f6e6572206e6f7220617070726f76656420666f7220616c6c00000000000000006020830152604082019050919050565b60006131da602a83613a6d565b91507f4552433732313a2062616c616e636520717565727920666f7220746865207a6560008301527f726f2061646472657373000000000000000000000000000000000000000000006020830152604082019050919050565b6000613240602983613a6d565b91507f4552433732313a206f776e657220717565727920666f72206e6f6e657869737460008301527f656e7420746f6b656e00000000000000000000000000000000000000000000006020830152604082019050919050565b60006132a6602083613a6d565b91507f4552433732313a206d696e7420746f20746865207a65726f20616464726573736000830152602082019050919050565b60006132e6602c83613a6d565b91507f4552433732313a20617070726f76656420717565727920666f72206e6f6e657860008301527f697374656e7420746f6b656e00000000000000000000000000000000000000006020830152604082019050919050565b600061334c602083613a6d565b91507f4f776e61626c653a2063616c6c6572206973206e6f7420746865206f776e65726000830152602082019050919050565b600061338c602983613a6d565b91507f4552433732313a207472616e73666572206f6620746f6b656e2074686174206960008301527f73206e6f74206f776e00000000000000000000000000000000000000000000006020830152604082019050919050565b60006133f2602f83613a6d565b91507f4552433732314d657461646174613a2055524920717565727920666f72206e6f60008301527f6e6578697374656e7420746f6b656e00000000000000000000000000000000006020830152604082019050919050565b6000613458602183613a6d565b91507f4552433732313a20617070726f76616c20746f2063757272656e74206f776e6560008301527f72000000000000000000000000000000000000000000000000000000000000006020830152604082019050919050565b60006134be603183613a6d565b91507f4552433732313a207472616e736665722063616c6c6572206973206e6f74206f60008301527f776e6572206e6f7220617070726f7665640000000000000000000000000000006020830152604082019050919050565b6000613524602483613a6d565b91507f4552433732313a2055524920736574206f66206e6f6e6578697374656e74207460008301527f6f6b656e000000000000000000000000000000000000000000000000000000006020830152604082019050919050565b600061358a602783613a6d565b91507f4552433732313a2055524920717565727920666f72206e6f6e6578697374656e60008301527f7420746f6b656e000000000000000000000000000000000000000000000000006020830152604082019050919050565b6135ec81613c3f565b82525050565b60006135fe8284612e5e565b915081905092915050565b60006136158285612e5e565b91506136218284612e5e565b91508190509392505050565b60006020820190506136426000830184612dce565b92915050565b600060808201905061365d6000830187612dce565b61366a6020830186612dce565b61367760408301856135e3565b81810360608301526136898184612dec565b905095945050505050565b60006040820190506136a96000830185612dce565b6136b660208301846135e3565b9392505050565b60006020820190506136d26000830184612ddd565b92915050565b600060208201905081810360008301526136f28184612e25565b905092915050565b6000602082019050818103600083015261371381612e8f565b9050919050565b6000602082019050818103600083015261373381612ecf565b9050919050565b6000602082019050818103600083015261375381612f0f565b9050919050565b6000602082019050818103600083015261377381612f4f565b9050919050565b6000602082019050818103600083015261379381612fb5565b9050919050565b600060208201905081810360008301526137b38161301b565b9050919050565b600060208201905081810360008301526137d38161305b565b9050919050565b600060208201905081810360008301526137f3816130c1565b9050919050565b6000602082019050818103600083015261381381613101565b9050919050565b6000602082019050818103600083015261383381613167565b9050919050565b60006020820190508181036000830152613853816131cd565b9050919050565b6000602082019050818103600083015261387381613233565b9050919050565b6000602082019050818103600083015261389381613299565b9050919050565b600060208201905081810360008301526138b3816132d9565b9050919050565b600060208201905081810360008301526138d38161333f565b9050919050565b600060208201905081810360008301526138f38161337f565b9050919050565b60006020820190508181036000830152613913816133e5565b9050919050565b600060208201905081810360008301526139338161344b565b9050919050565b60006020820190508181036000830152613953816134b1565b9050919050565b6000602082019050818103600083015261397381613517565b9050919050565b600060208201905081810360008301526139938161357d565b9050919050565b60006020820190506139af60008301846135e3565b92915050565b6000604051905081810181811067ffffffffffffffff821117156139dc576139db613dd1565b5b8060405250919050565b600067ffffffffffffffff821115613a0157613a00613dd1565b5b601f19601f8301169050602081019050919050565b600067ffffffffffffffff821115613a3157613a30613dd1565b5b601f19601f8301169050602081019050919050565b600081519050919050565b600081519050919050565b600082825260208201905092915050565b600082825260208201905092915050565b600081905092915050565b6000613a9482613c3f565b9150613a9f83613c3f565b9250827fffffffffffffffffffffffffffffffffffffffffffffffffffffffffffffffff03821115613ad457613ad3613d44565b5b828201905092915050565b6000613aea82613c49565b9150613af583613c49565b92508260ff03821115613b0b57613b0a613d44565b5b828201905092915050565b6000613b2182613c3f565b9150613b2c83613c3f565b925082613b3c57613b3b613d73565b5b828204905092915050565b6000613b5282613c3f565b9150613b5d83613c3f565b9250817fffffffffffffffffffffffffffffffffffffffffffffffffffffffffffffffff0483118215151615613b9657613b95613d44565b5b828202905092915050565b6000613bac82613c3f565b9150613bb783613c3f565b925082821015613bca57613bc9613d44565b5b828203905092915050565b6000613be082613c1f565b9050919050565b60008115159050919050565b60007fffffffff0000000000000000000000000000000000000000000000000000000082169050919050565b600073ffffffffffffffffffffffffffffffffffffffff82169050919050565b6000819050919050565b600060ff82169050919050565b82818337600083830152505050565b60005b83811015613c83578082015181840152602081019050613c68565b83811115613c92576000848401525b50505050565b60006002820490506001821680613cb057607f821691505b60208210811415613cc457613cc3613da2565b5b50919050565b6000613cd582613c3f565b91507fffffffffffffffffffffffffffffffffffffffffffffffffffffffffffffffff821415613d0857613d07613d44565b5b600182019050919050565b6000613d1e82613c3f565b9150613d2983613c3f565b925082613d3957613d38613d73565b5b828206905092915050565b7f4e487b7100000000000000000000000000000000000000000000000000000000600052601160045260246000fd5b7f4e487b7100000000000000000000000000000000000000000000000000000000600052601260045260246000fd5b7f4e487b7100000000000000000000000000000000000000000000000000000000600052602260045260246000fd5b7f4e487b7100000000000000000000000000000000000000000000000000000000600052604160045260246000fd5b6000601f19601f8301169050919050565b613e1a81613bd5565b8114613e2557600080fd5b50565b613e3181613be7565b8114613e3c57600080fd5b50565b613e4881613bf3565b8114613e5357600080fd5b50565b613e5f81613c3f565b8114613e6a57600080fd5b5056fe68747470733a2f2f697066732e696f2f697066732f516d6362716d516e333234385779746f4e504b62617050387259586d72316566566e6238743771456938614c6759a264697066735822122083702417b6257e04a1fc02db80786f5278a7ec6caab5d0571a2197ee7562f39064736f6c63430008000033",
  "immutableReferences": {},
  "source": "// SPDX-License-Identifier: MIT\r\n//pragma solidity >=0.4.22 <0.9.0;\r\npragma solidity ^0.8.0;\r\n\r\nimport \"@openzeppelin/contracts/token/ERC721/ERC721.sol\";\r\nimport \"@openzeppelin/contracts/utils/Counters.sol\";\r\nimport \"@openzeppelin/contracts/access/Ownable.sol\";\r\nimport \"./ERC2981Royalty.sol\";\r\n//TODO ADD METADATA FREEZING\r\n//TODO SOMETHING DOESNT WORK PROPERLY\r\n//TODO ADD PERCENT TO CREATOR OF CONTRACTS\r\n\r\n//https://github.com/neha01/nft-demo/blob/master/contracts/ArtCollectible.sol ref\r\n//https://forum.openzeppelin.com/t/function-settokenuri-in-erc721-is-gone-with-pragma-0-8-0/5978/3 another ref\r\ncontract Souvenir is ERC721, Ownable, ERC2981Royalty{\r\n    using Strings for uint256;\r\n    using Counters for Counters.Counter;\r\n\r\n    Counters.Counter private _tokenIds;\r\n    Counters.Counter private _numOfTokens;\r\n\r\n    // Optional mapping for token URIs\r\n    // copied from ERC721URIStorage.sol\r\n    mapping(uint256 => string) private _tokenURIs;\r\n\r\n\r\n    // mapping\r\n    // not sure if i want it or not\r\n    mapping(string => uint8) private _hashes;\r\n\r\n    // Base URI\r\n    string private _baseURIExtended = \"https://ipfs.io/ipfs/\";\r\n\r\n//    address private _royaltyRecipient = owner();\r\n    address private _royaltyRecipient;\r\n\r\n    // constructor with name and symbol of nft\r\n    constructor() ERC721(\"Souvenir\",\"SVN\"){\r\n        _royaltyRecipient = owner();\r\n    }\r\n\r\n\r\n\r\n    // write tests for this method\r\n    //what does this even do\r\n    /// @inheritdoc\tERC165\r\n    function supportsInterface(bytes4 interfaceId)\r\n    public\r\n    view\r\n    virtual\r\n    override(ERC721, ERC2981Base)\r\n    returns (bool)\r\n    {\r\n        return super.supportsInterface(interfaceId);\r\n    }\r\n\r\n\r\n    // FIX\r\n    // BROKEN CUZ OF BURN\r\n    function totalSupply() public view returns (uint256) {\r\n        return _numOfTokens.current();\r\n    }\r\n\r\n    // for opensea collection\r\n    // this is currently being used to determine which metadata(json) it uses for the NFT\r\n    function contractURI() public pure returns (string memory) {\r\n        return \"https://ipfs.io/ipfs/QmcbqmQn3248WytoNPKbapP8rYXmr1efVnb8t7qEi8aLgY\"; // collection json ipfs\r\n    }\r\n\r\n    function setBaseURI(string memory baseURI_)\r\n    external\r\n    onlyOwner\r\n    {\r\n        _baseURIExtended = baseURI_;\r\n    }\r\n\r\n    function _baseURI()\r\n    internal\r\n    view\r\n    virtual\r\n    override\r\n    returns (string memory)\r\n    {\r\n        return _baseURIExtended;\r\n    }\r\n\r\n    // memory didnt work\r\n    function setRoyaltyRecipient(address royaltyRecipient_)\r\n    external\r\n    onlyOwner\r\n    {\r\n        _royaltyRecipient = royaltyRecipient_;\r\n    }\r\n\r\n    // copied from ERC721URIStorage.sol\r\n    function _setTokenURI(uint256 tokenId, string memory _tokenURI) internal virtual {\r\n        require(_exists(tokenId), \"ERC721: URI set of nonexistent token\");\r\n        _tokenURIs[tokenId] = _tokenURI;\r\n    }\r\n\r\n    // copied from ERC721URIStorage.sol\r\n    function _burn(uint256 tokenId) internal virtual override {\r\n        super._burn(tokenId);\r\n        _numOfTokens.decrement();\r\n        if (bytes(_tokenURIs[tokenId]).length != 0) {\r\n            delete _tokenURIs[tokenId];\r\n        }\r\n    }\r\n\r\n    function burn(uint256 tokenId) public {\r\n        _burn(tokenId);\r\n    }\r\n    function royaltyRecipient() public view virtual returns (address) {\r\n        return _royaltyRecipient;\r\n    }\r\n    // copied from ERC721URIStorage.sol\r\n    function tokenURI(uint256 tokenId) public view virtual override returns (string memory) {\r\n        require(_exists(tokenId), \"ERC721: URI query for nonexistent token\");\r\n\r\n        string memory _tokenURI = _tokenURIs[tokenId];\r\n        string memory base = _baseURI();\r\n\r\n        // If there is no base URI, return the token URI.\r\n        if (bytes(base).length == 0) {\r\n            return _tokenURI;\r\n        }\r\n        // If both are set, concatenate the baseURI and tokenURI (via abi.encodePacked).\r\n        if (bytes(_tokenURI).length > 0) {\r\n            return string(abi.encodePacked(base, _tokenURI));\r\n        }\r\n\r\n        return super.tokenURI(tokenId);\r\n    }\r\n    // public or external?\r\n    /// value percentage (using 2 decimals - 10000 = 100, 0 = 0)\r\n    function mint(string memory tokenHash, uint256 royaltyAmount)\r\n    public\r\n    onlyOwner\r\n    {\r\n        _hashes[tokenHash] = _hashes[tokenHash] + 1;\r\n        _tokenIds.increment();\r\n        _numOfTokens.increment();\r\n        uint256 newTokenId = _tokenIds.current();\r\n        _safeMint(msg.sender, newTokenId);\r\n        _setTokenURI(newTokenId, tokenHash);\r\n        if (royaltyAmount > 0) {\r\n            _setTokenRoyalty(newTokenId, _royaltyRecipient, royaltyAmount);\r\n        }\r\n    }\r\n\r\n    function mintTo(string memory tokenHash, address receiver, uint256 royaltyAmount)\r\n    public\r\n    onlyOwner\r\n    {\r\n        _hashes[tokenHash] = _hashes[tokenHash] + 1;\r\n        _tokenIds.increment();\r\n        _numOfTokens.increment();\r\n        uint256 newTokenId = _tokenIds.current();\r\n        _safeMint(receiver, newTokenId);\r\n        _setTokenURI(newTokenId, tokenHash);\r\n        if (royaltyAmount > 0) {\r\n            _setTokenRoyalty(newTokenId, _royaltyRecipient, royaltyAmount);\r\n        }\r\n    }\r\n\r\n    // questionable\r\n    // mint multiple tokens\r\n    /// value percentage (using 2 decimals - 10000 = 100, 0 = 0)\r\n    function mintBatch(string memory tokenHash, uint256 numberOfTokens, uint256 royaltyAmount)\r\n    public\r\n    onlyOwner\r\n    {\r\n        require(numberOfTokens<=100, \"not more than 100 at once\");\r\n        require(_hashes[tokenHash]<=500);\r\n\r\n        for(uint256 i=0; i < numberOfTokens; i++){\r\n            _hashes[tokenHash] = _hashes[tokenHash] + 1;\r\n            _tokenIds.increment();\r\n            _numOfTokens.increment();\r\n            uint256 newTokenId = _tokenIds.current();\r\n            _safeMint(msg.sender, newTokenId);\r\n            _setTokenURI(newTokenId, tokenHash);\r\n            if (royaltyAmount > 0) {\r\n                _setTokenRoyalty(newTokenId, _royaltyRecipient, royaltyAmount);\r\n            }\r\n        }\r\n\r\n    }\r\n\r\n}",
  "sourcePath": "C:\\Users\\Joey\\Desktop\\BA\\starting-from-new\\src\\contracts\\Souvenir.sol",
  "compiler": {
    "name": "solc",
    "version": "0.8.0+commit.c7dfd78e.Emscripten.clang"
  },
  "schemaVersion": "3.4.3",
  "updatedAt": "2022-01-23T17:40:42.477Z",
  "networkType": "ethereum",
  "devdoc": {
    "kind": "dev",
    "methods": {
      "approve(address,uint256)": {
        "details": "See {IERC721-approve}."
      },
      "balanceOf(address)": {
        "details": "See {IERC721-balanceOf}."
      },
      "getApproved(uint256)": {
        "details": "See {IERC721-getApproved}."
      },
      "isApprovedForAll(address,address)": {
        "details": "See {IERC721-isApprovedForAll}."
      },
      "name()": {
        "details": "See {IERC721Metadata-name}."
      },
      "owner()": {
        "details": "Returns the address of the current owner."
      },
      "ownerOf(uint256)": {
        "details": "See {IERC721-ownerOf}."
      },
      "renounceOwnership()": {
        "details": "Leaves the contract without owner. It will not be possible to call `onlyOwner` functions anymore. Can only be called by the current owner. NOTE: Renouncing ownership will leave the contract without an owner, thereby removing any functionality that is only available to the owner."
      },
      "royaltyInfo(uint256,uint256)": {
        "params": {
          "_tokenId": "- the NFT asset queried for royalty information",
          "_value": "- the sale price of the NFT asset specified by _tokenId"
        },
        "returns": {
          "receiver": "- address of who should be sent the royalty payment",
          "royaltyAmount": "- the royalty payment amount for value sale price"
        }
      },
      "safeTransferFrom(address,address,uint256)": {
        "details": "See {IERC721-safeTransferFrom}."
      },
      "safeTransferFrom(address,address,uint256,bytes)": {
        "details": "See {IERC721-safeTransferFrom}."
      },
      "setApprovalForAll(address,bool)": {
        "details": "See {IERC721-setApprovalForAll}."
      },
      "supportsInterface(bytes4)": {
        "details": "See {IERC165-supportsInterface}."
      },
      "symbol()": {
        "details": "See {IERC721Metadata-symbol}."
      },
      "tokenURI(uint256)": {
        "details": "See {IERC721Metadata-tokenURI}."
      },
      "transferFrom(address,address,uint256)": {
        "details": "See {IERC721-transferFrom}."
      },
      "transferOwnership(address)": {
        "details": "Transfers ownership of the contract to a new account (`newOwner`). Can only be called by the current owner."
      }
    },
    "version": 1
  },
  "userdoc": {
    "kind": "user",
    "methods": {
      "mint(string,uint256)": {
        "notice": "value percentage (using 2 decimals - 10000 = 100, 0 = 0)"
      },
      "mintBatch(string,uint256,uint256)": {
        "notice": "value percentage (using 2 decimals - 10000 = 100, 0 = 0)"
      }
    },
    "version": 1
  }
}