{
  "contractName": "Souvenir",
  "abi": [
    {
      "inputs": [],
      "stateMutability": "nonpayable",
      "type": "constructor"
    },
    {
      "anonymous": false,
      "inputs": [
        {
          "indexed": true,
          "internalType": "address",
          "name": "owner",
          "type": "address"
        },
        {
          "indexed": true,
          "internalType": "address",
          "name": "approved",
          "type": "address"
        },
        {
          "indexed": true,
          "internalType": "uint256",
          "name": "tokenId",
          "type": "uint256"
        }
      ],
      "name": "Approval",
      "type": "event"
    },
    {
      "anonymous": false,
      "inputs": [
        {
          "indexed": true,
          "internalType": "address",
          "name": "owner",
          "type": "address"
        },
        {
          "indexed": true,
          "internalType": "address",
          "name": "operator",
          "type": "address"
        },
        {
          "indexed": false,
          "internalType": "bool",
          "name": "approved",
          "type": "bool"
        }
      ],
      "name": "ApprovalForAll",
      "type": "event"
    },
    {
      "anonymous": false,
      "inputs": [
        {
          "indexed": true,
          "internalType": "address",
          "name": "previousOwner",
          "type": "address"
        },
        {
          "indexed": true,
          "internalType": "address",
          "name": "newOwner",
          "type": "address"
        }
      ],
      "name": "OwnershipTransferred",
      "type": "event"
    },
    {
      "anonymous": false,
      "inputs": [
        {
          "indexed": true,
          "internalType": "address",
          "name": "from",
          "type": "address"
        },
        {
          "indexed": true,
          "internalType": "address",
          "name": "to",
          "type": "address"
        },
        {
          "indexed": true,
          "internalType": "uint256",
          "name": "tokenId",
          "type": "uint256"
        }
      ],
      "name": "Transfer",
      "type": "event"
    },
    {
      "inputs": [
        {
          "internalType": "address",
          "name": "to",
          "type": "address"
        },
        {
          "internalType": "uint256",
          "name": "tokenId",
          "type": "uint256"
        }
      ],
      "name": "approve",
      "outputs": [],
      "stateMutability": "nonpayable",
      "type": "function"
    },
    {
      "inputs": [
        {
          "internalType": "address",
          "name": "owner",
          "type": "address"
        }
      ],
      "name": "balanceOf",
      "outputs": [
        {
          "internalType": "uint256",
          "name": "",
          "type": "uint256"
        }
      ],
      "stateMutability": "view",
      "type": "function"
    },
    {
      "inputs": [
        {
          "internalType": "uint256",
          "name": "tokenId",
          "type": "uint256"
        }
      ],
      "name": "getApproved",
      "outputs": [
        {
          "internalType": "address",
          "name": "",
          "type": "address"
        }
      ],
      "stateMutability": "view",
      "type": "function"
    },
    {
      "inputs": [
        {
          "internalType": "address",
          "name": "owner",
          "type": "address"
        },
        {
          "internalType": "address",
          "name": "operator",
          "type": "address"
        }
      ],
      "name": "isApprovedForAll",
      "outputs": [
        {
          "internalType": "bool",
          "name": "",
          "type": "bool"
        }
      ],
      "stateMutability": "view",
      "type": "function"
    },
    {
      "inputs": [],
      "name": "name",
      "outputs": [
        {
          "internalType": "string",
          "name": "",
          "type": "string"
        }
      ],
      "stateMutability": "view",
      "type": "function"
    },
    {
      "inputs": [],
      "name": "owner",
      "outputs": [
        {
          "internalType": "address",
          "name": "",
          "type": "address"
        }
      ],
      "stateMutability": "view",
      "type": "function"
    },
    {
      "inputs": [
        {
          "internalType": "uint256",
          "name": "tokenId",
          "type": "uint256"
        }
      ],
      "name": "ownerOf",
      "outputs": [
        {
          "internalType": "address",
          "name": "",
          "type": "address"
        }
      ],
      "stateMutability": "view",
      "type": "function"
    },
    {
      "inputs": [],
      "name": "renounceOwnership",
      "outputs": [],
      "stateMutability": "nonpayable",
      "type": "function"
    },
    {
      "inputs": [
        {
          "internalType": "uint256",
          "name": "tokenId",
          "type": "uint256"
        },
        {
          "internalType": "uint256",
          "name": "value",
          "type": "uint256"
        }
      ],
      "name": "royaltyInfo",
      "outputs": [
        {
          "internalType": "address",
          "name": "receiver",
          "type": "address"
        },
        {
          "internalType": "uint256",
          "name": "royaltyAmount",
          "type": "uint256"
        }
      ],
      "stateMutability": "view",
      "type": "function"
    },
    {
      "inputs": [
        {
          "internalType": "address",
          "name": "from",
          "type": "address"
        },
        {
          "internalType": "address",
          "name": "to",
          "type": "address"
        },
        {
          "internalType": "uint256",
          "name": "tokenId",
          "type": "uint256"
        }
      ],
      "name": "safeTransferFrom",
      "outputs": [],
      "stateMutability": "nonpayable",
      "type": "function"
    },
    {
      "inputs": [
        {
          "internalType": "address",
          "name": "from",
          "type": "address"
        },
        {
          "internalType": "address",
          "name": "to",
          "type": "address"
        },
        {
          "internalType": "uint256",
          "name": "tokenId",
          "type": "uint256"
        },
        {
          "internalType": "bytes",
          "name": "_data",
          "type": "bytes"
        }
      ],
      "name": "safeTransferFrom",
      "outputs": [],
      "stateMutability": "nonpayable",
      "type": "function"
    },
    {
      "inputs": [
        {
          "internalType": "address",
          "name": "operator",
          "type": "address"
        },
        {
          "internalType": "bool",
          "name": "approved",
          "type": "bool"
        }
      ],
      "name": "setApprovalForAll",
      "outputs": [],
      "stateMutability": "nonpayable",
      "type": "function"
    },
    {
      "inputs": [],
      "name": "symbol",
      "outputs": [
        {
          "internalType": "string",
          "name": "",
          "type": "string"
        }
      ],
      "stateMutability": "view",
      "type": "function"
    },
    {
      "inputs": [
        {
          "internalType": "address",
          "name": "from",
          "type": "address"
        },
        {
          "internalType": "address",
          "name": "to",
          "type": "address"
        },
        {
          "internalType": "uint256",
          "name": "tokenId",
          "type": "uint256"
        }
      ],
      "name": "transferFrom",
      "outputs": [],
      "stateMutability": "nonpayable",
      "type": "function"
    },
    {
      "inputs": [
        {
          "internalType": "address",
          "name": "newOwner",
          "type": "address"
        }
      ],
      "name": "transferOwnership",
      "outputs": [],
      "stateMutability": "nonpayable",
      "type": "function"
    },
    {
      "inputs": [
        {
          "internalType": "bytes4",
          "name": "interfaceId",
          "type": "bytes4"
        }
      ],
      "name": "supportsInterface",
      "outputs": [
        {
          "internalType": "bool",
          "name": "",
          "type": "bool"
        }
      ],
      "stateMutability": "view",
      "type": "function"
    },
    {
      "inputs": [],
      "name": "totalSupply",
      "outputs": [
        {
          "internalType": "uint256",
          "name": "",
          "type": "uint256"
        }
      ],
      "stateMutability": "view",
      "type": "function"
    },
    {
      "inputs": [],
      "name": "contractURI",
      "outputs": [
        {
          "internalType": "string",
          "name": "",
          "type": "string"
        }
      ],
      "stateMutability": "pure",
      "type": "function"
    },
    {
      "inputs": [
        {
          "internalType": "string",
          "name": "baseURI_",
          "type": "string"
        }
      ],
      "name": "setBaseURI",
      "outputs": [],
      "stateMutability": "nonpayable",
      "type": "function"
    },
    {
      "inputs": [
        {
          "internalType": "address",
          "name": "royaltyRecipient_",
          "type": "address"
        }
      ],
      "name": "setRoyaltyRecipient",
      "outputs": [],
      "stateMutability": "nonpayable",
      "type": "function"
    },
    {
      "inputs": [
        {
          "internalType": "uint256",
          "name": "tokenId",
          "type": "uint256"
        }
      ],
      "name": "burn",
      "outputs": [],
      "stateMutability": "nonpayable",
      "type": "function"
    },
    {
      "inputs": [],
      "name": "royaltyRecipient",
      "outputs": [
        {
          "internalType": "address",
          "name": "",
          "type": "address"
        }
      ],
      "stateMutability": "view",
      "type": "function"
    },
    {
      "inputs": [
        {
          "internalType": "uint256",
          "name": "tokenId",
          "type": "uint256"
        }
      ],
      "name": "tokenURI",
      "outputs": [
        {
          "internalType": "string",
          "name": "",
          "type": "string"
        }
      ],
      "stateMutability": "view",
      "type": "function"
    },
    {
      "inputs": [
        {
          "internalType": "string",
          "name": "tokenHash",
          "type": "string"
        },
        {
          "internalType": "uint256",
          "name": "numberOfTokens",
          "type": "uint256"
        },
        {
          "internalType": "uint256",
          "name": "royaltyAmount",
          "type": "uint256"
        }
      ],
      "name": "mint",
      "outputs": [],
      "stateMutability": "nonpayable",
      "type": "function"
    },
    {
      "inputs": [
        {
          "internalType": "string",
          "name": "tokenHash",
          "type": "string"
        },
        {
          "internalType": "address",
          "name": "receiver",
          "type": "address"
        },
        {
          "internalType": "uint256",
          "name": "royaltyAmount",
          "type": "uint256"
        }
      ],
      "name": "mintTo",
      "outputs": [],
      "stateMutability": "nonpayable",
      "type": "function"
    }
  ],
  "bytecode": "0x60806040526040518060400160405280600781526020017f697066733a2f2f00000000000000000000000000000000000000000000000000815250600c9080519060200190620000519291906200026e565b503480156200005f57600080fd5b506040518060400160405280600881526020017f536f7576656e69720000000000000000000000000000000000000000000000008152506040518060400160405280600381526020017f53564e00000000000000000000000000000000000000000000000000000000008152508160009080519060200190620000e49291906200026e565b508060019080519060200190620000fd9291906200026e565b50505062000120620001146200017660201b60201c565b6200017e60201b60201c565b620001306200024460201b60201c565b600d60006101000a81548173ffffffffffffffffffffffffffffffffffffffff021916908373ffffffffffffffffffffffffffffffffffffffff16021790555062000383565b600033905090565b6000600660009054906101000a900473ffffffffffffffffffffffffffffffffffffffff16905081600660006101000a81548173ffffffffffffffffffffffffffffffffffffffff021916908373ffffffffffffffffffffffffffffffffffffffff1602179055508173ffffffffffffffffffffffffffffffffffffffff168173ffffffffffffffffffffffffffffffffffffffff167f8be0079c531659141344cd1fd0a4f28419497f9722a3daafe3b4186f6b6457e060405160405180910390a35050565b6000600660009054906101000a900473ffffffffffffffffffffffffffffffffffffffff16905090565b8280546200027c906200031e565b90600052602060002090601f016020900481019282620002a05760008555620002ec565b82601f10620002bb57805160ff1916838001178555620002ec565b82800160010185558215620002ec579182015b82811115620002eb578251825591602001919060010190620002ce565b5b509050620002fb9190620002ff565b5090565b5b808211156200031a57600081600090555060010162000300565b5090565b600060028204905060018216806200033757607f821691505b602082108114156200034e576200034d62000354565b5b50919050565b7f4e487b7100000000000000000000000000000000000000000000000000000000600052602260045260246000fd5b613d6f80620003936000396000f3fe608060405234801561001057600080fd5b50600436106101735760003560e01c806355f804b3116100de5780639895e6f711610097578063c87b56dd11610071578063c87b56dd14610421578063e8a3d48514610451578063e985e9c51461046f578063f2fde38b1461049f57610173565b80639895e6f7146103cd578063a22cb465146103e9578063b88d4fde1461040557610173565b806355f804b31461030b5780636352211e1461032757806370a0823114610357578063715018a6146103875780638da5cb5b1461039157806395d89b41146103af57610173565b806323b872dd1161013057806323b872dd1461024c5780632a55205a1461026857806341e42f301461029957806342842e0e146102b557806342966c68146102d15780634c00de82146102ed57610173565b806301ffc9a71461017857806306fdde03146101a8578063081812fc146101c6578063095ea7b3146101f657806318160ddd146102125780631c635ded14610230575b600080fd5b610192600480360381019061018d9190612a9f565b6104bb565b60405161019f9190613554565b60405180910390f35b6101b06104cd565b6040516101bd919061356f565b60405180910390f35b6101e060048036038101906101db9190612c00565b61055f565b6040516101ed91906134c4565b60405180910390f35b610210600480360381019061020b9190612a63565b6105e4565b005b61021a6106fc565b6040516102279190613831565b60405180910390f35b61024a60048036038101906102459190612b99565b61070d565b005b6102666004803603810190610261919061295d565b61090c565b005b610282600480360381019061027d9190612c29565b61096c565b60405161029092919061352b565b60405180910390f35b6102b360048036038101906102ae91906128f8565b610a3d565b005b6102cf60048036038101906102ca919061295d565b610afd565b005b6102eb60048036038101906102e69190612c00565b610b1d565b005b6102f5610ba5565b60405161030291906134c4565b60405180910390f35b61032560048036038101906103209190612af1565b610bcf565b005b610341600480360381019061033c9190612c00565b610c65565b60405161034e91906134c4565b60405180910390f35b610371600480360381019061036c91906128f8565b610d17565b60405161037e9190613831565b60405180910390f35b61038f610dcf565b005b610399610e57565b6040516103a691906134c4565b60405180910390f35b6103b7610e81565b6040516103c4919061356f565b60405180910390f35b6103e760048036038101906103e29190612b32565b610f13565b005b61040360048036038101906103fe9190612a27565b611070565b005b61041f600480360381019061041a91906129ac565b611086565b005b61043b60048036038101906104369190612c00565b6110e8565b604051610448919061356f565b60405180910390f35b61045961123a565b604051610466919061356f565b60405180910390f35b61048960048036038101906104849190612921565b61125a565b6040516104969190613554565b60405180910390f35b6104b960048036038101906104b491906128f8565b6112ee565b005b60006104c6826113e6565b9050919050565b6060600080546104dc90613b2f565b80601f016020809104026020016040519081016040528092919081815260200182805461050890613b2f565b80156105555780601f1061052a57610100808354040283529160200191610555565b820191906000526020600020905b81548152906001019060200180831161053857829003601f168201915b5050505050905090565b600061056a82611460565b6105a9576040517f08c379a00000000000000000000000000000000000000000000000000000000081526004016105a090613711565b60405180910390fd5b6004600083815260200190815260200160002060009054906101000a900473ffffffffffffffffffffffffffffffffffffffff169050919050565b60006105ef82610c65565b90508073ffffffffffffffffffffffffffffffffffffffff168373ffffffffffffffffffffffffffffffffffffffff161415610660576040517f08c379a000000000000000000000000000000000000000000000000000000000815260040161065790613791565b60405180910390fd5b8073ffffffffffffffffffffffffffffffffffffffff1661067f6114cc565b73ffffffffffffffffffffffffffffffffffffffff1614806106ae57506106ad816106a86114cc565b61125a565b5b6106ed576040517f08c379a00000000000000000000000000000000000000000000000000000000081526004016106e490613691565b60405180910390fd5b6106f783836114d4565b505050565b6000610708600961158d565b905090565b6107156114cc565b73ffffffffffffffffffffffffffffffffffffffff16610733610e57565b73ffffffffffffffffffffffffffffffffffffffff1614610789576040517f08c379a000000000000000000000000000000000000000000000000000000000815260040161078090613731565b60405180910390fd5b60148211156107cd576040517f08c379a00000000000000000000000000000000000000000000000000000000081526004016107c4906137b1565b60405180910390fd5b606460ff16600b846040516107e29190613489565b908152602001604051809103902060009054906101000a900460ff1660ff16111561080c57600080fd5b60005b82811015610906576001600b856040516108299190613489565b908152602001604051809103902060009054906101000a900460ff1661084f9190613976565b600b8560405161085f9190613489565b908152602001604051809103902060006101000a81548160ff021916908360ff16021790555061088f600861159b565b610899600961159b565b60006108a5600861158d565b90506108b133826115b1565b6108bb81866115cf565b60008311156108f2576108f181600d60009054906101000a900473ffffffffffffffffffffffffffffffffffffffff1685611643565b5b5080806108fe90613b61565b91505061080f565b50505050565b61091d6109176114cc565b8261173f565b61095c576040517f08c379a0000000000000000000000000000000000000000000000000000000008152600401610953906137d1565b60405180910390fd5b61096783838361181d565b505050565b6000806000600760008681526020019081526020016000206040518060400160405290816000820160009054906101000a900473ffffffffffffffffffffffffffffffffffffffff1673ffffffffffffffffffffffffffffffffffffffff1673ffffffffffffffffffffffffffffffffffffffff1681526020016000820160149054906101000a900462ffffff1662ffffff1662ffffff1681525050905080600001519250612710816020015162ffffff1685610a2991906139de565b610a3391906139ad565b9150509250929050565b610a456114cc565b73ffffffffffffffffffffffffffffffffffffffff16610a63610e57565b73ffffffffffffffffffffffffffffffffffffffff1614610ab9576040517f08c379a0000000000000000000000000000000000000000000000000000000008152600401610ab090613731565b60405180910390fd5b80600d60006101000a81548173ffffffffffffffffffffffffffffffffffffffff021916908373ffffffffffffffffffffffffffffffffffffffff16021790555050565b610b1883838360405180602001604052806000815250611086565b505050565b610b256114cc565b73ffffffffffffffffffffffffffffffffffffffff16610b43610e57565b73ffffffffffffffffffffffffffffffffffffffff1614610b99576040517f08c379a0000000000000000000000000000000000000000000000000000000008152600401610b9090613731565b60405180910390fd5b610ba281611a79565b50565b6000600d60009054906101000a900473ffffffffffffffffffffffffffffffffffffffff16905090565b610bd76114cc565b73ffffffffffffffffffffffffffffffffffffffff16610bf5610e57565b73ffffffffffffffffffffffffffffffffffffffff1614610c4b576040517f08c379a0000000000000000000000000000000000000000000000000000000008152600401610c4290613731565b60405180910390fd5b80600c9080519060200190610c619291906126dc565b5050565b6000806002600084815260200190815260200160002060009054906101000a900473ffffffffffffffffffffffffffffffffffffffff169050600073ffffffffffffffffffffffffffffffffffffffff168173ffffffffffffffffffffffffffffffffffffffff161415610d0e576040517f08c379a0000000000000000000000000000000000000000000000000000000008152600401610d05906136d1565b60405180910390fd5b80915050919050565b60008073ffffffffffffffffffffffffffffffffffffffff168273ffffffffffffffffffffffffffffffffffffffff161415610d88576040517f08c379a0000000000000000000000000000000000000000000000000000000008152600401610d7f906136b1565b60405180910390fd5b600360008373ffffffffffffffffffffffffffffffffffffffff1673ffffffffffffffffffffffffffffffffffffffff168152602001908152602001600020549050919050565b610dd76114cc565b73ffffffffffffffffffffffffffffffffffffffff16610df5610e57565b73ffffffffffffffffffffffffffffffffffffffff1614610e4b576040517f08c379a0000000000000000000000000000000000000000000000000000000008152600401610e4290613731565b60405180910390fd5b610e556000611ad6565b565b6000600660009054906101000a900473ffffffffffffffffffffffffffffffffffffffff16905090565b606060018054610e9090613b2f565b80601f0160208091040260200160405190810160405280929190818152602001828054610ebc90613b2f565b8015610f095780601f10610ede57610100808354040283529160200191610f09565b820191906000526020600020905b815481529060010190602001808311610eec57829003601f168201915b5050505050905090565b610f1b6114cc565b73ffffffffffffffffffffffffffffffffffffffff16610f39610e57565b73ffffffffffffffffffffffffffffffffffffffff1614610f8f576040517f08c379a0000000000000000000000000000000000000000000000000000000008152600401610f8690613731565b60405180910390fd5b6001600b84604051610fa19190613489565b908152602001604051809103902060009054906101000a900460ff16610fc79190613976565b600b84604051610fd79190613489565b908152602001604051809103902060006101000a81548160ff021916908360ff160217905550611007600861159b565b611011600961159b565b600061101d600861158d565b905061102983826115b1565b61103381856115cf565b600082111561106a5761106981600d60009054906101000a900473ffffffffffffffffffffffffffffffffffffffff1684611643565b5b50505050565b61108261107b6114cc565b8383611b9c565b5050565b6110976110916114cc565b8361173f565b6110d6576040517f08c379a00000000000000000000000000000000000000000000000000000000081526004016110cd906137d1565b60405180910390fd5b6110e284848484611d09565b50505050565b60606110f382611460565b611132576040517f08c379a000000000000000000000000000000000000000000000000000000000815260040161112990613811565b60405180910390fd5b6000600a6000848152602001908152602001600020805461115290613b2f565b80601f016020809104026020016040519081016040528092919081815260200182805461117e90613b2f565b80156111cb5780601f106111a0576101008083540402835291602001916111cb565b820191906000526020600020905b8154815290600101906020018083116111ae57829003601f168201915b5050505050905060006111dc611d65565b90506000815114156111f2578192505050611235565b60008251111561122757808260405160200161120f9291906134a0565b60405160208183030381529060405292505050611235565b61123084611df7565b925050505b919050565b6060604051806060016040528060358152602001613d0560359139905090565b6000600560008473ffffffffffffffffffffffffffffffffffffffff1673ffffffffffffffffffffffffffffffffffffffff16815260200190815260200160002060008373ffffffffffffffffffffffffffffffffffffffff1673ffffffffffffffffffffffffffffffffffffffff16815260200190815260200160002060009054906101000a900460ff16905092915050565b6112f66114cc565b73ffffffffffffffffffffffffffffffffffffffff16611314610e57565b73ffffffffffffffffffffffffffffffffffffffff161461136a576040517f08c379a000000000000000000000000000000000000000000000000000000000815260040161136190613731565b60405180910390fd5b600073ffffffffffffffffffffffffffffffffffffffff168173ffffffffffffffffffffffffffffffffffffffff1614156113da576040517f08c379a00000000000000000000000000000000000000000000000000000000081526004016113d1906135f1565b60405180910390fd5b6113e381611ad6565b50565b60007f2a55205a000000000000000000000000000000000000000000000000000000007bffffffffffffffffffffffffffffffffffffffffffffffffffffffff1916827bffffffffffffffffffffffffffffffffffffffffffffffffffffffff19161480611459575061145882611e9e565b5b9050919050565b60008073ffffffffffffffffffffffffffffffffffffffff166002600084815260200190815260200160002060009054906101000a900473ffffffffffffffffffffffffffffffffffffffff1673ffffffffffffffffffffffffffffffffffffffff1614159050919050565b600033905090565b816004600083815260200190815260200160002060006101000a81548173ffffffffffffffffffffffffffffffffffffffff021916908373ffffffffffffffffffffffffffffffffffffffff160217905550808273ffffffffffffffffffffffffffffffffffffffff1661154783610c65565b73ffffffffffffffffffffffffffffffffffffffff167f8c5be1e5ebec7d5bd14f71427d1e84f3dd0314c0f7b2291e5b200ac8c7c3b92560405160405180910390a45050565b600081600001549050919050565b6001816000016000828254019250508190555050565b6115cb828260405180602001604052806000815250611f80565b5050565b6115d882611460565b611617576040517f08c379a000000000000000000000000000000000000000000000000000000000815260040161160e906137f1565b60405180910390fd5b80600a6000848152602001908152602001600020908051906020019061163e9291906126dc565b505050565b612710811115611688576040517f08c379a000000000000000000000000000000000000000000000000000000000815260040161167f90613591565b60405180910390fd5b60405180604001604052808373ffffffffffffffffffffffffffffffffffffffff1681526020018262ffffff168152506007600085815260200190815260200160002060008201518160000160006101000a81548173ffffffffffffffffffffffffffffffffffffffff021916908373ffffffffffffffffffffffffffffffffffffffff16021790555060208201518160000160146101000a81548162ffffff021916908362ffffff160217905550905050505050565b600061174a82611460565b611789576040517f08c379a000000000000000000000000000000000000000000000000000000000815260040161178090613671565b60405180910390fd5b600061179483610c65565b90508073ffffffffffffffffffffffffffffffffffffffff168473ffffffffffffffffffffffffffffffffffffffff16148061180357508373ffffffffffffffffffffffffffffffffffffffff166117eb8461055f565b73ffffffffffffffffffffffffffffffffffffffff16145b806118145750611813818561125a565b5b91505092915050565b8273ffffffffffffffffffffffffffffffffffffffff1661183d82610c65565b73ffffffffffffffffffffffffffffffffffffffff1614611893576040517f08c379a000000000000000000000000000000000000000000000000000000000815260040161188a90613751565b60405180910390fd5b600073ffffffffffffffffffffffffffffffffffffffff168273ffffffffffffffffffffffffffffffffffffffff161415611903576040517f08c379a00000000000000000000000000000000000000000000000000000000081526004016118fa90613631565b60405180910390fd5b61190e838383611fdb565b6119196000826114d4565b6001600360008573ffffffffffffffffffffffffffffffffffffffff1673ffffffffffffffffffffffffffffffffffffffff16815260200190815260200160002060008282546119699190613a38565b925050819055506001600360008473ffffffffffffffffffffffffffffffffffffffff1673ffffffffffffffffffffffffffffffffffffffff16815260200190815260200160002060008282546119c09190613920565b92505081905550816002600083815260200190815260200160002060006101000a81548173ffffffffffffffffffffffffffffffffffffffff021916908373ffffffffffffffffffffffffffffffffffffffff160217905550808273ffffffffffffffffffffffffffffffffffffffff168473ffffffffffffffffffffffffffffffffffffffff167fddf252ad1be2c89b69c2b068fc378daa952ba7f163c4a11628f55a4df523b3ef60405160405180910390a4505050565b611a8281611fe0565b611a8c60096120f1565b6000600a60008381526020019081526020016000208054611aac90613b2f565b905014611ad357600a60008281526020019081526020016000206000611ad29190612762565b5b50565b6000600660009054906101000a900473ffffffffffffffffffffffffffffffffffffffff16905081600660006101000a81548173ffffffffffffffffffffffffffffffffffffffff021916908373ffffffffffffffffffffffffffffffffffffffff1602179055508173ffffffffffffffffffffffffffffffffffffffff168173ffffffffffffffffffffffffffffffffffffffff167f8be0079c531659141344cd1fd0a4f28419497f9722a3daafe3b4186f6b6457e060405160405180910390a35050565b8173ffffffffffffffffffffffffffffffffffffffff168373ffffffffffffffffffffffffffffffffffffffff161415611c0b576040517f08c379a0000000000000000000000000000000000000000000000000000000008152600401611c0290613651565b60405180910390fd5b80600560008573ffffffffffffffffffffffffffffffffffffffff1673ffffffffffffffffffffffffffffffffffffffff16815260200190815260200160002060008473ffffffffffffffffffffffffffffffffffffffff1673ffffffffffffffffffffffffffffffffffffffff16815260200190815260200160002060006101000a81548160ff0219169083151502179055508173ffffffffffffffffffffffffffffffffffffffff168373ffffffffffffffffffffffffffffffffffffffff167f17307eab39ab6107e8899845ad3d59bd9653f200f220920489ca2b5937696c3183604051611cfc9190613554565b60405180910390a3505050565b611d1484848461181d565b611d208484848461214d565b611d5f576040517f08c379a0000000000000000000000000000000000000000000000000000000008152600401611d56906135d1565b60405180910390fd5b50505050565b6060600c8054611d7490613b2f565b80601f0160208091040260200160405190810160405280929190818152602001828054611da090613b2f565b8015611ded5780601f10611dc257610100808354040283529160200191611ded565b820191906000526020600020905b815481529060010190602001808311611dd057829003601f168201915b5050505050905090565b6060611e0282611460565b611e41576040517f08c379a0000000000000000000000000000000000000000000000000000000008152600401611e3890613771565b60405180910390fd5b6000611e4b611d65565b90506000815111611e6b5760405180602001604052806000815250611e96565b80611e75846122e4565b604051602001611e869291906134a0565b6040516020818303038152906040525b915050919050565b60007f80ac58cd000000000000000000000000000000000000000000000000000000007bffffffffffffffffffffffffffffffffffffffffffffffffffffffff1916827bffffffffffffffffffffffffffffffffffffffffffffffffffffffff19161480611f6957507f5b5e139f000000000000000000000000000000000000000000000000000000007bffffffffffffffffffffffffffffffffffffffffffffffffffffffff1916827bffffffffffffffffffffffffffffffffffffffffffffffffffffffff1916145b80611f795750611f7882612491565b5b9050919050565b611f8a83836124fb565b611f97600084848461214d565b611fd6576040517f08c379a0000000000000000000000000000000000000000000000000000000008152600401611fcd906135d1565b60405180910390fd5b505050565b505050565b6000611feb82610c65565b9050611ff981600084611fdb565b6120046000836114d4565b6001600360008373ffffffffffffffffffffffffffffffffffffffff1673ffffffffffffffffffffffffffffffffffffffff16815260200190815260200160002060008282546120549190613a38565b925050819055506002600083815260200190815260200160002060006101000a81549073ffffffffffffffffffffffffffffffffffffffff021916905581600073ffffffffffffffffffffffffffffffffffffffff168273ffffffffffffffffffffffffffffffffffffffff167fddf252ad1be2c89b69c2b068fc378daa952ba7f163c4a11628f55a4df523b3ef60405160405180910390a45050565b6000816000015490506000811161213d576040517f08c379a0000000000000000000000000000000000000000000000000000000008152600401612134906135b1565b60405180910390fd5b6001810382600001819055505050565b600061216e8473ffffffffffffffffffffffffffffffffffffffff166126c9565b156122d7578373ffffffffffffffffffffffffffffffffffffffff1663150b7a026121976114cc565b8786866040518563ffffffff1660e01b81526004016121b994939291906134df565b602060405180830381600087803b1580156121d357600080fd5b505af192505050801561220457506040513d601f19601f820116820180604052508101906122019190612ac8565b60015b612287573d8060008114612234576040519150601f19603f3d011682016040523d82523d6000602084013e612239565b606091505b5060008151141561227f576040517f08c379a0000000000000000000000000000000000000000000000000000000008152600401612276906135d1565b60405180910390fd5b805181602001fd5b63150b7a0260e01b7bffffffffffffffffffffffffffffffffffffffffffffffffffffffff1916817bffffffffffffffffffffffffffffffffffffffffffffffffffffffff1916149150506122dc565b600190505b949350505050565b6060600082141561232c576040518060400160405280600181526020017f3000000000000000000000000000000000000000000000000000000000000000815250905061248c565b600082905060005b6000821461235e57808061234790613b61565b915050600a8261235791906139ad565b9150612334565b60008167ffffffffffffffff8111156123a0577f4e487b7100000000000000000000000000000000000000000000000000000000600052604160045260246000fd5b6040519080825280601f01601f1916602001820160405280156123d25781602001600182028036833780820191505090505b5090505b60008514612485576001826123eb9190613a38565b9150600a856123fa9190613baa565b60306124069190613920565b60f81b818381518110612442577f4e487b7100000000000000000000000000000000000000000000000000000000600052603260045260246000fd5b60200101907effffffffffffffffffffffffffffffffffffffffffffffffffffffffffffff1916908160001a905350600a8561247e91906139ad565b94506123d6565b8093505050505b919050565b60007f01ffc9a7000000000000000000000000000000000000000000000000000000007bffffffffffffffffffffffffffffffffffffffffffffffffffffffff1916827bffffffffffffffffffffffffffffffffffffffffffffffffffffffff1916149050919050565b600073ffffffffffffffffffffffffffffffffffffffff168273ffffffffffffffffffffffffffffffffffffffff16141561256b576040517f08c379a0000000000000000000000000000000000000000000000000000000008152600401612562906136f1565b60405180910390fd5b61257481611460565b156125b4576040517f08c379a00000000000000000000000000000000000000000000000000000000081526004016125ab90613611565b60405180910390fd5b6125c060008383611fdb565b6001600360008473ffffffffffffffffffffffffffffffffffffffff1673ffffffffffffffffffffffffffffffffffffffff16815260200190815260200160002060008282546126109190613920565b92505081905550816002600083815260200190815260200160002060006101000a81548173ffffffffffffffffffffffffffffffffffffffff021916908373ffffffffffffffffffffffffffffffffffffffff160217905550808273ffffffffffffffffffffffffffffffffffffffff16600073ffffffffffffffffffffffffffffffffffffffff167fddf252ad1be2c89b69c2b068fc378daa952ba7f163c4a11628f55a4df523b3ef60405160405180910390a45050565b600080823b905060008111915050919050565b8280546126e890613b2f565b90600052602060002090601f01602090048101928261270a5760008555612751565b82601f1061272357805160ff1916838001178555612751565b82800160010185558215612751579182015b82811115612750578251825591602001919060010190612735565b5b50905061275e91906127a2565b5090565b50805461276e90613b2f565b6000825580601f10612780575061279f565b601f01602090049060005260206000209081019061279e91906127a2565b5b50565b5b808211156127bb5760008160009055506001016127a3565b5090565b60006127d26127cd8461387d565b61384c565b9050828152602081018484840111156127ea57600080fd5b6127f5848285613aed565b509392505050565b600061281061280b846138ad565b61384c565b90508281526020810184848401111561282857600080fd5b612833848285613aed565b509392505050565b60008135905061284a81613ca8565b92915050565b60008135905061285f81613cbf565b92915050565b60008135905061287481613cd6565b92915050565b60008151905061288981613cd6565b92915050565b600082601f8301126128a057600080fd5b81356128b08482602086016127bf565b91505092915050565b600082601f8301126128ca57600080fd5b81356128da8482602086016127fd565b91505092915050565b6000813590506128f281613ced565b92915050565b60006020828403121561290a57600080fd5b60006129188482850161283b565b91505092915050565b6000806040838503121561293457600080fd5b60006129428582860161283b565b92505060206129538582860161283b565b9150509250929050565b60008060006060848603121561297257600080fd5b60006129808682870161283b565b93505060206129918682870161283b565b92505060406129a2868287016128e3565b9150509250925092565b600080600080608085870312156129c257600080fd5b60006129d08782880161283b565b94505060206129e18782880161283b565b93505060406129f2878288016128e3565b925050606085013567ffffffffffffffff811115612a0f57600080fd5b612a1b8782880161288f565b91505092959194509250565b60008060408385031215612a3a57600080fd5b6000612a488582860161283b565b9250506020612a5985828601612850565b9150509250929050565b60008060408385031215612a7657600080fd5b6000612a848582860161283b565b9250506020612a95858286016128e3565b9150509250929050565b600060208284031215612ab157600080fd5b6000612abf84828501612865565b91505092915050565b600060208284031215612ada57600080fd5b6000612ae88482850161287a565b91505092915050565b600060208284031215612b0357600080fd5b600082013567ffffffffffffffff811115612b1d57600080fd5b612b29848285016128b9565b91505092915050565b600080600060608486031215612b4757600080fd5b600084013567ffffffffffffffff811115612b6157600080fd5b612b6d868287016128b9565b9350506020612b7e8682870161283b565b9250506040612b8f868287016128e3565b9150509250925092565b600080600060608486031215612bae57600080fd5b600084013567ffffffffffffffff811115612bc857600080fd5b612bd4868287016128b9565b9350506020612be5868287016128e3565b9250506040612bf6868287016128e3565b9150509250925092565b600060208284031215612c1257600080fd5b6000612c20848285016128e3565b91505092915050565b60008060408385031215612c3c57600080fd5b6000612c4a858286016128e3565b9250506020612c5b858286016128e3565b9150509250929050565b612c6e81613a6c565b82525050565b612c7d81613a7e565b82525050565b6000612c8e826138dd565b612c9881856138f3565b9350612ca8818560208601613afc565b612cb181613c97565b840191505092915050565b6000612cc7826138e8565b612cd18185613904565b9350612ce1818560208601613afc565b612cea81613c97565b840191505092915050565b6000612d00826138e8565b612d0a8185613915565b9350612d1a818560208601613afc565b80840191505092915050565b6000612d33601a83613904565b91507f45524332393831526f79616c746965733a20546f6f20686967680000000000006000830152602082019050919050565b6000612d73601b83613904565b91507f436f756e7465723a2064656372656d656e74206f766572666c6f7700000000006000830152602082019050919050565b6000612db3603283613904565b91507f4552433732313a207472616e7366657220746f206e6f6e20455243373231526560008301527f63656976657220696d706c656d656e74657200000000000000000000000000006020830152604082019050919050565b6000612e19602683613904565b91507f4f776e61626c653a206e6577206f776e657220697320746865207a65726f206160008301527f64647265737300000000000000000000000000000000000000000000000000006020830152604082019050919050565b6000612e7f601c83613904565b91507f4552433732313a20746f6b656e20616c7265616479206d696e746564000000006000830152602082019050919050565b6000612ebf602483613904565b91507f4552433732313a207472616e7366657220746f20746865207a65726f2061646460008301527f72657373000000000000000000000000000000000000000000000000000000006020830152604082019050919050565b6000612f25601983613904565b91507f4552433732313a20617070726f766520746f2063616c6c6572000000000000006000830152602082019050919050565b6000612f65602c83613904565b91507f4552433732313a206f70657261746f7220717565727920666f72206e6f6e657860008301527f697374656e7420746f6b656e00000000000000000000000000000000000000006020830152604082019050919050565b6000612fcb603883613904565b91507f4552433732313a20617070726f76652063616c6c6572206973206e6f74206f7760008301527f6e6572206e6f7220617070726f76656420666f7220616c6c00000000000000006020830152604082019050919050565b6000613031602a83613904565b91507f4552433732313a2062616c616e636520717565727920666f7220746865207a6560008301527f726f2061646472657373000000000000000000000000000000000000000000006020830152604082019050919050565b6000613097602983613904565b91507f4552433732313a206f776e657220717565727920666f72206e6f6e657869737460008301527f656e7420746f6b656e00000000000000000000000000000000000000000000006020830152604082019050919050565b60006130fd602083613904565b91507f4552433732313a206d696e7420746f20746865207a65726f20616464726573736000830152602082019050919050565b600061313d602c83613904565b91507f4552433732313a20617070726f76656420717565727920666f72206e6f6e657860008301527f697374656e7420746f6b656e00000000000000000000000000000000000000006020830152604082019050919050565b60006131a3602083613904565b91507f4f776e61626c653a2063616c6c6572206973206e6f7420746865206f776e65726000830152602082019050919050565b60006131e3602983613904565b91507f4552433732313a207472616e73666572206f6620746f6b656e2074686174206960008301527f73206e6f74206f776e00000000000000000000000000000000000000000000006020830152604082019050919050565b6000613249602f83613904565b91507f4552433732314d657461646174613a2055524920717565727920666f72206e6f60008301527f6e6578697374656e7420746f6b656e00000000000000000000000000000000006020830152604082019050919050565b60006132af602183613904565b91507f4552433732313a20617070726f76616c20746f2063757272656e74206f776e6560008301527f72000000000000000000000000000000000000000000000000000000000000006020830152604082019050919050565b6000613315601883613904565b91507f6e6f74206d6f7265207468616e203230206174206f6e636500000000000000006000830152602082019050919050565b6000613355603183613904565b91507f4552433732313a207472616e736665722063616c6c6572206973206e6f74206f60008301527f776e6572206e6f7220617070726f7665640000000000000000000000000000006020830152604082019050919050565b60006133bb602483613904565b91507f4552433732313a2055524920736574206f66206e6f6e6578697374656e74207460008301527f6f6b656e000000000000000000000000000000000000000000000000000000006020830152604082019050919050565b6000613421602783613904565b91507f4552433732313a2055524920717565727920666f72206e6f6e6578697374656e60008301527f7420746f6b656e000000000000000000000000000000000000000000000000006020830152604082019050919050565b61348381613ad6565b82525050565b60006134958284612cf5565b915081905092915050565b60006134ac8285612cf5565b91506134b88284612cf5565b91508190509392505050565b60006020820190506134d96000830184612c65565b92915050565b60006080820190506134f46000830187612c65565b6135016020830186612c65565b61350e604083018561347a565b81810360608301526135208184612c83565b905095945050505050565b60006040820190506135406000830185612c65565b61354d602083018461347a565b9392505050565b60006020820190506135696000830184612c74565b92915050565b600060208201905081810360008301526135898184612cbc565b905092915050565b600060208201905081810360008301526135aa81612d26565b9050919050565b600060208201905081810360008301526135ca81612d66565b9050919050565b600060208201905081810360008301526135ea81612da6565b9050919050565b6000602082019050818103600083015261360a81612e0c565b9050919050565b6000602082019050818103600083015261362a81612e72565b9050919050565b6000602082019050818103600083015261364a81612eb2565b9050919050565b6000602082019050818103600083015261366a81612f18565b9050919050565b6000602082019050818103600083015261368a81612f58565b9050919050565b600060208201905081810360008301526136aa81612fbe565b9050919050565b600060208201905081810360008301526136ca81613024565b9050919050565b600060208201905081810360008301526136ea8161308a565b9050919050565b6000602082019050818103600083015261370a816130f0565b9050919050565b6000602082019050818103600083015261372a81613130565b9050919050565b6000602082019050818103600083015261374a81613196565b9050919050565b6000602082019050818103600083015261376a816131d6565b9050919050565b6000602082019050818103600083015261378a8161323c565b9050919050565b600060208201905081810360008301526137aa816132a2565b9050919050565b600060208201905081810360008301526137ca81613308565b9050919050565b600060208201905081810360008301526137ea81613348565b9050919050565b6000602082019050818103600083015261380a816133ae565b9050919050565b6000602082019050818103600083015261382a81613414565b9050919050565b6000602082019050613846600083018461347a565b92915050565b6000604051905081810181811067ffffffffffffffff8211171561387357613872613c68565b5b8060405250919050565b600067ffffffffffffffff82111561389857613897613c68565b5b601f19601f8301169050602081019050919050565b600067ffffffffffffffff8211156138c8576138c7613c68565b5b601f19601f8301169050602081019050919050565b600081519050919050565b600081519050919050565b600082825260208201905092915050565b600082825260208201905092915050565b600081905092915050565b600061392b82613ad6565b915061393683613ad6565b9250827fffffffffffffffffffffffffffffffffffffffffffffffffffffffffffffffff0382111561396b5761396a613bdb565b5b828201905092915050565b600061398182613ae0565b915061398c83613ae0565b92508260ff038211156139a2576139a1613bdb565b5b828201905092915050565b60006139b882613ad6565b91506139c383613ad6565b9250826139d3576139d2613c0a565b5b828204905092915050565b60006139e982613ad6565b91506139f483613ad6565b9250817fffffffffffffffffffffffffffffffffffffffffffffffffffffffffffffffff0483118215151615613a2d57613a2c613bdb565b5b828202905092915050565b6000613a4382613ad6565b9150613a4e83613ad6565b925082821015613a6157613a60613bdb565b5b828203905092915050565b6000613a7782613ab6565b9050919050565b60008115159050919050565b60007fffffffff0000000000000000000000000000000000000000000000000000000082169050919050565b600073ffffffffffffffffffffffffffffffffffffffff82169050919050565b6000819050919050565b600060ff82169050919050565b82818337600083830152505050565b60005b83811015613b1a578082015181840152602081019050613aff565b83811115613b29576000848401525b50505050565b60006002820490506001821680613b4757607f821691505b60208210811415613b5b57613b5a613c39565b5b50919050565b6000613b6c82613ad6565b91507fffffffffffffffffffffffffffffffffffffffffffffffffffffffffffffffff821415613b9f57613b9e613bdb565b5b600182019050919050565b6000613bb582613ad6565b9150613bc083613ad6565b925082613bd057613bcf613c0a565b5b828206905092915050565b7f4e487b7100000000000000000000000000000000000000000000000000000000600052601160045260246000fd5b7f4e487b7100000000000000000000000000000000000000000000000000000000600052601260045260246000fd5b7f4e487b7100000000000000000000000000000000000000000000000000000000600052602260045260246000fd5b7f4e487b7100000000000000000000000000000000000000000000000000000000600052604160045260246000fd5b6000601f19601f8301169050919050565b613cb181613a6c565b8114613cbc57600080fd5b50565b613cc881613a7e565b8114613cd357600080fd5b50565b613cdf81613a8a565b8114613cea57600080fd5b50565b613cf681613ad6565b8114613d0157600080fd5b5056fe697066733a2f2f516d506573436431634a786e6241696b6a616f4c79345548694c5a7166776273436156567a62536d335a5679414aa26469706673582212209d863c509a6a0e859eb48291ec9506d46ffa43394e2b877225084e3be844cf3664736f6c63430008000033",
  "immutableReferences": {},
  "source": "// SPDX-License-Identifier: MIT\r\n//pragma solidity >=0.4.22 <0.9.0;\r\npragma solidity ^0.8.0;\r\n\r\nimport \"@openzeppelin/contracts/token/ERC721/ERC721.sol\";\r\nimport \"@openzeppelin/contracts/utils/Counters.sol\";\r\nimport \"@openzeppelin/contracts/access/Ownable.sol\";\r\nimport \"./ERC2981Royalty.sol\";\r\n\r\n//TODO ADD METADATA FREEZING\r\n\r\n//https://github.com/neha01/nft-demo/blob/master/contracts/ArtCollectible.sol ref\r\n//https://forum.openzeppelin.com/t/function-settokenuri-in-erc721-is-gone-with-pragma-0-8-0/5978/3 another ref\r\ncontract Souvenir is ERC721, Ownable, ERC2981Royalty{\r\n    using Strings for uint256;\r\n    using Counters for Counters.Counter;\r\n\r\n    Counters.Counter private _tokenIds;\r\n    Counters.Counter private _numOfTokens;\r\n\r\n    // copied from ERC721URIStorage.sol\r\n    // mapping between tokenURIs and tokenIDs\r\n    mapping(uint256 => string) private _tokenURIs;\r\n\r\n    // used to regulate how many copies of one NFT should exist\r\n    mapping(string => uint8) private _hashes;\r\n\r\n    // amount of possible copies of one NFT\r\n    uint8 private constant AMOUNT_OF_COPIES = 100;\r\n\r\n    // Base URI\r\n    string private _baseURIExtended = \"ipfs://\";\r\n\r\n    // address that receives royalty fees\r\n    address private _royaltyRecipient;\r\n\r\n    // constructor with name and symbol of nft\r\n    // setting the owner to receive royalties\r\n    constructor() ERC721(\"Souvenir\",\"SVN\"){\r\n        _royaltyRecipient = owner();\r\n    }\r\n\r\n\r\n\r\n    // function to validate interfaces\r\n    // used by marketplaces and other smart contracts in order to figure out if the contract followed the standards\r\n    function supportsInterface(bytes4 interfaceId)\r\n    public\r\n    view\r\n    virtual\r\n    override(ERC721, ERC2981Base)\r\n    returns (bool)\r\n    {\r\n        return super.supportsInterface(interfaceId);\r\n    }\r\n\r\n    // returns the amount of total NFTs minted (created)\r\n    function totalSupply() public view returns (uint256) {\r\n        return _numOfTokens.current();\r\n    }\r\n\r\n    // collection representation\r\n    // marketplaces use this function in order to assign the NFT-tokens to this collection\r\n    // pure is a keyword, which ensures that the function doesnt view nor modify the state\r\n    function contractURI() public pure returns (string memory) {\r\n        return \"ipfs://QmPesCd1cJxnbAikjaoLy4UHiLZqfwbsCaVVzbSm3ZVyAJ\"; // collection json ipfs\r\n    }\r\n\r\n    // setter for baseURI\r\n    // default is \"ipfs://\"\r\n    function setBaseURI(string memory baseURI_)\r\n    external\r\n    onlyOwner\r\n    {\r\n        _baseURIExtended = baseURI_;\r\n    }\r\n\r\n\r\n    // view is a keyword, which ensures that the function can view but not modify the state\r\n    function _baseURI()\r\n    internal\r\n    view\r\n    virtual\r\n    override\r\n    returns (string memory)\r\n    {\r\n        return _baseURIExtended;\r\n    }\r\n\r\n    // setter for royalty recipient\r\n    function setRoyaltyRecipient(address royaltyRecipient_)\r\n    external\r\n    onlyOwner\r\n    {\r\n        _royaltyRecipient = royaltyRecipient_;\r\n    }\r\n\r\n    // copied from ERC721URIStorage.sol\r\n    // internal setter for TokenURI\r\n    function _setTokenURI(uint256 tokenId, string memory _tokenURI) internal virtual {\r\n        require(_exists(tokenId), \"ERC721: URI set of nonexistent token\");\r\n        _tokenURIs[tokenId] = _tokenURI;\r\n    }\r\n\r\n    // copied from ERC721URIStorage.sol\r\n    // internal burn _function\r\n    function _burn(uint256 tokenId) internal virtual override {\r\n        super._burn(tokenId);\r\n        _numOfTokens.decrement();\r\n        if (bytes(_tokenURIs[tokenId]).length != 0) {\r\n            delete _tokenURIs[tokenId];\r\n        }\r\n    }\r\n\r\n    // burns (destroys) a token.\r\n    function burn(uint256 tokenId) public onlyOwner{\r\n        _burn(tokenId);\r\n    }\r\n    //royalty recipient getter\r\n    function royaltyRecipient() public view virtual returns (address) {\r\n        return _royaltyRecipient;\r\n    }\r\n\r\n    // copied from ERC721URIStorage.sol\r\n    // tokenURI getter\r\n    function tokenURI(uint256 tokenId) public view virtual override returns (string memory) {\r\n        require(_exists(tokenId), \"ERC721: URI query for nonexistent token\");\r\n\r\n        string memory _tokenURI = _tokenURIs[tokenId];\r\n        string memory base = _baseURI();\r\n\r\n        // If there is no base URI, return the token URI.\r\n        if (bytes(base).length == 0) {\r\n            return _tokenURI;\r\n        }\r\n        // If both are set, concatenate the baseURI and tokenURI (via abi.encodePacked).\r\n        if (bytes(_tokenURI).length > 0) {\r\n            return string(abi.encodePacked(base, _tokenURI));\r\n        }\r\n\r\n        return super.tokenURI(tokenId);\r\n    }\r\n\r\n\r\n    // mints \"numberOfTokens\" to account who called this function.\r\n    // value percentage (using 2 decimals - 10000 = 100, 0 = 0)\r\n    // numberOfTokens limited to 20 at once\r\n    // max copies of one nft is 100\r\n    function mint(string memory tokenHash, uint256 numberOfTokens, uint256 royaltyAmount)\r\n    external\r\n    onlyOwner\r\n    {\r\n        require(numberOfTokens<=20, \"not more than 20 at once\");\r\n        require(_hashes[tokenHash]<=AMOUNT_OF_COPIES);\r\n\r\n        for(uint256 i=0; i < numberOfTokens; i++){\r\n            _hashes[tokenHash] = _hashes[tokenHash] + 1;\r\n            _tokenIds.increment();\r\n            _numOfTokens.increment();\r\n            uint256 newTokenId = _tokenIds.current();\r\n            _safeMint(msg.sender, newTokenId);\r\n            _setTokenURI(newTokenId, tokenHash);\r\n            if (royaltyAmount > 0) {\r\n                _setTokenRoyalty(newTokenId, _royaltyRecipient, royaltyAmount);\r\n            }\r\n        }\r\n\r\n    }\r\n\r\n    // mints nft to 'receiver'\r\n    function mintTo(string memory tokenHash, address receiver, uint256 royaltyAmount)\r\n    external\r\n    onlyOwner\r\n    {\r\n        _hashes[tokenHash] = _hashes[tokenHash] + 1;\r\n        _tokenIds.increment();\r\n        _numOfTokens.increment();\r\n        uint256 newTokenId = _tokenIds.current();\r\n        _safeMint(receiver, newTokenId);\r\n        _setTokenURI(newTokenId, tokenHash);\r\n        if (royaltyAmount > 0) {\r\n            _setTokenRoyalty(newTokenId, _royaltyRecipient, royaltyAmount);\r\n        }\r\n    }\r\n\r\n\r\n}",
  "sourcePath": "C:\\Users\\Joey\\Desktop\\BA\\souvenir-minter\\src\\contracts\\Souvenir.sol",
  "compiler": {
    "name": "solc",
    "version": "0.8.0+commit.c7dfd78e.Emscripten.clang"
  },
  "schemaVersion": "3.4.3",
  "updatedAt": "2022-01-31T15:22:23.898Z",
  "devdoc": {
    "kind": "dev",
    "methods": {
      "approve(address,uint256)": {
        "details": "See {IERC721-approve}."
      },
      "balanceOf(address)": {
        "details": "See {IERC721-balanceOf}."
      },
      "getApproved(uint256)": {
        "details": "See {IERC721-getApproved}."
      },
      "isApprovedForAll(address,address)": {
        "details": "See {IERC721-isApprovedForAll}."
      },
      "name()": {
        "details": "See {IERC721Metadata-name}."
      },
      "owner()": {
        "details": "Returns the address of the current owner."
      },
      "ownerOf(uint256)": {
        "details": "See {IERC721-ownerOf}."
      },
      "renounceOwnership()": {
        "details": "Leaves the contract without owner. It will not be possible to call `onlyOwner` functions anymore. Can only be called by the current owner. NOTE: Renouncing ownership will leave the contract without an owner, thereby removing any functionality that is only available to the owner."
      },
      "royaltyInfo(uint256,uint256)": {
        "params": {
          "_tokenId": "- the NFT asset queried for royalty information",
          "_value": "- the sale price of the NFT asset specified by _tokenId"
        },
        "returns": {
          "receiver": "- address of who should be sent the royalty payment",
          "royaltyAmount": "- the royalty payment amount for value sale price"
        }
      },
      "safeTransferFrom(address,address,uint256)": {
        "details": "See {IERC721-safeTransferFrom}."
      },
      "safeTransferFrom(address,address,uint256,bytes)": {
        "details": "See {IERC721-safeTransferFrom}."
      },
      "setApprovalForAll(address,bool)": {
        "details": "See {IERC721-setApprovalForAll}."
      },
      "symbol()": {
        "details": "See {IERC721Metadata-symbol}."
      },
      "tokenURI(uint256)": {
        "details": "See {IERC721Metadata-tokenURI}."
      },
      "transferFrom(address,address,uint256)": {
        "details": "See {IERC721-transferFrom}."
      },
      "transferOwnership(address)": {
        "details": "Transfers ownership of the contract to a new account (`newOwner`). Can only be called by the current owner."
      }
    },
    "version": 1
  },
  "userdoc": {
    "kind": "user",
    "methods": {},
    "version": 1
  }
}