{
  "contractName": "Souvenir",
  "abi": [
    {
      "inputs": [],
      "stateMutability": "nonpayable",
      "type": "constructor"
    },
    {
      "anonymous": false,
      "inputs": [
        {
          "indexed": true,
          "internalType": "address",
          "name": "owner",
          "type": "address"
        },
        {
          "indexed": true,
          "internalType": "address",
          "name": "approved",
          "type": "address"
        },
        {
          "indexed": true,
          "internalType": "uint256",
          "name": "tokenId",
          "type": "uint256"
        }
      ],
      "name": "Approval",
      "type": "event"
    },
    {
      "anonymous": false,
      "inputs": [
        {
          "indexed": true,
          "internalType": "address",
          "name": "owner",
          "type": "address"
        },
        {
          "indexed": true,
          "internalType": "address",
          "name": "operator",
          "type": "address"
        },
        {
          "indexed": false,
          "internalType": "bool",
          "name": "approved",
          "type": "bool"
        }
      ],
      "name": "ApprovalForAll",
      "type": "event"
    },
    {
      "anonymous": false,
      "inputs": [
        {
          "indexed": true,
          "internalType": "address",
          "name": "previousOwner",
          "type": "address"
        },
        {
          "indexed": true,
          "internalType": "address",
          "name": "newOwner",
          "type": "address"
        }
      ],
      "name": "OwnershipTransferred",
      "type": "event"
    },
    {
      "anonymous": false,
      "inputs": [
        {
          "indexed": true,
          "internalType": "address",
          "name": "from",
          "type": "address"
        },
        {
          "indexed": true,
          "internalType": "address",
          "name": "to",
          "type": "address"
        },
        {
          "indexed": true,
          "internalType": "uint256",
          "name": "tokenId",
          "type": "uint256"
        }
      ],
      "name": "Transfer",
      "type": "event"
    },
    {
      "inputs": [
        {
          "internalType": "address",
          "name": "to",
          "type": "address"
        },
        {
          "internalType": "uint256",
          "name": "tokenId",
          "type": "uint256"
        }
      ],
      "name": "approve",
      "outputs": [],
      "stateMutability": "nonpayable",
      "type": "function"
    },
    {
      "inputs": [
        {
          "internalType": "address",
          "name": "owner",
          "type": "address"
        }
      ],
      "name": "balanceOf",
      "outputs": [
        {
          "internalType": "uint256",
          "name": "",
          "type": "uint256"
        }
      ],
      "stateMutability": "view",
      "type": "function",
      "constant": true
    },
    {
      "inputs": [
        {
          "internalType": "uint256",
          "name": "tokenId",
          "type": "uint256"
        }
      ],
      "name": "getApproved",
      "outputs": [
        {
          "internalType": "address",
          "name": "",
          "type": "address"
        }
      ],
      "stateMutability": "view",
      "type": "function",
      "constant": true
    },
    {
      "inputs": [
        {
          "internalType": "address",
          "name": "owner",
          "type": "address"
        },
        {
          "internalType": "address",
          "name": "operator",
          "type": "address"
        }
      ],
      "name": "isApprovedForAll",
      "outputs": [
        {
          "internalType": "bool",
          "name": "",
          "type": "bool"
        }
      ],
      "stateMutability": "view",
      "type": "function",
      "constant": true
    },
    {
      "inputs": [],
      "name": "name",
      "outputs": [
        {
          "internalType": "string",
          "name": "",
          "type": "string"
        }
      ],
      "stateMutability": "view",
      "type": "function",
      "constant": true
    },
    {
      "inputs": [],
      "name": "owner",
      "outputs": [
        {
          "internalType": "address",
          "name": "",
          "type": "address"
        }
      ],
      "stateMutability": "view",
      "type": "function",
      "constant": true
    },
    {
      "inputs": [
        {
          "internalType": "uint256",
          "name": "tokenId",
          "type": "uint256"
        }
      ],
      "name": "ownerOf",
      "outputs": [
        {
          "internalType": "address",
          "name": "",
          "type": "address"
        }
      ],
      "stateMutability": "view",
      "type": "function",
      "constant": true
    },
    {
      "inputs": [],
      "name": "renounceOwnership",
      "outputs": [],
      "stateMutability": "nonpayable",
      "type": "function"
    },
    {
      "inputs": [
        {
          "internalType": "uint256",
          "name": "tokenId",
          "type": "uint256"
        },
        {
          "internalType": "uint256",
          "name": "value",
          "type": "uint256"
        }
      ],
      "name": "royaltyInfo",
      "outputs": [
        {
          "internalType": "address",
          "name": "receiver",
          "type": "address"
        },
        {
          "internalType": "uint256",
          "name": "royaltyAmount",
          "type": "uint256"
        }
      ],
      "stateMutability": "view",
      "type": "function",
      "constant": true
    },
    {
      "inputs": [
        {
          "internalType": "address",
          "name": "from",
          "type": "address"
        },
        {
          "internalType": "address",
          "name": "to",
          "type": "address"
        },
        {
          "internalType": "uint256",
          "name": "tokenId",
          "type": "uint256"
        }
      ],
      "name": "safeTransferFrom",
      "outputs": [],
      "stateMutability": "nonpayable",
      "type": "function"
    },
    {
      "inputs": [
        {
          "internalType": "address",
          "name": "from",
          "type": "address"
        },
        {
          "internalType": "address",
          "name": "to",
          "type": "address"
        },
        {
          "internalType": "uint256",
          "name": "tokenId",
          "type": "uint256"
        },
        {
          "internalType": "bytes",
          "name": "_data",
          "type": "bytes"
        }
      ],
      "name": "safeTransferFrom",
      "outputs": [],
      "stateMutability": "nonpayable",
      "type": "function"
    },
    {
      "inputs": [
        {
          "internalType": "address",
          "name": "operator",
          "type": "address"
        },
        {
          "internalType": "bool",
          "name": "approved",
          "type": "bool"
        }
      ],
      "name": "setApprovalForAll",
      "outputs": [],
      "stateMutability": "nonpayable",
      "type": "function"
    },
    {
      "inputs": [],
      "name": "symbol",
      "outputs": [
        {
          "internalType": "string",
          "name": "",
          "type": "string"
        }
      ],
      "stateMutability": "view",
      "type": "function",
      "constant": true
    },
    {
      "inputs": [
        {
          "internalType": "address",
          "name": "from",
          "type": "address"
        },
        {
          "internalType": "address",
          "name": "to",
          "type": "address"
        },
        {
          "internalType": "uint256",
          "name": "tokenId",
          "type": "uint256"
        }
      ],
      "name": "transferFrom",
      "outputs": [],
      "stateMutability": "nonpayable",
      "type": "function"
    },
    {
      "inputs": [
        {
          "internalType": "address",
          "name": "newOwner",
          "type": "address"
        }
      ],
      "name": "transferOwnership",
      "outputs": [],
      "stateMutability": "nonpayable",
      "type": "function"
    },
    {
      "inputs": [
        {
          "internalType": "bytes4",
          "name": "interfaceId",
          "type": "bytes4"
        }
      ],
      "name": "supportsInterface",
      "outputs": [
        {
          "internalType": "bool",
          "name": "",
          "type": "bool"
        }
      ],
      "stateMutability": "view",
      "type": "function",
      "constant": true
    },
    {
      "inputs": [],
      "name": "totalSupply",
      "outputs": [
        {
          "internalType": "uint256",
          "name": "",
          "type": "uint256"
        }
      ],
      "stateMutability": "view",
      "type": "function",
      "constant": true
    },
    {
      "inputs": [],
      "name": "contractURI",
      "outputs": [
        {
          "internalType": "string",
          "name": "",
          "type": "string"
        }
      ],
      "stateMutability": "pure",
      "type": "function",
      "constant": true
    },
    {
      "inputs": [
        {
          "internalType": "string",
          "name": "baseURI_",
          "type": "string"
        }
      ],
      "name": "setBaseURI",
      "outputs": [],
      "stateMutability": "nonpayable",
      "type": "function"
    },
    {
      "inputs": [
        {
          "internalType": "address",
          "name": "royaltyRecipient_",
          "type": "address"
        }
      ],
      "name": "setRoyaltyRecipient",
      "outputs": [],
      "stateMutability": "nonpayable",
      "type": "function"
    },
    {
      "inputs": [
        {
          "internalType": "uint256",
          "name": "tokenId",
          "type": "uint256"
        }
      ],
      "name": "burn",
      "outputs": [],
      "stateMutability": "nonpayable",
      "type": "function"
    },
    {
      "inputs": [],
      "name": "royaltyRecipient",
      "outputs": [
        {
          "internalType": "address",
          "name": "",
          "type": "address"
        }
      ],
      "stateMutability": "view",
      "type": "function",
      "constant": true
    },
    {
      "inputs": [
        {
          "internalType": "uint256",
          "name": "tokenId",
          "type": "uint256"
        }
      ],
      "name": "tokenURI",
      "outputs": [
        {
          "internalType": "string",
          "name": "",
          "type": "string"
        }
      ],
      "stateMutability": "view",
      "type": "function",
      "constant": true
    },
    {
      "inputs": [
        {
          "internalType": "string",
          "name": "tokenHash",
          "type": "string"
        },
        {
          "internalType": "uint256",
          "name": "royaltyAmount",
          "type": "uint256"
        }
      ],
      "name": "mint",
      "outputs": [],
      "stateMutability": "nonpayable",
      "type": "function"
    },
    {
      "inputs": [
        {
          "internalType": "string",
          "name": "tokenHash",
          "type": "string"
        },
        {
          "internalType": "address",
          "name": "receiver",
          "type": "address"
        }
      ],
      "name": "mintTo",
      "outputs": [],
      "stateMutability": "nonpayable",
      "type": "function"
    },
    {
      "inputs": [
        {
          "internalType": "string",
          "name": "tokenHash",
          "type": "string"
        },
        {
          "internalType": "uint256",
          "name": "numberOfTokens",
          "type": "uint256"
        }
      ],
      "name": "mintBatch",
      "outputs": [],
      "stateMutability": "nonpayable",
      "type": "function"
    }
  ],
  "bytecode": "0x60806040526040518060400160405280601581526020017f68747470733a2f2f697066732e696f2f697066732f0000000000000000000000815250600b9080519060200190620000519291906200026e565b503480156200005f57600080fd5b506040518060400160405280600881526020017f536f7576656e69720000000000000000000000000000000000000000000000008152506040518060400160405280600381526020017f53564e00000000000000000000000000000000000000000000000000000000008152508160009080519060200190620000e49291906200026e565b508060019080519060200190620000fd9291906200026e565b50505062000120620001146200017660201b60201c565b6200017e60201b60201c565b620001306200024460201b60201c565b600c60006101000a81548173ffffffffffffffffffffffffffffffffffffffff021916908373ffffffffffffffffffffffffffffffffffffffff16021790555062000383565b600033905090565b6000600660009054906101000a900473ffffffffffffffffffffffffffffffffffffffff16905081600660006101000a81548173ffffffffffffffffffffffffffffffffffffffff021916908373ffffffffffffffffffffffffffffffffffffffff1602179055508173ffffffffffffffffffffffffffffffffffffffff168173ffffffffffffffffffffffffffffffffffffffff167f8be0079c531659141344cd1fd0a4f28419497f9722a3daafe3b4186f6b6457e060405160405180910390a35050565b6000600660009054906101000a900473ffffffffffffffffffffffffffffffffffffffff16905090565b8280546200027c906200031e565b90600052602060002090601f016020900481019282620002a05760008555620002ec565b82601f10620002bb57805160ff1916838001178555620002ec565b82800160010185558215620002ec579182015b82811115620002eb578251825591602001919060010190620002ce565b5b509050620002fb9190620002ff565b5090565b5b808211156200031a57600081600090555060010162000300565b5090565b600060028204905060018216806200033757607f821691505b602082108114156200034e576200034d62000354565b5b50919050565b7f4e487b7100000000000000000000000000000000000000000000000000000000600052602260045260246000fd5b613d1780620003936000396000f3fe608060405234801561001057600080fd5b506004361061018e5760003560e01c80636352211e116100de578063ac37cf5311610097578063e8a3d48511610071578063e8a3d4851461046c578063e985e9c51461048a578063f2fde38b146104ba578063fe42a2d9146104d65761018e565b8063ac37cf5314610404578063b88d4fde14610420578063c87b56dd1461043c5761018e565b80636352211e1461034257806370a0823114610372578063715018a6146103a25780638da5cb5b146103ac57806395d89b41146103ca578063a22cb465146103e85761018e565b806323b872dd1161014b57806342842e0e1161012557806342842e0e146102d057806342966c68146102ec5780634c00de821461030857806355f804b3146103265761018e565b806323b872dd146102675780632a55205a1461028357806341e42f30146102b45761018e565b806301ffc9a714610193578063056b01ce146101c357806306fdde03146101df578063081812fc146101fd578063095ea7b31461022d57806318160ddd14610249575b600080fd5b6101ad60048036038101906101a89190612abf565b6104f2565b6040516101ba919061350e565b60405180910390f35b6101dd60048036038101906101d89190612ba6565b610504565b005b6101e7610656565b6040516101f49190613529565b60405180910390f35b61021760048036038101906102129190612bfa565b6106e8565b604051610224919061347e565b60405180910390f35b61024760048036038101906102429190612a83565b61076d565b005b610251610885565b60405161025e91906137cb565b60405180910390f35b610281600480360381019061027c919061297d565b610896565b005b61029d60048036038101906102989190612c23565b6108f6565b6040516102ab9291906134e5565b60405180910390f35b6102ce60048036038101906102c99190612918565b6109c7565b005b6102ea60048036038101906102e5919061297d565b610a87565b005b61030660048036038101906103019190612bfa565b610aa7565b005b610310610ab3565b60405161031d919061347e565b60405180910390f35b610340600480360381019061033b9190612b11565b610add565b005b61035c60048036038101906103579190612bfa565b610b73565b604051610369919061347e565b60405180910390f35b61038c60048036038101906103879190612918565b610c25565b60405161039991906137cb565b60405180910390f35b6103aa610cdd565b005b6103b4610d65565b6040516103c1919061347e565b60405180910390f35b6103d2610d8f565b6040516103df9190613529565b60405180910390f35b61040260048036038101906103fd9190612a47565b610e21565b005b61041e60048036038101906104199190612ba6565b610e37565b005b61043a600480360381019061043591906129cc565b610ff1565b005b61045660048036038101906104519190612bfa565b611053565b6040516104639190613529565b60405180910390f35b6104746111a5565b6040516104819190613529565b60405180910390f35b6104a4600480360381019061049f9190612941565b6111c5565b6040516104b1919061350e565b60405180910390f35b6104d460048036038101906104cf9190612918565b611259565b005b6104f060048036038101906104eb9190612b52565b611351565b005b60006104fd8261146c565b9050919050565b61050c6114e6565b73ffffffffffffffffffffffffffffffffffffffff1661052a610d65565b73ffffffffffffffffffffffffffffffffffffffff1614610580576040517f08c379a0000000000000000000000000000000000000000000000000000000008152600401610577906136eb565b60405180910390fd5b6001600a836040516105929190613443565b908152602001604051809103902060009054906101000a900460ff166105b89190613910565b600a836040516105c89190613443565b908152602001604051809103902060006101000a81548160ff021916908360ff1602179055506105f860086114ee565b60006106046008611504565b90506106103382611512565b61061a8184611530565b60008211156106515761065081600c60009054906101000a900473ffffffffffffffffffffffffffffffffffffffff16846115a4565b5b505050565b60606000805461066590613ac9565b80601f016020809104026020016040519081016040528092919081815260200182805461069190613ac9565b80156106de5780601f106106b3576101008083540402835291602001916106de565b820191906000526020600020905b8154815290600101906020018083116106c157829003601f168201915b5050505050905090565b60006106f3826116a0565b610732576040517f08c379a0000000000000000000000000000000000000000000000000000000008152600401610729906136cb565b60405180910390fd5b6004600083815260200190815260200160002060009054906101000a900473ffffffffffffffffffffffffffffffffffffffff169050919050565b600061077882610b73565b90508073ffffffffffffffffffffffffffffffffffffffff168373ffffffffffffffffffffffffffffffffffffffff1614156107e9576040517f08c379a00000000000000000000000000000000000000000000000000000000081526004016107e09061374b565b60405180910390fd5b8073ffffffffffffffffffffffffffffffffffffffff166108086114e6565b73ffffffffffffffffffffffffffffffffffffffff1614806108375750610836816108316114e6565b6111c5565b5b610876576040517f08c379a000000000000000000000000000000000000000000000000000000000815260040161086d9061364b565b60405180910390fd5b610880838361170c565b505050565b60006108916008611504565b905090565b6108a76108a16114e6565b826117c5565b6108e6576040517f08c379a00000000000000000000000000000000000000000000000000000000081526004016108dd9061376b565b60405180910390fd5b6108f18383836118a3565b505050565b6000806000600760008681526020019081526020016000206040518060400160405290816000820160009054906101000a900473ffffffffffffffffffffffffffffffffffffffff1673ffffffffffffffffffffffffffffffffffffffff1673ffffffffffffffffffffffffffffffffffffffff1681526020016000820160149054906101000a900462ffffff1662ffffff1662ffffff1681525050905080600001519250612710816020015162ffffff16856109b39190613978565b6109bd9190613947565b9150509250929050565b6109cf6114e6565b73ffffffffffffffffffffffffffffffffffffffff166109ed610d65565b73ffffffffffffffffffffffffffffffffffffffff1614610a43576040517f08c379a0000000000000000000000000000000000000000000000000000000008152600401610a3a906136eb565b60405180910390fd5b80600c60006101000a81548173ffffffffffffffffffffffffffffffffffffffff021916908373ffffffffffffffffffffffffffffffffffffffff16021790555050565b610aa283838360405180602001604052806000815250610ff1565b505050565b610ab081611aff565b50565b6000600c60009054906101000a900473ffffffffffffffffffffffffffffffffffffffff16905090565b610ae56114e6565b73ffffffffffffffffffffffffffffffffffffffff16610b03610d65565b73ffffffffffffffffffffffffffffffffffffffff1614610b59576040517f08c379a0000000000000000000000000000000000000000000000000000000008152600401610b50906136eb565b60405180910390fd5b80600b9080519060200190610b6f9291906126fc565b5050565b6000806002600084815260200190815260200160002060009054906101000a900473ffffffffffffffffffffffffffffffffffffffff169050600073ffffffffffffffffffffffffffffffffffffffff168173ffffffffffffffffffffffffffffffffffffffff161415610c1c576040517f08c379a0000000000000000000000000000000000000000000000000000000008152600401610c139061368b565b60405180910390fd5b80915050919050565b60008073ffffffffffffffffffffffffffffffffffffffff168273ffffffffffffffffffffffffffffffffffffffff161415610c96576040517f08c379a0000000000000000000000000000000000000000000000000000000008152600401610c8d9061366b565b60405180910390fd5b600360008373ffffffffffffffffffffffffffffffffffffffff1673ffffffffffffffffffffffffffffffffffffffff168152602001908152602001600020549050919050565b610ce56114e6565b73ffffffffffffffffffffffffffffffffffffffff16610d03610d65565b73ffffffffffffffffffffffffffffffffffffffff1614610d59576040517f08c379a0000000000000000000000000000000000000000000000000000000008152600401610d50906136eb565b60405180910390fd5b610d636000611b52565b565b6000600660009054906101000a900473ffffffffffffffffffffffffffffffffffffffff16905090565b606060018054610d9e90613ac9565b80601f0160208091040260200160405190810160405280929190818152602001828054610dca90613ac9565b8015610e175780601f10610dec57610100808354040283529160200191610e17565b820191906000526020600020905b815481529060010190602001808311610dfa57829003601f168201915b5050505050905090565b610e33610e2c6114e6565b8383611c18565b5050565b610e3f6114e6565b73ffffffffffffffffffffffffffffffffffffffff16610e5d610d65565b73ffffffffffffffffffffffffffffffffffffffff1614610eb3576040517f08c379a0000000000000000000000000000000000000000000000000000000008152600401610eaa906136eb565b60405180910390fd5b600a811115610ef7576040517f08c379a0000000000000000000000000000000000000000000000000000000008152600401610eee9061362b565b60405180910390fd5b6064600a83604051610f099190613443565b908152602001604051809103902060009054906101000a900460ff1660ff161115610f3357600080fd5b60005b81811015610fec576001600a84604051610f509190613443565b908152602001604051809103902060009054906101000a900460ff16610f769190613910565b600a84604051610f869190613443565b908152602001604051809103902060006101000a81548160ff021916908360ff160217905550610fb660086114ee565b6000610fc26008611504565b9050610fce3382611512565b610fd88185611530565b508080610fe490613afb565b915050610f36565b505050565b611002610ffc6114e6565b836117c5565b611041576040517f08c379a00000000000000000000000000000000000000000000000000000000081526004016110389061376b565b60405180910390fd5b61104d84848484611d85565b50505050565b606061105e826116a0565b61109d576040517f08c379a0000000000000000000000000000000000000000000000000000000008152600401611094906137ab565b60405180910390fd5b60006009600084815260200190815260200160002080546110bd90613ac9565b80601f01602080910402602001604051908101604052809291908181526020018280546110e990613ac9565b80156111365780601f1061110b57610100808354040283529160200191611136565b820191906000526020600020905b81548152906001019060200180831161111957829003601f168201915b505050505090506000611147611de1565b905060008151141561115d5781925050506111a0565b60008251111561119257808260405160200161117a92919061345a565b604051602081830303815290604052925050506111a0565b61119b84611e73565b925050505b919050565b6060604051806080016040528060438152602001613c9f60439139905090565b6000600560008473ffffffffffffffffffffffffffffffffffffffff1673ffffffffffffffffffffffffffffffffffffffff16815260200190815260200160002060008373ffffffffffffffffffffffffffffffffffffffff1673ffffffffffffffffffffffffffffffffffffffff16815260200190815260200160002060009054906101000a900460ff16905092915050565b6112616114e6565b73ffffffffffffffffffffffffffffffffffffffff1661127f610d65565b73ffffffffffffffffffffffffffffffffffffffff16146112d5576040517f08c379a00000000000000000000000000000000000000000000000000000000081526004016112cc906136eb565b60405180910390fd5b600073ffffffffffffffffffffffffffffffffffffffff168173ffffffffffffffffffffffffffffffffffffffff161415611345576040517f08c379a000000000000000000000000000000000000000000000000000000000815260040161133c9061358b565b60405180910390fd5b61134e81611b52565b50565b6113596114e6565b73ffffffffffffffffffffffffffffffffffffffff16611377610d65565b73ffffffffffffffffffffffffffffffffffffffff16146113cd576040517f08c379a00000000000000000000000000000000000000000000000000000000081526004016113c4906136eb565b60405180910390fd5b6001600a836040516113df9190613443565b908152602001604051809103902060009054906101000a900460ff166114059190613910565b600a836040516114159190613443565b908152602001604051809103902060006101000a81548160ff021916908360ff16021790555061144560086114ee565b60006114516008611504565b905061145d8282611512565b6114678184611530565b505050565b60007f2a55205a000000000000000000000000000000000000000000000000000000007bffffffffffffffffffffffffffffffffffffffffffffffffffffffff1916827bffffffffffffffffffffffffffffffffffffffffffffffffffffffff191614806114df57506114de82611f1a565b5b9050919050565b600033905090565b6001816000016000828254019250508190555050565b600081600001549050919050565b61152c828260405180602001604052806000815250611ffc565b5050565b611539826116a0565b611578576040517f08c379a000000000000000000000000000000000000000000000000000000000815260040161156f9061378b565b60405180910390fd5b8060096000848152602001908152602001600020908051906020019061159f9291906126fc565b505050565b6127108111156115e9576040517f08c379a00000000000000000000000000000000000000000000000000000000081526004016115e09061354b565b60405180910390fd5b60405180604001604052808373ffffffffffffffffffffffffffffffffffffffff1681526020018262ffffff168152506007600085815260200190815260200160002060008201518160000160006101000a81548173ffffffffffffffffffffffffffffffffffffffff021916908373ffffffffffffffffffffffffffffffffffffffff16021790555060208201518160000160146101000a81548162ffffff021916908362ffffff160217905550905050505050565b60008073ffffffffffffffffffffffffffffffffffffffff166002600084815260200190815260200160002060009054906101000a900473ffffffffffffffffffffffffffffffffffffffff1673ffffffffffffffffffffffffffffffffffffffff1614159050919050565b816004600083815260200190815260200160002060006101000a81548173ffffffffffffffffffffffffffffffffffffffff021916908373ffffffffffffffffffffffffffffffffffffffff160217905550808273ffffffffffffffffffffffffffffffffffffffff1661177f83610b73565b73ffffffffffffffffffffffffffffffffffffffff167f8c5be1e5ebec7d5bd14f71427d1e84f3dd0314c0f7b2291e5b200ac8c7c3b92560405160405180910390a45050565b60006117d0826116a0565b61180f576040517f08c379a00000000000000000000000000000000000000000000000000000000081526004016118069061360b565b60405180910390fd5b600061181a83610b73565b90508073ffffffffffffffffffffffffffffffffffffffff168473ffffffffffffffffffffffffffffffffffffffff16148061188957508373ffffffffffffffffffffffffffffffffffffffff16611871846106e8565b73ffffffffffffffffffffffffffffffffffffffff16145b8061189a575061189981856111c5565b5b91505092915050565b8273ffffffffffffffffffffffffffffffffffffffff166118c382610b73565b73ffffffffffffffffffffffffffffffffffffffff1614611919576040517f08c379a00000000000000000000000000000000000000000000000000000000081526004016119109061370b565b60405180910390fd5b600073ffffffffffffffffffffffffffffffffffffffff168273ffffffffffffffffffffffffffffffffffffffff161415611989576040517f08c379a0000000000000000000000000000000000000000000000000000000008152600401611980906135cb565b60405180910390fd5b611994838383612057565b61199f60008261170c565b6001600360008573ffffffffffffffffffffffffffffffffffffffff1673ffffffffffffffffffffffffffffffffffffffff16815260200190815260200160002060008282546119ef91906139d2565b925050819055506001600360008473ffffffffffffffffffffffffffffffffffffffff1673ffffffffffffffffffffffffffffffffffffffff1681526020019081526020016000206000828254611a4691906138ba565b92505081905550816002600083815260200190815260200160002060006101000a81548173ffffffffffffffffffffffffffffffffffffffff021916908373ffffffffffffffffffffffffffffffffffffffff160217905550808273ffffffffffffffffffffffffffffffffffffffff168473ffffffffffffffffffffffffffffffffffffffff167fddf252ad1be2c89b69c2b068fc378daa952ba7f163c4a11628f55a4df523b3ef60405160405180910390a4505050565b611b088161205c565b6000600960008381526020019081526020016000208054611b2890613ac9565b905014611b4f57600960008281526020019081526020016000206000611b4e9190612782565b5b50565b6000600660009054906101000a900473ffffffffffffffffffffffffffffffffffffffff16905081600660006101000a81548173ffffffffffffffffffffffffffffffffffffffff021916908373ffffffffffffffffffffffffffffffffffffffff1602179055508173ffffffffffffffffffffffffffffffffffffffff168173ffffffffffffffffffffffffffffffffffffffff167f8be0079c531659141344cd1fd0a4f28419497f9722a3daafe3b4186f6b6457e060405160405180910390a35050565b8173ffffffffffffffffffffffffffffffffffffffff168373ffffffffffffffffffffffffffffffffffffffff161415611c87576040517f08c379a0000000000000000000000000000000000000000000000000000000008152600401611c7e906135eb565b60405180910390fd5b80600560008573ffffffffffffffffffffffffffffffffffffffff1673ffffffffffffffffffffffffffffffffffffffff16815260200190815260200160002060008473ffffffffffffffffffffffffffffffffffffffff1673ffffffffffffffffffffffffffffffffffffffff16815260200190815260200160002060006101000a81548160ff0219169083151502179055508173ffffffffffffffffffffffffffffffffffffffff168373ffffffffffffffffffffffffffffffffffffffff167f17307eab39ab6107e8899845ad3d59bd9653f200f220920489ca2b5937696c3183604051611d78919061350e565b60405180910390a3505050565b611d908484846118a3565b611d9c8484848461216d565b611ddb576040517f08c379a0000000000000000000000000000000000000000000000000000000008152600401611dd29061356b565b60405180910390fd5b50505050565b6060600b8054611df090613ac9565b80601f0160208091040260200160405190810160405280929190818152602001828054611e1c90613ac9565b8015611e695780601f10611e3e57610100808354040283529160200191611e69565b820191906000526020600020905b815481529060010190602001808311611e4c57829003601f168201915b5050505050905090565b6060611e7e826116a0565b611ebd576040517f08c379a0000000000000000000000000000000000000000000000000000000008152600401611eb49061372b565b60405180910390fd5b6000611ec7611de1565b90506000815111611ee75760405180602001604052806000815250611f12565b80611ef184612304565b604051602001611f0292919061345a565b6040516020818303038152906040525b915050919050565b60007f80ac58cd000000000000000000000000000000000000000000000000000000007bffffffffffffffffffffffffffffffffffffffffffffffffffffffff1916827bffffffffffffffffffffffffffffffffffffffffffffffffffffffff19161480611fe557507f5b5e139f000000000000000000000000000000000000000000000000000000007bffffffffffffffffffffffffffffffffffffffffffffffffffffffff1916827bffffffffffffffffffffffffffffffffffffffffffffffffffffffff1916145b80611ff55750611ff4826124b1565b5b9050919050565b612006838361251b565b612013600084848461216d565b612052576040517f08c379a00000000000000000000000000000000000000000000000000000000081526004016120499061356b565b60405180910390fd5b505050565b505050565b600061206782610b73565b905061207581600084612057565b61208060008361170c565b6001600360008373ffffffffffffffffffffffffffffffffffffffff1673ffffffffffffffffffffffffffffffffffffffff16815260200190815260200160002060008282546120d091906139d2565b925050819055506002600083815260200190815260200160002060006101000a81549073ffffffffffffffffffffffffffffffffffffffff021916905581600073ffffffffffffffffffffffffffffffffffffffff168273ffffffffffffffffffffffffffffffffffffffff167fddf252ad1be2c89b69c2b068fc378daa952ba7f163c4a11628f55a4df523b3ef60405160405180910390a45050565b600061218e8473ffffffffffffffffffffffffffffffffffffffff166126e9565b156122f7578373ffffffffffffffffffffffffffffffffffffffff1663150b7a026121b76114e6565b8786866040518563ffffffff1660e01b81526004016121d99493929190613499565b602060405180830381600087803b1580156121f357600080fd5b505af192505050801561222457506040513d601f19601f820116820180604052508101906122219190612ae8565b60015b6122a7573d8060008114612254576040519150601f19603f3d011682016040523d82523d6000602084013e612259565b606091505b5060008151141561229f576040517f08c379a00000000000000000000000000000000000000000000000000000000081526004016122969061356b565b60405180910390fd5b805181602001fd5b63150b7a0260e01b7bffffffffffffffffffffffffffffffffffffffffffffffffffffffff1916817bffffffffffffffffffffffffffffffffffffffffffffffffffffffff1916149150506122fc565b600190505b949350505050565b6060600082141561234c576040518060400160405280600181526020017f300000000000000000000000000000000000000000000000000000000000000081525090506124ac565b600082905060005b6000821461237e57808061236790613afb565b915050600a826123779190613947565b9150612354565b60008167ffffffffffffffff8111156123c0577f4e487b7100000000000000000000000000000000000000000000000000000000600052604160045260246000fd5b6040519080825280601f01601f1916602001820160405280156123f25781602001600182028036833780820191505090505b5090505b600085146124a55760018261240b91906139d2565b9150600a8561241a9190613b44565b603061242691906138ba565b60f81b818381518110612462577f4e487b7100000000000000000000000000000000000000000000000000000000600052603260045260246000fd5b60200101907effffffffffffffffffffffffffffffffffffffffffffffffffffffffffffff1916908160001a905350600a8561249e9190613947565b94506123f6565b8093505050505b919050565b60007f01ffc9a7000000000000000000000000000000000000000000000000000000007bffffffffffffffffffffffffffffffffffffffffffffffffffffffff1916827bffffffffffffffffffffffffffffffffffffffffffffffffffffffff1916149050919050565b600073ffffffffffffffffffffffffffffffffffffffff168273ffffffffffffffffffffffffffffffffffffffff16141561258b576040517f08c379a0000000000000000000000000000000000000000000000000000000008152600401612582906136ab565b60405180910390fd5b612594816116a0565b156125d4576040517f08c379a00000000000000000000000000000000000000000000000000000000081526004016125cb906135ab565b60405180910390fd5b6125e060008383612057565b6001600360008473ffffffffffffffffffffffffffffffffffffffff1673ffffffffffffffffffffffffffffffffffffffff168152602001908152602001600020600082825461263091906138ba565b92505081905550816002600083815260200190815260200160002060006101000a81548173ffffffffffffffffffffffffffffffffffffffff021916908373ffffffffffffffffffffffffffffffffffffffff160217905550808273ffffffffffffffffffffffffffffffffffffffff16600073ffffffffffffffffffffffffffffffffffffffff167fddf252ad1be2c89b69c2b068fc378daa952ba7f163c4a11628f55a4df523b3ef60405160405180910390a45050565b600080823b905060008111915050919050565b82805461270890613ac9565b90600052602060002090601f01602090048101928261272a5760008555612771565b82601f1061274357805160ff1916838001178555612771565b82800160010185558215612771579182015b82811115612770578251825591602001919060010190612755565b5b50905061277e91906127c2565b5090565b50805461278e90613ac9565b6000825580601f106127a057506127bf565b601f0160209004906000526020600020908101906127be91906127c2565b5b50565b5b808211156127db5760008160009055506001016127c3565b5090565b60006127f26127ed84613817565b6137e6565b90508281526020810184848401111561280a57600080fd5b612815848285613a87565b509392505050565b600061283061282b84613847565b6137e6565b90508281526020810184848401111561284857600080fd5b612853848285613a87565b509392505050565b60008135905061286a81613c42565b92915050565b60008135905061287f81613c59565b92915050565b60008135905061289481613c70565b92915050565b6000815190506128a981613c70565b92915050565b600082601f8301126128c057600080fd5b81356128d08482602086016127df565b91505092915050565b600082601f8301126128ea57600080fd5b81356128fa84826020860161281d565b91505092915050565b60008135905061291281613c87565b92915050565b60006020828403121561292a57600080fd5b60006129388482850161285b565b91505092915050565b6000806040838503121561295457600080fd5b60006129628582860161285b565b92505060206129738582860161285b565b9150509250929050565b60008060006060848603121561299257600080fd5b60006129a08682870161285b565b93505060206129b18682870161285b565b92505060406129c286828701612903565b9150509250925092565b600080600080608085870312156129e257600080fd5b60006129f08782880161285b565b9450506020612a018782880161285b565b9350506040612a1287828801612903565b925050606085013567ffffffffffffffff811115612a2f57600080fd5b612a3b878288016128af565b91505092959194509250565b60008060408385031215612a5a57600080fd5b6000612a688582860161285b565b9250506020612a7985828601612870565b9150509250929050565b60008060408385031215612a9657600080fd5b6000612aa48582860161285b565b9250506020612ab585828601612903565b9150509250929050565b600060208284031215612ad157600080fd5b6000612adf84828501612885565b91505092915050565b600060208284031215612afa57600080fd5b6000612b088482850161289a565b91505092915050565b600060208284031215612b2357600080fd5b600082013567ffffffffffffffff811115612b3d57600080fd5b612b49848285016128d9565b91505092915050565b60008060408385031215612b6557600080fd5b600083013567ffffffffffffffff811115612b7f57600080fd5b612b8b858286016128d9565b9250506020612b9c8582860161285b565b9150509250929050565b60008060408385031215612bb957600080fd5b600083013567ffffffffffffffff811115612bd357600080fd5b612bdf858286016128d9565b9250506020612bf085828601612903565b9150509250929050565b600060208284031215612c0c57600080fd5b6000612c1a84828501612903565b91505092915050565b60008060408385031215612c3657600080fd5b6000612c4485828601612903565b9250506020612c5585828601612903565b9150509250929050565b612c6881613a06565b82525050565b612c7781613a18565b82525050565b6000612c8882613877565b612c92818561388d565b9350612ca2818560208601613a96565b612cab81613c31565b840191505092915050565b6000612cc182613882565b612ccb818561389e565b9350612cdb818560208601613a96565b612ce481613c31565b840191505092915050565b6000612cfa82613882565b612d0481856138af565b9350612d14818560208601613a96565b80840191505092915050565b6000612d2d601a8361389e565b91507f45524332393831526f79616c746965733a20546f6f20686967680000000000006000830152602082019050919050565b6000612d6d60328361389e565b91507f4552433732313a207472616e7366657220746f206e6f6e20455243373231526560008301527f63656976657220696d706c656d656e74657200000000000000000000000000006020830152604082019050919050565b6000612dd360268361389e565b91507f4f776e61626c653a206e6577206f776e657220697320746865207a65726f206160008301527f64647265737300000000000000000000000000000000000000000000000000006020830152604082019050919050565b6000612e39601c8361389e565b91507f4552433732313a20746f6b656e20616c7265616479206d696e746564000000006000830152602082019050919050565b6000612e7960248361389e565b91507f4552433732313a207472616e7366657220746f20746865207a65726f2061646460008301527f72657373000000000000000000000000000000000000000000000000000000006020830152604082019050919050565b6000612edf60198361389e565b91507f4552433732313a20617070726f766520746f2063616c6c6572000000000000006000830152602082019050919050565b6000612f1f602c8361389e565b91507f4552433732313a206f70657261746f7220717565727920666f72206e6f6e657860008301527f697374656e7420746f6b656e00000000000000000000000000000000000000006020830152604082019050919050565b6000612f8560188361389e565b91507f6e6f74206d6f7265207468616e203130206174206f6e636500000000000000006000830152602082019050919050565b6000612fc560388361389e565b91507f4552433732313a20617070726f76652063616c6c6572206973206e6f74206f7760008301527f6e6572206e6f7220617070726f76656420666f7220616c6c00000000000000006020830152604082019050919050565b600061302b602a8361389e565b91507f4552433732313a2062616c616e636520717565727920666f7220746865207a6560008301527f726f2061646472657373000000000000000000000000000000000000000000006020830152604082019050919050565b600061309160298361389e565b91507f4552433732313a206f776e657220717565727920666f72206e6f6e657869737460008301527f656e7420746f6b656e00000000000000000000000000000000000000000000006020830152604082019050919050565b60006130f760208361389e565b91507f4552433732313a206d696e7420746f20746865207a65726f20616464726573736000830152602082019050919050565b6000613137602c8361389e565b91507f4552433732313a20617070726f76656420717565727920666f72206e6f6e657860008301527f697374656e7420746f6b656e00000000000000000000000000000000000000006020830152604082019050919050565b600061319d60208361389e565b91507f4f776e61626c653a2063616c6c6572206973206e6f7420746865206f776e65726000830152602082019050919050565b60006131dd60298361389e565b91507f4552433732313a207472616e73666572206f6620746f6b656e2074686174206960008301527f73206e6f74206f776e00000000000000000000000000000000000000000000006020830152604082019050919050565b6000613243602f8361389e565b91507f4552433732314d657461646174613a2055524920717565727920666f72206e6f60008301527f6e6578697374656e7420746f6b656e00000000000000000000000000000000006020830152604082019050919050565b60006132a960218361389e565b91507f4552433732313a20617070726f76616c20746f2063757272656e74206f776e6560008301527f72000000000000000000000000000000000000000000000000000000000000006020830152604082019050919050565b600061330f60318361389e565b91507f4552433732313a207472616e736665722063616c6c6572206973206e6f74206f60008301527f776e6572206e6f7220617070726f7665640000000000000000000000000000006020830152604082019050919050565b600061337560248361389e565b91507f4552433732313a2055524920736574206f66206e6f6e6578697374656e74207460008301527f6f6b656e000000000000000000000000000000000000000000000000000000006020830152604082019050919050565b60006133db60278361389e565b91507f4552433732313a2055524920717565727920666f72206e6f6e6578697374656e60008301527f7420746f6b656e000000000000000000000000000000000000000000000000006020830152604082019050919050565b61343d81613a70565b82525050565b600061344f8284612cef565b915081905092915050565b60006134668285612cef565b91506134728284612cef565b91508190509392505050565b60006020820190506134936000830184612c5f565b92915050565b60006080820190506134ae6000830187612c5f565b6134bb6020830186612c5f565b6134c86040830185613434565b81810360608301526134da8184612c7d565b905095945050505050565b60006040820190506134fa6000830185612c5f565b6135076020830184613434565b9392505050565b60006020820190506135236000830184612c6e565b92915050565b600060208201905081810360008301526135438184612cb6565b905092915050565b6000602082019050818103600083015261356481612d20565b9050919050565b6000602082019050818103600083015261358481612d60565b9050919050565b600060208201905081810360008301526135a481612dc6565b9050919050565b600060208201905081810360008301526135c481612e2c565b9050919050565b600060208201905081810360008301526135e481612e6c565b9050919050565b6000602082019050818103600083015261360481612ed2565b9050919050565b6000602082019050818103600083015261362481612f12565b9050919050565b6000602082019050818103600083015261364481612f78565b9050919050565b6000602082019050818103600083015261366481612fb8565b9050919050565b600060208201905081810360008301526136848161301e565b9050919050565b600060208201905081810360008301526136a481613084565b9050919050565b600060208201905081810360008301526136c4816130ea565b9050919050565b600060208201905081810360008301526136e48161312a565b9050919050565b6000602082019050818103600083015261370481613190565b9050919050565b60006020820190508181036000830152613724816131d0565b9050919050565b6000602082019050818103600083015261374481613236565b9050919050565b600060208201905081810360008301526137648161329c565b9050919050565b6000602082019050818103600083015261378481613302565b9050919050565b600060208201905081810360008301526137a481613368565b9050919050565b600060208201905081810360008301526137c4816133ce565b9050919050565b60006020820190506137e06000830184613434565b92915050565b6000604051905081810181811067ffffffffffffffff8211171561380d5761380c613c02565b5b8060405250919050565b600067ffffffffffffffff82111561383257613831613c02565b5b601f19601f8301169050602081019050919050565b600067ffffffffffffffff82111561386257613861613c02565b5b601f19601f8301169050602081019050919050565b600081519050919050565b600081519050919050565b600082825260208201905092915050565b600082825260208201905092915050565b600081905092915050565b60006138c582613a70565b91506138d083613a70565b9250827fffffffffffffffffffffffffffffffffffffffffffffffffffffffffffffffff0382111561390557613904613b75565b5b828201905092915050565b600061391b82613a7a565b915061392683613a7a565b92508260ff0382111561393c5761393b613b75565b5b828201905092915050565b600061395282613a70565b915061395d83613a70565b92508261396d5761396c613ba4565b5b828204905092915050565b600061398382613a70565b915061398e83613a70565b9250817fffffffffffffffffffffffffffffffffffffffffffffffffffffffffffffffff04831182151516156139c7576139c6613b75565b5b828202905092915050565b60006139dd82613a70565b91506139e883613a70565b9250828210156139fb576139fa613b75565b5b828203905092915050565b6000613a1182613a50565b9050919050565b60008115159050919050565b60007fffffffff0000000000000000000000000000000000000000000000000000000082169050919050565b600073ffffffffffffffffffffffffffffffffffffffff82169050919050565b6000819050919050565b600060ff82169050919050565b82818337600083830152505050565b60005b83811015613ab4578082015181840152602081019050613a99565b83811115613ac3576000848401525b50505050565b60006002820490506001821680613ae157607f821691505b60208210811415613af557613af4613bd3565b5b50919050565b6000613b0682613a70565b91507fffffffffffffffffffffffffffffffffffffffffffffffffffffffffffffffff821415613b3957613b38613b75565b5b600182019050919050565b6000613b4f82613a70565b9150613b5a83613a70565b925082613b6a57613b69613ba4565b5b828206905092915050565b7f4e487b7100000000000000000000000000000000000000000000000000000000600052601160045260246000fd5b7f4e487b7100000000000000000000000000000000000000000000000000000000600052601260045260246000fd5b7f4e487b7100000000000000000000000000000000000000000000000000000000600052602260045260246000fd5b7f4e487b7100000000000000000000000000000000000000000000000000000000600052604160045260246000fd5b6000601f19601f8301169050919050565b613c4b81613a06565b8114613c5657600080fd5b50565b613c6281613a18565b8114613c6d57600080fd5b50565b613c7981613a24565b8114613c8457600080fd5b50565b613c9081613a70565b8114613c9b57600080fd5b5056fe68747470733a2f2f697066732e696f2f697066732f516d6362716d516e333234385779746f4e504b62617050387259586d72316566566e6238743771456938614c6759a2646970667358221220f998c775fee34c6036f20a9085f7e2303e7c0d6fc296fabd24a35f4a12c5ef1a64736f6c63430008000033",
  "immutableReferences": {},
  "source": "// SPDX-License-Identifier: MIT\r\n//pragma solidity >=0.4.22 <0.9.0;\r\npragma solidity ^0.8.0;\r\n\r\nimport \"@openzeppelin/contracts/token/ERC721/ERC721.sol\";\r\nimport \"@openzeppelin/contracts/utils/Counters.sol\";\r\nimport \"@openzeppelin/contracts/access/Ownable.sol\";\r\nimport \"./ERC2981Royalty.sol\";\r\n//TODO ADD METADATA FREEZING\r\n//TODO SOMETHING DOESNT WORK PROPERLY\r\n//TODO ADD PERCENT TO CREATOR OF CONTRACTS\r\n\r\n//https://github.com/neha01/nft-demo/blob/master/contracts/ArtCollectible.sol ref\r\n//https://forum.openzeppelin.com/t/function-settokenuri-in-erc721-is-gone-with-pragma-0-8-0/5978/3 another ref\r\ncontract Souvenir is ERC721, Ownable, ERC2981Royalty{\r\n    using Strings for uint256;\r\n    using Counters for Counters.Counter;\r\n\r\n    Counters.Counter private _tokenIds;\r\n\r\n    // Optional mapping for token URIs\r\n    // copied from ERC721URIStorage.sol\r\n    mapping(uint256 => string) private _tokenURIs;\r\n\r\n\r\n    // mapping\r\n    // not sure if i want it or not\r\n    mapping(string => uint8) private _hashes;\r\n\r\n    // Base URI\r\n    string private _baseURIExtended = \"https://ipfs.io/ipfs/\";\r\n\r\n//    address private _royaltyRecipient = owner();\r\n    address private _royaltyRecipient;\r\n\r\n    // constructor with name and symbol of nft\r\n    constructor() ERC721(\"Souvenir\",\"SVN\"){\r\n        _royaltyRecipient = owner();\r\n    }\r\n\r\n\r\n\r\n    // write tests for this method\r\n    //what does this even do\r\n    /// @inheritdoc\tERC165\r\n    function supportsInterface(bytes4 interfaceId)\r\n    public\r\n    view\r\n    virtual\r\n    override(ERC721, ERC2981Base)\r\n    returns (bool)\r\n    {\r\n        return super.supportsInterface(interfaceId);\r\n    }\r\n\r\n\r\n    // FIX\r\n    // BROKEN CUZ OF BURN\r\n    function totalSupply() public view returns (uint256) {\r\n        return _tokenIds.current();\r\n    }\r\n\r\n    // for opensea collection\r\n    // this is currently being used to determine which metadata(json) it uses for the NFT\r\n    function contractURI() public pure returns (string memory) {\r\n        return \"https://ipfs.io/ipfs/QmcbqmQn3248WytoNPKbapP8rYXmr1efVnb8t7qEi8aLgY\"; // collection json ipfs\r\n    }\r\n\r\n    function setBaseURI(string memory baseURI_)\r\n    external\r\n    onlyOwner\r\n    {\r\n        _baseURIExtended = baseURI_;\r\n    }\r\n\r\n    function _baseURI()\r\n    internal\r\n    view\r\n    virtual\r\n    override\r\n    returns (string memory)\r\n    {\r\n        return _baseURIExtended;\r\n    }\r\n\r\n    // memory didnt work\r\n    function setRoyaltyRecipient(address royaltyRecipient_)\r\n    external\r\n    onlyOwner\r\n    {\r\n        _royaltyRecipient = royaltyRecipient_;\r\n    }\r\n\r\n    // copied from ERC721URIStorage.sol\r\n    function _setTokenURI(uint256 tokenId, string memory _tokenURI) internal virtual {\r\n        require(_exists(tokenId), \"ERC721: URI set of nonexistent token\");\r\n        _tokenURIs[tokenId] = _tokenURI;\r\n    }\r\n\r\n    // copied from ERC721URIStorage.sol\r\n    function _burn(uint256 tokenId) internal virtual override {\r\n        super._burn(tokenId);\r\n        if (bytes(_tokenURIs[tokenId]).length != 0) {\r\n            delete _tokenURIs[tokenId];\r\n        }\r\n    }\r\n\r\n    function burn(uint256 tokenId) public {\r\n        _burn(tokenId);\r\n    }\r\n    function royaltyRecipient() public view virtual returns (address) {\r\n        return _royaltyRecipient;\r\n    }\r\n    // copied from ERC721URIStorage.sol\r\n    function tokenURI(uint256 tokenId) public view virtual override returns (string memory) {\r\n        require(_exists(tokenId), \"ERC721: URI query for nonexistent token\");\r\n\r\n        string memory _tokenURI = _tokenURIs[tokenId];\r\n        string memory base = _baseURI();\r\n\r\n        // If there is no base URI, return the token URI.\r\n        if (bytes(base).length == 0) {\r\n            return _tokenURI;\r\n        }\r\n        // If both are set, concatenate the baseURI and tokenURI (via abi.encodePacked).\r\n        if (bytes(_tokenURI).length > 0) {\r\n            return string(abi.encodePacked(base, _tokenURI));\r\n        }\r\n\r\n        return super.tokenURI(tokenId);\r\n    }\r\n    // public or external?\r\n    /// value percentage (using 2 decimals - 10000 = 100, 0 = 0)\r\n    function mint(string memory tokenHash, uint256 royaltyAmount)\r\n    public\r\n    onlyOwner\r\n    {\r\n        _hashes[tokenHash] = _hashes[tokenHash] + 1;\r\n        _tokenIds.increment();\r\n        uint256 newTokenId = _tokenIds.current();\r\n        _safeMint(msg.sender, newTokenId);\r\n        _setTokenURI(newTokenId, tokenHash);\r\n        if (royaltyAmount > 0) {\r\n            _setTokenRoyalty(newTokenId, _royaltyRecipient, royaltyAmount);\r\n        }\r\n    }\r\n\r\n    function mintTo(string memory tokenHash, address receiver)\r\n    public\r\n    onlyOwner\r\n    {\r\n        _hashes[tokenHash] = _hashes[tokenHash] + 1;\r\n        _tokenIds.increment();\r\n        uint256 newItemId = _tokenIds.current();\r\n        _safeMint(receiver, newItemId);\r\n        _setTokenURI(newItemId, tokenHash);\r\n    }\r\n\r\n    // questionable\r\n    // mint multiple tokens\r\n    function mintBatch(string memory tokenHash, uint256 numberOfTokens)\r\n    public\r\n    onlyOwner\r\n    {\r\n        require(numberOfTokens<=10, \"not more than 10 at once\");\r\n        require(_hashes[tokenHash]<=100);\r\n\r\n        for(uint256 i=0; i < numberOfTokens; i++){\r\n            _hashes[tokenHash] = _hashes[tokenHash] + 1;\r\n            _tokenIds.increment();\r\n            uint256 newItemId = _tokenIds.current();\r\n            _safeMint(msg.sender, newItemId);\r\n            _setTokenURI(newItemId, tokenHash);\r\n        }\r\n    }\r\n\r\n}",
  "sourcePath": "C:\\Users\\Joey\\Desktop\\BA\\starting-from-new\\src\\contracts\\Souvenir.sol",
  "compiler": {
    "name": "solc",
    "version": "0.8.0+commit.c7dfd78e.Emscripten.clang"
  },
  "schemaVersion": "3.4.3",
  "updatedAt": "2022-01-15T16:45:13.142Z",
  "networkType": "ethereum",
  "devdoc": {
    "kind": "dev",
    "methods": {
      "approve(address,uint256)": {
        "details": "See {IERC721-approve}."
      },
      "balanceOf(address)": {
        "details": "See {IERC721-balanceOf}."
      },
      "getApproved(uint256)": {
        "details": "See {IERC721-getApproved}."
      },
      "isApprovedForAll(address,address)": {
        "details": "See {IERC721-isApprovedForAll}."
      },
      "name()": {
        "details": "See {IERC721Metadata-name}."
      },
      "owner()": {
        "details": "Returns the address of the current owner."
      },
      "ownerOf(uint256)": {
        "details": "See {IERC721-ownerOf}."
      },
      "renounceOwnership()": {
        "details": "Leaves the contract without owner. It will not be possible to call `onlyOwner` functions anymore. Can only be called by the current owner. NOTE: Renouncing ownership will leave the contract without an owner, thereby removing any functionality that is only available to the owner."
      },
      "royaltyInfo(uint256,uint256)": {
        "params": {
          "_tokenId": "- the NFT asset queried for royalty information",
          "_value": "- the sale price of the NFT asset specified by _tokenId"
        },
        "returns": {
          "receiver": "- address of who should be sent the royalty payment",
          "royaltyAmount": "- the royalty payment amount for value sale price"
        }
      },
      "safeTransferFrom(address,address,uint256)": {
        "details": "See {IERC721-safeTransferFrom}."
      },
      "safeTransferFrom(address,address,uint256,bytes)": {
        "details": "See {IERC721-safeTransferFrom}."
      },
      "setApprovalForAll(address,bool)": {
        "details": "See {IERC721-setApprovalForAll}."
      },
      "supportsInterface(bytes4)": {
        "details": "See {IERC165-supportsInterface}."
      },
      "symbol()": {
        "details": "See {IERC721Metadata-symbol}."
      },
      "tokenURI(uint256)": {
        "details": "See {IERC721Metadata-tokenURI}."
      },
      "transferFrom(address,address,uint256)": {
        "details": "See {IERC721-transferFrom}."
      },
      "transferOwnership(address)": {
        "details": "Transfers ownership of the contract to a new account (`newOwner`). Can only be called by the current owner."
      }
    },
    "version": 1
  },
  "userdoc": {
    "kind": "user",
    "methods": {
      "mint(string,uint256)": {
        "notice": "value percentage (using 2 decimals - 10000 = 100, 0 = 0)"
      }
    },
    "version": 1
  }
}