{
  "contractName": "Souvenir",
  "abi": [
    {
      "inputs": [],
      "stateMutability": "nonpayable",
      "type": "constructor"
    },
    {
      "anonymous": false,
      "inputs": [
        {
          "indexed": true,
          "internalType": "address",
          "name": "owner",
          "type": "address"
        },
        {
          "indexed": true,
          "internalType": "address",
          "name": "approved",
          "type": "address"
        },
        {
          "indexed": true,
          "internalType": "uint256",
          "name": "tokenId",
          "type": "uint256"
        }
      ],
      "name": "Approval",
      "type": "event"
    },
    {
      "anonymous": false,
      "inputs": [
        {
          "indexed": true,
          "internalType": "address",
          "name": "owner",
          "type": "address"
        },
        {
          "indexed": true,
          "internalType": "address",
          "name": "operator",
          "type": "address"
        },
        {
          "indexed": false,
          "internalType": "bool",
          "name": "approved",
          "type": "bool"
        }
      ],
      "name": "ApprovalForAll",
      "type": "event"
    },
    {
      "anonymous": false,
      "inputs": [
        {
          "indexed": true,
          "internalType": "address",
          "name": "previousOwner",
          "type": "address"
        },
        {
          "indexed": true,
          "internalType": "address",
          "name": "newOwner",
          "type": "address"
        }
      ],
      "name": "OwnershipTransferred",
      "type": "event"
    },
    {
      "anonymous": false,
      "inputs": [
        {
          "indexed": true,
          "internalType": "address",
          "name": "from",
          "type": "address"
        },
        {
          "indexed": true,
          "internalType": "address",
          "name": "to",
          "type": "address"
        },
        {
          "indexed": true,
          "internalType": "uint256",
          "name": "tokenId",
          "type": "uint256"
        }
      ],
      "name": "Transfer",
      "type": "event"
    },
    {
      "inputs": [
        {
          "internalType": "address",
          "name": "to",
          "type": "address"
        },
        {
          "internalType": "uint256",
          "name": "tokenId",
          "type": "uint256"
        }
      ],
      "name": "approve",
      "outputs": [],
      "stateMutability": "nonpayable",
      "type": "function"
    },
    {
      "inputs": [
        {
          "internalType": "address",
          "name": "owner",
          "type": "address"
        }
      ],
      "name": "balanceOf",
      "outputs": [
        {
          "internalType": "uint256",
          "name": "",
          "type": "uint256"
        }
      ],
      "stateMutability": "view",
      "type": "function",
      "constant": true
    },
    {
      "inputs": [
        {
          "internalType": "uint256",
          "name": "tokenId",
          "type": "uint256"
        }
      ],
      "name": "getApproved",
      "outputs": [
        {
          "internalType": "address",
          "name": "",
          "type": "address"
        }
      ],
      "stateMutability": "view",
      "type": "function",
      "constant": true
    },
    {
      "inputs": [
        {
          "internalType": "address",
          "name": "owner",
          "type": "address"
        },
        {
          "internalType": "address",
          "name": "operator",
          "type": "address"
        }
      ],
      "name": "isApprovedForAll",
      "outputs": [
        {
          "internalType": "bool",
          "name": "",
          "type": "bool"
        }
      ],
      "stateMutability": "view",
      "type": "function",
      "constant": true
    },
    {
      "inputs": [],
      "name": "name",
      "outputs": [
        {
          "internalType": "string",
          "name": "",
          "type": "string"
        }
      ],
      "stateMutability": "view",
      "type": "function",
      "constant": true
    },
    {
      "inputs": [],
      "name": "owner",
      "outputs": [
        {
          "internalType": "address",
          "name": "",
          "type": "address"
        }
      ],
      "stateMutability": "view",
      "type": "function",
      "constant": true
    },
    {
      "inputs": [
        {
          "internalType": "uint256",
          "name": "tokenId",
          "type": "uint256"
        }
      ],
      "name": "ownerOf",
      "outputs": [
        {
          "internalType": "address",
          "name": "",
          "type": "address"
        }
      ],
      "stateMutability": "view",
      "type": "function",
      "constant": true
    },
    {
      "inputs": [],
      "name": "renounceOwnership",
      "outputs": [],
      "stateMutability": "nonpayable",
      "type": "function"
    },
    {
      "inputs": [
        {
          "internalType": "uint256",
          "name": "tokenId",
          "type": "uint256"
        },
        {
          "internalType": "uint256",
          "name": "value",
          "type": "uint256"
        }
      ],
      "name": "royaltyInfo",
      "outputs": [
        {
          "internalType": "address",
          "name": "receiver",
          "type": "address"
        },
        {
          "internalType": "uint256",
          "name": "royaltyAmount",
          "type": "uint256"
        }
      ],
      "stateMutability": "view",
      "type": "function",
      "constant": true
    },
    {
      "inputs": [
        {
          "internalType": "address",
          "name": "from",
          "type": "address"
        },
        {
          "internalType": "address",
          "name": "to",
          "type": "address"
        },
        {
          "internalType": "uint256",
          "name": "tokenId",
          "type": "uint256"
        }
      ],
      "name": "safeTransferFrom",
      "outputs": [],
      "stateMutability": "nonpayable",
      "type": "function"
    },
    {
      "inputs": [
        {
          "internalType": "address",
          "name": "from",
          "type": "address"
        },
        {
          "internalType": "address",
          "name": "to",
          "type": "address"
        },
        {
          "internalType": "uint256",
          "name": "tokenId",
          "type": "uint256"
        },
        {
          "internalType": "bytes",
          "name": "_data",
          "type": "bytes"
        }
      ],
      "name": "safeTransferFrom",
      "outputs": [],
      "stateMutability": "nonpayable",
      "type": "function"
    },
    {
      "inputs": [
        {
          "internalType": "address",
          "name": "operator",
          "type": "address"
        },
        {
          "internalType": "bool",
          "name": "approved",
          "type": "bool"
        }
      ],
      "name": "setApprovalForAll",
      "outputs": [],
      "stateMutability": "nonpayable",
      "type": "function"
    },
    {
      "inputs": [],
      "name": "symbol",
      "outputs": [
        {
          "internalType": "string",
          "name": "",
          "type": "string"
        }
      ],
      "stateMutability": "view",
      "type": "function",
      "constant": true
    },
    {
      "inputs": [
        {
          "internalType": "address",
          "name": "from",
          "type": "address"
        },
        {
          "internalType": "address",
          "name": "to",
          "type": "address"
        },
        {
          "internalType": "uint256",
          "name": "tokenId",
          "type": "uint256"
        }
      ],
      "name": "transferFrom",
      "outputs": [],
      "stateMutability": "nonpayable",
      "type": "function"
    },
    {
      "inputs": [
        {
          "internalType": "address",
          "name": "newOwner",
          "type": "address"
        }
      ],
      "name": "transferOwnership",
      "outputs": [],
      "stateMutability": "nonpayable",
      "type": "function"
    },
    {
      "inputs": [
        {
          "internalType": "bytes4",
          "name": "interfaceId",
          "type": "bytes4"
        }
      ],
      "name": "supportsInterface",
      "outputs": [
        {
          "internalType": "bool",
          "name": "",
          "type": "bool"
        }
      ],
      "stateMutability": "view",
      "type": "function",
      "constant": true
    },
    {
      "inputs": [],
      "name": "totalSupply",
      "outputs": [
        {
          "internalType": "uint256",
          "name": "",
          "type": "uint256"
        }
      ],
      "stateMutability": "view",
      "type": "function",
      "constant": true
    },
    {
      "inputs": [],
      "name": "contractURI",
      "outputs": [
        {
          "internalType": "string",
          "name": "",
          "type": "string"
        }
      ],
      "stateMutability": "pure",
      "type": "function",
      "constant": true
    },
    {
      "inputs": [
        {
          "internalType": "string",
          "name": "baseURI_",
          "type": "string"
        }
      ],
      "name": "setBaseURI",
      "outputs": [],
      "stateMutability": "nonpayable",
      "type": "function"
    },
    {
      "inputs": [
        {
          "internalType": "address",
          "name": "royaltyRecipient_",
          "type": "address"
        }
      ],
      "name": "setRoyaltyRecipient",
      "outputs": [],
      "stateMutability": "nonpayable",
      "type": "function"
    },
    {
      "inputs": [
        {
          "internalType": "uint256",
          "name": "tokenId",
          "type": "uint256"
        }
      ],
      "name": "burn",
      "outputs": [],
      "stateMutability": "nonpayable",
      "type": "function"
    },
    {
      "inputs": [],
      "name": "royaltyRecipient",
      "outputs": [
        {
          "internalType": "address",
          "name": "",
          "type": "address"
        }
      ],
      "stateMutability": "view",
      "type": "function",
      "constant": true
    },
    {
      "inputs": [
        {
          "internalType": "uint256",
          "name": "tokenId",
          "type": "uint256"
        }
      ],
      "name": "tokenURI",
      "outputs": [
        {
          "internalType": "string",
          "name": "",
          "type": "string"
        }
      ],
      "stateMutability": "view",
      "type": "function",
      "constant": true
    },
    {
      "inputs": [
        {
          "internalType": "string",
          "name": "tokenHash",
          "type": "string"
        },
        {
          "internalType": "uint256",
          "name": "numberOfTokens",
          "type": "uint256"
        },
        {
          "internalType": "uint256",
          "name": "royaltyAmount",
          "type": "uint256"
        }
      ],
      "name": "mint",
      "outputs": [],
      "stateMutability": "nonpayable",
      "type": "function"
    },
    {
      "inputs": [
        {
          "internalType": "string",
          "name": "tokenHash",
          "type": "string"
        },
        {
          "internalType": "uint256",
          "name": "numberOfTokens",
          "type": "uint256"
        },
        {
          "internalType": "uint256",
          "name": "royaltyAmount",
          "type": "uint256"
        },
        {
          "internalType": "address",
          "name": "receiver",
          "type": "address"
        }
      ],
      "name": "mint",
      "outputs": [],
      "stateMutability": "nonpayable",
      "type": "function"
    }
  ],
  "bytecode": "0x60806040526040518060400160405280600781526020017f697066733a2f2f00000000000000000000000000000000000000000000000000815250600c9080519060200190620000519291906200026e565b503480156200005f57600080fd5b506040518060400160405280600881526020017f536f7576656e69720000000000000000000000000000000000000000000000008152506040518060400160405280600381526020017f53564e00000000000000000000000000000000000000000000000000000000008152508160009080519060200190620000e49291906200026e565b508060019080519060200190620000fd9291906200026e565b50505062000120620001146200017660201b60201c565b6200017e60201b60201c565b620001306200024460201b60201c565b600d60006101000a81548173ffffffffffffffffffffffffffffffffffffffff021916908373ffffffffffffffffffffffffffffffffffffffff16021790555062000383565b600033905090565b6000600660009054906101000a900473ffffffffffffffffffffffffffffffffffffffff16905081600660006101000a81548173ffffffffffffffffffffffffffffffffffffffff021916908373ffffffffffffffffffffffffffffffffffffffff1602179055508173ffffffffffffffffffffffffffffffffffffffff168173ffffffffffffffffffffffffffffffffffffffff167f8be0079c531659141344cd1fd0a4f28419497f9722a3daafe3b4186f6b6457e060405160405180910390a35050565b6000600660009054906101000a900473ffffffffffffffffffffffffffffffffffffffff16905090565b8280546200027c906200031e565b90600052602060002090601f016020900481019282620002a05760008555620002ec565b82601f10620002bb57805160ff1916838001178555620002ec565b82800160010185558215620002ec579182015b82811115620002eb578251825591602001919060010190620002ce565b5b509050620002fb9190620002ff565b5090565b5b808211156200031a57600081600090555060010162000300565b5090565b600060028204905060018216806200033757607f821691505b602082108114156200034e576200034d62000354565b5b50919050565b7f4e487b7100000000000000000000000000000000000000000000000000000000600052602260045260246000fd5b613e2680620003936000396000f3fe608060405234801561001057600080fd5b50600436106101735760003560e01c806355f804b3116100de578063a22cb46511610097578063c87b56dd11610071578063c87b56dd14610421578063e8a3d48514610451578063e985e9c51461046f578063f2fde38b1461049f57610173565b8063a22cb465146103cd578063b88d4fde146103e9578063bcb65f521461040557610173565b806355f804b31461030b5780636352211e1461032757806370a0823114610357578063715018a6146103875780638da5cb5b1461039157806395d89b41146103af57610173565b806323b872dd1161013057806323b872dd1461024c5780632a55205a1461026857806341e42f301461029957806342842e0e146102b557806342966c68146102d15780634c00de82146102ed57610173565b806301ffc9a71461017857806306fdde03146101a8578063081812fc146101c6578063095ea7b3146101f657806318160ddd146102125780631c635ded14610230575b600080fd5b610192600480360381019061018d9190612b42565b6104bb565b60405161019f919061360b565b60405180910390f35b6101b06104cd565b6040516101bd9190613626565b60405180910390f35b6101e060048036038101906101db9190612cb7565b61055f565b6040516101ed919061357b565b60405180910390f35b610210600480360381019061020b9190612b06565b6105e4565b005b61021a6106fc565b60405161022791906138e8565b60405180910390f35b61024a60048036038101906102459190612bd5565b61070d565b005b61026660048036038101906102619190612a00565b61090c565b005b610282600480360381019061027d9190612ce0565b61096c565b6040516102909291906135e2565b60405180910390f35b6102b360048036038101906102ae919061299b565b610a3d565b005b6102cf60048036038101906102ca9190612a00565b610afd565b005b6102eb60048036038101906102e69190612cb7565b610b1d565b005b6102f5610ba5565b604051610302919061357b565b60405180910390f35b61032560048036038101906103209190612b94565b610bcf565b005b610341600480360381019061033c9190612cb7565b610c65565b60405161034e919061357b565b60405180910390f35b610371600480360381019061036c919061299b565b610d17565b60405161037e91906138e8565b60405180910390f35b61038f610dcf565b005b610399610e57565b6040516103a6919061357b565b60405180910390f35b6103b7610e81565b6040516103c49190613626565b60405180910390f35b6103e760048036038101906103e29190612aca565b610f13565b005b61040360048036038101906103fe9190612a4f565b610f29565b005b61041f600480360381019061041a9190612c3c565b610f8b565b005b61043b60048036038101906104369190612cb7565b61118b565b6040516104489190613626565b60405180910390f35b6104596112dd565b6040516104669190613626565b60405180910390f35b610489600480360381019061048491906129c4565b6112fd565b604051610496919061360b565b60405180910390f35b6104b960048036038101906104b4919061299b565b611391565b005b60006104c682611489565b9050919050565b6060600080546104dc90613be6565b80601f016020809104026020016040519081016040528092919081815260200182805461050890613be6565b80156105555780601f1061052a57610100808354040283529160200191610555565b820191906000526020600020905b81548152906001019060200180831161053857829003601f168201915b5050505050905090565b600061056a82611503565b6105a9576040517f08c379a00000000000000000000000000000000000000000000000000000000081526004016105a0906137c8565b60405180910390fd5b6004600083815260200190815260200160002060009054906101000a900473ffffffffffffffffffffffffffffffffffffffff169050919050565b60006105ef82610c65565b90508073ffffffffffffffffffffffffffffffffffffffff168373ffffffffffffffffffffffffffffffffffffffff161415610660576040517f08c379a000000000000000000000000000000000000000000000000000000000815260040161065790613848565b60405180910390fd5b8073ffffffffffffffffffffffffffffffffffffffff1661067f61156f565b73ffffffffffffffffffffffffffffffffffffffff1614806106ae57506106ad816106a861156f565b6112fd565b5b6106ed576040517f08c379a00000000000000000000000000000000000000000000000000000000081526004016106e490613748565b60405180910390fd5b6106f78383611577565b505050565b60006107086009611630565b905090565b61071561156f565b73ffffffffffffffffffffffffffffffffffffffff16610733610e57565b73ffffffffffffffffffffffffffffffffffffffff1614610789576040517f08c379a0000000000000000000000000000000000000000000000000000000008152600401610780906137e8565b60405180910390fd5b60148211156107cd576040517f08c379a00000000000000000000000000000000000000000000000000000000081526004016107c490613868565b60405180910390fd5b606460ff16600b846040516107e29190613540565b908152602001604051809103902060009054906101000a900460ff1660ff16111561080c57600080fd5b60005b82811015610906576001600b856040516108299190613540565b908152602001604051809103902060009054906101000a900460ff1661084f9190613a2d565b600b8560405161085f9190613540565b908152602001604051809103902060006101000a81548160ff021916908360ff16021790555061088f600861163e565b610899600961163e565b60006108a56008611630565b90506108b13382611654565b6108bb8186611672565b60008311156108f2576108f181600d60009054906101000a900473ffffffffffffffffffffffffffffffffffffffff16856116e6565b5b5080806108fe90613c18565b91505061080f565b50505050565b61091d61091761156f565b826117e2565b61095c576040517f08c379a000000000000000000000000000000000000000000000000000000000815260040161095390613888565b60405180910390fd5b6109678383836118c0565b505050565b6000806000600760008681526020019081526020016000206040518060400160405290816000820160009054906101000a900473ffffffffffffffffffffffffffffffffffffffff1673ffffffffffffffffffffffffffffffffffffffff1673ffffffffffffffffffffffffffffffffffffffff1681526020016000820160149054906101000a900462ffffff1662ffffff1662ffffff1681525050905080600001519250612710816020015162ffffff1685610a299190613a95565b610a339190613a64565b9150509250929050565b610a4561156f565b73ffffffffffffffffffffffffffffffffffffffff16610a63610e57565b73ffffffffffffffffffffffffffffffffffffffff1614610ab9576040517f08c379a0000000000000000000000000000000000000000000000000000000008152600401610ab0906137e8565b60405180910390fd5b80600d60006101000a81548173ffffffffffffffffffffffffffffffffffffffff021916908373ffffffffffffffffffffffffffffffffffffffff16021790555050565b610b1883838360405180602001604052806000815250610f29565b505050565b610b2561156f565b73ffffffffffffffffffffffffffffffffffffffff16610b43610e57565b73ffffffffffffffffffffffffffffffffffffffff1614610b99576040517f08c379a0000000000000000000000000000000000000000000000000000000008152600401610b90906137e8565b60405180910390fd5b610ba281611b1c565b50565b6000600d60009054906101000a900473ffffffffffffffffffffffffffffffffffffffff16905090565b610bd761156f565b73ffffffffffffffffffffffffffffffffffffffff16610bf5610e57565b73ffffffffffffffffffffffffffffffffffffffff1614610c4b576040517f08c379a0000000000000000000000000000000000000000000000000000000008152600401610c42906137e8565b60405180910390fd5b80600c9080519060200190610c6192919061277f565b5050565b6000806002600084815260200190815260200160002060009054906101000a900473ffffffffffffffffffffffffffffffffffffffff169050600073ffffffffffffffffffffffffffffffffffffffff168173ffffffffffffffffffffffffffffffffffffffff161415610d0e576040517f08c379a0000000000000000000000000000000000000000000000000000000008152600401610d0590613788565b60405180910390fd5b80915050919050565b60008073ffffffffffffffffffffffffffffffffffffffff168273ffffffffffffffffffffffffffffffffffffffff161415610d88576040517f08c379a0000000000000000000000000000000000000000000000000000000008152600401610d7f90613768565b60405180910390fd5b600360008373ffffffffffffffffffffffffffffffffffffffff1673ffffffffffffffffffffffffffffffffffffffff168152602001908152602001600020549050919050565b610dd761156f565b73ffffffffffffffffffffffffffffffffffffffff16610df5610e57565b73ffffffffffffffffffffffffffffffffffffffff1614610e4b576040517f08c379a0000000000000000000000000000000000000000000000000000000008152600401610e42906137e8565b60405180910390fd5b610e556000611b79565b565b6000600660009054906101000a900473ffffffffffffffffffffffffffffffffffffffff16905090565b606060018054610e9090613be6565b80601f0160208091040260200160405190810160405280929190818152602001828054610ebc90613be6565b8015610f095780601f10610ede57610100808354040283529160200191610f09565b820191906000526020600020905b815481529060010190602001808311610eec57829003601f168201915b5050505050905090565b610f25610f1e61156f565b8383611c3f565b5050565b610f3a610f3461156f565b836117e2565b610f79576040517f08c379a0000000000000000000000000000000000000000000000000000000008152600401610f7090613888565b60405180910390fd5b610f8584848484611dac565b50505050565b610f9361156f565b73ffffffffffffffffffffffffffffffffffffffff16610fb1610e57565b73ffffffffffffffffffffffffffffffffffffffff1614611007576040517f08c379a0000000000000000000000000000000000000000000000000000000008152600401610ffe906137e8565b60405180910390fd5b601483111561104b576040517f08c379a000000000000000000000000000000000000000000000000000000000815260040161104290613868565b60405180910390fd5b606460ff16600b856040516110609190613540565b908152602001604051809103902060009054906101000a900460ff1660ff16111561108a57600080fd5b60005b83811015611184576001600b866040516110a79190613540565b908152602001604051809103902060009054906101000a900460ff166110cd9190613a2d565b600b866040516110dd9190613540565b908152602001604051809103902060006101000a81548160ff021916908360ff16021790555061110d600861163e565b611117600961163e565b60006111236008611630565b905061112f8382611654565b6111398187611672565b60008411156111705761116f81600d60009054906101000a900473ffffffffffffffffffffffffffffffffffffffff16866116e6565b5b50808061117c90613c18565b91505061108d565b5050505050565b606061119682611503565b6111d5576040517f08c379a00000000000000000000000000000000000000000000000000000000081526004016111cc906138c8565b60405180910390fd5b6000600a600084815260200190815260200160002080546111f590613be6565b80601f016020809104026020016040519081016040528092919081815260200182805461122190613be6565b801561126e5780601f106112435761010080835404028352916020019161126e565b820191906000526020600020905b81548152906001019060200180831161125157829003601f168201915b50505050509050600061127f611e08565b90506000815114156112955781925050506112d8565b6000825111156112ca5780826040516020016112b2929190613557565b604051602081830303815290604052925050506112d8565b6112d384611e9a565b925050505b919050565b6060604051806060016040528060358152602001613dbc60359139905090565b6000600560008473ffffffffffffffffffffffffffffffffffffffff1673ffffffffffffffffffffffffffffffffffffffff16815260200190815260200160002060008373ffffffffffffffffffffffffffffffffffffffff1673ffffffffffffffffffffffffffffffffffffffff16815260200190815260200160002060009054906101000a900460ff16905092915050565b61139961156f565b73ffffffffffffffffffffffffffffffffffffffff166113b7610e57565b73ffffffffffffffffffffffffffffffffffffffff161461140d576040517f08c379a0000000000000000000000000000000000000000000000000000000008152600401611404906137e8565b60405180910390fd5b600073ffffffffffffffffffffffffffffffffffffffff168173ffffffffffffffffffffffffffffffffffffffff16141561147d576040517f08c379a0000000000000000000000000000000000000000000000000000000008152600401611474906136a8565b60405180910390fd5b61148681611b79565b50565b60007f2a55205a000000000000000000000000000000000000000000000000000000007bffffffffffffffffffffffffffffffffffffffffffffffffffffffff1916827bffffffffffffffffffffffffffffffffffffffffffffffffffffffff191614806114fc57506114fb82611f41565b5b9050919050565b60008073ffffffffffffffffffffffffffffffffffffffff166002600084815260200190815260200160002060009054906101000a900473ffffffffffffffffffffffffffffffffffffffff1673ffffffffffffffffffffffffffffffffffffffff1614159050919050565b600033905090565b816004600083815260200190815260200160002060006101000a81548173ffffffffffffffffffffffffffffffffffffffff021916908373ffffffffffffffffffffffffffffffffffffffff160217905550808273ffffffffffffffffffffffffffffffffffffffff166115ea83610c65565b73ffffffffffffffffffffffffffffffffffffffff167f8c5be1e5ebec7d5bd14f71427d1e84f3dd0314c0f7b2291e5b200ac8c7c3b92560405160405180910390a45050565b600081600001549050919050565b6001816000016000828254019250508190555050565b61166e828260405180602001604052806000815250612023565b5050565b61167b82611503565b6116ba576040517f08c379a00000000000000000000000000000000000000000000000000000000081526004016116b1906138a8565b60405180910390fd5b80600a600084815260200190815260200160002090805190602001906116e192919061277f565b505050565b61271081111561172b576040517f08c379a000000000000000000000000000000000000000000000000000000000815260040161172290613648565b60405180910390fd5b60405180604001604052808373ffffffffffffffffffffffffffffffffffffffff1681526020018262ffffff168152506007600085815260200190815260200160002060008201518160000160006101000a81548173ffffffffffffffffffffffffffffffffffffffff021916908373ffffffffffffffffffffffffffffffffffffffff16021790555060208201518160000160146101000a81548162ffffff021916908362ffffff160217905550905050505050565b60006117ed82611503565b61182c576040517f08c379a000000000000000000000000000000000000000000000000000000000815260040161182390613728565b60405180910390fd5b600061183783610c65565b90508073ffffffffffffffffffffffffffffffffffffffff168473ffffffffffffffffffffffffffffffffffffffff1614806118a657508373ffffffffffffffffffffffffffffffffffffffff1661188e8461055f565b73ffffffffffffffffffffffffffffffffffffffff16145b806118b757506118b681856112fd565b5b91505092915050565b8273ffffffffffffffffffffffffffffffffffffffff166118e082610c65565b73ffffffffffffffffffffffffffffffffffffffff1614611936576040517f08c379a000000000000000000000000000000000000000000000000000000000815260040161192d90613808565b60405180910390fd5b600073ffffffffffffffffffffffffffffffffffffffff168273ffffffffffffffffffffffffffffffffffffffff1614156119a6576040517f08c379a000000000000000000000000000000000000000000000000000000000815260040161199d906136e8565b60405180910390fd5b6119b183838361207e565b6119bc600082611577565b6001600360008573ffffffffffffffffffffffffffffffffffffffff1673ffffffffffffffffffffffffffffffffffffffff1681526020019081526020016000206000828254611a0c9190613aef565b925050819055506001600360008473ffffffffffffffffffffffffffffffffffffffff1673ffffffffffffffffffffffffffffffffffffffff1681526020019081526020016000206000828254611a6391906139d7565b92505081905550816002600083815260200190815260200160002060006101000a81548173ffffffffffffffffffffffffffffffffffffffff021916908373ffffffffffffffffffffffffffffffffffffffff160217905550808273ffffffffffffffffffffffffffffffffffffffff168473ffffffffffffffffffffffffffffffffffffffff167fddf252ad1be2c89b69c2b068fc378daa952ba7f163c4a11628f55a4df523b3ef60405160405180910390a4505050565b611b2581612083565b611b2f6009612194565b6000600a60008381526020019081526020016000208054611b4f90613be6565b905014611b7657600a60008281526020019081526020016000206000611b759190612805565b5b50565b6000600660009054906101000a900473ffffffffffffffffffffffffffffffffffffffff16905081600660006101000a81548173ffffffffffffffffffffffffffffffffffffffff021916908373ffffffffffffffffffffffffffffffffffffffff1602179055508173ffffffffffffffffffffffffffffffffffffffff168173ffffffffffffffffffffffffffffffffffffffff167f8be0079c531659141344cd1fd0a4f28419497f9722a3daafe3b4186f6b6457e060405160405180910390a35050565b8173ffffffffffffffffffffffffffffffffffffffff168373ffffffffffffffffffffffffffffffffffffffff161415611cae576040517f08c379a0000000000000000000000000000000000000000000000000000000008152600401611ca590613708565b60405180910390fd5b80600560008573ffffffffffffffffffffffffffffffffffffffff1673ffffffffffffffffffffffffffffffffffffffff16815260200190815260200160002060008473ffffffffffffffffffffffffffffffffffffffff1673ffffffffffffffffffffffffffffffffffffffff16815260200190815260200160002060006101000a81548160ff0219169083151502179055508173ffffffffffffffffffffffffffffffffffffffff168373ffffffffffffffffffffffffffffffffffffffff167f17307eab39ab6107e8899845ad3d59bd9653f200f220920489ca2b5937696c3183604051611d9f919061360b565b60405180910390a3505050565b611db78484846118c0565b611dc3848484846121f0565b611e02576040517f08c379a0000000000000000000000000000000000000000000000000000000008152600401611df990613688565b60405180910390fd5b50505050565b6060600c8054611e1790613be6565b80601f0160208091040260200160405190810160405280929190818152602001828054611e4390613be6565b8015611e905780601f10611e6557610100808354040283529160200191611e90565b820191906000526020600020905b815481529060010190602001808311611e7357829003601f168201915b5050505050905090565b6060611ea582611503565b611ee4576040517f08c379a0000000000000000000000000000000000000000000000000000000008152600401611edb90613828565b60405180910390fd5b6000611eee611e08565b90506000815111611f0e5760405180602001604052806000815250611f39565b80611f1884612387565b604051602001611f29929190613557565b6040516020818303038152906040525b915050919050565b60007f80ac58cd000000000000000000000000000000000000000000000000000000007bffffffffffffffffffffffffffffffffffffffffffffffffffffffff1916827bffffffffffffffffffffffffffffffffffffffffffffffffffffffff1916148061200c57507f5b5e139f000000000000000000000000000000000000000000000000000000007bffffffffffffffffffffffffffffffffffffffffffffffffffffffff1916827bffffffffffffffffffffffffffffffffffffffffffffffffffffffff1916145b8061201c575061201b82612534565b5b9050919050565b61202d838361259e565b61203a60008484846121f0565b612079576040517f08c379a000000000000000000000000000000000000000000000000000000000815260040161207090613688565b60405180910390fd5b505050565b505050565b600061208e82610c65565b905061209c8160008461207e565b6120a7600083611577565b6001600360008373ffffffffffffffffffffffffffffffffffffffff1673ffffffffffffffffffffffffffffffffffffffff16815260200190815260200160002060008282546120f79190613aef565b925050819055506002600083815260200190815260200160002060006101000a81549073ffffffffffffffffffffffffffffffffffffffff021916905581600073ffffffffffffffffffffffffffffffffffffffff168273ffffffffffffffffffffffffffffffffffffffff167fddf252ad1be2c89b69c2b068fc378daa952ba7f163c4a11628f55a4df523b3ef60405160405180910390a45050565b600081600001549050600081116121e0576040517f08c379a00000000000000000000000000000000000000000000000000000000081526004016121d790613668565b60405180910390fd5b6001810382600001819055505050565b60006122118473ffffffffffffffffffffffffffffffffffffffff1661276c565b1561237a578373ffffffffffffffffffffffffffffffffffffffff1663150b7a0261223a61156f565b8786866040518563ffffffff1660e01b815260040161225c9493929190613596565b602060405180830381600087803b15801561227657600080fd5b505af19250505080156122a757506040513d601f19601f820116820180604052508101906122a49190612b6b565b60015b61232a573d80600081146122d7576040519150601f19603f3d011682016040523d82523d6000602084013e6122dc565b606091505b50600081511415612322576040517f08c379a000000000000000000000000000000000000000000000000000000000815260040161231990613688565b60405180910390fd5b805181602001fd5b63150b7a0260e01b7bffffffffffffffffffffffffffffffffffffffffffffffffffffffff1916817bffffffffffffffffffffffffffffffffffffffffffffffffffffffff19161491505061237f565b600190505b949350505050565b606060008214156123cf576040518060400160405280600181526020017f3000000000000000000000000000000000000000000000000000000000000000815250905061252f565b600082905060005b600082146124015780806123ea90613c18565b915050600a826123fa9190613a64565b91506123d7565b60008167ffffffffffffffff811115612443577f4e487b7100000000000000000000000000000000000000000000000000000000600052604160045260246000fd5b6040519080825280601f01601f1916602001820160405280156124755781602001600182028036833780820191505090505b5090505b600085146125285760018261248e9190613aef565b9150600a8561249d9190613c61565b60306124a991906139d7565b60f81b8183815181106124e5577f4e487b7100000000000000000000000000000000000000000000000000000000600052603260045260246000fd5b60200101907effffffffffffffffffffffffffffffffffffffffffffffffffffffffffffff1916908160001a905350600a856125219190613a64565b9450612479565b8093505050505b919050565b60007f01ffc9a7000000000000000000000000000000000000000000000000000000007bffffffffffffffffffffffffffffffffffffffffffffffffffffffff1916827bffffffffffffffffffffffffffffffffffffffffffffffffffffffff1916149050919050565b600073ffffffffffffffffffffffffffffffffffffffff168273ffffffffffffffffffffffffffffffffffffffff16141561260e576040517f08c379a0000000000000000000000000000000000000000000000000000000008152600401612605906137a8565b60405180910390fd5b61261781611503565b15612657576040517f08c379a000000000000000000000000000000000000000000000000000000000815260040161264e906136c8565b60405180910390fd5b6126636000838361207e565b6001600360008473ffffffffffffffffffffffffffffffffffffffff1673ffffffffffffffffffffffffffffffffffffffff16815260200190815260200160002060008282546126b391906139d7565b92505081905550816002600083815260200190815260200160002060006101000a81548173ffffffffffffffffffffffffffffffffffffffff021916908373ffffffffffffffffffffffffffffffffffffffff160217905550808273ffffffffffffffffffffffffffffffffffffffff16600073ffffffffffffffffffffffffffffffffffffffff167fddf252ad1be2c89b69c2b068fc378daa952ba7f163c4a11628f55a4df523b3ef60405160405180910390a45050565b600080823b905060008111915050919050565b82805461278b90613be6565b90600052602060002090601f0160209004810192826127ad57600085556127f4565b82601f106127c657805160ff19168380011785556127f4565b828001600101855582156127f4579182015b828111156127f35782518255916020019190600101906127d8565b5b5090506128019190612845565b5090565b50805461281190613be6565b6000825580601f106128235750612842565b601f0160209004906000526020600020908101906128419190612845565b5b50565b5b8082111561285e576000816000905550600101612846565b5090565b600061287561287084613934565b613903565b90508281526020810184848401111561288d57600080fd5b612898848285613ba4565b509392505050565b60006128b36128ae84613964565b613903565b9050828152602081018484840111156128cb57600080fd5b6128d6848285613ba4565b509392505050565b6000813590506128ed81613d5f565b92915050565b60008135905061290281613d76565b92915050565b60008135905061291781613d8d565b92915050565b60008151905061292c81613d8d565b92915050565b600082601f83011261294357600080fd5b8135612953848260208601612862565b91505092915050565b600082601f83011261296d57600080fd5b813561297d8482602086016128a0565b91505092915050565b60008135905061299581613da4565b92915050565b6000602082840312156129ad57600080fd5b60006129bb848285016128de565b91505092915050565b600080604083850312156129d757600080fd5b60006129e5858286016128de565b92505060206129f6858286016128de565b9150509250929050565b600080600060608486031215612a1557600080fd5b6000612a23868287016128de565b9350506020612a34868287016128de565b9250506040612a4586828701612986565b9150509250925092565b60008060008060808587031215612a6557600080fd5b6000612a73878288016128de565b9450506020612a84878288016128de565b9350506040612a9587828801612986565b925050606085013567ffffffffffffffff811115612ab257600080fd5b612abe87828801612932565b91505092959194509250565b60008060408385031215612add57600080fd5b6000612aeb858286016128de565b9250506020612afc858286016128f3565b9150509250929050565b60008060408385031215612b1957600080fd5b6000612b27858286016128de565b9250506020612b3885828601612986565b9150509250929050565b600060208284031215612b5457600080fd5b6000612b6284828501612908565b91505092915050565b600060208284031215612b7d57600080fd5b6000612b8b8482850161291d565b91505092915050565b600060208284031215612ba657600080fd5b600082013567ffffffffffffffff811115612bc057600080fd5b612bcc8482850161295c565b91505092915050565b600080600060608486031215612bea57600080fd5b600084013567ffffffffffffffff811115612c0457600080fd5b612c108682870161295c565b9350506020612c2186828701612986565b9250506040612c3286828701612986565b9150509250925092565b60008060008060808587031215612c5257600080fd5b600085013567ffffffffffffffff811115612c6c57600080fd5b612c788782880161295c565b9450506020612c8987828801612986565b9350506040612c9a87828801612986565b9250506060612cab878288016128de565b91505092959194509250565b600060208284031215612cc957600080fd5b6000612cd784828501612986565b91505092915050565b60008060408385031215612cf357600080fd5b6000612d0185828601612986565b9250506020612d1285828601612986565b9150509250929050565b612d2581613b23565b82525050565b612d3481613b35565b82525050565b6000612d4582613994565b612d4f81856139aa565b9350612d5f818560208601613bb3565b612d6881613d4e565b840191505092915050565b6000612d7e8261399f565b612d8881856139bb565b9350612d98818560208601613bb3565b612da181613d4e565b840191505092915050565b6000612db78261399f565b612dc181856139cc565b9350612dd1818560208601613bb3565b80840191505092915050565b6000612dea601a836139bb565b91507f45524332393831526f79616c746965733a20546f6f20686967680000000000006000830152602082019050919050565b6000612e2a601b836139bb565b91507f436f756e7465723a2064656372656d656e74206f766572666c6f7700000000006000830152602082019050919050565b6000612e6a6032836139bb565b91507f4552433732313a207472616e7366657220746f206e6f6e20455243373231526560008301527f63656976657220696d706c656d656e74657200000000000000000000000000006020830152604082019050919050565b6000612ed06026836139bb565b91507f4f776e61626c653a206e6577206f776e657220697320746865207a65726f206160008301527f64647265737300000000000000000000000000000000000000000000000000006020830152604082019050919050565b6000612f36601c836139bb565b91507f4552433732313a20746f6b656e20616c7265616479206d696e746564000000006000830152602082019050919050565b6000612f766024836139bb565b91507f4552433732313a207472616e7366657220746f20746865207a65726f2061646460008301527f72657373000000000000000000000000000000000000000000000000000000006020830152604082019050919050565b6000612fdc6019836139bb565b91507f4552433732313a20617070726f766520746f2063616c6c6572000000000000006000830152602082019050919050565b600061301c602c836139bb565b91507f4552433732313a206f70657261746f7220717565727920666f72206e6f6e657860008301527f697374656e7420746f6b656e00000000000000000000000000000000000000006020830152604082019050919050565b60006130826038836139bb565b91507f4552433732313a20617070726f76652063616c6c6572206973206e6f74206f7760008301527f6e6572206e6f7220617070726f76656420666f7220616c6c00000000000000006020830152604082019050919050565b60006130e8602a836139bb565b91507f4552433732313a2062616c616e636520717565727920666f7220746865207a6560008301527f726f2061646472657373000000000000000000000000000000000000000000006020830152604082019050919050565b600061314e6029836139bb565b91507f4552433732313a206f776e657220717565727920666f72206e6f6e657869737460008301527f656e7420746f6b656e00000000000000000000000000000000000000000000006020830152604082019050919050565b60006131b46020836139bb565b91507f4552433732313a206d696e7420746f20746865207a65726f20616464726573736000830152602082019050919050565b60006131f4602c836139bb565b91507f4552433732313a20617070726f76656420717565727920666f72206e6f6e657860008301527f697374656e7420746f6b656e00000000000000000000000000000000000000006020830152604082019050919050565b600061325a6020836139bb565b91507f4f776e61626c653a2063616c6c6572206973206e6f7420746865206f776e65726000830152602082019050919050565b600061329a6029836139bb565b91507f4552433732313a207472616e73666572206f6620746f6b656e2074686174206960008301527f73206e6f74206f776e00000000000000000000000000000000000000000000006020830152604082019050919050565b6000613300602f836139bb565b91507f4552433732314d657461646174613a2055524920717565727920666f72206e6f60008301527f6e6578697374656e7420746f6b656e00000000000000000000000000000000006020830152604082019050919050565b60006133666021836139bb565b91507f4552433732313a20617070726f76616c20746f2063757272656e74206f776e6560008301527f72000000000000000000000000000000000000000000000000000000000000006020830152604082019050919050565b60006133cc6018836139bb565b91507f6e6f74206d6f7265207468616e203230206174206f6e636500000000000000006000830152602082019050919050565b600061340c6031836139bb565b91507f4552433732313a207472616e736665722063616c6c6572206973206e6f74206f60008301527f776e6572206e6f7220617070726f7665640000000000000000000000000000006020830152604082019050919050565b60006134726024836139bb565b91507f4552433732313a2055524920736574206f66206e6f6e6578697374656e74207460008301527f6f6b656e000000000000000000000000000000000000000000000000000000006020830152604082019050919050565b60006134d86027836139bb565b91507f4552433732313a2055524920717565727920666f72206e6f6e6578697374656e60008301527f7420746f6b656e000000000000000000000000000000000000000000000000006020830152604082019050919050565b61353a81613b8d565b82525050565b600061354c8284612dac565b915081905092915050565b60006135638285612dac565b915061356f8284612dac565b91508190509392505050565b60006020820190506135906000830184612d1c565b92915050565b60006080820190506135ab6000830187612d1c565b6135b86020830186612d1c565b6135c56040830185613531565b81810360608301526135d78184612d3a565b905095945050505050565b60006040820190506135f76000830185612d1c565b6136046020830184613531565b9392505050565b60006020820190506136206000830184612d2b565b92915050565b600060208201905081810360008301526136408184612d73565b905092915050565b6000602082019050818103600083015261366181612ddd565b9050919050565b6000602082019050818103600083015261368181612e1d565b9050919050565b600060208201905081810360008301526136a181612e5d565b9050919050565b600060208201905081810360008301526136c181612ec3565b9050919050565b600060208201905081810360008301526136e181612f29565b9050919050565b6000602082019050818103600083015261370181612f69565b9050919050565b6000602082019050818103600083015261372181612fcf565b9050919050565b600060208201905081810360008301526137418161300f565b9050919050565b6000602082019050818103600083015261376181613075565b9050919050565b60006020820190508181036000830152613781816130db565b9050919050565b600060208201905081810360008301526137a181613141565b9050919050565b600060208201905081810360008301526137c1816131a7565b9050919050565b600060208201905081810360008301526137e1816131e7565b9050919050565b600060208201905081810360008301526138018161324d565b9050919050565b600060208201905081810360008301526138218161328d565b9050919050565b60006020820190508181036000830152613841816132f3565b9050919050565b6000602082019050818103600083015261386181613359565b9050919050565b60006020820190508181036000830152613881816133bf565b9050919050565b600060208201905081810360008301526138a1816133ff565b9050919050565b600060208201905081810360008301526138c181613465565b9050919050565b600060208201905081810360008301526138e1816134cb565b9050919050565b60006020820190506138fd6000830184613531565b92915050565b6000604051905081810181811067ffffffffffffffff8211171561392a57613929613d1f565b5b8060405250919050565b600067ffffffffffffffff82111561394f5761394e613d1f565b5b601f19601f8301169050602081019050919050565b600067ffffffffffffffff82111561397f5761397e613d1f565b5b601f19601f8301169050602081019050919050565b600081519050919050565b600081519050919050565b600082825260208201905092915050565b600082825260208201905092915050565b600081905092915050565b60006139e282613b8d565b91506139ed83613b8d565b9250827fffffffffffffffffffffffffffffffffffffffffffffffffffffffffffffffff03821115613a2257613a21613c92565b5b828201905092915050565b6000613a3882613b97565b9150613a4383613b97565b92508260ff03821115613a5957613a58613c92565b5b828201905092915050565b6000613a6f82613b8d565b9150613a7a83613b8d565b925082613a8a57613a89613cc1565b5b828204905092915050565b6000613aa082613b8d565b9150613aab83613b8d565b9250817fffffffffffffffffffffffffffffffffffffffffffffffffffffffffffffffff0483118215151615613ae457613ae3613c92565b5b828202905092915050565b6000613afa82613b8d565b9150613b0583613b8d565b925082821015613b1857613b17613c92565b5b828203905092915050565b6000613b2e82613b6d565b9050919050565b60008115159050919050565b60007fffffffff0000000000000000000000000000000000000000000000000000000082169050919050565b600073ffffffffffffffffffffffffffffffffffffffff82169050919050565b6000819050919050565b600060ff82169050919050565b82818337600083830152505050565b60005b83811015613bd1578082015181840152602081019050613bb6565b83811115613be0576000848401525b50505050565b60006002820490506001821680613bfe57607f821691505b60208210811415613c1257613c11613cf0565b5b50919050565b6000613c2382613b8d565b91507fffffffffffffffffffffffffffffffffffffffffffffffffffffffffffffffff821415613c5657613c55613c92565b5b600182019050919050565b6000613c6c82613b8d565b9150613c7783613b8d565b925082613c8757613c86613cc1565b5b828206905092915050565b7f4e487b7100000000000000000000000000000000000000000000000000000000600052601160045260246000fd5b7f4e487b7100000000000000000000000000000000000000000000000000000000600052601260045260246000fd5b7f4e487b7100000000000000000000000000000000000000000000000000000000600052602260045260246000fd5b7f4e487b7100000000000000000000000000000000000000000000000000000000600052604160045260246000fd5b6000601f19601f8301169050919050565b613d6881613b23565b8114613d7357600080fd5b50565b613d7f81613b35565b8114613d8a57600080fd5b50565b613d9681613b41565b8114613da157600080fd5b50565b613dad81613b8d565b8114613db857600080fd5b5056fe697066733a2f2f516d506573436431634a786e6241696b6a616f4c79345548694c5a7166776273436156567a62536d335a5679414aa2646970667358221220cb0f936f67cfa96ac4997574985d43d256893fb0790bfa6b661048025fd970f864736f6c63430008000033",
  "immutableReferences": {},
  "source": "// SPDX-License-Identifier: MIT\r\n//pragma solidity >=0.4.22 <0.9.0;\r\npragma solidity ^0.8.0;\r\n\r\nimport \"@openzeppelin/contracts/token/ERC721/ERC721.sol\";\r\nimport \"@openzeppelin/contracts/utils/Counters.sol\";\r\nimport \"@openzeppelin/contracts/access/Ownable.sol\";\r\nimport \"./ERC2981Royalty.sol\";\r\n\r\n//TODO ADD METADATA FREEZING\r\n\r\n//https://github.com/neha01/nft-demo/blob/master/contracts/ArtCollectible.sol ref\r\n//https://forum.openzeppelin.com/t/function-settokenuri-in-erc721-is-gone-with-pragma-0-8-0/5978/3 another ref\r\ncontract Souvenir is ERC721, Ownable, ERC2981Royalty{\r\n    using Strings for uint256;\r\n    using Counters for Counters.Counter;\r\n\r\n    Counters.Counter private _tokenIds;\r\n    Counters.Counter private _tokenSupply;\r\n\r\n    // copied from ERC721URIStorage.sol (OpenZeppelin)\r\n    // mapping between tokenURIs and tokenIDs\r\n    mapping(uint256 => string) private _tokenURIs;\r\n\r\n    // used to regulate how many copies of one NFT should exist\r\n    mapping(string => uint8) private _hashes;\r\n\r\n    // amount of possible copies of one NFT\r\n    uint8 private constant MAX_AMOUNT_OF_COPIES = 100;\r\n\r\n    // Base URI\r\n    string private _baseURIExtended = \"ipfs://\";\r\n\r\n    // address that receives royalty fees\r\n    address private _royaltyRecipient;\r\n\r\n    // constructor with name and symbol of nft\r\n    // setting the owner to receive royalties\r\n    constructor() ERC721(\"Souvenir\",\"SVN\"){\r\n        _royaltyRecipient = owner();\r\n    }\r\n\r\n\r\n\r\n    // function to validate interfaces\r\n    // used by marketplaces and other smart contracts in order to figure out if the contract followed the standards\r\n    function supportsInterface(bytes4 interfaceId)\r\n    public\r\n    view\r\n    virtual\r\n    override(ERC721, ERC2981Base)\r\n    returns (bool)\r\n    {\r\n        return super.supportsInterface(interfaceId);\r\n    }\r\n\r\n    // returns the amount of total NFTs minted (created)\r\n    function totalSupply() public view returns (uint256) {\r\n        return _tokenSupply.current();\r\n    }\r\n\r\n    // collection representation\r\n    // marketplaces use this function in order to assign the NFT-tokens to this collection\r\n    // pure is a keyword, which ensures that the function doesnt view nor modify the state\r\n    function contractURI() public pure returns (string memory) {\r\n        return \"ipfs://QmPesCd1cJxnbAikjaoLy4UHiLZqfwbsCaVVzbSm3ZVyAJ\"; // collection json ipfs\r\n    }\r\n\r\n    // setter for baseURI\r\n    // default is \"ipfs://\"\r\n    function setBaseURI(string memory baseURI_)\r\n    external\r\n    onlyOwner\r\n    {\r\n        _baseURIExtended = baseURI_;\r\n    }\r\n\r\n\r\n    // view is a keyword, which ensures that the function can view but not modify the state\r\n    function _baseURI()\r\n    internal\r\n    view\r\n    virtual\r\n    override\r\n    returns (string memory)\r\n    {\r\n        return _baseURIExtended;\r\n    }\r\n\r\n    // setter for royalty recipient\r\n    function setRoyaltyRecipient(address royaltyRecipient_)\r\n    external\r\n    onlyOwner\r\n    {\r\n        _royaltyRecipient = royaltyRecipient_;\r\n    }\r\n\r\n    // copied from ERC721URIStorage.sol (OpenZeppelin)\r\n    // internal setter for TokenURI\r\n    function _setTokenURI(uint256 tokenId, string memory _tokenURI) internal virtual {\r\n        require(_exists(tokenId), \"ERC721: URI set of nonexistent token\");\r\n        _tokenURIs[tokenId] = _tokenURI;\r\n    }\r\n\r\n    // copied from ERC721URIStorage.sol (OpenZeppelin)\r\n    // internal burn _function\r\n    function _burn(uint256 tokenId) internal virtual override {\r\n        super._burn(tokenId);\r\n        _tokenSupply.decrement();\r\n        if (bytes(_tokenURIs[tokenId]).length != 0) {\r\n            delete _tokenURIs[tokenId];\r\n        }\r\n    }\r\n\r\n    // burns (destroys) a token.\r\n    function burn(uint256 tokenId) external onlyOwner{\r\n        _burn(tokenId);\r\n    }\r\n    //royalty recipient getter\r\n    function royaltyRecipient() public view virtual returns (address) {\r\n        return _royaltyRecipient;\r\n    }\r\n\r\n    // copied from ERC721URIStorage.sol (OpenZeppelin)\r\n    // tokenURI getter\r\n    function tokenURI(uint256 tokenId) public view virtual override returns (string memory) {\r\n        require(_exists(tokenId), \"ERC721: URI query for nonexistent token\");\r\n\r\n        string memory _tokenURI = _tokenURIs[tokenId];\r\n        string memory base = _baseURI();\r\n\r\n        // If there is no base URI, return the token URI.\r\n        if (bytes(base).length == 0) {\r\n            return _tokenURI;\r\n        }\r\n        // If both are set, concatenate the baseURI and tokenURI (via abi.encodePacked).\r\n        if (bytes(_tokenURI).length > 0) {\r\n            return string(abi.encodePacked(base, _tokenURI));\r\n        }\r\n\r\n        return super.tokenURI(tokenId);\r\n    }\r\n\r\n\r\n    // mints \"numberOfTokens\" to account who called this function.\r\n    // value percentage (using 2 decimals - 10000 = 100, 0 = 0)\r\n    // numberOfTokens limited to 20 at once\r\n    // max copies of one nft is 100\r\n    function mint(string memory tokenHash, uint256 numberOfTokens, uint256 royaltyAmount)\r\n    external\r\n    onlyOwner\r\n    {\r\n        require(numberOfTokens<=20, \"not more than 20 at once\");\r\n        require(_hashes[tokenHash]<= MAX_AMOUNT_OF_COPIES);\r\n\r\n        for(uint256 i=0; i < numberOfTokens; i++){\r\n            _hashes[tokenHash] = _hashes[tokenHash] + 1;\r\n            _tokenIds.increment();\r\n            _tokenSupply.increment();\r\n            uint256 newTokenId = _tokenIds.current();\r\n            _safeMint(msg.sender, newTokenId);\r\n            _setTokenURI(newTokenId, tokenHash);\r\n            if (royaltyAmount > 0) {\r\n                _setTokenRoyalty(newTokenId, _royaltyRecipient, royaltyAmount);\r\n            }\r\n        }\r\n\r\n    }\r\n\r\n    // mints nft to 'receiver'\r\n    function mint(string memory tokenHash, uint256 numberOfTokens, uint256 royaltyAmount, address receiver)\r\n    external\r\n    onlyOwner\r\n    {\r\n        require(numberOfTokens<=20, \"not more than 20 at once\");\r\n        require(_hashes[tokenHash]<= MAX_AMOUNT_OF_COPIES);\r\n\r\n        for(uint256 i=0; i < numberOfTokens; i++){\r\n            _hashes[tokenHash] = _hashes[tokenHash] + 1;\r\n            _tokenIds.increment();\r\n            _tokenSupply.increment();\r\n            uint256 newTokenId = _tokenIds.current();\r\n            _safeMint(receiver, newTokenId);\r\n            _setTokenURI(newTokenId, tokenHash);\r\n            if (royaltyAmount > 0) {\r\n                _setTokenRoyalty(newTokenId, _royaltyRecipient, royaltyAmount);\r\n            }\r\n        }\r\n\r\n    }\r\n\r\n\r\n}",
  "sourcePath": "C:\\Users\\Joey\\Desktop\\BA\\souvenir-minter\\src\\contracts\\Souvenir.sol",
  "compiler": {
    "name": "solc",
    "version": "0.8.0+commit.c7dfd78e.Emscripten.clang"
  },
  "schemaVersion": "3.4.3",
  "updatedAt": "2022-02-02T13:12:59.986Z",
  "networkType": "ethereum",
  "devdoc": {
    "kind": "dev",
    "methods": {
      "approve(address,uint256)": {
        "details": "See {IERC721-approve}."
      },
      "balanceOf(address)": {
        "details": "See {IERC721-balanceOf}."
      },
      "getApproved(uint256)": {
        "details": "See {IERC721-getApproved}."
      },
      "isApprovedForAll(address,address)": {
        "details": "See {IERC721-isApprovedForAll}."
      },
      "name()": {
        "details": "See {IERC721Metadata-name}."
      },
      "owner()": {
        "details": "Returns the address of the current owner."
      },
      "ownerOf(uint256)": {
        "details": "See {IERC721-ownerOf}."
      },
      "renounceOwnership()": {
        "details": "Leaves the contract without owner. It will not be possible to call `onlyOwner` functions anymore. Can only be called by the current owner. NOTE: Renouncing ownership will leave the contract without an owner, thereby removing any functionality that is only available to the owner."
      },
      "royaltyInfo(uint256,uint256)": {
        "params": {
          "_tokenId": "- the NFT asset queried for royalty information",
          "_value": "- the sale price of the NFT asset specified by _tokenId"
        },
        "returns": {
          "receiver": "- address of who should be sent the royalty payment",
          "royaltyAmount": "- the royalty payment amount for value sale price"
        }
      },
      "safeTransferFrom(address,address,uint256)": {
        "details": "See {IERC721-safeTransferFrom}."
      },
      "safeTransferFrom(address,address,uint256,bytes)": {
        "details": "See {IERC721-safeTransferFrom}."
      },
      "setApprovalForAll(address,bool)": {
        "details": "See {IERC721-setApprovalForAll}."
      },
      "symbol()": {
        "details": "See {IERC721Metadata-symbol}."
      },
      "tokenURI(uint256)": {
        "details": "See {IERC721Metadata-tokenURI}."
      },
      "transferFrom(address,address,uint256)": {
        "details": "See {IERC721-transferFrom}."
      },
      "transferOwnership(address)": {
        "details": "Transfers ownership of the contract to a new account (`newOwner`). Can only be called by the current owner."
      }
    },
    "version": 1
  },
  "userdoc": {
    "kind": "user",
    "methods": {},
    "version": 1
  }
}